:100000000C94E2020C9429030C9429030C94290308
:100010000C9429030C9429030C9429030C942903B0
:100020000C9429030C9429030C94D11F0C948D1F5C
:100030000C94F8230C9429030C9429030C942903A1
:100040000C9429030C9429030C9429030C94290380
:100050000C9429030C94D4230C9429030C942903A5
:100060000C9429030C9429030C9429030C94290360
:100070000C9429030C9429030C9429030C94290350
:100080000C9429030C9429030C9429030C94290340
:100090000C9429030C9429030C9429030C94290330
:1000A0000C9429030C9429030C94290300010101E9
:1000B0000101010101010202020202020202020325
:1000C00003030303030303040404040404040505F5
:1000D00005050506060606060707070707080808B8
:1000E00008090909090A0A0A0B0B0B0C0C0C0D0D67
:1000F0000D0E0E0E0F0F0F101011111112121313FF
:100100001414151516161717181819191A1A1B1B77
:100110001C1D1D1E1E1F20202122222324242526D3
:1001200026272829292A2B2C2D2D2E2F303132320B
:10013000333435363738393A3B3C3D3E3F40414217
:10014000434445464748494A4C4D4E4F50515354FD
:10015000555658595A5B5D5E5F61626465666869B1
:100160006B6C6D6F7072737577787A7B7D7E808231
:10017000838587888A8C8E8F91939596989A9C9E7A
:10018000A0A2A3A5A7A9ABADAFB1B3B5B7BABCBE8A
:10019000C0C2C4C6C9CBCDCFD1D4D6D8DBDDDFE257
:1001A000E4E7E9EBEEF0F3F5F8FAFDFFFFAA7F557F
:1001B000402223252628292A2C2D2F30323335366C
:1001C000383A3B3D3E4042434547494A4C4E5051E8
:1001D000535557595A5C5E6062646668696B6D6F0F
:1001E00071737577797B7D7F81838587898A8C8E12
:1001F00090929496989A9C9E9FA1A3A5A7A8AAAC1A
:10020000AEAFB1B3B4B6B8B9BBBCBEBFC1C2C3C553
:10021000C6C7C9CACBCCCDCED0D1D2D2D3D4D5D6F5
:10022000D7D7D8D9D9DADADBDBDBDCDCDCDCDCDD28
:10023000DDDDDDDCDCDCDCDCDBDBDBDADAD9D9D80C
:10024000D7D7D6D5D4D3D2D2D1D0CECDCCCBCAC9A4
:10025000C7C6C5C3C2C1BFBEBCBBB9B8B6B4B3B1D3
:10026000AFAEACAAA8A7A5A3A19F9E9C9A9896946E
:1002700092908E8C8A89878583817F7D7B79777543
:1002800073716F6D6B6968666462605E5C5A595722
:10029000555351504E4C4A4947454342403E3D3BE1
:1002A0003A3836353332302F2D2C2A29282625236B
:1002B0002229003B003D003F004100000044002790
:1002C0000047003A003C003E004000420043004529
:1002D000004600480035001F0021002300250027AC
:1002E000002E002A004A001E0020002200240026C2
:1002F000002D002A0049004B002B001A0015001C9D
:10030000000C001300300000004D0014000800171E
:1003100000180012002F0031004C004E003900166A
:100320000009000B000E0033003200000000000442
:100330000007000A000D000F003400280000000034
:1003400000E1001D000600050010003700E5000078
:1003500000520064001B0019001100360038000133
:100360000000000000E000E200000000000000E6E5
:1003700000E70000005100E300000000002C000036
:10038000000151E40050004F00010001000100C3D2
:100390005CC55C0000CA5C0100BD5C01000100C2DC
:1003A0005CC65CC85CC75CC95CBF5CBE5C0100012C
:1003B0000001000100010001000100010001000135
:1003C000000100010001000100010001000100A97D
:1003D0000001000100005C010001000100010000BB
:1003E00000AB00010001000100010001000100015B
:1003F00000AE00AA0001000100010001000100019F
:1004000000010000000000010001000100010001E6
:1004100000010001000000000001000100010001D6
:1004200000010001000100000001000100010001C5
:1004300000010001000100010000000000010001B6
:1004400000000000000000010001000000010001A8
:100450000000000000010000000100010001000197
:100460000000047F3F1F643214643214783C1E1E67
:10047000140A0505010902A10185020901A100056F
:1004800009190129051500250195057501810295B8
:1004900001750381010501093009311581257F9519
:1004A000027508810609381581257F950175088137
:1004B00006050C0A38021581257F9501750881060D
:1004C000C0C005010980A10185031A81002A8300AB
:1004D000160100260300950175108100C0050C0966
:1004E00001A10185041A01002A9C02160100269C24
:1004F00002950175108100C005010906A1010507DB
:1005000019E029E71500250195087501810295017B
:10051000750881010507190029FF150026FF0095C0
:1005200006750881000508190129059505750191D1
:1005300002950175039101C009023B00020100A070
:10054000FA09040000010301010009211101000161
:100550002240000705810308000A09040100010385
:100560000000000921110100012285000705820316
:1005700020000A1201100100000008D804A2EC01BA
:100580000001020301040330000000080368003882
:1005900000380000002803680069006E00650079DB
:1005A00000620075007300680020006B0065007930
:1005B0000062006F006100720064007300000004BC
:1005C0000309040011241FBECFEFDAE0DEBFCDBF68
:1005D00004B603FE27C08091C2029091C302A0918D
:1005E000C402B091C5028730904BA740B04BD1F404
:1005F0001092C2021092C3021092C4021092C5025D
:1006000014BE84B7877F84BF0FB6F894A8958091F5
:100610006000886180936000109260000FBEE0E08F
:10062000F8E3099511E0A0E0B1E0E8E8FAE402C0DF
:1006300005900D92A235B107D9F722E0A2E5B1E00D
:1006400001C01D92A23CB207E1F70E94C1200C94A8
:1006500008250C940000E8EDF0E080818E7F808317
:100660001092E2001092DA001092E100A0EEB0E0E9
:100670008C9181608C9380818F77808319BCA7EDEA
:10068000B0E08C918E7F8C9380818F7E80831092DE
:10069000A40208952091E4003091E50095E6A901B7
:1006A0002091EC00822F817020FF06C08091E8002D
:1006B00080FF06C080E008952091E80022FD1AC066
:1006C0008091B802882389F0853089F08091EB0011
:1006D00085FD0FC02091E4003091E50042175307DB
:1006E000F9F29150E1F684E0089582E0089583E004
:1006F000089581E00895EF92FF920F931F93CF9397
:100700007C018B010E944A03C82F811117C0809180
:10071000E80085FD0BC08091E8008E778093E800AB
:100720000E944A03882399F3C82F08C0F7018191DA
:100730007F018093F1000150110949F78C2FCF916F
:100740001F910F91FF90EF9008958091BA0287FF5B
:1007500013C08091E80082FF06C08091E8008B778B
:100760008093E80004C08091B8028111F2CF08950F
:100770008091B8028823D9F38091E80080FFF8CFF8
:100780008091E8008E77ECCF982F9093E900242F8A
:10079000762F50E0891731F07091EC002091ED0038
:1007A0005091F00021FD07C09F5F973071F7809353
:1007B000E90081E008953091EB003E7F3093EB003B
:1007C0003091ED003D7F3093ED003091EB003160D2
:1007D0003093EB007093EC002093ED005093F00009
:1007E0002091EE0027FDE0CF80E00895CF92DF92C8
:1007F000EF92FF920F931F93CF93DF93C8EDD0E05A
:1008000088818F7E8883E7EDF0E08081816080833E
:1008100084E082BF81E08093A40288818E7F8883F8
:1008200002EE10E0F80110821092DA0081EEC82E7C
:10083000D12CF601108288818F7788838881806827
:10084000888388818F7D888319BC1092B8021092AA
:10085000B9021092B7021092B60290EEE92EF12C76
:10086000F70180818B7F808388818160888342E06B
:1008700060E080E00E94C403F60180818E7F808367
:10088000F801808181608083808188608083F701A6
:1008900080818E7F8083888180618883DF91CF9182
:1008A0001F910F91FF90EF90DF90CF900895FC0182
:1008B0008091C0029091C10286179707A0F0611540
:1008C000710529F49091E8009E779093E80090E0FC
:1008D0006115710551F4911108C08091E80082FF03
:1008E00034C080E00895BC01F2CF8091B802882323
:1008F000C1F18530C1F18091E80083FD30C0809165
:10090000E80082FDEACF8091E80080FFE1CF80918E
:10091000F3002091F200382F6115710519F028308D
:10092000310558F091E02830310509F090E0209130
:10093000E8002E772093E800CBCF81918093F100DF
:10094000615071092F5F3F4FE7CF8091B802882334
:1009500041F0853041F08091E80083FFBECF81E017
:10096000089582E0089583E008958091B80284306C
:1009700011F482E0089581E0089508958091AD0218
:10098000089590917B02803F41F480917C0287FD25
:1009900010927C02992371F00895813F29F480918F
:1009A0007C021816ACF3F6CF823F81F497FFF2CFAA
:1009B00010927B0280917C0290917D02892B909114
:1009C0007E02892B49F710927F020895833F19F424
:1009D000191674F3DFCF893F39F480917D02181620
:1009E000CCF610927D02D6CF8A3F29F480917D0209
:1009F00087FFD0CFF6CF8B3F39F480917E0287FFFF
:100A0000C9CF10927E02C6CF8C3F29F480917E021E
:100A10001816BCF3BFCF843F31F480917A028E7FE9
:100A200080937A02B7CF853F21F480917A028D7F3F
:100A3000F7CF863F21F480917A028B7FF1CF873FF9
:100A400021F480917A02877FEBCF883F21F4809157
:100A50007A028F7EE5CF8D3F31F4809142028E7F06
:100A60008093420297CF8E3F21F4809142028D7F86
:100A7000F7CF8F3F09F08ECF809142028B7FF0CF6E
:100A80008091420280FD16C081FD16C082FD16C015
:100A900080917F028823A1F0883280F428E0829F31
:100AA000C001112468E270E00E945124862F672B58
:100AB00039F0089582E0089584E0089588E008956B
:100AC00081E008958091420280FD14C081FD14C030
:100AD00082FD16C080917F02882381F0843180F4EA
:100AE00022E3829FC001112464E170E00E9451243E
:100AF000862F08958CE0089589E1089585E0089592
:100B000082E30895803F31F40E94620581958093CD
:100B10007C020895813F19F40E946205F8CF823F5C
:100B200031F40E946205819580937B020895833F92
:100B300019F40E946205F8CF893F29F40E9440050C
:100B400080937D0208958A3F21F40E94400581959B
:100B5000F7CF8B3F31F40E944005819580937E0250
:100B600008958C3F19F40E944005F8CF843F31F47A
:100B700080917A02816080937A020895853F21F402
:100B800080917A028260F7CF863F21F480917A02C9
:100B90008460F1CF873F21F480917A028860EBCFA7
:100BA000883F21F480917A028061E5CF8D3F31F456
:100BB0008091420281608093420208958E3F21F429
:100BC000809142028260F7CF8F3FB9F78091420255
:100BD0008460F1CFCF92DF92EF92FF920F931F9339
:100BE0002FB7F89440913E0250913F02609140022D
:100BF000709141022FBF6A017B01EE24FF248C011A
:100C000030E020E0C016D106E206F30650F0481BA3
:100C1000590BCA011F910F91FF90EF90DF90CF9079
:100C2000089541505109F3CF2FB7F89480913E02B7
:100C300090913F02A0914002B09141022FBF0895D0
:100C4000E0915E02F0915F02309749F082E080937C
:100C500079020480F581E02D89E792E009950E94F0
:100C60001406909381028093800208958091390246
:100C700081111092390208958091380290913702C3
:100C8000892B90913602892B8093520190913902E1
:100C9000992391F0892B8093520120E084E591E023
:100CA000FC013191CF0131112F5FF1E08A359F07AF
:100CB000B9F721110E943606E0915E02F0915F02C1
:100CC000309731F00280F381E02D82E591E00994C4
:100CD0000895E4E5F1E09191891303C0DF011197D4
:100CE0001C9291E0EA35F907B1F70895A4E5B1E067
:100CF000EFEF90E02D91821751F0EF3F19F42111A1
:100D000001C0E92F9F5F9630A9F7EF3F09F40895DE
:100D10000E2E000CFF0BEE5AFE4F8283089529E041
:100D2000929F800D1124982F9770869586958695B1
:100D300025E0829FF0011124E551FE4F50E040E094
:100D400080E0219130E0092E02C0369527950A9463
:100D5000E2F721703327042E01C0220F0A94EAF72C
:100D6000822B4F5F5F4F4530510559F7089529E0B9
:100D7000929F800D1124982F977041E001C0440F7D
:100D80009A95EAF786958695869595E0899FF00174
:100D90001124E551FE4F90E080E070E05191DF01B9
:100DA00011979B01082E02C0369527950A94E2F709
:100DB000217021952527242325272C930196853002
:100DC000910561F708958091EA019091B901981316
:100DD00001C008958F5F8770FACF882341F0809516
:100DE000909138028923809338020C943C06089530
:100DF000882339F090913802982B909338020C9404
:100E00003C0608952091AC013091AD0128173907B7
:100E100071F09093AD018093AC01E0915E02F0918E
:100E20005F02309721F00084F185E02D0994089548
:100E30002091AA013091AB012817390771F09093E6
:100E4000AB018093AA01E0915E02F0915F023097BE
:100E500021F00680F781E02D099408951092370261
:100E6000109236020E943C0686E0E9E7F2E0DF01DC
:100E70001D928A95E9F710927F02109242020E9419
:100E8000200690E080E00E94180790E080E00C943B
:100E90000207609331027093320280933302909381
:100EA00034020C942E070F931F9341E050E060E052
:100EB00070E004C0440F551F661F771F8A95D2F754
:100EC000CB01BA01609570958095909500913102A3
:100ED0001091320220913302309134026023712349
:100EE000822393231F910F910C944907909135020F
:100EF0008095892380933502282F277071F4282F3D
:100F0000082E000C330B9217130639F08595859542
:100F100085950E9453071092350208950F931F93F1
:100F200041E050E060E070E004C0440F551F661FD0
:100F3000771F8A95D2F78091310290913202A09169
:100F40003302B09134028A019B01082B192B2A2B02
:100F50003B2BC901B8011F910F910C944907609375
:100F60003A0270933B0280933C0290933D020C94B2
:100F70002E07E0915E02F0915F02309721F0019020
:100F8000F081E02D099480E00895882309F459C088
:100F9000823871F40E94B90781FF53C089E30E942F
:100FA00076060E943C0689E30E9469060C943C0682
:100FB000833859F40E94B90780FF43C083E50E943B
:100FC00076060E943C0683E5EFCF843859F40E94F0
:100FD000B90782FF36C087E40E9476060E943C066D
:100FE00087E4E2CF9CEF980F913AF0F290E2980FED
:100FF000983088F4877021E030E0A90102C0440FE6
:10100000551F8A95E2F7CA0180959091380289238D
:1010100080933802CBCF9BE5980F933020F490E07B
:1010200080E00C94180798E5980F973120F490E031
:1010300080E00C940207803F20F00E94C1040C94D1
:1010400020060895CF92DF92EF92FF92843028F528
:10105000811124C090918000977F90938000282F69
:1010600030E0AFEFBFEF0E948D2423E030E040E09E
:1010700050E00E946524C9012C3764E1360790F4E2
:1010800069E070E00E943D2470938D0060938C00B5
:10109000FF90EF90DF90CF90089583E090918000D3
:1010A0009860DBCF2A50374D4F4F5F4F942F832FDF
:1010B000722F662725EF38E241E050E00E94652458
:1010C00069017A01CA01B9010E941F249B01AC0188
:1010D000C701B6010E941F24672F782F892F9927F7
:1010E0006115710521E08207910571F66FEF7FEFC1
:1010F000CBCFFA01811101C0FB0109948091A502B7
:10110000982F9E7F29F4817082608093A5020895B4
:101110008A34E8F381708864F8CFAF92BF92DF928F
:10112000EF92FF920F931F93CF93DF93082F162F09
:10113000E901E42FF0E0E455FF4F611110C0E491A4
:101140005E2F4E2F4983E8835A83DF91CF911F9101
:101150000F91FF90EF90DF90BF90AF900895E62E33
:10116000F12C4491D42EE42FF0E026E0829FC001C0
:1011700011242FEF30E0B9010E943D24802F90E030
:10118000880F991F55E5569FD001579FB00D112428
:101190008A1B9B0B982F990F890F5901AE18BF0816
:1011A000AE9ED001AF9EB00DBE9EB00D11245B2F40
:1011B000189F80011124012F11275901A01AB10A8B
:1011C000AE9E8001AF9E100DBE9E100D11245901E0
:1011D000A81AB108AE9CC001AF9C900DBE9C900DAA
:1011E0001124892F9927281B390B2E9FC0012F9F6F
:1011F000900D3E9F900D1124E92F62307105A1F0F2
:1012000050F46115710509F49DCF6130710581F0CD
:10121000EB2F512F97CF6430710569F080F0663065
:10122000710509F48FCFF4CFE42F4B2F592F8ACFBC
:10123000E42F412F87CFEB2F542F492F83CF4B2FF4
:101240005D2DE12F7FCF90915B0292FF06C0282F8A
:1012500028712830F9F4877F846093FF06C0282F17
:1012600028712831F1F4877E846120915C0220FF8F
:1012700006C0382F38713830D9F4877F816021FF5C
:1012800006C0282F28712831D1F4877E816194FD12
:10129000877E0895282F24712430F9F68B7F88608B
:1012A000DCCF282F2471243101F78B7E8861DDCFBC
:1012B000382F3171313019F78E7F8860E0CF282FB9
:1012C0002171213121F78E7E8861E1CFCF93DF93A9
:1012D000972F70E029E0929F600D711D1124FB0192
:1012E0003CE6839FE00DF11D1124EE0FFF1FEF542C
:1012F000FD4FC591D491CE01C238D105D1F108F08E
:101300003FC0C133D10509F49BC060F5C932D10596
:1013100009F48FC0CA32D10509F499C0C11523E57B
:10132000D20708F0D4C0C11532E5D30708F0CDC10B
:10133000CF3FD10511F008F09BC0C03FD10508F0A8
:10134000B8C1C83AD10508F089C0C53AD10508F03E
:1013500014C1C130D10511F1209709F443C024977D
:10136000E8F440C0C533D10509F45CC0C933D105E8
:10137000A9F620915B02237089F080EE90E00EC008
:10138000C33ED10591F168F4C03ED105F9F0C23EEB
:10139000D10521F620915B0222FD20C0DF91CF9183
:1013A0000895C63ED10561F1C73ED10581F1C43E25
:1013B000D10509F0B3CF20915C0221FFEFCF8091DE
:1013C0005B0284FD0FC087EE90E0E8CF20915B02C6
:1013D00020FDB9C130915C0230FFE0CF83EE90E098
:1013E00024FFDCCF90E080E0D9CF20915B0222FD8A
:1013F000ADC130915C0230FDC0CF24FFCFCFF2CF22
:1014000020915B0223FFCACF24FDECCFDCCF2091DB
:101410005B0223FD9EC130915C0231FFEECF84EE72
:1014200090E0BCCF20915B0225FFB8CF89E290E02D
:10143000B5CF20915B0225FFB1CF85E390E0AECF21
:1014400020915B0226FFAACF8AE290E0A7CF2091ED
:101450005B0226FFA3CF81E390E0A0CFCF3BD10575
:1014600008F49AC0C05ED109289708F497CFBACF84
:10147000C11520E5D20750F4C11530E4D30708F0B8
:101480001BC1C115D04208F489CFACCFC11531E5DD
:10149000D30708F015C19E01E4E036952795EA953B
:1014A000E1F723708C2F86958695837030E2839FB9
:1014B000C0011124922BC37021E030E002C0220F42
:1014C000331FCA95E2F7822B932B9C6867CFC11517
:1014D0008AE5D80710F5C11599E5D90708F026C1A6
:1014E000C11525E5D20750F4C11534E5D30708F43A
:1014F000FFC09C2F8827846F906A50CFC11586E566
:10150000D80708F409C1C11598E5D90708F46ACFCE
:101510009C2F8827806F906A41CF80E090EDCE3B72
:101520002CE5D20709F43ACF70F4CC3B8CE5D80710
:1015300009F412C108F013C180E094EDCB3BDC4507
:1015400009F42CCF4FCF80E093EDC03C3CE5D307AE
:1015500009F424CF08F406C1CE01905681159042BB
:1015600008F040CF8D2F8F710E94230990E0982FB3
:10157000882788279F718C2BD7C081E890E4C53AD3
:10158000D10509F40BCF82E890E4C63AD10509F4FD
:1015900005CF83E890E402CF82EE94E4C83AD10507
:1015A00009F4FCCE89EE94E4C93AD10509F4F6CEEB
:1015B0008AEE94E4CA3AD10509F4F0CE85EB94E4BE
:1015C000CB3AD10509F4EACE86EB94E4CC3AD105C6
:1015D00009F4E4CE83EB94E4CB3BD10509F4DECEF1
:1015E00084EB94E4CC3BD10509F4D8CE87EB94E4AA
:1015F000CD3AD10509F4D2CE8CEC94E4C03BD105B0
:1016000009F4CCCE8DEC94E4CE3AD10509F4C6CEE3
:1016100083E895E4CF3AD10509F4C0CE8AE895E491
:10162000C13BD10509F4BACE82E995E4C23BD105AC
:1016300009F4B4CE84E995E4C33BD10509F4AECEF8
:1016400081E296E4C43BD10509F4A8CE83E296E496
:10165000C53BD10509F4A2CE84E296E4C63BD10590
:1016600009F49CCE85E296E4C73BD10509F496CEF9
:1016700086E296E4C83BD10509F490CE87E296E471
:10168000C93BD10509F48ACE8FE694E4CD3BD10560
:1016900009F484CE80E794E4CE3BD10509F47ECEF4
:1016A00080E094E4CA3BD10509F078CE8AE296E462
:1016B00075CECE01906572CECE019F70906A6ECECF
:1016C0009C2F8827816F906A69CE9E0123703327F3
:1016D00081E090E002C0880F991F2A95E2F7C69535
:1016E000C69520E2C29FE00111248C2B9D2BEDCEEC
:1016F0009E012370332781E090E002C0880F991F7C
:101700002A95E2F7C695C69530E2C39FE001112401
:101710008C2B9D2B9A6842CE8C2F0E94230990E03F
:10172000982F882788279F71906238CE8C2F8F70D2
:101730000E94230934E0D695C7953A95E1F7CF701A
:101740009C2F90692BCE89E390E028CE82EE90E02A
:1017500025CE86EE90E022CE80E095ED1FCE80E093
:1017600091ED1CCE80E092ED19CEBF92CF92DF9228
:10177000EF92FF920F931F93CF93DF938C01C09052
:101780003102D0903202E0903302F0903402809126
:101790003A0290913B02A0913C02B0913D02C82ACE
:1017A000D92AEA2AFB2ACFE1D0E0BC2ED701C60114
:1017B0000C2E04C0B695A795979587950A94D2F7F5
:1017C00080FD0EC0219788F7B12C8B2DDF91CF9132
:1017D0001F910F91FF90EF90DF90CF90BF900895F1
:1017E000B8018C2F0E946609019761F3EECFCF9369
:1017F000DF93EC010E94B50BBE01DF91CF910C94F9
:1018000066090E94F70B292F2F7092959F709250B6
:101810009E3078F4E92FF0E0E65FFA4D0C948724CF
:10182000803F19F020F4883E20F481E00895843F41
:10183000E1F380E00895883EC0F3813FD1F7F5CF12
:10184000822F869586958695089581FF07C0559AC3
:101850005D9882FF05C06E9A769808955598F8CFE6
:101860006E98FACF0F931F93CF93DF9300D00F9210
:10187000CDB7DEB78C010E94B504823011F0843000
:1018800021F584E089831B830A8382E08093E90049
:101890008FEF9091E800815095FD06C095ED9A95E7
:1018A000F1F700008111F5CF8091E80085FF0DC0B0
:1018B00050E040E063E070E0CE0101960E947B03BF
:1018C0008091E8008E778093E8000F900F900F9042
:1018D000DF91CF911F910F910895CF93DF9300D0A7
:1018E0000F92CDB7DEB72091B802243031F523E056
:1018F0002983805891099B838A8382E08093E90041
:101900008FEF9091E800815095FD06C095ED9A9576
:10191000F1F700008111F5CF8091E80085FF0DC03F
:1019200050E040E063E070E0CE0101960E947B034E
:101930008091E8008E778093E8000F900F900F90D1
:10194000DF91CF910895CF93DF93EC010E94B5040E
:10195000823011F08430F9F482E08093E9008FEF57
:101960009091E800815095FD06C095ED9A95F1F7AC
:1019700000008111F5CF8091E80085FF0CC050E098
:1019800040E066E070E0CE010E947B038091E800B9
:101990008E778093E800DF91CF910895CF93DF9306
:1019A000EC010E94B504823011F0843039F581E0F9
:1019B0008093E9008FEF9091E800815095FD06C07B
:1019C00095ED9A95F1F700008111F5CF8091E8002F
:1019D00085FF14C050E040E068E070E0CE010E9456
:1019E0007B038091E8008E778093E80088E0FE0119
:1019F000AEEAB2E001900D928A95E1F7DF91CF91C6
:101A00000895882309F408C18238B9F40E94B907FF
:101A100081FD02C189E30E9476060E943C062FEFF9
:101A200081EE94E0215080409040E1F700C000003A
:101A300089E30E9469060C943C068338A1F40E9455
:101A4000B90780FDE9C083E50E9476060E943C0646
:101A50002FEF81EE94E0215080409040E1F700C0EC
:101A6000000083E5E6CF8438A1F40E94B90782FD27
:101A7000D3C087E40E9476060E943C062FEF81EED9
:101A800094E0215080409040E1F700C0000087E4DE
:101A9000D0CF9CEF980F913A18F40E947606CBCFE6
:101AA00090E2980F983068F4877021E030E001C030
:101AB000220F8A95EAF780913802822B80933802B0
:101AC000BACF9BE5980F933070F4853A31F0863A9F
:101AD00039F083E890E00C94180781E890E0FBCFA0
:101AE00082E890E0F8CF98E5980F973108F08EC023
:101AF000883A09F446C0893A09F446C08A3A09F49A
:101B000046C08B3A09F446C08C3A09F446C08B3B78
:101B100009F446C08C3B09F446C08D3A09F446C02E
:101B2000803B09F446C08E3A09F446C08F3A09F466
:101B300046C0813B09F446C0823B09F446C0833B62
:101B400009F446C0843B09F446C0853B09F446C00D
:101B5000863B09F446C0873B09F446C0883B09F43C
:101B600046C0893B09F446C08D3B09F446C08E3B14
:101B700009F446C08A3B09F446C090E080E00C942A
:101B8000020782EE90E0FBCF89EE90E0F8CF8AEE7C
:101B900090E0F5CF85EB90E0F2CF86EB90E0EFCFD1
:101BA00083EB90E0ECCF84EB90E0E9CF87EB90E023
:101BB000E6CF8CEC90E0E3CF8DEC90E0E0CF83E8D3
:101BC00091E0DDCF8AE891E0DACF82E991E0D7CFEA
:101BD00084E991E0D4CF81E292E0D1CF83E292E038
:101BE000CECF84E292E0CBCF85E292E0C8CF86E20E
:101BF00092E0C5CF87E292E0C2CF8FE690E0BFCF00
:101C000080E790E0BCCF8AE292E0B9CF803F20F03D
:101C10000E9482050C94200608950F931F93CF9382
:101C2000DF93C62FD42F022FFC0182818823A1F0DD
:101C30006093AE010E9414069093A9018093A801BD
:101C4000C77081E001C0880FCA95EAF7DF91CF9194
:101C50001F910F910C94F8061091AE01161338C025
:101C60008091A8019091A9010E94EA05883C910504
:101C700078F5C0E2CD0F1D17B9F080E2810F8830F2
:101C800040F4177081E001C0880F1A95EAF70E94AE
:101C9000ED06C83048F481E09D2F977001C0880F91
:101CA0009A95EAF70E94F806802F0E94010D802F76
:101CB0000E94C507C83098F4D77081E001C0880F32
:101CC000DA95EAF7DF91CF911F910F910C94ED0611
:101CD000C77081E001C0880FCA95EAF7F3CFDF91A2
:101CE000CF911F910F9108958091A50280FD0AC0A8
:101CF000E0E6F1E0118210821282339651E0E83A78
:101D0000F507C1F7539A3BB1377F2BB128604FB726
:101D1000F89480E691E0FC015191CF0168E02BB985
:101D2000000000C057FF3BB9550F000000C000C0C5
:101D300000C03BB900C06A9591F7F1E0883A9F076F
:101D400051F74FBF87EC90E00197F1F700C000001A
:101D50000895EF92FF920F931F93CF93DF938C011F
:101D6000C0E6D1E0F12CE12CF80194816091A7024A
:101D70008091A602FCE0EF16F104FCF49923F9F03F
:101D80009E014091A8020E948D082FEFE21AF20AEC
:101D9000239688E1E816F10439F70E94740EF801E1
:101DA000848190E00196817099278483DF91CF919F
:101DB0001F910F91FF90EF900895992309F39E01D1
:101DC00040E0E1CFEF92FF921F93CF93DF93EC01BE
:101DD00080E6E82E81E0F82E10E08C81970140919A
:101DE000A8026091A702810F0E948D08165F83E010
:101DF000E80EF11C103F89F70E94740E9A818C81C5
:101E000090FF08C08F5F8C83DF91CF911F91FF906F
:101E1000EF9008958150F7CFBF92CF92DF92EF926B
:101E2000FF920F931F93CF93DF93FC018281DD24F8
:101E3000DA9480FD02C0DD24D39400E611E0D0E006
:101E4000C0E028E1B22EF80111821082128294E0E3
:101E5000E92EF12CC12C80915D018C0D89310CF49F
:101E60003DC06B2D0E942F24892F082E000C990B4A
:101E70008C179D0791F48091A8028E9DA0018F9DE3
:101E8000500D1124559547955595479598016091AA
:101E9000A7028091A6020E948D08CD0CF1E0EF1AF6
:101EA000F108C9F621960D5F1F4FC831D10559F6CB
:101EB0000E94740E80915D0191E0D91215C08111CC
:101EC00011C087E180935D01DF91CF911F910F9148
:101ED000FF90EF90DF90CF90BF90089587FFC5CF20
:101EE000885EC3CF8150EECF90E00196BE010E9484
:101EF0005124E8CF0F931F93CF93DF93C0E6D1E037
:101F0000FE01118210821282339681E0E83AF807CE
:101F1000C1F710E000E080915E01082E000C990BE3
:101F2000081719078CF180910C01082E000C990BF1
:101F3000801791074CF19E014091A8026091A70281
:101F40008091A6020E948D080F5F1F4F23960831D3
:101F5000110509F70E94740E80910B0190915E01AA
:101F6000980F90935E0120910C01280F20930C0193
:101F7000121614F497311CF0819580930B01DF91B8
:101F8000CF911F910F910895198218821A82DCCF88
:101F9000EF92FF920F931F93CF93DF93EC018C810D
:101FA0009D810196817099279D838C8380E6E82E20
:101FB00081E0F82E10E005E5812F86952C813D818A
:101FC000820F932F911D817097014091A80260911B
:101FD000A702809F802D11240E948D081F5F83E03F
:101FE000E80EF11C183141F7DF91CF911F910F914D
:101FF000FF90EF900C94740E9091A50290FF0CC08E
:10200000E0E6F1E0818360834283339691E0E83A31
:10201000F907C1F70C94740E08950F931F93CF9393
:10202000DF9300D00F92CDB7DEB78C0180915F01B6
:1020300081110AC09E012F5F3F4F4FEF6FEF0E944B
:102040008D088A8180935F01F8016481613069F0B5
:1020500080915F0140E0662361F040E0623011F45E
:1020600040915F0180E060E004C060915F0140E06A
:1020700080E00E94FC0FF801848190E0019663E00B
:1020800070E00E94512484830F900F900F90DF9195
:10209000CF911F910F910895CF93DF9300D00F92AE
:1020A000CDB7DEB79091A50290FF0AC09E012F5FC9
:1020B0003F4F0E948D084B8169818A810E94FC0FED
:1020C0000F900F900F90DF91CF910895CF93DF93F2
:1020D000EC01EC81F0E0EF54FE4F4491E5EAF2E0D0
:1020E000628181810E944C108C818F5F8C83DF9193
:1020F000CF910895CF93DF93EC01E5EAF2E04381BD
:1021000062818C810E944C108C818F5F8C83DF9167
:10211000CF9108953F924F925F926F927F928F92EC
:102120009F92AF92BF92CF92DF92EF92FF920F9366
:102130001F93CF93DF9303E412E06DE371E0D801C6
:10214000412CEE24E394F12C6D907C9011971D921C
:102150001D92EB018991BE01E82FE295EF70F0E04E
:1021600091A18F70570101C0AA0C8A95EAF7892FB7
:102170008A2981A382A13A2C3094832182A3D0EAB8
:10218000DA95F1F789E4C82E81E0D82E90E080E05E
:10219000AD0142505109E60159906E01252D22955D
:1021A0002F7030E0E90128A1EA018880998030E0B1
:1021B000D52DDF7002C035952795DA95E2F720FD21
:1021C00047C09701082E02C0220F331F0A94E2F77E
:1021D00028293929EA013983288301968930910514
:1021E000D1F681A1D32DD823D1A382A1A82AA2A25E
:1021F00081E0FA01208131812615370509F480E05C
:10220000482AF2E0AB35BF0709F09ECF442019F110
:1022100081E080935C010E94140690935B0180939F
:102220005A0180915A0190915B010E94EA0506973C
:10223000B0F0E1E6F2E0D8018D919D918D0181939E
:102240009193B2E00B351B07B1F710925C0107C008
:1022500030E020E0BDCF80915C018111E2CF842D80
:10226000DF91CF911F910F91FF90EF90DF90CF9072
:10227000BF90AF909F908F907F906F905F904F90A6
:102280003F900895CF9384E090E00E94B324C82F3C
:1022900081E290E00E94B324982F8C2FCF91089573
:1022A00090E080E00E94C12421E08C3E9E4F09F026
:1022B00020E0822F0895982F990F990F990F809100
:1022C000B0018770892B8093B001887F91E009F479
:1022D00090E06091B00190FB60F96093B00186E0FE
:1022E00090E00E94C7248091B001869586958695DE
:1022F0000C942208CF92DF92EF92FF926B017C0147
:102300000E947E08B701A60188E090E0FF90EF9060
:10231000DF90CF900C94D9248091A902833018F4D7
:102320008F5F8093A9026091A5027091A6028091AF
:10233000A7029091A8020C947A118091A902882397
:1023400019F081508093A9026091A5027091A602B4
:102350008091A7029091A8020C947A115F926F92DB
:102360007F928F929F92AF92BF92CF92DF92EF9225
:10237000FF920F931F93CF93DF9300D00F92CDB7AF
:10238000DEB7182F762E042F622E9091A50290FFB3
:1023900029C0E92FE695AE2FB0E0A85EBE4F8C9124
:1023A0008093A2029E7F923081F59E012F5F3F4F66
:1023B000812F0E948D084B8169818A810E94FC0FC8
:1023C0001093A6027092A7020093A802662051F013
:1023D0006091A5027091A6028091A7029091A80237
:1023E0000E947A110F900F900F90DF91CF911F9163
:1023F0000F91FF90EF90DF90CF90BF90AF909F90A4
:102400008F907F906F905F900895823019F40091C3
:10241000A802D6CF863019F41091A602D1CF893008
:10242000D9F3893169F6E9518E2F8170582EE695DE
:10243000F0E0E455FE4FA590B490BB2480E6E82E72
:1024400081E0F82ED12CC12C98E1892E912CC60167
:10245000B4010E943D24812F511013C0860F9701B3
:10246000402F672D0E948D08CA0CDB1C83E0E80E0C
:10247000F11C88EAE81681E0F80649F70E94740E1C
:102480009FCF861BECCFE5EAF2E0438128E0421BB8
:1024900008F440E021E0628181810C94AE11E5EA0C
:1024A000F2E0438128E0420F08F44FEF21E062811F
:1024B00081810C94AE11E5EAF2E0628128E0621BB2
:1024C00008F460E021E0438181810C94AE11E5EADB
:1024D000F2E0628128E0620F08F46FEF21E04381AF
:1024E00081810C94AE11E5EAF2E0818121E0438123
:1024F000628188500C94AE11E5EAF2E0818121E01E
:1025000043816281885F0C94AE11E5EAF2E083E0DA
:10251000808311828FEF8283838314826081718133
:10252000828193810C947A116CEE7EEF90E080E0D2
:102530000E94E52460E082E090E00E94C72460E011
:1025400083E090E00E94C72410923A0210923B026E
:1025500010923C0210923D0260E084E090E00E9404
:10256000C72460E081E290E00E94C72460E085E03B
:1025700090E00E94C72460E086E090E00E94C724BB
:102580006FEF87E090E00E94C72440E050E0BA017E
:1025900088E090E00E94D92460E08DE090E00E9405
:1025A000C72440E050E0BA0188E190E00E94D924BD
:1025B00060E087E190E00E94C72440E050E0BA016B
:1025C0008CE190E00E94D92460E080E290E00E94DB
:1025D000C72440E050E0BA018FE090E00E94D92487
:1025E00040E050E0BA0183E190E00C94D9240E94CD
:1025F0005011811102C00E94941286E090E00E9466
:10260000B3248093B001803220F08770886180937A
:10261000B0019091B001892F817090FF04C0892F83
:102620008695869586950C94220810923802E4E5EA
:10263000F1E086E0DF011D928A95E9F70C942E0700
:102640001F93CF93DF93CDB7DEB7AA970FB6F89459
:10265000DEBF0FBECDBF8AEB92E02091F100FC01FE
:102660002193CF01F2E0823C9F07B9F78091BB0232
:10267000833009F46FC0B8F4813009F446C0823069
:1026800009F4B0C08091E80083FF87C28091BA024C
:102690009091BB029A3008F080C2E92FF0E0E85E2A
:1026A000FA4D0C9487248A3009F48BC08B3009F4DE
:1026B0006EC0893039F78091BA02813219F7809162
:1026C000BE029091BF020297E8F68091E800877FF2
:1026D0008093E8008091E80082FF37C09091F3007A
:1026E0008091F200029729F48091F1008B7F813074
:1026F00021F48091F1008093AD028091E8008B7706
:102700008093E8000E94A503BDCF8091BA02813A70
:1027100009F0B8CF8091E800877F8093E80080912E
:10272000BE029091BF02892B61F468E08EEA92E0CC
:1027300070E00E9457048091E8008B778093E80056
:10274000A1CF60E090E080E0F3CF8091B8028111EA
:10275000C1CF98CF8091BA02813A09F093CF80918E
:10276000BE029091BF02892B09F08CCF8091E800C6
:10277000877F8093E8008091E80080FFFCCF809104
:1027800017018093F1008091E8008E77B9CF809196
:10279000BA02813209F076CF8091BE029091BF02D9
:1027A000892B09F06FCF8091E800877F8093E80044
:1027B0000E94A5038091BC02809317010E9415130B
:1027C00061CF8091BA02813209F05CCF8091E8003C
:1027D000877F8093E8000E94A5038091BD028093CB
:1027E000AC0250CF8091BA02813A09F04BCF809170
:1027F000E800877F8093E8008091E80080FFFCCFAD
:102800008091AC02BECF803899F0823809F0C5C102
:102810008091BE028F70873008F0BFC18093E900BD
:102820008091EB0085FB882780F91092E90006C0B3
:102830008091B6029091B702911182609091E80068
:10284000977F9093E8008093F1001092F1008091BF
:10285000E8008E779EC1882309F48CC1823009F08C
:102860009CC18091BC0281118FC18091BE028F708A
:102870002FEF280F263008F090C18093E9002091B7
:10288000EB0020FF81C1933031F48091EB00806236
:102890008093EB0079C19091EB0090619093EB00F5
:1028A00021E030E001C0220F8A95EAF72093EA0088
:1028B0001092EA008091EB008860EACF81116DC12F
:1028C0001091BC021F778091E3008078812B809368
:1028D000E3008091E800877F8093E8000E94A503D1
:1028E0008091E80080FFFCCF8091E30080688093B6
:1028F000E30082E0111183E08093B8024EC180585A
:10290000823008F04AC18091BC029091BD028C3D9A
:1029100023E09207A1F583E08A838AE289834FB797
:10292000F894DE01139620E03EE051E2E32FF0E060
:1029300050935700E49120FF03C0E295EF703F5F92
:10294000EF708E2F90E0EA30C0F0C7968D939D9384
:102950002F5F243159F74FBF8091E800877F809324
:10296000E8006AE270E0CE0101960E94570480916F
:10297000E8008B778093E80010C1C096E7CF4091C4
:10298000BE025091BF02292F33272330310509F4AD
:1029900045C078F52130310509F47BC08BE390E028
:1029A000E8E3F5E02230310509F0F7C02091E800B6
:1029B000277F2093E8002091C0023091C102821746
:1029C000930708F49C0140E02115310509F070C01F
:1029D00041116EC08091E80082FDC9CF8091B8029C
:1029E000882329F2853019F28091E80083FFF2CF25
:1029F000BECF2132310509F440C02232310509F041
:102A0000CCC04115510509F44EC04130510509F0C3
:102A1000C4C085E890E0E3E7F4E0C8CF99278130AF
:102A20009105D9F0009771F082309105F1F003978C
:102A300009F0B3C0E5E8F5E0E4918E2F90E0E5E819
:102A4000F5E007C0EFEBF5E0E4918E2F90E0EFEBBF
:102A5000F5E0009709F4A1C0A9CFE5E9F5E0E4911C
:102A60008E2F90E0E5E9F5E0F4CFEBE8F5E0E491B6
:102A70008E2F90E0EBE8F5E0ECCF4115510571F0B9
:102A80004130510509F089C089E090E0E3E6F5E0C6
:102A90008DCF82E190E0E3E7F5E088CF89E090E038
:102AA000EAE4F5E083CF80E490E0E8EFF4E07ECF65
:102AB0008091B802882309F45ACF853009F457CFA2
:102AC0008091E80083FD53CF8091E80082FD82CFA2
:102AD0008091E80080FF78CF9091F3008091F20020
:102AE0002115310519F08830910550F041E0089723
:102AF00009F040E08091E8008E778093E80064CF91
:102B000044914093F1003196215031090196E8CF6C
:102B1000803809F042C08091E800877F8093E80008
:102B20008091B9028093F10092CE811136C010914C
:102B3000BC02123090F58091E800877F8093E80016
:102B40001093B9020E94A503112311F084E005C07F
:102B50008091E30087FDFACF81E08093B80242E0E4
:102B600061EC81E00E94C40342E261EC82E00E94D9
:102B7000C40313C08091BC02813079F481E09330AA
:102B800009F080E08093B7021092E9008091E8009C
:102B9000877F8093E8000E94A5038091E80083FF6F
:102BA0000AC08091E800877F8093E8008091EB0065
:102BB00080628093EB00AA960FB6F894DEBF0FBE3A
:102BC000CDBFDF91CF911F9108956091A5026695C9
:102BD00070E04BE050E080E091E00E94FB24892B04
:102BE00019F481E08093A3020E94140690939D0241
:102BF00080939C0208959091A50290FF36C0917039
:102C0000811129C092609093A502662351F06091D2
:102C1000A5027091A6028091A7029091A8020E943D
:102C20007A116091A502669570E04BE050E080E07B
:102C300091E00E94FB24892BA9F01092A30281E06D
:102C400080939F0220E04091A8026091A7028091AA
:102C5000A6020C94AE11853210F09864D4CF880F80
:102C6000982BD1CF0E94E515EACF08958091A50257
:102C70008695815009F484E261E00C94FB15809103
:102C8000A50286958F5F853208F081E061E00C94A3
:102C9000FB159091A50290FF07C09695981720F01C
:102CA000961710F40C943F1661E00C94FB154F92AC
:102CB0005F926F927F928F929F92AF92BF92CF92CC
:102CC000DF92EF92FF920F931F93CF93DF9300D089
:102CD00000D00F92CDB7DEB77C01FC0183819481D7
:102CE000892B39F01081D180812F8D218F3F09F000
:102CF00066C60F900F900F900F900F90DF91CF91BD
:102D00001F910F91FF90EF90DF90CF90BF90AF9009
:102D10009F908F907F906F905F904F9008950E944A
:102D2000B50B082F682F89819A810E94B706E12F81
:102D3000F0E029E0D29EE00DF11D11243CE6039F56
:102D4000E00DF11D1124EE0FFF1FEF54FD4F059113
:102D50001491033F8CE5180709F49DC048F5083D20
:102D6000ECE51E0709F493C0093DFCE51F0709F4D3
:102D70009EC0073D2CE5120749F526E241EE61EEC3
:102D8000C7010F900F900F900F900F90DF91CF9190
:102D90001F910F91FF90EF90DF90CF90BF90AF9079
:102DA0009F908F907F906F905F904F900C940D0E3E
:102DB000053F3CE5130709F476C008F470C027E22C
:102DC00045EE66EE063F9CE51907D1F2F701228138
:102DD000222309F496C21092AE010230FCE51F07CF
:102DE00008F443C106313CE5130730F0C8018A5F9F
:102DF0009C45099708F039C10E94421190935C02EA
:102E000080935B0200318CE5180709F4FDC008F0DF
:102E10008BC00830ECE51E0709F4E8C008F05DC07F
:102E200004302CE5120709F4D9C008F043C0023081
:102E30008CE5180709F4CCC080915B0282600330F6
:102E40001C4509F4C8C060915B0210915C0284E0EB
:102E500090E00E94C724612F81E290E00E94C72485
:102E60000F900F900F900F900F90DF91CF911F91C7
:102E70000F91FF90EF90DF90CF90BF90AF909F9019
:102E80008F907F906F905F904F900C94151327E276
:102E900045EE65EE75CF26E241EE60EE71CF27E29A
:102EA00045EE64EE6DCF26E241EE62EE69CF28E298
:102EB00041E0EFCF80915B0280610630ECE51E07B8
:102EC00009F489C080915B02886007301C4508F4D2
:102ED00082C080915B0280627EC080915B028D7FA8
:102EE0000C302CE5120709F476C058F40A308CE552
:102EF000180709F485C008F47DC080915B028E7FBD
:102F00006AC080915B02877F0E30ECE51E0709F4F2
:102F100062C080915B028B7F0F301C4508F45BC060
:102F200080915B028F7E57C00B3F2CE5120709F49E
:102F300059C030F503318CE5180709F46DC078F4F9
:102F40000131ECE51E0709F463C002311C4509F0AC
:102F50007ACF0E94151380915B028F773CC00531B8
:102F60002CE5120709F460C008F474C00A3F1C4540
:102F700009F069CF80915C02816080935C0263CF2D
:102F80000F3F9CE5190709F44BC088F480915C025F
:102F90008D7F0D3FFCE51F0781F380915C028E7FE2
:102FA0000E3F1C4550F380915C028360E6CF0130F8
:102FB0003DE5130709F457C008F442C060E0023051
:102FC0001D4509F040CF8EE090E00E94C7243BCF22
:102FD00080915B02816080935B0235CF80915B02C0
:102FE0008460F9CF80915C028260C7CF80915B02E0
:102FF0008064F1CF0E94151380915B028068EBCF53
:1030000080915B028C60E7CF80915B028F7DE3CF84
:1030100080915B028F7BDFCF80915B02837FDBCF70
:1030200080915C028C7FA9CF80915B0282FB992703
:1030300090F921E0922790FB82F990FB83F9CBCFA6
:1030400080915C02982F909591708E7F892B90FBD8
:1030500081F993CF0E94151390915B02892F97FB02
:1030600087F98058B8CF61E0AECF90913802892FB0
:103070008272F801E25CFC45E431F10508F0CCC055
:10308000EE5DFA4D0C9487248091A50280FF2FC03D
:103090008E7F8093A5026091A5027091A602809117
:1030A000A7029091A8020E947A111092A302EFEF5A
:1030B000F0E722E0E150F0402040E1F700C00000DE
:1030C0000F900F900F900F900F90DF91CF911F9165
:1030D0000F91FF90EF90DF90CF90BF90AF909F90B7
:1030E0008F907F906F905F904F900C94740E8160E2
:1030F0008093A50261E086950F900F900F900F903E
:103100000F90DF91CF911F910F91FF90EF90DF9083
:10311000CF90BF90AF909F908F907F906F905F9077
:103120004F900C94FB1546E356E16FE376E10F9068
:103130000F900F900F900F90DF91CF911F910F91F3
:10314000FF90EF90DF90CF90BF90AF909F908F90C7
:103150007F906F905F904F900C9479084FE356E109
:1031600066E376E1E4CF43E752E16CE772E1DFCF5B
:103170004CE752E163E772E1DACF4BE552E167E6F3
:1031800072E1D5CF47E652E16BE572E1D0CF43E47F
:1031900052E16FE472E1CBCF4FE452E163E472E1BC
:1031A000C6CF4DE951E16CE871E1C1CF4CE851E186
:1031B0006DE971E1BCCF61E081E09ECF65E082E026
:1031C0000F900F900F900F900F90DF91CF911F9164
:1031D0000F91FF90EF90DF90CF90BF90AF909F90B6
:1031E0008F907F906F905F904F900C94491668E09D
:1031F00086E0E6CF6EE089E0E3CF64E18FE0E0CFE8
:1032000067E185E1DDCF61E088E176CF62E289E1C7
:10321000D7CF61E083E270CF01153CE5130759F188
:103220000E3D8CE5180709F455C006311C4509F020
:1032300075C09A7A81E009F480E08093AF0189E259
:10324000911185E30E9476060F900F900F900F90DA
:103250000F90DF91CF911F910F91FF90EF90DF9032
:10326000CF90BF90AF909F908F907F906F905F9026
:103270004F900C943C060E9415139FEFE4E3FCE092
:103280009150E040F040E1F700C0000081E0809301
:10329000E00080E28093D8001092C9008FE19EE4A4
:1032A0000197F1F700C0000087E090EBDC0180930C
:1032B000C2029093C302A093C402B093C50288E1F6
:1032C0009CE00FB6F894A895809360000FBE909391
:1032D0006000FFCF0F900F900F900F900F90DF9135
:1032E000CF911F910F91FF90EF90DF90CF90BF9003
:1032F000AF909F908F907F906F905F904F900C94C5
:10330000941206311C4551F48091AF01811104C023
:1033100089E20E94690698CF85E3FBCFF70100811F
:103320001181C8012223C1F10E94B50BD82E682F4C
:10333000C8010E94B706B8018D2D0E9466098C0154
:10334000882EF701A580A2943FE0A322D280D1105D
:103350001092370280913502877079F0DD2069F094
:1033600080E2800F883048F082E00E9476078091EA
:1033700035028770CC24C3948111C12CB12EB29434
:103380002FE0B222FDE0FB1508F43FC0EB2DF0E08A
:10339000EA5CFA4D0C9487240E948F06D82ECBCF7E
:1033A000212F2F70A22E107F19F0A29490EFA92246
:1033B000DD20C9F0AA2069F080E2800F883010F08B
:1033C00081100BC080913802A82AA09238020E9476
:1033D0003C06802F0E94010D18C080913702A82A58
:1033E000A0923702F4CF802F0E94C507AA2069F06F
:1033F000A094005E083010F081103DC0809138022A
:10340000A822A09238020E943C06EB2DE850FF0B48
:10341000349720F40E94B9070E94250CCC2009F4AF
:1034200068CC8091350280FD64CCF70112828595CD
:10343000859585950E948E07C7010E945716809139
:1034400035028595859585950F900F900F900F907B
:103450000F90DF91CF911F910F91FF90EF90DF9030
:10346000CF90BF90AF909F908F907F906F905F9024
:103470004F900C94530780913702A822A0923702F4
:10348000C2CF312F3F70932E107F103219F09294DB
:1034900080EF9822882071F091E0891661F1DD209B
:1034A000B9F1AA2071F1F701858180FF92CF8F7069
:1034B000858327C0DD2091F090913902892F8929D9
:1034C000A11003C00E94F806A0CFE1E0AE12FACF2F
:1034D000981709F49ACF8093390297CFA11006C0AC
:1034E0000E943606892D0E94ED068FCFF1E0AF16BF
:1034F00009F48BCFF5CFDD2031F025E02A1508F453
:1035000084CF892DDFCF34E03A1508F47ECFEACF9F
:10351000AA2041F3093349F4FFEF27EE33E0F150DD
:1035200020403040E1F700C00000802F0E94C50716
:103530006CCF812F86958695837061F0813009F07C
:1035400064CFC8019370D11002C090E080E00E9467
:1035500002075BCFC8019370D11002C090E080E0F9
:103560000E94180752CFDD2009F1053F99F0063F70
:10357000B9F0043F49F48091B1019091B2018160AA
:103580009093B2018093B101802F0E9482050E9426
:1035900020063BCF8091B1019091B2018260F0CFC3
:1035A0008091B1019091B2018460EACF053F89F02A
:1035B000063FA9F0043F49F48091B1019091B20116
:1035C0008E7F9093B2018093B101802F0E94C1043D
:1035D000DECF8091B1019091B2018D7FF2CF8091C9
:1035E000B1019091B2018B7FECCF812F837009F0F4
:1035F00066C0D1100ACF802F829586958770880F7C
:10360000880F602F6F70462E512C712C612C082E64
:1036100004C0440C551C661C771C0A94D2F740E089
:1036200050E0BA0104FF0FC04FE050E060E070E0EE
:1036300004C0440F551F661F771F8A95D2F7409527
:10364000509560957095812F869586958370823010
:1036500019F1D8F400913A0210913B0220913C02FA
:1036600030913D02813069F0442955296629772936
:10367000CB01BA0160237123822393230E94AF07F9
:10368000C4CE402A512A622A732ACB01BA01642986
:10369000752986299729F2CF442955296629772942
:1036A00000913A0210913B0220913C0230913D0280
:1036B000CB01BA016027712782279327DFCF869538
:1036C000DD2011F0812F8170882309F49ECE802F98
:1036D000829586958770880F880F602F6F70462EB1
:1036E000512C712C612C082E04C0440C551C661CF6
:1036F000771C0A94D2F740E050E0BA0104FF0FC0F3
:103700004FE050E060E070E004C0440F551F661FBA
:10371000771F8A95D2F74095509560957095812FC7
:10372000869586958370823019F1D8F40091310224
:10373000109132022091330230913402813069F0CD
:103740004429552966297729CB01BA0160237123C1
:10375000822393230E94490758CE402A512A622A85
:10376000732ACB01BA016429752986299729F2CFDA
:103770004429552966297729009131021091320296
:103780002091330230913402CB01BA0160277127B6
:1037900082279327DFCF1F70DD2029F0812F0E9421
:1037A0008E07802F8FCE802F0E94ED06812F0E94E2
:1037B00053072BCE802F92EF891609F450C098152D
:1037C00078F0E0EF8E1619F1F1EF8F1609F43FC093
:1037D000DD2009F467C0A110FCCD812F8F713CC0A2
:1037E00023EF821609F440C034EF8312F1CFDD20BD
:1037F00009F44DC01F71812F0E948E07E8E01E9FC3
:10380000C0011124836080933502812F25C0DD2003
:10381000C9F084E08A1508F4F8CD1F7161E070E00A
:1038200080E090E004C0660F771F881F991F1A95EB
:10383000D2F700913102109132022091330230917F
:103840003402A4CF95E09A1508F4DFCDE6CF812F9E
:103850008F71DD2009F4ABCF0E948E07D6CD812F6A
:103860008F71DD20C9F3A3CF60E070E0CB01DD20D4
:1038700009F470CF1F7161E070E080E090E004C057
:10388000660F771F881F991F1A95D2F763CF81E0C3
:103890000E947607F1E0FA1508F0B7CD82E00E94A9
:1038A0007607B3CDAA2059F0893309F03ECE2FEF29
:1038B00037EE83E0215030408040E1F734CE812F55
:1038C0008F7175CFD110A1CD1F701230D1F1B8F426
:1038D000112309F1113009F098CD8091B001982F92
:1038E000987F09F44DC088508093B001887F91E0A3
:1038F00009F490E06091B00190FB60F91FC01430B2
:1039000009F45BC008F442C080E0153009F07DCDB9
:103910000E945B117ACD8091B001982F9695969573
:103920009695933040F49F5F990F990F990F877088
:10393000892B8093B0016091B00161606093B00108
:103940001BC06091B00160FF0BC06E7F6093B0013F
:1039500086E090E00E94C72480E00E94220855CDB6
:1039600060FD53CD61606093B001613019F489E06E
:103970008093B0016091B00186E090E00E94C7247E
:103980008091B001869586958695E7CF9091B0019C
:10399000892F8695869586958F5F8F719770843075
:1039A00048F4880F880F880F892B8093B00180918D
:1039B000B0019CCF9093B001FACF83E0A9CF85E00E
:1039C000DE01119601900D928A95E1F7F7012281AF
:1039D00089819A812111A3C90E948F06082FA7C946
:1039E0001F93CF93DF938091B801807FC1F48091C2
:1039F000B5018823A1F08091EA01C091B9016091DD
:103A0000B3017091B4014091B6015091B701D62F26
:103A1000D723DA01A095B09516E0C81304C0DF9152
:103A2000CF911F91089590E04115510511F0DF3FAE
:103A300031F401968770F1CF2A0F3B1F17C0189FF2
:103A4000F001199FF00D1124E654FE4F2181271338
:103A5000F0CF20812613EDCF22812111EACF2381DF
:103A600034812417350740F3241B350B283C3105DE
:103A700000F72091B8012F7020612093B80126E053
:103A8000289FF001299FF00D1124E154FE4F808101
:103A90008F708061808383EB91E00E945716DF91E5
:103AA000CF911F910C94E306BF92CF92DF92EF92D9
:103AB000FF920F931F93CF93DF93CDB7DEB761973C
:103AC0000FB6F894DEBF0FBECDBF8C0185E0F801C4
:103AD000DE011D9601900D928A95E1F7D8012C9197
:103AE00011963C9111971296EC9012978091B60125
:103AF0009091B701009709F463C14091B3015091CF
:103B0000B401642F65236F3F09F45AC11396CD9019
:103B1000DC90B090B501BB2009F413C1C816D906DA
:103B2000C0F1F601E81BF90BCF01FF24F394883CA8
:103B3000910508F0F12C8091B801982F907FFF201B
:103B400009F4C1C091117DC0FE2C531327C042134C
:103B500025C0E11023C08F7080618093B80183EB92
:103B600091E00E9457168091B801D80115968C9368
:103B70008F2D61960FB6F894DEBF0FBECDBFDF91DB
:103B8000CF911F910F91FF90EF90DF90CF90BF905A
:103B90000895809590958C0D9D1DC7CFCD2829F057
:103BA000822F83238F3F09F029C180E0B82FB170A5
:103BB000DB2E80FF3CC08091EA014091B90156E0C4
:103BC000841315C02D873E878D859E850E94F70B37
:103BD000292F22952F702230F0F0243018F59F7095
:103BE000F1F0F8019581907FD1F4D12C1EC090E0C6
:103BF000589FF001599FF00D1124E654FE4F61814A
:103C0000361306C06081261303C06281E6120FC01E
:103C100001968770D5CF9F7011F0882331F3805EB5
:103C2000883018F3C8010E945716FD2CA1CFEE2052
:103C300009F49ECF8091B80181608093B801F12C86
:103C400097CF531313C0421311C0E1100FC0D80116
:103C500015968C93C8010E94571686E0F801A3EBD5
:103C6000B1E001900D928A95E1F782CF2D873E87D2
:103C70008D859E850E94010C882309F1EE20F9F0C4
:103C80008091B801803270F02091B3013091B4017D
:103C900038872F831986DB86CA868C87CE010796E4
:103CA0000E94571686E0F801A3EBB1E001900D9257
:103CB0008A95E1F70E94F01CFF24F39459CFC801C4
:103CC0000E945716F9CF91110CC083EB91E00E942E
:103CD000571686E0E3EBF1E0DF011D928A95E9F7E4
:103CE00047CF531312C0421310C0E1100EC0F801A9
:103CF0008583C8010E945716E3EBF1E086E0DF01FF
:103D00001D928A95E9F7FB2C33CF2D873E878D8551
:103D10009E850E94010C882391F2EE2081F2809111
:103D2000B801803208F4BECF2091B3013091B401C4
:103D30003A8329831B82DD82CC828E83CE01019659
:103D4000AFCFC816D90640F0C81AD90AB8ECCB16BE
:103D5000D10448F0F12CBDCF809590958C0D9D1D20
:103D6000883C9105B8F7FE2CEE2009F4A8CF531338
:103D700016C0421314C08091B80180FD6ECF982FF9
:103D8000907F09F46ACFF8018583903F09F462CFF0
:103D9000982F907F905F8F70892B85835BCF2D87C5
:103DA0003E878D859E850E94010C81117BCF80917D
:103DB000B80181608093B801C8010E945716D8CE1F
:103DC000EE2009F47CCF2D873E878D859E850E944D
:103DD000010CF82E882309F472CF86E0F801A3EBDA
:103DE000B1E001900D928A95E1F78091B301909135
:103DF000B4010E94F70B0E94F01CBACE81E08E2520
:103E0000D5CE1F93CF93DF93CDB7DEB767970FB6AD
:103E1000F894DEBF0FBECDBF4B8B5C8B6D8B7E8B62
:103E20008F8B1A8A198A85E0FE017396DE011D9632
:103E300001900D928A95E1F786E0FE013D96DE0144
:103E4000179601900D928A95E1F7CE0107960E9490
:103E5000541D811112C086E0FE013796DE011196D5
:103E600001900D928A95E1F78A859B85892B29F02F
:103E70008F81988589238F3FB1F516E08091EA0103
:103E80009091B90189131DC067960FB6F894DEBFF3
:103E90000FBECDBFDF91CF911F91089596E0929F05
:103EA000D001939FB00D1124A654BE4FFE01319650
:103EB00001900D929A95E1F78093B9010E94E30673
:103EC000DCCF819FC001112486549E4F0E94541D57
:103ED0008823D1F28091EA0190E0019687709927BA
:103EE0008093EA01CBCF2091B90130E0C90101965E
:103EF000877099274091EA014817190679F60E94C0
:103F000015131092B9011092EA0186E0E3EBF1E09B
:103F1000DF011D928A95E9F7B0CF1F920F920FB67D
:103F20000F9211242F933F934F935F936F937F933F
:103F30008F939F93AF93BF93CF93DF93EF93FF93B1
:103F4000D091E900DF708091EC00C82FC17080FD36
:103F5000C0E81092E9008091F000877F8093F00024
:103F600078940E9420131092E9008091F0008860FC
:103F70008093F000CD2BCF70C093E900FF91EF91BB
:103F8000DF91CF91BF91AF919F918F917F916F9171
:103F90005F914F913F912F910F900FBE0F901F9007
:103FA00018951F920F920FB60F9211242F933F93E3
:103FB0004F935F936F937F938F939F93AF93BF9331
:103FC000EF93FF938091E10082FF09C08091E200AE
:103FD00082FF05C08091E1008B7F8093E10080919A
:103FE000DA0080FF24C08091D80080FF20C080913B
:103FF000DA008E7F8093DA008091D90080FFB4C010
:1040000080E189BD82E189BD09B400FEFDCF81E078
:104010008093B8028091A402811109C00E942B03F1
:104020000E94F6038091E20084608093E200809118
:10403000E10080FF17C08091E20080FF13C08091F3
:10404000E2008E7F8093E2008091E20080618093A5
:10405000E2008091D80080628093D80019BC85E08E
:104060008093B8028091E10084FF42C08091E20019
:1040700084FF3EC080E189BD82E189BD89B5982F6A
:10408000917080FFFBCF8091D8008F7D8093D80006
:104090008091E1008F7E8093E1008091E2008F7E2D
:1040A0008093E2008091E20081608093E200809141
:1040B000B902882309F45EC084E08093B8020E94AC
:1040C00015130E94F7120E94B9070E94250C109246
:1040D000AB028091AA02882349F08091A5028160F9
:1040E0008093A50260E086950E94FB150E94E5156D
:1040F0008091E10083FF27C08091E20083FF23C00D
:104100008091E100877F8093E10082E08093B80294
:104110001092B9028091E1008E7F8093E10080913E
:10412000E2008E7F8093E2008091E20080618093C4
:10413000E20042E060E080E00E94C4038091F00071
:1041400088608093F000FF91EF91BF91AF919F91B4
:104150008F917F916F915F914F913F912F910F9030
:104160000FBE0F901F90189519BC1092B8021092B4
:10417000A4025DCF8091E30087FD93E09093B802A5
:104180009ECFCDB7DEB72A970FB6F894DEBF0FBE2D
:10419000CDBF84B7877F84BF0FB6F894A895809170
:1041A0006000886180936000109260000FBE80E81C
:1041B00090E00FB6F89480936100909361000FBE79
:1041C00085B7806885BF85B7806885BF0E942B034F
:1041D0000E94F6038091E20084608093E20078946C
:1041E0008091B8028823A1F01091E9001F7090918E
:1041F000EC00892F817090FD80E8182B1092E90067
:104200008091E80083FD0E9420131F701093E90045
:1042100082E084BD93E095BD9AEF97BD80936E00D8
:10422000ADE3B1E049E451E061E070E08D91E82F49
:10423000E295EF70F0E011A18F709B0101C0220F99
:104240008A95EAF7922F9095912391A382A1822BD0
:1042500082A34A175B0751F7A9E4B1E061E070E07F
:104260008D91E82FE295EF70F0E041A18F709B01F6
:1042700001C0220F8A95EAF7922F9095942391A37B
:1042800082A1822B82A321E0A235B20749F7E3E4A1
:10429000F2E0A1E6B2E0119211921D921D9242E06D
:1042A000EB35F407C1F70E945011811102C00E9442
:1042B0009412279A2F988AE08093800089E1809356
:1042C00081008FEF9FEF90938700809386000E947C
:1042D000F7120E945011811102C00E94941282E0D4
:1042E00090E00E94B324809383020E944211909335
:1042F0005C0280935B0283E090E00E94B324682F0D
:1043000070E090E080E00E94AF070E94F712809179
:104310005D02811133C00E945011811104C00E94BE
:1043200094120E94851288E090E00E94BB24609362
:10433000A5027093A6028093A7029093A8026E7FB5
:1043400071F40E94851288E090E00E94BB24609383
:10435000A5027093A6028093A7029093A8020E94E0
:104360007E081092A3028091A50280FF04C060E045
:1043700086950E94FB1581E080935D028DE091E0BF
:1043800090935F0280935E0271E6E72E74E0F72E51
:104390008091B802853009F4B3C00E948A10E4E825
:1043A000F2E0A1E6B2E010E000E0302F8D919D91A7
:1043B000419151914817590709F408C120E0CC24D4
:1043C000C394D12C48275927BA016C217D21672B32
:1043D00009F4F6C029833A8396012823392391E012
:1043E000232B09F490E09B830E9414068160782FB0
:1043F0009D838C8349815A816B818D810E94011F2D
:10440000000F111FF801EC57FD4F80819181C826E4
:10441000D926D182C08280918002909181020E942F
:10442000EA05AC0190917F022CE231E0992311F072
:1044300022E330E04217530778F020917B02D090BE
:104440007C0210917D0200917E022111D6C0812F45
:104450008D29802B09F0A4C10E94B9079091820296
:10446000891731F00E94B907809382020E94250CBF
:104470008091A302882309F48BCF8091A202E0915E
:10448000A502E695E81BE0939E02823009F019C16F
:10449000F0E0E159FB4FE4910E2F10E0E6E6CE2E5E
:1044A000E0E1DE2E80919F02882389F010929F0226
:1044B0000E941406980120953095820F931F9093C7
:1044C0009D0280939C021092A1021092A002809102
:1044D0009C0290919D020E94EA058017910708F4C2
:1044E00057CFE0919C02F0919D020E0F1F1F109379
:1044F0009D0200939C028CE992E0F601099548CF59
:104500008091B802843009F447C01092600288E1BB
:1045100090E020E40FB6F894A895809360000FBE59
:104520002093600080E00E94220880E00E94250C19
:104530001092A3028091AB02811117C081E0809399
:10454000AB028091A502982F91709093AA028E7F62
:104550008093A5028FEF90E7E2E081509040E04029
:10456000E1F700C000000E94740E83B7817F846071
:1045700083BF83B7816083BF7894889583B78E7F2C
:1045800083BF0FB6F894A8958091600088618093EE
:104590006000109260000FBE8091B702882309F47A
:1045A000F7CE0E948A1089E792E0E1E6F2E02191DD
:1045B0003191232B09F0DEC08E179F07C1F7E8CE9B
:1045C0002F5FCC0CDD1C293009F0FECE0F5F1F4F92
:1045D0000C30110509F0E9CE8FEF8E838F8318869A
:1045E0000E9414068160782F9A8789874E815F81A7
:1045F00068858A850E94011F0ECF9F3F19F09F5F3B
:1046000090937F02121624F40E94620580937B022D
:1046100080917B0287FF05C00E946205819580938F
:104620007B021D1424F40E94620580937C02809119
:104630007C0287FF05C00E946205819580937C0201
:1046400030917B023323A1F020917C02222381F060
:1046500045EB3403C0011124992359F190937B0257
:1046600045EB240390011124332339F130937C026C
:10467000111624F40E94400580937D0280917D02F2
:1046800087FF05C00E944005819580937D0210162A
:1046900024F40E94400580937E0280917E0287FF71
:1046A00005C00E944005819580937E020E942006ED
:1046B000D3CE81E080937B02D3CF81E080937C02D4
:1046C000D7CF863059F4F0E0E459FB4FE4910E2F38
:1046D00010E07AE7C72E70E1D72EE4CE893061F47E
:1046E000E695F0E0E759FB4FE4910E2F10E062EE03
:1046F000C62E6EE0D62ED6CE8F3061F4E695F0E071
:10470000EA59FB4FE4910E2F10E05CE0C52E5FE00C
:10471000D52EC8CE853159F4F0E0ED59FB4FE49128
:104720000E2F10E04AE7C42E4FE0D42EBBCE08EE89
:1047300013E098ECC92E9FE0D92E883109F4B2CE4F
:10474000833241F4F701059114913DE0C32E30E12D
:10475000D32EA8CE04EF11E029EAC22E2EE0D22EED
:10476000843209F49FCE00ED17E08DEBC82E84E073
:10477000D82E98CE80E189BD82E189BD09B400FEC2
:10478000FDCF8091D8008F7D8093D8008091E0008C
:1047900082608093E0008091E00081FDFCCFF8CD45
:1047A0009F3F09F02CCF3DCF78941F921FB61F92E8
:1047B00011248F939F93AF93BF9380913E0290916A
:1047C0003F02A0914002B09141020196A11DB11D8E
:1047D00080933E0290933F02A0934002B093410227
:1047E000BF91AF919F918F911F901FBE1F90189501
:1047F0001F921FB61F9211248F939F93AF93BF9365
:1048000080916002811113C080913E0290913F021D
:10481000A0914002B09141024196A11DB11D80932B
:104820003E0290933F02A0934002B0934102BF9199
:10483000AF919F918F911F901FBE1F901895DB0124
:104840008F939F930E949C24BF91AF91A29F800D54
:10485000911DA39F900DB29F900D1124089587FB89
:10486000082E062687FD819567FD61950E94A72485
:104870000EF4919507FC81950895AA1BBB1B51E18D
:1048800007C0AA1FBB1FA617B70710F0A61BB70BC0
:10489000881F991F5A95A9F780959095BC01CD0165
:1048A000089597FB072E16F4009407D077FD09D0E2
:1048B0000E943D2407FC05D03EF4909581959F4FC2
:1048C0000895709561957F4F0895A1E21A2EAA1B55
:1048D000BB1BFD010DC0AA1FBB1FEE1FFF1FA217B0
:1048E000B307E407F50720F0A21BB30BE40BF50BAD
:1048F000661F771F881F991F1A9469F76095709536
:10490000809590959B01AC01BD01CF010895EE0FFC
:10491000FF1F0590F491E02D0994A29FB001B39F71
:10492000C001A39F700D811D1124911DB29F700DB8
:10493000811D1124911D08950E948D24A59F900D25
:10494000B49F900DA49F800D911D11240895991B73
:1049500079E004C0991F961708F0961B881F7A9576
:10496000C9F780950895F999FECF92BD81BDF89A57
:10497000992780B50895A6E1B0E044E050E00C949A
:10498000ED24A8E1B0E042E050E00C94ED24262FA5
:10499000F999FECF92BD81BDF89A019700B4021635
:1049A00039F01FBA20BD0FB6F894FA9AF99A0FBEE3
:1049B00008950396272F0E94C8240E94C724252FFC
:1049C0000E94C824242F0C94C8240196272F0E94EB
:1049D000C8240C94C724DC01CB01FC01F999FECF5B
:1049E00006C0F2BDE1BDF89A319600B40D92415077
:1049F0005040B8F70895FC014150504030F001900C
:104A00000616D1F73197CF01089588279927089581
:104A1000F894FFCF100C100C190C190C1B0C190C6E
:104A2000190C190C100C100C200C190C190C200C62
:104A300003142B14CD152B14CD155E147F14CD1536
:104A40008815951544189318AE18B318B818BD18E2
:104A5000C218C718CC18D118D618DB18DE18F718EA
:104A6000FA18FD180019031906190919D019D019D7
:104A7000411A411A991AB31A051A051AF51ACB1BCD
:084A8000DA1BDA1B051A621CA7
:104A880001191A1B1C1D1E1F2021220102BE04CE63
:104A98000CA30C6D0C320C01000102020202060686
:104AA800060909090909090F0F0F0F0F0F15151529
:104AB8001819191919191919191919232430313202
:104AC800339091353697349694F0F1F4F5F6F7670C
:024AD8006692E4
:00000001FF
