:100000000C949B040C94E2040C94E2040C94E2041F
:100010000C94E2040C94E2040C94E2040C94E204C8
:100020000C94E2040C94E2040C94762C0C944A2D6B
:100030000C9464240C94E2040C94E2040C94E20406
:100040000C94E2040C94E2040C94E2040C94E20498
:100050000C94E2040C94D6240C94E2040C94E20474
:100060000C94E2040C94E2040C94E2040C94E20478
:100070000C94E2040C94E2040C94E2040C94E20468
:100080000C94E2040C94E2040C94E2040C94E20458
:100090000C94E2040C94E2040C94E2040C94E20448
:1000A0000C94E2040C94E2040C94E20429003B005A
:1000B0003D003F00410000004400270047003A0097
:1000C0003C003E004000420043004500460048001E
:1000D00035001F0021002300250027002E002A00E4
:1000E0004A001E0020002200240026002D002A00C5
:1000F00049004B002B001A0015001C000C001300D7
:10010000300000004D001400080017001800120015
:100110002F0031004C004E003900160009000B0082
:100120000E003300320000000000040007000A0047
:100130000D000F003400280000000000E1001D0049
:100140000600050010003700E500000052006400C2
:100150001B001900110036003800010000000000EB
:10016000E000E200000000000000E600E700000000
:100170005100E300000000002C0000000151E400E9
:1001800050004F00010001000100C35CC55C00008D
:10019000CA5C0100BD5C01000100C25CC65CC85CB9
:1001A000C75CC95CBF5CBE5C0100010001000100CE
:1001B0000100010001000100010001000100010037
:1001C00001000100010001000100A900010001007F
:1001D000005C01000100010001000000AB00010013
:1001E000010001000100010001000100AE00AA00B1
:1001F00001000100010001000100010001000000F8
:1002000000000100010001000100010001000100E7
:1002100000000000010001000100010001000100D8
:1002200001000000010001000100010001000100C7
:1002300001000100000000000100010000000000BA
:1002400000000100010000000100010000000000AA
:100250000100000001000100010001000100010097
:100260000100010001000000010001000100010087
:100270000100010001000100010001000100010076
:100280000100010001000100010001000100010066
:100290000100010001000100010001000100010056
:1002A0000100010001000100010001000100010046
:1002B0000100000001000100010001000100010037
:1002C0000100010001000100010001000100010026
:1002D0000100010001000000000001000100010018
:1002E0000100010001000100000000000100010008
:1002F00001000100010001000100000001000100F7
:1003000001000100010001000100010000000000E7
:1003100001000100000000000000010001000000D9
:1003200001000100000000000100000001000100C8
:1003300001000100010001000100010001000000B6
:1003400001000100010001000100010001000100A5
:100350000100010001000100010001000100010095
:100360000100010001000100010001000100010085
:100370000100010001000100010001000100010075
:100380000100010001000100010000000100010066
:100390000100010001000100010001000100010055
:1003A0000100010001000100010001000100000046
:1003B0000000010001000100010001000100010036
:1003C0000000000001000100010001000100010027
:1003D0000100000001000100010001000100010016
:1003E0000100010000000000010001000000000009
:1003F00000000100010000000100010000000000F9
:1004000001000000010001000100010000000000E7
:10041000000000002A2B280000000000000000005F
:100420000000000000000029000000002C1E342005
:10043000212224342627252E362D3738271E1F202B
:100440002122232425263333362E37381F04050670
:100450000708090A0B0C0D0E0F10111213141516B4
:100460001718191A1B1C1D2F3130232D35040506B2
:100470000708090A0B0C0D0E0F1011121314151694
:100480001718191A1B1C1D2F3130354C00000000A5
:10049000000000000000000000000000000000005C
:1004A000000000000000000000000000000000004C
:1004B000000000000000000000000000000000003C
:1004C000000000000000000000000000000000002C
:1004D000000000000000000000000000000000001C
:1004E000000000000000000000000000000000000C
:1004F00000000000000000000000000000000000FC
:1005000000000000000000000000000000000000EB
:1005100000000000000000000000000000000000DB
:1005200000000000000000000000000000010101C8
:1005300001010100010101010000000000000000B4
:1005400000000000000001000100010101010101A3
:10055000010101010101010101010101010101018B
:100560000101010101010100000001010000000082
:10057000000000000000000000000000000000007B
:1005800000000000000000010101010000047F3FA5
:100590001F643214643214783C1E1E140A05222390
:1005A000252628292A2C2D2F3032333536383A3B50
:1005B0003D3E4042434547494A4C4E5051535557A2
:1005C000595A5C5E6062646668696B6D6F717375C1
:1005D00077797B7D7F81838587898A8C8E909294C1
:1005E00096989A9C9E9FA1A3A5A7A8AAACAEAFB1CE
:1005F000B3B4B6B8B9BBBCBEBFC1C2C3C5C6C7C918
:10060000CACBCCCDCED0D1D2D2D3D4D5D6D7D7D8D1
:10061000D9D9DADADBDBDBDCDCDCDCDCDDDDDDDD23
:10062000DCDCDCDCDCDBDBDBDADAD9D9D8D7D7D62B
:10063000D5D4D3D2D2D1D0CECDCCCBCAC9C7C6C5E2
:10064000C3C2C1BFBEBCBBB9B8B6B4B3B1AFAEAC28
:10065000AAA8A7A5A3A19F9E9C9A98969492908ED3
:100660008C8A89878583817F7D7B79777573716FAC
:100670006D6B6968666462605E5C5A595755535188
:10068000504E4C4A4947454342403E3D3B3A38363E
:10069000353332302F2D2C2A292826252322FFAA54
:1006A0007F55400001010101010101010102020227
:1006B000020202020202030303030303030304040E
:1006C00004040404040505050505060606060607D8
:1006D0000707070708080808090909090A0A0A0B91
:1006E0000B0B0C0C0C0D0D0D0E0E0E0F0F0F101032
:1006F00011111112121313141415151616171718B9
:100700001819191A1A1B1B1C1D1D1E1E1F20202123
:100710002222232424252626272829292A2B2C2D6A
:100720002D2E2F30313232333435363738393A3B8B
:100730003C3D3E3F404142434445464748494A4C80
:100740004D4E4F50515354555658595A5B5D5E5F4C
:10075000616264656668696B6C6D6F7072737577E2
:10076000787A7B7D7E8082838587888A8C8E8F9144
:10077000939596989A9C9EA0A2A3A5A7A9ABADAF6E
:10078000B1B3B5B7BABCBEC0C2C4C6C9CBCDCFD158
:10079000D4D6D8DBDDDFE2E4E7E9EBEEF0F3F5F801
:1007A000FAFDFF0403300000000803680038003839
:1007B0000000002803680069006E0065007900628F
:1007C0000075007300680020006B0065007900620E
:1007D000006F0061007200640073000000040309F0
:1007E0000409025B00030100A0FA090400000103F0
:1007F00001010009211101000122400007058103C8
:1008000008000A0904010002030000000921110187
:1008100000012222000705820320000107050303CF
:100820002000010904020001030000000921110158
:1008300000012285000705840320000A120110012F
:1008400000000008D804A2EC0100010203010660C8
:10085000FF0961A1010962150026FF0095207508B6
:1008600081020963150026FF00952075089102C0DA
:1008700005010902A10185020901A100050919016B
:10088000290515002501950575018102950175035E
:1008900081010501093009311581257F950275080F
:1008A000810609381581257F950175088106050C9B
:1008B0000A38021581257F950175088106C0C0059B
:1008C000010980A10185031A81002A830016010015
:1008D000260300950175108100C0050C0901A101D6
:1008E00085041A01002A9C02160100269C0295012B
:1008F00075108100C005010906A101050719E0294D
:10090000E71500250195087501810295017508819B
:10091000010507190029FF150026FF009506750837
:1009200081000508190129059505750191029501B8
:1009300075039101C00011241FBECFEFDAE0DEBFC6
:10094000CDBF04B603FE27C08091E0029091E10282
:10095000A091E202B091E3028730904BA740B04BE8
:10096000D1F41092E0021092E1021092E202109291
:10097000E30214BE84B7877F84BF0FB6F894A895AE
:1009800080916000886180936000109260000FBECB
:10099000E0E0F8E3099511E0A0E0B1E0EAE7F0E675
:1009A00002C005900D92AC36B107D9F722E0ACE653
:1009B000B1E001C01D92A03EB207E1F70E942A29D2
:1009C0000C94EC2F0C9400000C94F9040C94FA0491
:1009D0000C94FB0481FF07C0559A5D9882FF05C007
:1009E0006E9A769808955598F8CF6E98FACF0C9431
:1009F000EA040895089581E0089581E008951F9321
:100A0000CF93DF9300D000D00F92CDB7DEB74983EC
:100A10005A836B832091D00189819A8121111BC057
:100A20006623A9F00E94B521182F682F89819A8129
:100A30000E94612169817A81812F0F900F900F9020
:100A40000F900F90DF91CF911F910C9486140E940C
:100A50008D21182FEFCF0E94B52169817A81EDCFCA
:100A6000FC01408151816281738184810C94FF0477
:100A70001F93CF93DF9390E0FC01E45FFB4F149151
:100A8000FC01E45FFA4FD49184579B4FFC01C49161
:100A9000DD2319F081EE0E947218CC2319F086EE46
:100AA0000E947218812F0E94D119CC2319F086EE72
:100AB0000E947B19DD2331F081EEDF91CF911F91F0
:100AC0000C947B19DF91CF911F910895FF920F93A2
:100AD0001F93CF93DF93EC01F62E8881882331F1A9
:100AE0008E010F5F1F4F813041F4C9818C2F0E940E
:100AF00072188C2F0E947B1905C0823079F489818D
:100B00000E947218E80121968F2D815030F3EFE991
:100B1000FFE03197F1F700C00000F7CF833011F408
:100B20008981E8CF0E9438058E01ECCFDF91CF910B
:100B30001F910F91FF90089560E00C9466058F92CD
:100B40009F92AF92BF92CF92DF92EF92FF920F935C
:100B50001F936B017C0181E090E0A0E0B0E04C01CC
:100B60005D0104C0880C991CAA1CBB1C4A95D2F7D5
:100B7000B501A4014C015D0104C0880C991CAA1C9C
:100B8000BB1C2A95D2F7482959296A297B2904C018
:100B9000880F991FAA1FBB1F0A95D2F78A019B01D4
:100BA0000C211D212E213F21041715072607370789
:100BB00089F48C299D29AE29BF29BC01CD011F9143
:100BC0000F91FF90EF90DF90CF90BF90AF909F90EC
:100BD0008F90089580959095A095B0958C219D213A
:100BE000AE21BF21EACF0F93382F262F60914F02FD
:100BF000709150028091510290915202042F432F24
:100C00000E949F050F910C949F200E9488120E94C1
:100C1000FF22811102C00E94A5230E940A120C9497
:100C2000E4040E9409120C94E60481E008950C94F7
:100C30001506CF93C82F0E94F7048C2FCF910C94E8
:100C4000170608950E94A11C0E9421062FEF84E33D
:100C50009CE0215080409040E1F700C000000C94DF
:100C6000FA240F931F93CF93DF93EC010E9430057A
:100C70008C01BE010E94BD128823D9F1BE01C801BA
:100C80000E94E8048823A9F1BE01C8010E94B3159F
:100C9000882379F1BE01C8010E94F415882349F127
:100CA000BE01C8010E946710882319F18A81882338
:100CB00041F001158CE51807D1F00E3D8CE51807C1
:100CC000F1F006311C4551F50E944A229A81992380
:100CD000D9F08A7A91E009F490E090936C01811147
:100CE00011C089E20E9425220E94962202C00E9421
:100CF000220680E0DF91CF911F910F9108950E940D
:100D0000A523F7CF85E3EECF80916C01811104C05C
:100D100089E20E942C22E8CF85E3FBCFCE01DF9150
:100D2000CF911F910F910C94FD0490E080E0089505
:100D30000895FC01EE0FFF1FE457FA4F859194913F
:100D40000895CF93DF930E9486140E948708EC01D8
:100D5000811521E5920708F049C0811530E5930718
:100D600008F030C1883E910508F5803E910570F588
:100D7000883A910570F4853A910508F0AEC081304B
:100D8000910521F1009711F1049700F5D0E0C0E042
:100D90001DC08F3B910508F4ABC0805C9109C03C3D
:100DA000D105A0F30E949906EC0110C08115904373
:100DB00088F4C11580E2D80708F0FBC0C03FD10518
:100DC00028F3CF3FD10509F008F4F1C0CE01DF913F
:100DD000CF910895C11590E4D90708F0F0C0CE0175
:100DE0009927D3FFE9C0EC01D86CF0CF811529E534
:100DF000920760F5811538E5930708F029C1811540
:100E000044E5940778F4C11583E5D80708F007C1D5
:100E1000C11592E5D90708F0F1C0DC2FCC27C16FCE
:100E2000D06AD4CF811525E5920708F40CC181154D
:100E300036E5930708F0AACF0E941E09C82FD0E01C
:100E4000DC2FCC27CC27DF71D062C0CF8D3B9C45F7
:100E500009F403C1CE3B8CE5D807D0F4CB3B9CE52D
:100E6000D90709F4FDC008F0FEC0C1153AE5D30763
:100E700008F08CCF8C2F8F700E941E0934E0D6951D
:100E8000C7953A95E1F7CF709C2FEC01D0699ECFC2
:100E9000C03C4CE5D40709F4E9C060F4CE3B9CE5C6
:100EA000D90709F4E6C0CF3BDC4509F06FCFC0E0BD
:100EB000D2ED8CCFCE0190568115904208F066CFCE
:100EC0008D2F8F710E941E0990E0982F8827882708
:100ED0009F719C012C2BE901B7CF853A910509F44C
:100EE000CBC0863A910509F0CAC0C2E8D0E46ECF03
:100EF000883A910509F4C6C0893A910509F4C5C03C
:100F00008A3A910509F4C4C08B3A910509F4C3C02B
:100F10008C3A910509F4C2C08B3B910509F4C1C01C
:100F20008C3B910509F4C0C08D3A910509F4BFC00E
:100F3000803B910509F4BEC08E3A910509F4BDC00D
:100F40008F3A910509F4BCC0813B910509F4BBC0FF
:100F5000823B910509F4BAC0833B910509F4B9C0FD
:100F6000843B910509F4B8C0853B910509F4B7C0ED
:100F7000863B910509F4B6C0873B910509F4B5C0DD
:100F8000883B910509F4B4C0893B910509F4B3C0CD
:100F90008D3B910509F4B2C08E3B910509F4B1C0B7
:100FA0008A3B910509F4B0C0C0E0D4E40FCFD0650E
:100FB0000DCFCE019F70F6CEEC01D06C07CFDF7065
:100FC000D06A04CFE4E096958795EA95E1F78370BF
:100FD0002C2F26952695237040E2249F9001112402
:100FE000382B8C2F8370C1E0D0E002C0CC0FDD1F06
:100FF0008A95E2F7C22BD32BDC68E8CECE01837052
:10100000992721E030E002C0220F331F8A95E2F7D2
:10101000C695C69580E2C89FE0011124EBCFCE01B2
:101020008370992721E030E002C0220F331F8A9598
:10103000E2F7C695C69590E2C99FE0011124C22B44
:10104000D32BDA68C3CED82FCC27C46FD06ABECEDC
:10105000D82FCC27C06FD06AB9CEC0E0D1EDB6CEC4
:10106000C0E0D4EDB3CEC0E0D5EDB0CEC0E0D3ED5E
:10107000ADCEC0E0D0EDAACEC1E8D0E4A7CEC3E8A3
:10108000D0E4A4CEC2EED4E4A1CEC9EED4E49ECE88
:10109000CAEED4E49BCEC5EBD4E498CEC6EBD4E440
:1010A00095CEC3EBD4E492CEC4EBD4E48FCEC7EBA1
:1010B000D4E48CCECCECD4E489CECDECD4E486CE92
:1010C000C3E8D5E483CECAE8D5E480CEC2E9D5E44E
:1010D0007DCEC4E9D5E47ACEC1E2D6E477CEC3E2D0
:1010E000D6E474CEC4E2D6E471CEC5E2D6E46ECEC8
:1010F000C6E2D6E46BCEC7E2D6E468CECFE6D4E44F
:1011000065CEC0E7D4E462CECAE2D6E45FCE8238D0
:101110009105B1F1B0F48133910509F475C048F43B
:101120008932910509F469C08A32910509F473C0C6
:1011300008958533910509F459C08933910501F16A
:101140000895833E9105A9F138F4803E9105F9F0A8
:10115000823E910549F10895863E9105A9F1873EA9
:101160009105C9F1843E910519F52091D20221FF24
:101170001FC08091D10284FD14C087EE90E00895D5
:101180002091D1022370A1F080EE90E0089520918B
:10119000D10220FD47C03091D20230FF09C024FFA8
:1011A00044C090E080E004C02091D10222FDF7CF3E
:1011B00008952091D10222FD3BC03091D20230FD32
:1011C000E3CF24FFF5CFEDCF2091D10223FFF0CF65
:1011D00024FDE7CFD2CF2091D10223FD2CC0309146
:1011E000D20231FFEECF84EE90E008952091D1023B
:1011F00025FFDECF89E290E008952091D10225FFFE
:10120000D7CF85E390E008952091D10226FFD0CF7B
:101210008AE290E008952091D10226FFC9CF81E3B0
:1012200090E0089589E390E0089583EE90E00895BA
:1012300082EE90E0089586EE90E008959091D102BC
:1012400092FF06C0282F28712830F9F4877F846028
:1012500093FF06C0282F28712831F1F4877E84611E
:101260002091D20220FF06C0382F38713830D9F4CF
:10127000877F816021FF06C0282F28712831D1F493
:10128000877E816194FD877E0895282F2471243004
:10129000F9F68B7F8860DCCF282F2471243101F789
:1012A0008B7E8861DDCF382F3171313019F78E7F19
:1012B0008860E0CF282F2171213121F78E7E88614F
:1012C000E1CFE82FF0E0EE0FFF1FE359FE4F8081E2
:1012D000918108950895ACE2B1E061E070E08D91F4
:1012E000E82FE295EF70F0E041A18F709B0101C003
:1012F000220F8A95EAF7922F9095942391A382A1C9
:10130000822B82A381E0A833B80749F7A3E2B1E0BA
:1013100061E070E08D91E82FE295EF70F0E041A17F
:101320008F709B0101C0220F8A95EAF7922F90954A
:10133000942391A382A1822B82A381E0AC32B807CF
:1013400049F7E5E8F1E0ADE6B1E08DE991E0119211
:1013500011921D921D928E179F07C9F78CE00E9473
:101360004B0A0C9405065F926F927F928F929F9228
:10137000AF92BF92CF92DF92EF92FF920F931F93A3
:10138000CF93DF93A5E8B1E00CE211E0512CEE24FD
:10139000E394F12C8D909C9011971D921D92E80181
:1013A00089918E01E82FE295EF70F0E091A18F70A6
:1013B000B70101C0660F8A95EAF7892F862B81A3B2
:1013C00082A1662E6094862182A3D0EADA95F1F795
:1013D00083E2C82E81E0D82E30E020E0AD014250FB
:1013E0005109E60179906E01872D82958F7090E00A
:1013F000EC0188A1EA01A880B98090E0D72DDF70C8
:1014000002C095958795DA95E2F780FD41C0C70146
:10141000022E02C0880F991F0A94E2F78A299B299D
:10142000EA01998388832F5F3F4F29303105C9F640
:1014300081A1D62DD823D1A382A1682B62A381E0FC
:10144000FA01208131812815390509F480E0582AF4
:10145000F1E0AD39BF0709F09DCF252D4CE06DE6D9
:1014600071E085E891E00E944C0A0E941106852DEA
:10147000DF91CF911F910F91FF90EF90DF90CF9070
:10148000BF90AF909F908F907F906F905F900895E6
:1014900090E080E0C3CF0895FF920F931F93CF9306
:1014A000DF93F82E092F162FD72FC42F222349F0B0
:1014B00081E080939F010E94942490939E018093E9
:1014C0009D0180919F018823A1F080919D019091C1
:1014D0009E010E94AC24069760F0EF2DF02FA12F03
:1014E000BD2F90E080E0D0E08C179D0744F0109273
:1014F0009F01DF91CF911F910F91FF90089521914E
:1015000031912D933D930196EFCFAF92BF92CF9241
:10151000DF92FF920F931F93CF93DF93362F472FC6
:10152000E82FF0E0ED55F94F71110DC06491762F61
:10153000862FDF91CF911F910F91FF90DF90CF9079
:10154000BF90AF900895C72FD0E02491F22E022FC4
:1015500010E056E0659FC0011124EFEFF0E0BF01FD
:101560000E941A2F832F90E0880F991F35E5369F30
:10157000D001379FB00D11248A1B9B0B982F990F18
:10158000980F6F01CC1ADD0AC09ED001C19EB00D2C
:10159000D09EB00D11248B2F949FA0011124452FB4
:1015A00055276F01C41AD50AC09EA001C19E500DD7
:1015B000D09E500D11245F01A91AB108AC9E6001A4
:1015C000AD9ED00CBC9ED00C1124CD2CDD24EC198A
:1015D000FD09E09FE001E19FD00DF09FD00D1124A7
:1015E000ED2F62307105A1F048F46115710569F0C5
:1015F0006130710589F0EB2F852F07C064307105CC
:1016000071F088F066307105B1F76E2F722F91CFAF
:10161000E22F2B2F8D2FF9CFE22F252FF6CFEB2F97
:10162000822F2D2FF2CF2B2F8F2DE52FEECF089568
:10163000CF93DF93762FE901682F842F0E94850ACC
:10164000798368838A83DF91CF91089580917D02A9
:10165000982F9E7F29F48170826080937D02089587
:101660008A34E8F381708864F8CF88E090E00C94C5
:10167000AC2FCF92DF92EF92FF926B017C010E9420
:10168000260BB701A60188E090E0FF90EF90DF9075
:10169000CF900C94CA2FEDE7F2E083E080831182B3
:1016A0008FEF828383831482608171818281938131
:1016B0000C94390B80917D0280FF02C086950895BD
:1016C00080E0089580918102833018F48F5F8093C9
:1016D000810260917D0270917E0280917F029091E3
:1016E00080020C94390B80918102882319F081507B
:1016F0008093810260917D0270917E0280917F02D1
:10170000909180020C94390B6091040170E08091FB
:101710007D0280FF0AC08091A40123E0829FC00166
:1017200011248E579D4F0C944F128091A3019091DC
:10173000030123E0829FF0011124EE57FD4F89172A
:1017400050F71182108212828F5F3396F8CF9091FA
:101750007D0290FF14C09091A3012091030133E01A
:10176000939FF0011124EE57FD4F921710F00C9447
:10177000840B8183608342839F5F3396F6CF089505
:10178000CF93DF9300D00F92CDB7DEB790917D025B
:1017900090FF0AC09E012F5F3F4F0E94180B4B81A4
:1017A00069818A810E94A70B0F900F900F90DF91A3
:1017B000CF910895CF93DF93EC01EC81F0E0E256F6
:1017C000FA4F4491EDE7F2E0628181810E94C00B03
:1017D0008C818F5F8C83DF91CF910895CF93DF93BE
:1017E000EC01EDE7F2E0438162818C810E94C00B45
:1017F0008C818F5F8C83DF91CF9108950F931F931E
:10180000CF93DF9300D00F92CDB7DEB78C018091DC
:10181000A00181110AC09E012F5F3F4F4FEF6FEF74
:101820000E94180B8A818093A001F80164816130C5
:1018300069F08091A00140E0662361F040E06230F1
:1018400011F44091A00180E060E004C06091A0012B
:1018500040E080E00E94A70BF801848190E00196AF
:1018600063E070E00E942E2F84830F900F900F9002
:10187000DF91CF911F910F910895AF92BF92CF92B8
:10188000DF92EF92FF920F931F93CF93DF9300D0DD
:101890000F92CDB7DEB7182FF62E042FE22E9091BF
:1018A0007D0290FF29C0E92FE695AE2FB0E0A85C3D
:1018B000BE4F8C918093AC019E7F923059F59E0172
:1018C0002F5F3F4F812F0E94180B4B8169818A81C6
:1018D0000E94A70B10937E02F0927F020093800279
:1018E000EE2051F060917D0270917E0280917F0226
:1018F000909180020E94390B0F900F900F90DF9112
:10190000CF911F910F91FF90EF90DF90CF90BF90FC
:10191000AF900895823019F400918002DBCF8630B9
:1019200019F410917E02D6CF8930D9F3893191F61E
:10193000E9518E2F8170D82EE695F0E0E256F94FEE
:10194000A590B490C12CBB2460910201C61618F07A
:101950000E94840BBFCF2C2D30E0A29EC001A39E1D
:10196000900DB29E900D112470E00E941A2F812FCD
:10197000D11013C0860F4091A301420F532F511D68
:101980009A01220F331F240F351F2E573D4F402F32
:101990006F2D0E94180BC394D7CF861BECCFEDE7B9
:1019A000F2E09181282F4381628188E0890F0C94B5
:1019B0003D0C81E00C94CF0CEDE7F2E09181282FF3
:1019C0004381628188EF890F0C943D0C81E00C9477
:1019D000DC0CEDE7F2E0628128E0620F08F46FEFC3
:1019E000282F438181810C943D0C81E00C94E90CFB
:1019F000EDE7F2E0628128E0621B08F460E0282F46
:101A0000438181810C943D0C81E00C94F80CEDE74E
:101A1000F2E0438128E0420F08F44FEF282F628163
:101A200081810C943D0C81E00C94070DEDE7F2E010
:101A3000438128E0421B08F440E0282F6281818125
:101A40000C943D0C81E00C94160D20E00C943D0CA0
:101A5000EF92FF921F93CF93DF93EC0110E0EE24FF
:101A6000EA94F12C60910201161770F00E94840B29
:101A70009A818C8190FF27C08F5F8C83DF91CF91FB
:101A80001F91FF90EF9008952091A301422F410FE5
:101A90005527551FCA019A01220F331F280F391FDE
:101AA0002E573D4F70E0C7010E942E2F962F8C813C
:101AB0004091800260917F02199F800D11240E9445
:101AC000180B1F5FCFCF8150D8CFAF92BF92CF926C
:101AD000DF92EF92FF920F931F93CF93DF93FC015E
:101AE00082810FEF80FF01E010E048E1A42E809199
:101AF00002011817C8F00E94840B8091A2010130E6
:101B000009F055C0811102C080910201815080937B
:101B1000A201DF91CF911F910F91FF90EF90DF9085
:101B2000CF90BF90AF900895C091A301C12ED12C4A
:101B3000CC0DDD2DD11DCE01880F991FC80FD91FE7
:101B4000CE57DD4F198218821A8234E0E32EF12C31
:101B5000B12C8091A2018B0D89311CF16A2D0E945C
:101B60000C2F892F082E000C990BC816D90691F45A
:101B7000809180028E9DA0018F9D500D112455955E
:101B80004795559547959E0160917F0280917E0211
:101B90000E94180BB00EF1E0EF1AF108D1F61F5FAA
:101BA000A6CF87FFDFCF90910201890FDBCF90E0B6
:101BB00001966091020170E00E942E2FA8CF0F9332
:101BC0001F93CF93DF938091A3019091030123E0B2
:101BD000829FF0011124EE57FD4F891740F1C0E0BC
:101BE000D3E060910201C61740F10E94840B20915E
:101BF00000018091A101820F8093A10190910101C8
:101C0000920F90930101191654F4082E000C990BB1
:101C1000409102014150550B841795071CF0219506
:101C200020930001DF91CF911F910F9108951182B0
:101C3000108212828F5F3396D0CF0C2F10E070E0AD
:101C4000C8010E942E2F2091A301820F482F50E03F
:101C50002091A101022E000C330B02171307BCF0D8
:101C600020910101022E000C330B201731077CF06C
:101C70008D9F900111242E573D4F4091800260911D
:101C80007F0280917E020E94180BCF5FAACFFA01DB
:101C9000EE0FFF1FE40FF51FEE57FD4F118210826C
:101CA0001282F3CF0F931F93CF93DF938C01FC012C
:101CB0008481958101968170992795838483C0E002
:101CC000D5E580910201C81730F0DF91CF911F91C7
:101CD0000F910C94840B2091A301422F4C0F552798
:101CE000551FCA019A01220F331F280F391F2E5783
:101CF0003D4F8C2F8695F80144815581840F952F97
:101D0000911D81704091800260917F028D9F802D96
:101D100011240E94180BCF5FD4CF0F931F93CF9342
:101D2000DF93EC0110E000E09091020190171106A2
:101D300009F06CF40E94840B8C8190E00196817014
:101D400099278C83DF91CF911F910F910895209156
:101D5000A301A801420F511D9A01220F331F240F26
:101D6000351F2E573D4F4C8160917F0280917E023E
:101D700096959017110651F04CF0442349F040918C
:101D800080020E94180B0F5F1F4FCECF4423B9F380
:101D900040E0F7CFEDE7F2E080818E7F80836081C5
:101DA0007181828193810E94390B1092AD012FEFD6
:101DB00080E792E0215080409040E1F700C00000B1
:101DC0000C94840BEDE7F2E080818E7F808310928B
:101DD000AD012FEF80E792E0215080409040E1F785
:101DE00000C000000C94840B60917D02669570E049
:101DF0004BE050E085E091E00E94972F892B19F489
:101E000081E08093AD010E9494249093A601809379
:101E1000A501089590917D0290FF35C091708111C8
:101E200028C0926090937D02662351F060917D02FC
:101E300070917E0280917F02909180020E94390B06
:101E400060917D02669570E04BE050E085E091E0A6
:101E50000E94972F892BA1F01092AD0181E0809311
:101E6000A8014091800260917F0280917E020C94D3
:101E7000250D853210F09864D5CF880F982BD2CFDE
:101E80000E94F40EEBCF0895682F90917D029695F5
:101E900081E0890F853208F081E00C940A0F81E01F
:101EA0000C94440F682F90917D0296958FEF890FC7
:101EB00009F484E20C940A0F81E00C94520F61E063
:101EC0000C940A0FEDE7F2E08081816080838695B3
:101ED0000C945F0F80917D0280FD0C94CA0E0C94CF
:101EE000620F60E00C940A0F8091AB0181112EC04B
:101EF0000E94FF22811104C00E94A5230E944B0B67
:101F00000E94350B60937D0270937E0280937F0266
:101F1000909380026E7F61F40E944B0B0E94350B00
:101F200060937D0270937E0280937F029093800283
:101F30000E94260B1092AD0180917D0280FF03C0AC
:101F400086950E94710F81E08093AB010895EDE7C3
:101F5000F2E080818160808386950C94710F1092ED
:101F6000AD0108950F931F93CF93DF938091AD013F
:101F7000882309F48DC08091AC01E0917D02E69543
:101F8000E81BE093A7018230C9F5F0E0E656FA4F6E
:101F9000E491CE2FD0E00AED1BE08091A8018823C8
:101FA00089F01092A8010E9494249E0120953095FA
:101FB000820F931F9093A6018093A5011092AA010E
:101FC0001092A9018091A5019091A6010E94AC24D4
:101FD0008C179D0708F45CC0E091A501F091A60163
:101FE000CE0FDF1FD093A601C093A50185EA91E033
:101FF000F801DF91CF911F910F910994863049F438
:10200000F0E0E956FA4FE491CE2FD0E00EEE1BE05F
:10201000C4CF893051F4E695F0E0EC56FA4FE491E4
:10202000CE2FD0E008E21DE0B8CF8F3051F4E69516
:10203000F0E0EF56FA4FE491CE2FD0E005E61DE038
:10204000ACCF853149F4F0E0E257FA4FE491CE2F5E
:10205000D0E00FED1DE0A1CFC8EED3E002E51EE019
:10206000883109F49ACF833239F4ECE8F5E0C59170
:10207000D4910EEF1BE091CFC4EFD1E00DE81EE04C
:10208000843209F48ACFC0EDD7E007E11BE085CFA9
:10209000DF91CF911F910F910895FA01811101C035
:1020A000FB010994CF93DF93C82FD62F0E945A0BC0
:1020B0008C1740F00E945A0B8D1720F4DF91CF91BE
:1020C0000C944F0F8C2FDF91CF910C945F0F0F93D7
:1020D0001F93CF938C01FB01C281CC2309F465C00F
:1020E0000E944A228272F801E25CFC45E431F1056B
:1020F00038F4E251F04D0C94642F0E946A0FC0E056
:102100008C2FCF911F910F9108954CE55FE06FE404
:102110007FE00E944D10F3CF4FE45FE06CE57FE07D
:10212000F8CF46EE5CE069ED7CE0F3CF49ED5CE092
:1021300066EE7CE0EECF44E05DE065EF7CE0E9CF69
:1021400045EF5CE064E07DE0E4CF42E25DE063E126
:102150007DE0DFCF43E15DE062E27DE0DACF43E79F
:102160005BE062E67BE0D5CF42E65BE063E77BE0E5
:10217000D0CF81E00E945F0FC2CF65E082E00E9475
:102180005210BDCF68E086E0FACF6EE089E0F7CF6D
:1021900064E18FE0F4CF67E185E1F1CF88E1EACF38
:1021A00062E289E1ECCF83E2E5CFC1E0A9CF0E94F2
:1021B000FF22811102C00E94A5230E942D2380933B
:1021C000CA02803220F0877088618093CA029091A1
:1021D000CA02892F817090FF04C0892F8695869549
:1021E00086950C94B2118091CA02982F9695969577
:1021F0009695933040F49F5F990F990F990F8770D0
:10220000892B8093CA028091CA0281608093CA029E
:102210000E9431238091CA028695869586950C94FA
:10222000B2118091CA02982F987F79F088508093DC
:10223000CA02887F91E009F490E08091CA0290FB85
:1022400080F98093CA020E9431238091CA02869548
:10225000869586950C94B2118091CA0280FD13C0B8
:1022600081608093CA02813019F489E08093CA02A8
:102270008091CA020E9431238091CA028695869578
:1022800086950C94B21108958091CA0280FF08C00F
:102290008E7F8093CA020E94312380E00C94B21199
:1022A00008958091CA0280FD0C9444110C942C1165
:1022B0009091CA02892F8695869586958F5F8F713A
:1022C00097708430D8F4880F880F880F892B8093FB
:1022D000CA028091CA02887F91E009F490E080915F
:1022E000CA0290FB80F98093CA020E943123809138
:1022F000CA028695869586950C94B2119093CA026F
:10230000E8CF843008F083E0982F990F990F990F48
:102310008091CA028770892B8093CA02887F91E0DE
:1023200009F490E08091CA0290FB80F98093CA0280
:102330000E9431238091CA028695869586950C94D9
:10234000B211E82FE295EF70F0E032A1282F2F7044
:1023500081E090E001C0880F2A95EAF780958323F9
:1023600082A30895CF92DF92EF92FF92843028F5F6
:10237000811124C090918000977F90938000282F36
:1023800030E0AFEFBFEF0E94712F23E030E040E07C
:1023900050E00E94422FC9012C3764E1360790F4C7
:1023A00069E070E00E941A2F70938D0060938C009A
:1023B000FF90EF90DF90CF90089583E090918000A0
:1023C0009860DBCF2A50374D4F4F5F4F942F832FAC
:1023D000722F662725EF38E241E050E00E94422F3D
:1023E00069017A01CA01B9010E94FC2E9B01AC016E
:1023F000C701B6010E94FC2E672F782F892F9927DD
:102400006115710521E08207910571F66FEF7FEF8D
:10241000CBCF0895279A87E30E94A1118AE0809389
:10242000800089E1809381008FEF9FEF9093870078
:10243000809386000C94D7103BB1242F2095232342
:102440003BB1432B3FB7F894680F791F8617970766
:1024500011F43FBF0895FC015191CF01E8E04BB961
:10246000000000C057FF2BB9550F000000C000C08E
:1024700000C02BB900C0EA9591F7E8CF2AB1242B10
:102480002AB99B01220F331F620F731F0E941C1277
:1024900087EC90E00197F1F700C00000089548E054
:1024A0000C943E1282E290E00E94A42F803289F4C4
:1024B00083E290E00E94A42F813059F484E290E0FE
:1024C0000E94A42F91E0833009F090E0892F817061
:1024D000089580E0FCCFCF93C82F6FEF811160E2A9
:1024E00082E290E00E94B82F6FEFC11161E083E2B9
:1024F00090E00E94B82F6FEFC11163E084E290E09A
:10250000CF910C94B82F80E00E946B120C94F922AA
:102510000E94B3098FE39CE90197F1F700C0000026
:102520000E94B30980E00E94610980FF04C00E94FC
:1025300083120C94FA240895089585E290E00E9495
:10254000A42F682F70E090E080E0089585E290E08D
:102550000C94B82F0E949C120E94521281110CC040
:1025600060E070E0CB010E94A6120E94FE130E9460
:10257000E81481E00C946B120895CF93FB01C281A3
:10258000CC2309F19C0122513F452031310520F532
:1025900082510E94F814C0E08C2FCF91089581E001
:1025A0000E94C52043E062E081E00E94F305F3CF82
:1025B00081E00E94E62043E062E081E00E94F305B2
:1025C000EBCF82E0F6CF8031FFE59F0789F38131C1
:1025D0009F45B9F3C1E0E0CF8031EFE59E07F9F206
:1025E00081319F45C9F682E0DBCF2FEFFC012083CC
:1025F0000895EF92FF920F931F93CF93DF93EC0117
:10260000062FE881E150E33108F0B5C0F0E0EE5F5D
:10261000FF4C0C94642F198289E08A83602FCE01CD
:10262000DF91CF911F910F91FF90EF900C941E2896
:102630008981823069F0833071F08130D9F40E9451
:10264000A0240E946A2F6A837B838C839D83E6CFBC
:102650000E949D12F6CF7E0110E0812F0E94610939
:10266000F701928383831F5FF2E0EF0EF11C1C30B1
:10267000A1F7D4CF602FCE010E94F512CFCF898170
:102680008230C1F76A817B818C819D810E946A2F93
:102690000E94A612C3CF4B816A8189810E94D01308
:1026A0009827892798279D838C83B8CF2C813D81DB
:1026B0003227232732274B816A8189810E94E913BF
:1026C000ADCF0E94FE13AACF0E9493148983A6CF98
:1026D0000E9495149827892798279A8389839ECFEB
:1026E0006B8170E089819A81AE014C5F5F4F9827C2
:1026F000892798270E94981491CF6B8170E0898177
:102700009A81AE014C5F5F4F9827892798270E94D6
:10271000BE1484CF0E94E81481CF0E94BE13D6CF8E
:102720006B8170E089819A81AE014C5F5F4F982781
:10273000892798270E94361471CF6B8170E08981B8
:102740009A81AE014C5F5F4F9827892798270E9496
:102750005C1464CF0E94831261CF0E941E282FEF69
:1027600081EE94E0215080409040E1F700C00000ED
:102770000E94FA2453CF8FEF888350CF84E00895CE
:1027800050E0440F551F92E1699F400D511D1124E7
:1027900098ED899F400D511D1124CA018696089518
:1027A0000F931F93CF93DF930E94C0138C010E945D
:1027B000A42FC82FD0E0DC2FCC27C80101960E949F
:1027C000A42F9E01282BC901DF91CF911F910F915A
:1027D00008950F931F93CF93DF93122F032F0E941F
:1027E000C013EC01602F0E94B82F612FCE0101961B
:1027F000DF91CF911F910F910C94B82FAF92BF92A0
:10280000CF92DF92EF92FF921F93CF93DF938CEAE8
:10281000C82E80E0D82ED0E07601C0E014C0F501CB
:1028200025913491412F6C2F8D2F0E94E91382E066
:10283000A80EB11C1F5F193091F782E1E80EF11C60
:10284000CF5FCC3019F0570110E0E9CFDF5F88EDA2
:10285000C80ED11CD43001F7DF91CF911F91FF90AA
:10286000EF90DF90CF90BF90AF900895EF92FF92DE
:102870000F931F93CF93DF93EC018A017C01E60E47
:10288000F71ECE018696CE15DF0539F4DF91CF9184
:102890001F910F91FF90EF900895C03623E0D2076B
:1028A00040F40E94A42FF80180830F5F1F4F2196F0
:1028B000E8CFF8011082F9CFCF92DF92EF92FF922A
:1028C0000F931F93CF93DF937C016A018C01060F56
:1028D000171FEC01CE018696C017D10749F4DF918E
:1028E000CF911F910F91FF90EF90DF90CF900895BF
:1028F000C03623E0D20740F4FE01EE19FF09EC0DCB
:10290000FD1D60810E94B82F2196E4CF462F8430B0
:1029100038F47C3028F4693018F4672F0C94D01305
:1029200090E080E0089580E108958AE790E00895BE
:10293000EF92FF920F931F93CF93DF93EC018A01E5
:102940007C01E60EF71ECE018A579C4FCE15DF059F
:1029500039F4DF91CF911F910F91FF90EF9008957F
:10296000CA37D10540F40E94A42FF80180830F5F7D
:102970001F4F2196E8CFF8011082F9CFCF92DF9256
:10298000EF92FF920F931F93CF93DF937C016A0125
:102990008C01060F171FEC01CE018A579C4FC01700
:1029A000D10749F4DF91CF911F910F91FF90EF90E4
:1029B000DF90CF900895CA37D10540F4FE01EE199B
:1029C000FF09EC0DFD1D60810E94B82F2196E4CF18
:1029D000CF93DF93C6E8D3E060E0CE010E94B82F2A
:1029E0002196C11584E0D807B9F7DF91CF910895FA
:1029F000EF92FF920F931F93CF93DF9300D00F922C
:102A0000CDB7DEB7F82E8FE08F1540F08FEF93E053
:102A10000E94A42F06E813E08823B1F00F900F90D6
:102A20000F90DF91CF911F910F91FF90EF9008953C
:102A3000011584E0180791F3C8010E94A42F8111A9
:102A400001C0FA940F5F1F4FF110F2CF19821A8262
:102A50001B8278018FEFE81AF80AC8010E94A42FA0
:102A600089831A828823D1F28150833068F40E5F03
:102A70001F4FC7010E94A42F8A83882379F2CE01B9
:102A800001960E949C05E5CF8701F9CF0F931F9314
:102A9000CF93DF93C62FD42F022FFC01828188238E
:102AA000C9F06093B0010E9494249093AF01809389
:102AB000AE0180E28C0F883008F050C0C77081E012
:102AC00001C0880FCA95EAF7DF91CF911F910F914E
:102AD0000C94E4191091B001161335C08091AE0129
:102AE0009091AF010E94AC24883C910560F5C0E252
:102AF000CD0F1D17B9F080E2810F883040F41770B8
:102B000081E001C0880F1A95EAF70E94EB19C830DE
:102B100048F481E09D2F977001C0880F9A95EAF7DD
:102B20000E94E419802F0E94D119C830B8F4D770E0
:102B300081E001C0880FDA95EAF7DF91CF911F910C
:102B40000F910C94EB1980E28C0F883038F4C77029
:102B500081E001C0880FCA95EAF7EFCFDF91CF91EE
:102B60001F910F9108959C01CB01233F4CE5340741
:102B700031F190F4283DFCE53F07E9F0293D4CE5B3
:102B8000340769F1273D3C4579F426E241EE61EED8
:102B90000E94461580E00895253FFCE53F07B9F007
:102BA00090F0263F3C45B9F0FC0182818823D1F0AA
:102BB0001092B001089527E245EE65EEE9CF26E2D6
:102BC00041EE60EEE5CF27E245EE64EEE1CF26E28E
:102BD00041EE62EEDDCF27E245EE66EED9CF28E288
:102BE00041E0EBCF81E00895CF93DF93EC01FB014F
:102BF0008281882309F419C1C230FCE5DF07C0F1E6
:102C0000C6319CE5D90730F09E012A5F3C4529304A
:102C1000310570F50E9412239093D2028093D10265
:102C2000C031ECE5DE0709F4CFC008F05BC0C83066
:102C30008CE5D80709F4B6C088F5C430ECE5DE07AA
:102C400009F4A8C0C0F4C2308CE5D80709F49CC0D0
:102C50008091D1028260C330DC4509F498C0809134
:102C6000D1029091D2020E9420230E94A11C80E0F8
:102C7000DF91CF9108958091D1028061C630ECE55B
:102C8000DE0709F484C08091D1028860C730DC453A
:102C900008F47DC08091D102806279C0CC308CE58F
:102CA000D80709F489C070F48091D1028C60CA30D1
:102CB000ECE5DE0709F46BC008F478C08091D1021E
:102CC0008E7F65C0CE308CE5D80709F479C080913D
:102CD000D1028B7FCF30DC4508F459C08091D102FE
:102CE0008F7E55C0CB3FECE5DE0709F457C030F5C9
:102CF000C3318CE5D80709F46FC078F4C131ECE535
:102D0000DE0709F465C0C231DC4509F0A8CF0E9496
:102D1000A11C8091D1028F773AC0C5318CE5D807CC
:102D200009F462C008F476C08091D2028160CA3F83
:102D3000DC4509F094CF8093D20291CFCF3FFCE5E0
:102D4000DF0709F44DC088F48091D2028D7FCD3F1A
:102D50009CE5D90781F38091D2028E7FCE3FDC457E
:102D600050F38091D2028360E6CFC130FDE5DF07EA
:102D700009F459C008F444C080E0C230DD4509F0D0
:102D80006ECF0E94A7236BCF8091D1028160809388
:102D9000D10265CF8091D1028460F9CF8091D202B7
:102DA0008260C9CF8091D1028064F1CF0E94A11CC2
:102DB0008091D1028068EBCF8091D1028D7FE7CFE7
:102DC0008091D102877FE3CF8091D1028F7DDFCFC9
:102DD0008091D1028F7BDBCF8091D102837FD7CFCF
:102DE0008091D2028C7FA7CF8091D10282FB99275C
:102DF00090F921E0922790FB82F990FB83F9C7CFED
:102E00008091D202982F909591708E7F892B90FBA4
:102E100081F991CF0E94A11C9091D102892F97FB3B
:102E200087F98058B4CF81E0ACCF81E021CF909377
:102E3000B6018093B5010895E091B501F091B60116
:102E4000309721F00190F081E02D099480E0089501
:102E5000E091B501F091B601309721F00280F38145
:102E6000E02D09940895E091B501F091B6013097F5
:102E700039F022E0DC012C930480F581E02D0994E7
:102E800008952091B3013091B4012817390771F0EA
:102E90009093B4018093B301E091B501F091B60134
:102EA000309721F00680F781E02D09940895209154
:102EB000B1013091B2012817390771F09093B20136
:102EC0008093B101E091B501F091B601309721F006
:102ED0000084F185E02D0994089585B7806885BF49
:102EE00085B7806885BF0895089508950C94741778
:102EF00008950C9478170E946D170E9475170C9412
:102F0000761781E008950E948B240E946B090E942D
:102F1000AA120E941E250E94D7100E94740F0C94C2
:102F200079177F928F929F92AF92BF92CF92DF924A
:102F3000EF92FF920F931F93CF93DF93CDB7DEB73E
:102F40002A970FB6F894DEBF0FBECDBF0E94B3091B
:102F50000E948117882309F471C048EBA42E41E038
:102F6000B42E10E000E0702E802F0E9461096C01E9
:102F7000F501819091905F018816990609F458C077
:102F80008091640281FD0E946A0980E0EE24E3944E
:102F9000F12C8C249D2494012E213F21232B09F414
:102FA00041C08E837F82CE20DF2081E0CD2809F4CE
:102FB00080E088870E9494248160782F9A8789878F
:102FC0004E815F8168858A850E944318000F111F1A
:102FD000F801E854FE4F80819181E826F926F182BC
:102FE000E0820E94AB260E941C179091B7018917BE
:102FF000B1F10E941C178093B7012A960FB6F8947E
:10300000DEBF0FBECDBFDF91CF911F910F91FF901B
:10301000EF90DF90CF90BF90AF909F908F907F9078
:103020000C9419068F5FEE0CFF1C893009F0B3CFAA
:103030000F5F1F4F0C30110509F095CF8FEF89837B
:103040008A831B820E9494248160782F9D838C83C5
:1030500049815A816B818D810E944318C2CF2A9683
:103060000FB6F894DEBF0FBECDBFDF91CF911F9199
:103070000F91FF90EF90DF90CF90BF90AF909F9017
:103080008F907F900895CF93DF93CDB7DEB72B97C6
:103090000FB6F894DEBF0FBECDBF4F835887698748
:1030A0007A878B871E821D8285E0FE013796DE01BE
:1030B000119601900D928A95E1F749815A816B81B1
:1030C0007C818D819E812B960FB6F894DEBF0FBE5A
:1030D000CDBFDF91CF910C94411FFC018081918184
:1030E0000C94F721882309F405C18238B9F40E94B1
:1030F0001C1781FDFFC089E30E9425220E949622B1
:103100002FEF81EE94E0215080409040E1F700C025
:10311000000089E30E942C220C9496228338A1F4AB
:103120000E941C1780FDE6C083E50E9425220E94B4
:1031300096222FEF81EE94E0215080409040E1F7FD
:1031400000C0000083E5E6CF8438A1F40E941C177C
:1031500082FDD0C087E40E9425220E9496222FEF94
:1031600081EE94E0215080409040E1F700C00000E3
:1031700087E4D0CF9CEF980F913A18F40E94252253
:10318000CBCF90E2980F983050F4877091E001C057
:10319000990F8A95EAF7892F0E944D22BDCF9BE5B2
:1031A000980F933070F4853A31F0863A39F083E81D
:1031B00090E00C94411781E890E0FBCF82E890E02A
:1031C000F8CF98E5980F973108F08EC0883A09F447
:1031D00046C0893A09F446C08A3A09F446C08B3A97
:1031E00009F446C08C3A09F446C08B3B09F446C04A
:1031F0008C3B09F446C08D3A09F446C0803B09F483
:1032000046C08E3A09F446C08F3A09F446C0813B65
:1032100009F446C0823B09F446C0833B09F446C02A
:10322000843B09F446C0853B09F446C0863B09F45B
:1032300046C0873B09F446C0883B09F446C0893B39
:1032400009F446C08D3B09F446C08E3B09F446C0E4
:103250008A3B09F446C090E080E00C94571782EE58
:1032600090E0FBCF89EE90E0F8CF8AEE90E0F5CFCA
:1032700085EB90E0F2CF86EB90E0EFCF83EB90E030
:10328000ECCF84EB90E0E9CF87EB90E0E6CF8CECDD
:1032900090E0E3CF8DEC90E0E0CF83E891E0DDCFEC
:1032A0008AE891E0DACF82E991E0D7CF84E991E032
:1032B000D4CF81E292E0D1CF83E292E0CECF84E21C
:1032C00092E0CBCF85E292E0C8CF86E292E0C5CF14
:1032D00087E292E0C2CF8FE690E0BFCF80E790E038
:1032E000BCCF8AE292E0B9CF803F20F00E94B9259E
:1032F0000C94A0260895882309F452C0823871F4F2
:103300000E941C1781FF4CC089E30E9425220E9465
:10331000962289E30E942C220C949622833859F439
:103320000E941C1780FF3CC083E50E9425220E945A
:10333000962283E5EFCF843859F40E941C1782FF50
:103340002FC087E40E9425220E94962287E4E2CFC4
:103350009CEF980F913AF0F290E2980F983050F469
:10336000877091E001C0990F8A95EAF7892F0E9432
:103370005322D2CF9BE5980F933020F490E080E069
:103380000C94411798E5980F973120F490E080E075
:103390000C945717803F20F00E9421260C94A02601
:1033A0000895CF93C82F0E947218C93349F42FEFA4
:1033B00087EE93E0215080409040E1F700C000008C
:1033C0008C2FCF910C947B19882321F00E944D22E1
:1033D0000C9496220895882321F00E9453220C9485
:1033E00096220895BF92CF92DF92EF92FF920F93B1
:1033F0001F93CF93DF936C01D62FC72FFC0105815C
:1034000002950F70128111110E946A220E944322BC
:10341000E82E882371F01123B1F080E28D0F8830FF
:1034200090F082E00E94E1220E94432291E0E82E87
:10343000E926BC2EB2949FE0B922EB2DF0E0EB5EC2
:10344000FF4C0C94642FE12CF4CF0C2F0F70C07F35
:1034500011F00295007F1123A9F0002359F080E2BA
:103460008D0F883010F0D11109C0802F0E944D229D
:103470000E9496228D2F0E94721814C0802F0E94E5
:103480005D22F6CF8D2F0E947B19002359F080E238
:103490008D0F883010F0D1112CC0802F0E94532244
:1034A0000E9496222B2D2850330B2430310520F416
:1034B0000E941C170E941906EE2009F4F8C10E9410
:1034C0003F2280FDF4C1F60112820E9439220E943F
:1034D000C520C6010E94611C0E943922DF91CF9154
:1034E0001F910F91FF90EF90DF90CF90BF900C94C1
:1034F000E620802F0E946322D3CFFC2FFF70FF2E87
:10350000C07FC03219F0F29480EFF822DD2369F019
:10351000D13049F1112391F1002351F1F601858158
:1035200080FFA8CF8F70858323C0112381F0011104
:1035300006C00E947D228F290E94E419B3CF01307A
:10354000C1F70E947D228F290E948322ABCF0111F7
:1035500006C00E948C228F2D0E94EB19A3CF013050
:1035600009F4A0CFF6CF112329F0063008F09ACF46
:103570008F2DE2CF053008F095CFEDCF002359F322
:10358000D93349F4FFEF27EE33E0F15020403040CB
:10359000E1F700C000008D2F0E947B1983CF8C2F94
:1035A00086958695837069F0813009F07BCF8D2FE9
:1035B0009C2F9370111102C090E080E00E94571779
:1035C00071CF8D2F9C2F9370111102C090E080E07D
:1035D0000E94411767CF112309F1D53F99F0D63FDB
:1035E000B9F0D43F49F48091CB029091CC02816034
:1035F0009093CC028093CB028D2F0E94B9250E941C
:10360000A02650CF8091CB029091CC028260F0CF67
:103610008091CB029091CC028460EACFD53F89F0B3
:10362000D63FA9F0D43F49F48091CB029091CC02CF
:103630008E7F9093CC028093CB028D2F0E94212607
:10364000DECF8091CB029091CC028D7FF2CF809122
:10365000CB029091CC028B7FECCF8C2F837009F042
:1036600041C011111FCF4D2F429546954770440F11
:10367000440F0D2F0F7010E030E020E0042E04C046
:10368000000F111F221F331F0A94D2F760E070E071
:10369000CB01D4FF0FC06FE070E080E090E004C089
:1036A000660F771F881F991F4A95D2F7609570950E
:1036B00080959095C695C695C370602B712B822B13
:1036C000932BC23049F058F4C13019F00E94772092
:1036D000E9CE0E946520E6CE0E948920E3CE0E94BA
:1036E0006320E0CE8695112311F08C2F8170882302
:1036F00009F4D8CE4D2F429546954770440F440F9C
:103700000D2F0F7010E030E020E0042E04C0000FF9
:10371000111F221F331F0A94D2F760E070E0CB0123
:10372000D4FF0FC06FE070E080E090E004C0660F4F
:10373000771F881F991F4A95D2F7609570958095DD
:103740009095C695C695C370602B712B822B932BD9
:10375000C23049F058F4C13019F00E943C21A2CE89
:103760000E942A219FCE0E944E219CCE0E949F2023
:1037700099CECF70112329F08C2F0E94C5208D2F58
:10378000DBCE8D2F0E94EB198C2F0E94E6208ACE73
:10379000D23F89F160F4D03FC9F0D13F29F1112324
:1037A00009F442C0011166CE8C2F8F7121C0D33F26
:1037B00039F1D43FA1F7112369F1CF718C2F0E9409
:1037C000C52063E08C2F0E94CC226CCE112341F0E7
:1037D000053008F067CE8C2F8F710E94092162CED0
:1037E000063008F05FCEF7CF8C2F8F71112369F26E
:1037F0000E94C52057CE8C2F8F711123C9F3C5CFDE
:10380000112329F08C2F8F710E94B0204BCE0E9483
:10381000AB2048CE81E00E94E122023008F442CE83
:1038200082E00E94E1223ECE002359F0D93309F014
:10383000B2CE8FEF97EEE3E081509040E040E1F7A9
:10384000A8CE8C2F8F71A1CF4C2F4F706D2FC6013A
:103850000E9495060E94DB1F25CE111123CECF704A
:10386000C230B1F040F4CC2381F0C13009F01ACE5F
:103870000E94111117CEC43089F068F080E0C53085
:1038800009F010CE0E9481110DCE0E94F3100ACED5
:103890000E94511107CE0E94581104CE83E0F2CF4E
:1038A0004C2F4F706D2FC6010E949806FBCDDF9103
:1038B000CF911F910F91FF90EF90DF90CF90BF902D
:1038C00008950F931F93CF93DF93EC018B819C811D
:1038D000892B29F08881998189238F3F29F4DF91F1
:1038E000CF911F910F910895CE010E943106882338
:1038F000B1F3688179818A810E9401228C010E9442
:1039000060210E946220B801CE01DF91CF911F910A
:103910000F910C94F2190E946A220E947A220E944E
:1039200096220E9442270E94A02690E080E00E94FA
:10393000411790E080E00C9457170E9433220C94BA
:103940008B1C0E945A220C949D1CE92FE295EF706B
:10395000E250EE3070F4F0E0EB5DFF4C0C94642F1D
:10396000803F19F020F4883E20F481E00895843FE0
:10397000E1F380E00895883EC0F3813FD1F7F5CFB1
:1039800093FB882780F908950E94F7210C94A51CC9
:10399000CF93DF9300D000D00F92CDB7DEB70F905A
:1039A0000F900F900F900F90DF91CF910895CF93CC
:1039B000DF9300D000D000D0CDB7DEB726960FB68B
:1039C000F894DEBF0FBECDBFDF91CF9108951F9356
:1039D000CF93DF93C091D10116E08091D2018C1377
:1039E00004C0DF91CF911F910895D0E01C9FF0019A
:1039F0001D9FF00D1124ED52FE4F408151816281D7
:103A00007381848195810E94D71C2196C770E5CF70
:103A100040910302509104026091050270910602E8
:103A200080910702909108020C94D71C1F93CF93AA
:103A3000DF9380910802807FC1F480910502882382
:103A4000A1F08091D101C091D201609103027091E7
:103A500004024091060250910702D62FD723DA01C3
:103A6000A095B09516E0C81304C0DF91CF911F91C7
:103A7000089590E04115510511F0DF3F31F40196B2
:103A80008770F1CF2A0F3B1F17C0189FF001199FB5
:103A9000F00D1124ED52FE4F21812713F0CF20812C
:103AA0002613EDCF22812111EACF238134812417FF
:103AB000350740F3241B350B283C310500F72091D6
:103AC00008022F7020612093080226E0289FF00151
:103AD000299FF00D1124E852FE4F80818F70806184
:103AE000808383E092E00E94611CDF91CF911F915F
:103AF0000C94E71CBF92CF92DF92EF92FF920F934C
:103B00001F93CF93DF93CDB7DEB761970FB6F894CD
:103B1000DEBF0FBECDBF8C0185E0F801DE011D9632
:103B200001900D928A95E1F7D8014C9111965C9124
:103B300011971296EC9012978091060290910702CD
:103B4000009709F47FC12091030230910402622F93
:103B500063236F3F09F476C11396CD90DC90B0904B
:103B60000502BB2009F411C1C816D906D0F1F6012F
:103B7000E81BF90BCF01FF24F394883C910508F072
:103B8000F12C80910802982F907FFF2009F4B8C093
:103B900091117FC0FE2C351329C0241327C0E110DA
:103BA00025C08F708061809308020E94081D83E009
:103BB00092E00E94611C80910802D80115968C93B6
:103BC0008F2D61960FB6F894DEBF0FBECDBFDF918B
:103BD000CF911F910F91FF90EF90DF90CF90BF900A
:103BE0000895809590958C0D9D1DC5CFCD2829F009
:103BF000852F84238F3F09F041C180E0B82FB17039
:103C0000DB2E80FF3CC08091D1012091D20136E0B3
:103C1000821315C04D875E878D859E850E94F72192
:103C2000292F22952F702230F0F0243018F59F7044
:103C3000F1F0F8019581907FD1F4D12C1EC090E075
:103C4000389FF001399FF00D1124ED52FE4F618134
:103C5000651306C06081641303C06281E6120FC061
:103C600001968770D5CF9F7011F0882331F3805E65
:103C7000883018F3C8010E94611CFD2CA1CFEE20F2
:103C800009F49ECF80910802816080930802F12C94
:103C900097CF351306C0241304C0D801EE2009F4D1
:103CA0009AC04D875E878D859E850E94C41C88239F
:103CB00019F1EE2009F180910802803270F0209114
:103CC00003023091040238872F831986DB86CA8667
:103CD0008C87CE0107960E94611C86E0F801A3E064
:103CE000B2E001900D928A95E1F70E94161D0E94A4
:103CF000081DFF24F39464CFC8010E94611CF9CF12
:103D0000911113C07C2DD98AC88A6E2D89890E9491
:103D1000C81C83E092E00E94611C86E0E3E0F2E0D0
:103D2000DF011D928A95E9F763C0351312C0241391
:103D300010C0E1100EC0F8018583C8010E94611C0B
:103D4000E3E0F2E086E0DF011D928A95E9F7FB2CC3
:103D500037CF4D875E878D859E850E94C41C882342
:103D600059F2EE2049F280910802803208F4B5CF72
:103D700020910302309104023A8329831B82DD8261
:103D8000CC828E83CE010196A6CFC816D90698F1B3
:103D9000F601E81BF90BCF01F12C883C910508F0E6
:103DA00049C0FE2CEE2009F4A7CF351332C02413EE
:103DB00030C08091080280FD23C0982F907F01F1D0
:103DC000D80115968C931597903F39F0982F907FD6
:103DD000905F8F70892B15968C93C8010E94611C8F
:103DE00086E0F801A3E0B2E001900D928A95E1F738
:103DF0000E94081DE5CE809590958C0D9D1DCCCF21
:103E000086E0F801A3E0B2E001900D928A95E1F717
:103E1000D7CE4D875E878D859E850E94C41C8111FB
:103E20005CCF80910802816080930802C8010E94E3
:103E3000611CC6CE7C2DD98AC88A6E2D89890E94C4
:103E4000C81C6BCFEE2009F457CF4D875E878D8558
:103E50009E850E94C41CF82E882309F44DCF86E06D
:103E6000F801A3E0B2E001900D928A95E1F783E0BA
:103E700092E00E946D180E94161DBACF81E08E2537
:103E8000BDCE1F93CF93DF93CDB7DEB72C970FB680
:103E9000F894DEBF0FBECDBF4F83588769877A87FE
:103EA0008B879C87CE0107960E947A1D882369F034
:103EB0008A859B85892B39F04F815885842F8523EE
:103EC0008F3F09F071C016E05FC086E0FE013796B3
:103ED000DE01119601900D928A95E1F78A859B8506
:103EE000892B89F388859F8189238F3F61F32091F6
:103EF000D20130E0C9010196877099274091D10124
:103F00004817190671F40E94A11C1092D201109258
:103F1000D10186E0E3E0F2E0DF011D928A95E9F746
:103F2000D2CF96E0929FD001939FB00D1124AD5255
:103F3000BE4FFE01319601900D929A95E1F7809364
:103F4000D2010E94E71CBFCF819FC00111248D5276
:103F50009E4F0E947A1D8823E9F0E091D1011E9FB7
:103F6000F0011124ED52FE4F408151816281738135
:103F7000848195810E94D71C8091D10190E00196A7
:103F8000877099278093D1018091D1019091D201BE
:103F90008913DACF2C960FB6F894DEBF0FBECDBFD3
:103FA000DF91CF911F91089569857A858B859C85D6
:103FB0000E94D71C88CFEF92FF920F931F93CF934D
:103FC000DF938C01892B81F0F12CEE24E394E8013E
:103FD0002196F8018491843770F4843008F05FC032
:103FE0008130B1F08230A1F1DF91CF911F910F911B
:103FF000FF90EF900895853709F44CC008F43DC058
:104000009CE7980F903780F78F770E947B1949C003
:104010000E5F1F4FFE01849190E2980F983060F47C
:104020008770FE2D01C0FF0F8A95EAF78F2F0E943F
:104030006D220E94962202C00E9472188F2D81501C
:1040400030F2EFE9FFE03197F1F700C00000F7CF61
:104050000E5F1F4FFE01849190E2980F983050F44C
:104060008770FE2D01C0FF0F8A95EAF78F2F0E94FF
:104070007322DFCF0E947B19E1CF0E5F1F4FFE013D
:10408000C491C150D8F28FE99FE00197F1F700C0C9
:104090000000F7CF0E5F1F4FFE01F490CFCF0E94BC
:1040A00072188E01CBCF08950C9453200E94542097
:1040B000609353027093540280935502909356027A
:1040C0000C948B1C08950C9456200F931F93009111
:1040D0005302109154022091550230915602602BE8
:1040E000712B822B932B1F910F910C9456200F93C1
:1040F0001F93009153021091540220915502309168
:10410000560260237123822393231F910F910C94F5
:1041100056200F931F930091530210915402209147
:1041200055023091560260277127822793271F91ED
:104130000F910C9456200C9453200C949B200E94B9
:104140009D2060934F027093500280935102909390
:1041500052020C948B1C60E070E0CB010C949F2009
:104160000F931F9341E050E060E070E08A019B01F3
:1041700004C0000F111F221F331F8A95D2F7C901F7
:10418000B8011F910F910C949F200F931F9341E052
:1041900050E060E070E004C0440F551F661F771FB9
:1041A0008A95D2F780914F0290915002A0915102CE
:1041B000B09152028A019B01082B192B2A2B3B2B11
:1041C000C901B8011F910F910C949F200F931F9369
:1041D00041E050E060E070E004C0440F551F661FEE
:1041E000771F8A95D2F7CB01BA01609570958095BB
:1041F000909500914F021091500220915102309100
:10420000520260237123822393231F910F910C94F8
:104210009F200F931F9341E050E060E070E004C0E6
:10422000440F551F661F771F8A95D2F780914F0262
:1042300090915002A0915102B09152028A019B01CB
:10424000082719272A273B27C901B8011F910F9179
:104250000C949F200F931F9300914F0210915002D6
:104260002091510230915202602B712B822B932BA3
:104270001F910F910C949F200F931F9300914F0259
:10428000109150022091510230915202602371230B
:10429000822393231F910F910C949F200F931F93C0
:1042A00000914F0210915002209151023091520220
:1042B00060277127822793271F910F910C949F20CD
:1042C000089529E0929F800D1124982F977041E066
:1042D00001C0440F9A95EAF786958695869595E0F4
:1042E000899FF0011124E75FFD4F90E080E070E0CE
:1042F0005191DF0111979B01082E02C03695279539
:104300000A94E2F7217021952527242325272C9351
:1043100001968530910561F7089529E0929F800DFF
:104320001124982F977086958695869525E0829F13
:10433000F0011124E75FFD4F50E040E080E0219163
:1043400030E0092E02C0369527950A94E2F72170D5
:104350003327042E01C0220F0A94EAF7822B4F5F05
:104360005F4F4530510559F70895BF92CF92DF92C4
:10437000EF92FF920F931F93CF93DF938C01C09026
:104380004F02D0905002E0905102F0905202809182
:10439000530290915402A0915502B0915602C82A3E
:1043A000D92AEA2AFB2ACFE1D0E0BC2ED701C601E8
:1043B0000C2E04C0B695A795979587950A94D2F7C9
:1043C00080FD0EC0219788F7B12C8B2DDF91CF9106
:1043D0001F910F91FF90EF90DF90CF90BF900895C5
:1043E000B8018C2F0E94A106019761F3EECFCF9305
:1043F000DF93EC010E94B521BE01DF91CF910C94B7
:10440000A1061F93CF93DF93EB019091D0019923E5
:1044100031F0CB01DF91CF911F910C94F7218823CC
:1044200079F0CB010E94B521182F682FCE010E9490
:104430006121BE01812FDF91CF911F910C94A106C4
:10444000CB010E948D21182FF4CF682F809110018D
:10445000909111010C94E523682F809110019091A7
:1044600011010C94E72380911001909111010C949B
:10447000E9238091570285958595859508958091CA
:1044800057028770089590915702977081E009F460
:1044900080E0089580916302089590916302892BD2
:1044A000809363020895809590916302982390937E
:1044B0006302089510926302089590916202892B1D
:1044C0008093620208958095909162029823909360
:1044D0006202089510926202089590916102892B00
:1044E0008093610208958095909161029823909342
:1044F0006102089510926102089580915802089512
:1045000008950C94802290915802981721F080937E
:1045100058020C948122089580915802882329F032
:104520001092580280E00C9481220895E0911001CD
:10453000F0911101809163028083E0911001F0916C
:104540001101808190916202892B8083E09110019A
:10455000F0911101808190916102892B808390916B
:104560005802992381F0E0911001F09111018081AE
:10457000892B808380911001909111010E94AC23BE
:1045800081110E948C2280911001909111010C9454
:10459000281708950C94C92298E0899F900111244E
:1045A000622B609357020E94C52080915702859527
:1045B000859585950C94CA221092570280E00C9440
:1045C000CA22909157028095892380935702282F01
:1045D000277071F4282F082E000C330B9217130646
:1045E00039F08595859585950E94E6200C94DC220E
:1045F00008956FEF7FEF90E080E00C94D62F90E06D
:1046000080E00E94B22F21E08C3E9E4F09F020E016
:10461000822F089582E090E00C94A42F83E090E034
:104620000C94A42FCF9384E090E00E94A42FC82F75
:1046300081E290E00E94A42F982F8C2FCF910895B3
:10464000CF93C92F682F84E090E00E94B82F6C2F81
:1046500081E290E0CF910C94B82F86E090E00C942A
:10466000A42F682F86E090E00C94B82FAB01BC011A
:104670008FE090E00C94CA2FAB01BC0183E190E085
:104680000C94CA2F60E070E0CB010C943C2360E0F6
:1046900070E0CB010E9436230C9442236CEE7EEF37
:1046A00090E080E00E94D62F60E082E090E00E94DF
:1046B000B82F60E083E090E00E94B82F1092530280
:1046C00010925402109255021092560260E084E05B
:1046D00090E00E94B82F60E081E290E00E94B82F45
:1046E00060E085E090E00E94B82F60E086E090E016
:1046F0000E94B82F6FEF87E090E00E94B82F40E053
:1047000050E0BA0188E090E00E94CA2F60E08DE09E
:1047100090E00E94B82F40E050E0BA0188E190E0BC
:104720000E94CA2F60E087E190E00E94B82F40E02D
:1047300050E0BA018CE190E00E94CA2F60E080E274
:1047400090E00E94B82F0C9447230C944E23682FBE
:104750008EE090E00C94B82F9C012E5F3F4FAC018F
:10476000485F5F4F80E02417350709F40895F90189
:1047700091919F019923B9F38F5FF5CF9C01FC01C3
:1047800032969FEF80E04191461751F09F3F19F418
:10479000411101C0982F8F5F8630A9F79F3F09F420
:1047A0000895290F311D97FD3A95F9016283089507
:1047B000FC01329608962191261303C0DF01119760
:1047C0001C92E817F907B9F708950C94BE230C94CE
:1047D000D823029626E0FC0111922A95E9F7089564
:1047E000089508950C94F1230E94F2238091D7023A
:1047F000843009F43CC01092650288E190E020E426
:104800000FB6F894A895809360000FBE20936000C7
:1048100080E00E94B21180E00E9419060E94AF0F52
:104820008091660281110AC081E0809366028091C6
:104830007D028170809367020E94E20E0E94F22343
:1048400083B7817F846083BF83B7816083BF78949F
:10485000889583B78E7F83BF0FB6F894A895809113
:104860006000886180936000109260000FBE089520
:104870000895CF930E94F0230E94B3090E94382428
:10488000C0E08C2F0E946109892B31F4CF5FCC30BE
:10489000C1F780E0CF91089581E0FCCF08950C949A
:1048A0004E240E94A11C0E94D7100E941C170E9437
:1048B0001906109266028091670281110E94A70F6B
:1048C0000E94F40E0C944F241F921FB61F921124C5
:1048D0008F939F93AF93BF9380916502811113C013
:1048E0008091CD029091CE02A091CF02B091D002E2
:1048F0004196A11DB11D8093CD029093CE02A0934D
:10490000CF02B093D002BF91AF919F918F911F9032
:104910001FBE1F90189582E084BD93E095BD9AEF6D
:1049200097BD80936E0008952FB7F8948091CD02C3
:104930009091CE02A091CF02B091D0022FBF0895E6
:104940002FB7F8946091CD027091CE028091CF0282
:104950009091D0022FBF0895CF92DF92EF92FF92F5
:104960000F931F932FB7F8944091CD025091CE0230
:104970006091CF027091D0022FBF6A017B01EE24BB
:10498000FF248C0130E020E0C016D106E206F306D9
:1049900050F0481B590BCA011F910F91FF90EF90E7
:1049A000DF90CF90089541505109F3CF78941F9232
:1049B0001FB61F9211248F939F93AF93BF93809143
:1049C000CD029091CE02A091CF02B091D00201967B
:1049D000A11DB11D8093CD029093CE02A093CF0272
:1049E000B093D002BF91AF919F918F911F901FBE46
:1049F0001F90189581E08093E00080E28093D800BA
:104A00001092C9008FE19EE40197F1F700C0000009
:104A100087E090EBDC018093E0029093E102A093A9
:104A2000E202B093E30288E19CE00FB6F894A89507
:104A3000809360000FBE90936000FFCF0E94FF2222
:104A4000811102C00E94A5230E940A238093640260
:104A50000E9412239093D2028093D1020E940E23CF
:104A6000682F70E090E080E00C94632080916B02EE
:104A700080FF12C06091150185E0689FB00111248C
:104A8000759567957595679560387105A8F56115F9
:104A90007105A1F1862F089581FF09C0609115016C
:104AA00085E0689FB001112475956795EDCF609101
:104AB000150182FD0AC080916A028823D1F090918D
:104AC000140160911501891728F085E0689FB001F5
:104AD0001124DACF869FB001112485E0869F9001D2
:104AE000879F300D1124692F70E0C9010E942E2F7D
:104AF000CBCF65E070E0CECF8FE7089581E00895D9
:104B000080916B0280FF0CC06091130170E075957D
:104B10006795759567956115710549F1862F08951B
:104B200081FF06C06091130170E075956795F3CF22
:104B30006091130182FD0BC090916A029923A1F04C
:104B40006091120180911301961738F0682F70E080
:104B50006038710500F38FE70895899FC001112423
:104B600070E00E942E2FF4CF61E070E0D7CF81E09B
:104B70000895803F31F40E943625819580936F021D
:104B80000895813F19F40E943625F8CF823F31F411
:104B90000E943625819580936E020895833F19F413
:104BA0000E943625F8CF893F29F40E948025809302
:104BB000700208958A3F21F40E9480258195F7CFE5
:104BC0008B3F31F40E948025819580937102089576
:104BD0008C3F19F40E948025F8CF843F31F48091F6
:104BE0006D02816080936D020895853F21F480916C
:104BF0006D028260F7CF863F21F480916D02846060
:104C0000F1CF873F21F480916D028860EBCF883F20
:104C100021F480916D028061E5CF8D3F31F4809168
:104C20006B02816080936B0208958E3F21F4809126
:104C30006B028260F7CF8F3FB9F780916B0284607F
:104C4000F1CF90916E02803F41F480916F0287FD19
:104C500010926F02992371F00895813F29F4809199
:104C60006F021816ACF3F6CF823F81F497FFF2CFB4
:104C700010926E0280916F0290917002892B909138
:104C80007102892B49F710926A020895833F19F443
:104C9000191674F3DFCF893F39F48091700218162A
:104CA000CCF610927002D6CF8A3F29F48091700220
:104CB00087FFD0CFF6CF8B3F39F48091710287FF09
:104CC000C9CF10927102C6CF8C3F29F48091710236
:104CD0001816BCF3BFCF843F31F480916D028E7FF4
:104CE00080936D02B7CF853F21F480916D028D7F57
:104CF000F7CF863F21F480916D028B7FF1CF873F04
:104D000021F480916D02877FEBCF883F21F4809161
:104D10006D028F7EE5CF8D3F31F480916B028E7FE7
:104D200080936B0297CF8E3F21F480916B028D7F31
:104D3000F7CF8F3F09F08ECF80916B028B7FF0CF42
:104D40008CE692E00E9433170E94942490936902AB
:104D50008093680208951F93CF93DF938091680238
:104D6000909169020E94AC24AC0190916A0220915A
:104D7000160130E0911106C0209117018AE0289FAA
:104D8000900111244217530778F020916E02C091D0
:104D90006F02D091700210917102211109C08C2F05
:104DA0008D2B812B09F06AC0DF91CF911F9108955F
:104DB0009F3F19F09F5F90936A02121624F40E949D
:104DC000362580936E0280916E0287FF05C00E9497
:104DD0003625819580936E021C1624F40E94362598
:104DE00080936F0280916F0287FF05C00E94362575
:104DF000819580936F0230916E023323A1F0209150
:104E00006F02222381F045EB3403C0011124992362
:104E100069F190936E0245EB240390011124332332
:104E200049F130936F021D1624F40E94802580936F
:104E300070028091700287FF05C00E9480258195D5
:104E400080937002111624F40E94802580937102D1
:104E50008091710287FF05C00E9480258195809313
:104E60007102DF91CF911F910C94A02681E0809375
:104E70006E02D1CF81E080936F02D5CF9F3F09F0C2
:104E800099CFAACF86E0ECE6F2E0DF011D928A9589
:104E9000E9F710926A0210926B02089580917A02EB
:104EA00008950F931F93CF93DF9300D00F92CDB748
:104EB000DEB78C010E94FF29823011F0843019F591
:104EC00084E089831B830A838093E9008FEF9091AC
:104ED000E800815095FD06C095ED9A95F1F7000028
:104EE0008111F5CF8091E80085FF0DC050E040E0D2
:104EF00063E070E0CE0101960E941C2A8091E800D8
:104F00008E778093E8000F900F900F90DF91CF91F4
:104F10001F910F910895CF93DF9300D00F92CDB7DB
:104F2000DEB72091D702243029F533E03983805849
:104F300091099B838A832093E9008FEF9091E80089
:104F4000815095FD06C095ED9A95F1F7000081110D
:104F5000F5CF8091E80085FF0DC050E040E063E0B0
:104F600070E0CE0101960E941C2A8091E8008E77A5
:104F70008093E8000F900F900F90DF91CF910895EC
:104F8000CF93DF93EC010E94FF29823011F084302F
:104F9000F9F484E08093E9008FEF9091E80081506C
:104FA00095FD06C095ED9A95F1F700008111F5CFBA
:104FB0008091E80085FF0CC050E040E066E070E0C2
:104FC000CE010E941C2A8091E8008E778093E80031
:104FD000DF91CF910895CF93DF93EC010E94FF29D9
:104FE000823011F0843039F581E08093E9008FEF51
:104FF0009091E800815095FD06C095ED9A95F1F7E6
:1050000000008111F5CF8091E80085FF14C050E0C9
:1050100040E068E070E0CE010E941C2A8091E80028
:105020008E778093E80088E0FE01A2E7B2E001906D
:105030000D928A95E1F7DF91CF910895CF93FC010E
:10504000603221F58091D702843001F5C091E900EA
:10505000CF702091EC00922F917020FD90E8C92B29
:1050600082E08093E9008091E80080FF0CC050E06E
:1050700040E060E270E0CF010E941C2A8091E800CD
:105080008E778093E800CF70C093E900CF910895A8
:105090008091D602811109C00E94FB2B0E94582CDE
:1050A0008091E20084608093E20008951092D6021D
:1050B0000895089508950C94512442E061EC81E034
:1050C0000E94772B42E261EC84E00E94772B42E25F
:1050D00061EC82E00E94772B42E260EC83E00C946A
:1050E000772B8091D902833009F461C030F481308C
:1050F000D1F1823009F49DC008958A3009F489C045
:105100008B3009F46FC0893009F050C08091D8020B
:10511000813209F04BC08091DC029091DD02009752
:1051200019F0029709F042C08091E800877F8093D0
:10513000E8008091E80082FF35C09091F3008091F3
:10514000F200029729F48091F1008B7F813021F4E5
:105150008091F10080937A028091E8008B778093B0
:10516000E8000C94AB2B8091D802813AF9F480913D
:10517000E800877F8093E8008091DC029091DD0257
:10518000892B61F468E082E792E070E00E94BA2A1D
:105190008091E8008B778093E800089560E090E0CC
:1051A00080E0F3CF8091D7028111C3CF0895809121
:1051B000D802813AD9F78091DC029091DD02892BE7
:1051C000A9F78091E800877F8093E8008091E8004C
:1051D00080FFFCCF809122018093F1008091E80054
:1051E0008E77BDCF8091D802813201F78091DC02A9
:1051F0009091DD02892BD1F68091E800877F809322
:10520000E8000E94AB2B8091DA02809322010C947B
:10521000A11C8091D802813249F68091E800877FF5
:105220008093E8000E94AB2B8091DB0280937B028D
:1052300008958091D802813A09F0B8CF8091E800B2
:10524000877F8093E8008091E80080FFFCCF809109
:105250007B02C2CFCDB7DEB7A0970FB6F894DEBF02
:105260000FBECDBF84B7877F84BF0FB6F894A895D3
:1052700080916000886180936000109260000FBE92
:1052800080E890E00FB6F8948093610090936100FD
:105290000FBE0E947B170E94FB2B0E94582C80910E
:1052A000E20084608093E20078940E94E12E0E94E4
:1052B000831788E191E00E94171713E08091D702CD
:1052C000853049F10E9491170E94B20F8091D70258
:1052D0008430A1F71093E9008091E80082FFEECFBF
:1052E0008091E80090E085FF09C050E040E060E276
:1052F00070E0CE0101960E946B2A91E08091E80057
:105300008B778093E8009923C9F260E2CE01019681
:105310000E94F912D3CF0E94F4238091D5028823F2
:1053200069F20E943924882349F20E94062AC6CFD6
:105330000C949A29292F33272330310521F168F461
:105340002130310509F449C02230310509F44AC041
:1053500090E080E030E020E029C02132310581F189
:1053600022323105A9F76330710590F7FB01EE0F8A
:10537000FF1FE05AFE4F20813181635A7E4FFB01AF
:10538000808190E013C099278130910599F00097B2
:1053900041F08230910589F00397D1F6E3EAF7E016
:1053A00002C0EDEDF7E0849190E09F01FA013183B6
:1053B00020830895E3EBF7E0F6CFE9EAF7E0F3CFD7
:1053C0006330710528F6660F771FFB01EA59FE4F1F
:1053D0002081318189E090E0E9CF82E190E02CE307
:1053E00038E0E4CF8BE590E021EE37E0DFCF80912D
:1053F000D702843011F482E0089581E0089580910D
:105400007C02811102C00C94F729089580E189BDC6
:1054100082E189BD09B400FEFDCF8091D8008F7D67
:105420008093D8008091E00082608093E0008091BA
:10543000E00081FDFCCF0895AF92BF92CF92DF9242
:10544000FF920F931F93CF93DF936C01EB018A01BF
:105450000E94CA2BF82E811123C00115110539F0C5
:10546000F80180819181C81BD90BC80ED91EB12CBF
:10547000A12C2097A9F08091E80085FD22C08091A1
:10548000E8008E778093E80001151105A1F0F8017E
:1054900080819181A80EB91EB182A08285E0F82E8C
:1054A0008F2DDF91CF911F910F91FF90DF90CF90C3
:1054B000BF90AF9008950E94CA2B8823D1F2F82E96
:1054C000EFCFF60181916F018093F1002197FFEFFB
:1054D000AF1ABF0ACECFAF92BF92CF92DF92FF92A8
:1054E0000F931F93CF93DF936C01EB018A010E940E
:1054F000CA2BF82E811123C00115110539F0F801CE
:1055000080819181C81BD90BC80ED91EB12CA12C4A
:105510002097A9F08091E80085FD22C08091E800E5
:105520008B778093E80001151105A1F0F8018081C7
:105530009181A80EB91EB182A08285E0F82E8F2D30
:10554000DF91CF911F910F91FF90DF90CF90BF908F
:10555000AF9008950E94CA2B8823D1F2F82EEFCF86
:105560008091F100F60181936F012197FFEFAF1A4F
:10557000BF0ACECFFC018091DE029091DF02861738
:105580009707A0F06115710529F49091E8009E77C6
:105590009093E80090E06115710551F4911108C0F5
:1055A0008091E80082FF34C080E00895BC01F2CF12
:1055B0008091D7028823C1F18530C1F18091E80044
:1055C00083FD30C08091E80082FDEACF8091E80041
:1055D00080FFE1CF8091F3002091F200382F611518
:1055E000710519F02830310558F091E02830310567
:1055F00009F090E02091E8002E772093E800CBCFCF
:1056000081918093F100615071092F5F3F4FE7CF87
:105610008091D702882341F0853041F08091E800E5
:1056200083FFBECF81E0089582E0089583E008956E
:10563000FC018091DE029091DF0286179707A0F0AF
:105640006115710529F48091E8008E778093E80058
:1056500090E06115710551F4911108C08091E80046
:1056600082FF35C080E00895BC01F2CF8091D7025F
:105670008823C9F18530C9F18091E80083FD31C0EC
:105680008091E80082FDEACF8091E80080FFE1CFC1
:105690008091F3002091F200382F6115710519F007
:1056A0002830310558F091E02830310509F090E0BC
:1056B0008091E8008E778093E800CBCF849180932F
:1056C000F1003196615071092F5F3F4FE6CF809115
:1056D000D702882341F0853041F08091E80083FFB4
:1056E000BDCF81E0089582E0089583E00895982F6A
:1056F000973028F08F708093E90081E008959093AF
:10570000E900242F762F50E0981731F07091EC00CB
:105710002091ED005091F00021FD02C09F5FE8CF85
:105720003091EB003E7F3093EB003091ED003D7FF8
:105730003093ED003091EB0031603093EB007093CB
:10574000EC002093ED005093F0002091EE0027FD37
:10575000E5CF80E008958091D80287FF13C0809143
:10576000E80082FF06C08091E8008B778093E80014
:1057700004C08091D7028111F2CF08958091D702A1
:105780008823D9F38091E80080FFF8CF8091E8006A
:105790008E77ECCF2091E4003091E50095E6A901E9
:1057A0002091EC00822F817020FF06C08091E800DC
:1057B00080FF06C080E008952091E80022FD1AC015
:1057C0008091D702882389F0853089F08091EB00A1
:1057D00085FD0FC02091E4003091E500421753078A
:1057E000F9F29150E1F684E0089582E0089583E0B3
:1057F000089581E008950E94692C0E94712CE0EECA
:10580000F0E0808181608083E8EDF0E080818F7737
:10581000808319BCA7EDB0E08C918E7F8C93808142
:105820008F7E80831092D60208950F931F93CF939B
:10583000DF930E94692C0E94712CC8EDD0E0888112
:105840008F77888388818068888388818F7D88832B
:1058500019BC1092D7021092D3021092D502109266
:10586000D40200EE10E0F80180818B7F8083888174
:105870008160888342E060E080E00E94772BE1EE67
:10588000F0E080818E7F8083E2EEF0E080818160B5
:105890008083808188608083F80180818E7F80830F
:1058A000888180618883DF91CF911F910F91089546
:1058B000E8EDF0E080818F7E8083E7EDF0E080818D
:1058C0008160808384E082BF81E08093D6020C9463
:1058D000152CE8EDF0E080818E7F80831092E2004D
:1058E00008951092DA001092E10008951F920F922D
:1058F0000FB60F9211242F933F934F935F936F93A3
:105900007F938F939F93AF93BF93EF93FF93809178
:10591000E10082FF0BC08091E20082FF07C080910E
:10592000E1008B7F8093E1000E94E02E8091DA00FD
:1059300080FF19C08091D80080FF15C08091DA00E7
:105940008E7F8093DA008091D90080FF96C080E13D
:1059500089BD82E189BD09B400FEFDCF81E080935D
:10596000D7020E9448288091E10080FF19C08091F1
:10597000E20080FF15C08091E2008E7F8093E200FC
:105980008091E20080618093E2008091D800806283
:105990008093D80019BC85E08093D7020E945A28D2
:1059A0008091E10084FF2BC08091E20084FF27C03A
:1059B00080E189BD82E189BD89B5982F917080FF12
:1059C000FBCF8091D8008F7D8093D8008091E1003B
:1059D0008F7E8093E1008091E2008F7E8093E200D1
:1059E0008091E20081608093E2008091D30288235D
:1059F00009F449C084E08093D7020E945B2880911B
:105A0000E10083FF29C08091E20083FF25C08091DF
:105A1000E100877F8093E10082E08093D7021092BB
:105A2000D3028091E1008E7F8093E1008091E200BB
:105A30008E7F8093E2008091E20080618093E2009B
:105A400042E060E080E00E94772B8091F000886067
:105A50008093F0000E945928FF91EF91BF91AF9180
:105A60009F918F917F916F915F914F913F912F9176
:105A70000F900FBE0F901F90189519BC1092D7026F
:105A80000E94562870CF8091E30087FD93E09093A9
:105A9000D702B3CF1F920F920FB60F9211242F93FC
:105AA0003F934F935F936F937F938F939F93AF93A6
:105AB000BF93CF93DF93EF93FF93D091E900DF7013
:105AC0008091EC00C82FC17080FDC0E81092E90001
:105AD0008091F000877F8093F00078940E948E2D53
