:100000000C940C030C9453030C9453030C9453035F
:100010000C9453030C9453030C9453030C94530308
:100020000C9453030C9453030C94DB270C94AF28CB
:100030000C947F200C9453030C9453030C9453039F
:100040000C9453030C9453030C9453030C945303D8
:100050000C94C5110C94E5200C9453030C94530399
:100060000C9453030C9453030C9453030C945303B8
:100070000C9453030C9453030C9453030C945303A8
:100080000C9453030C9453030C9453030C94530398
:100090000C9453030C9453030C9453030C94530388
:1000A0000C9453030C9453030C94530329003A000B
:1000B0003B003C003D003E003F004000410042004C
:1000C000430044004500460048004C0035001E0037
:1000D0001F0020002100220023002400250026000C
:1000E00027002D002E0000002A004A002B000000EF
:1000F00014001A000800150017001C0018000C005E
:10010000120013002F00300031004B0039000000B6
:1001100004001600070009000A000B000D000E0085
:100120000F0033003400000028004E00E100000002
:100130001D001B000600190005001100100036000C
:1001400037003800E500000052004D00E000E200FA
:1001500000000000000000002C0000000000000073
:10016000E70001510000500051004F000100010064
:100170000100010001000100010001000100010077
:100180000100010001000100010001000100010067
:100190000100010001000100010001000100010057
:1001A00001000100010000000100C25C010000002C
:1001B000010001000100005C0100010001000100DC
:1001C00001000100010001000100C35C010000000A
:1001D0000100010001000100010001000100010017
:1001E0000100010001000000010001000100000009
:1001F00001000100010001000100010001000100F7
:1002000001000100010000000100010001000100E7
:1002100000000000000000000100000000000000DD
:1002200001000100000001000100010000047F3F07
:100230001F643214643214783C1E1E140A052223F3
:10024000252628292A2C2D2F3032333536383A3BB3
:100250003D3E4042434547494A4C4E505153555705
:10026000595A5C5E6062646668696B6D6F71737524
:1002700077797B7D7F81838587898A8C8E90929424
:1002800096989A9C9E9FA1A3A5A7A8AAACAEAFB131
:10029000B3B4B6B8B9BBBCBEBFC1C2C3C5C6C7C97B
:1002A000CACBCCCDCED0D1D2D2D3D4D5D6D7D7D835
:1002B000D9D9DADADBDBDBDCDCDCDCDCDDDDDDDD87
:1002C000DCDCDCDCDCDBDBDBDADAD9D9D8D7D7D68F
:1002D000D5D4D3D2D2D1D0CECDCCCBCAC9C7C6C546
:1002E000C3C2C1BFBEBCBBB9B8B6B4B3B1AFAEAC8C
:1002F000AAA8A7A5A3A19F9E9C9A98969492908E37
:100300008C8A89878583817F7D7B79777573716F0F
:100310006D6B6968666462605E5C5A5957555351EB
:10032000504E4C4A4947454342403E3D3B3A3836A1
:10033000353332302F2D2C2A292826252322FFAAB7
:100340007F55400000000000000000000000010197
:100350000203040506080A0C0F1114181C20242996
:100360002E33393F464C535B626A7179818A929A87
:10037000A2AAB2B9C1C8CFD5DCE1E7EBF0F4F7FA35
:10038000FCFDFEFFFEFDFCFAF7F4F0EBE7E1DCD547
:10039000CFC8C1B9B2AAA29A928A8179716A625B06
:1003A000534C463F39332E2924201C1814110F0CAE
:1003B0000A08060504030201010000000000000015
:1003C000000000000101010101010101010202021E
:1003D00002020202020203030303030303030404F1
:1003E00004040404040505050505060606060607BB
:1003F0000707070708080808090909090A0A0A0B74
:100400000B0B0C0C0C0D0D0D0E0E0E0F0F0F101014
:10041000111111121213131414151516161717189B
:100420001819191A1A1B1B1C1D1D1E1E1F20202106
:100430002222232424252626272829292A2B2C2D4D
:100440002D2E2F30313232333435363738393A3B6E
:100450003C3D3E3F404142434445464748494A4C63
:100460004D4E4F50515354555658595A5B5D5E5F2F
:10047000616264656668696B6C6D6F7072737577C5
:10048000787A7B7D7E8082838587888A8C8E8F9127
:10049000939596989A9C9EA0A2A3A5A7A9ABADAF51
:1004A000B1B3B5B7BABCBEC0C2C4C6C9CBCDCFD13B
:1004B000D4D6D8DBDDDFE2E4E7E9EBEEF0F3F5F8E4
:1004C000FAFDFF0403300000001403680037003514
:1004D000005F00730069006E00670061000000208B
:1004E00003530069006E006700610020004B006547
:1004F00000790062006F0061007200640073000008
:10050000000403090409023B00020100A0FA0904E7
:100510000000010301010009211101000122400036
:100520000705810308000A09040100010300000017
:100530000921110100012285000705820320000A1C
:100540001201100100000008D8049AEC0100010219
:10055000030105010902A10185020901A1000509A4
:1005600019012905150025019505750181029501DF
:10057000750381010501093009311581257F950237
:100580007508810609381581257F95017508810652
:10059000050C0A38021581257F950175088106C072
:1005A000C005010980A10185031A81002A83001674
:1005B0000100260300950175108100C0050C09019A
:1005C000A10185041A01002A9C02160100269C0242
:1005D000950175108100C005010906A101050719E3
:1005E000E029E7150025019508750181029501753F
:1005F0000881010507190029FF150026FF0095064F
:1006000075088100050819012905950575019102F4
:10061000950175039101C00011241FBECFEFDAE0F0
:10062000DEBFCDBF04B603FE27C08091A302909128
:10063000A402A091A502B091A6028730904BA740DA
:10064000B04BD1F41092A3021092A4021092A50212
:100650001092A60214BE84B7877F84BF0FB6F894A9
:10066000A89580916000886180936000109260007E
:100670000FBEE0E0F8E3099511E0A0E0B1E0E8EE9C
:10068000F6E502C005900D92A036B107D9F722E039
:10069000A0E6B1E001C01D92A33AB207E1F70E94C3
:1006A00005250C944A2B0C94000081E0089581E00C
:1006B00008950C9455031F93CF93DF9300D000D07F
:1006C0000F92CDB7DEB749835A836B832091A30184
:1006D00089819A8121111BC06623A9F00E94D61D31
:1006E000182F682F89819A810E94831D69817A81E0
:1006F000812F0F900F900F900F900F90DF91CF915F
:100700001F910C9477060E94AF1D182FEFCF0E9407
:10071000D61D69817A81EDCFFC01408151816281D2
:10072000738184810C945B030E941A1F811102C0A3
:100730000E94C01F0E9432120C9455090E94AF11F2
:100740000C94580908950C94A20381E008950C9428
:10075000A503CF93C82F0E94A3038C2FCF910C9495
:10076000A70308950E94C3180E94B1032FEF84E3EA
:100770009CE0215080409040E1F700C000000C94C4
:1007800009210F931F93CF93DF938C010E948C0359
:10079000EC01B8010E945903882309F40BC1B80188
:1007A000CE010E94ED12882309F404C1CB3C8CE5F4
:1007B000D80709F44AC108F060C0C33CECE5DE0785
:1007C00009F419C1C0F5C6318CE5D807A8F4C230C8
:1007D0009CE5D90708F0AEC0C115ECE5DE0709F4C9
:1007E000E4C0C130DC4509F4EBC0C801DF91CF9112
:1007F0001F910F910C945703C13C8CE5D80709F465
:100800006AC208F0F1C0C631DC4579F70E946B1E60
:10081000F8019281992309F454C28A7A91E009F48B
:1008200090E09093600181114AC289E20E94461EC5
:100830000E94B71EBFC0F8018281C73CFCE5DF07FC
:1008400009F4F2C068F4C53CECE5DE0709F4E7C042
:1008500008F4DCC0882309F4ADC00E94DF0CAAC0F4
:10086000C93C9CE5D90709F4EAC008F4E2C0882332
:1008700009F4A0C00E941B0D9DC0C33DFCE5DF072D
:1008800009F421C190F5F8018281CF3CFCE5DF0736
:1008900009F4F0C0A8F4CD3CECE5DE0709F4E3C0B0
:1008A00008F4DBC0882309F485C00E94530B823012
:1008B00028F00E94530B853008F4AEC082E0D7C008
:1008C000C13D9CE5D90709F4F0C008F4E0C08823D5
:1008D00009F470C00E94530B853128F00E94530B1D
:1008E000873108F499C085E1C2C0CD3DFCE5DF0742
:1008F00009F407C1A0F4C53D9CE5D90709F4FAC085
:1009000008F4E8C0CC3DDC4509F06FCFF8018281E6
:10091000882309F44FC080E00E94A3254BC0CE3D40
:100920008CE5D80709F459C0CE018A5F9C45099728
:1009300008F05BCFF8018281882309F456CF0E942A
:100940001A1F811102C00E94C01F0E942D1F909388
:10095000950280939402C031FCE5DF0709F47EC163
:1009600008F00EC1C8309CE5D90709F46DC108F044
:10097000DDC0C430FCE5DF0709F45AC108F0C8C087
:10098000C2309CE5D90709F44DC180919402826080
:10099000C330DC4509F449C18091940290919502DD
:1009A0000E943B1F0E94C31805C0F801828181117B
:1009B0000E94B20380E0DF91CF911F910F910895C3
:1009C000F80182818823B1F390912D02892F8E7FC7
:1009D00090FF816080932D02EDCFF8018281882302
:1009E00049F30E94C01FE6CFF8018281882311F3EA
:1009F0000E94630FDFCFF80182818823D9F20E9421
:100A00006B1E827249F00E94550FD4CF882391F259
:100A10000E946B1E8272B9F30E94480FCBCF8823CD
:100A200049F20E94D20CC6CF882321F20E94EE0C1C
:100A3000C1CF882309F4BECF0E94FD0CBBCF882311
:100A400009F4B8CF0E940C0DB5CFF801828188233C
:100A500009F4B0CF0E945B0BADCF882309F4AACF75
:100A60000E946C0BA7CF882309F4A4CF81E00E94D9
:100A7000580FA0CF882309F49DCF0E94530B8630D6
:100A800020F00E94530B883038F286E0F0CF8823A4
:100A900009F490CF0E94530B893028F00E94530B29
:100AA0008E3008F4B9CF89E0E2CF882309F482CFF1
:100AB0000E94530B8F3028F00E94530B843108F4AE
:100AC000ABCF8FE0D4CFF8018281882309F472CFB5
:100AD00088E1CDCFF8018281882309F46BCF0E9491
:100AE000530B893128F00E94530B823208F494CFC3
:100AF00089E1BDCFF8018281882309F45BCF83E2CD
:100B0000B6CFF8018281882309F454CF82E004CF64
:100B1000809194028061C630FCE5DF0709F485C04E
:100B200008F48AC08091940280627FC08091940210
:100B30008D7FCC309CE5D90709F477C070F48091A3
:100B400094028C60CA30FCE5DF0709F46EC008F43B
:100B50007FC0809194028E7F68C080919402877FCD
:100B6000CE309CE5D90709F460C0809194028B7F58
:100B7000CF30DC4508F459C0809194028F7E55C077
:100B8000CB3FFCE5DF0709F45BC030F5C3319CE5E2
:100B9000D90709F46BC078F4C131FCE5DF0709F42B
:100BA00061C0C231DC4509F0F7CE0E94C3188091C4
:100BB00094028F773AC0C5319CE5D90709F45EC02D
:100BC00008F472C0809195028160CA3FDC4509F04B
:100BD000E3CE80939502E0CECF3F8CE5D80709F4B1
:100BE00049C088F4809195028D7FCD3FECE5DE070A
:100BF00081F3809195028E7FCE3FDC4550F380914A
:100C000095028360E6CFC1308DE5D80709F455C061
:100C100008F440C080E0C230DD4509F0BDCE0E943E
:100C2000C21FBACE80919402816080939402B4CEA8
:100C3000809194028460F9CF809194028860F5CF0E
:100C4000809195028260C5CF809194028064EDCF3F
:100C50000E94C318809194028068E7CF809194022B
:100C60008F7DE3CF809194028F7BDFCF80919402C0
:100C7000837FDBCF809195028C7FABCF80919402F4
:100C800082FB992790F921E0922790FB82F990FB53
:100C900083F9CBCF80919502982F909591708E7F9C
:100CA000892B90FB81F995CF0E94C31890919402F3
:100CB000892F97FB87F98058B8CF81E0B0CF85E3C3
:100CC000B5CD80916001811104C089E20E944D1E62
:100CD000AFCD85E3FBCFF8018281882309F46ACE8A
:100CE0000E94331167CE90E080E008950895E72FC9
:100CF000F0E096E0899FE00DF11D112484E0EE0FF5
:100D0000FF1F8A95E1F7E60FF11DEE0FFF1FE45577
:100D1000FF4F859194910895FC01EE0FFF1FE45D54
:100D2000FD4F859194910895CF93DF930E947706AC
:100D30000E947A08EC01811521E5920708F049C06C
:100D4000811530E5930708F030C1883E910508F51C
:100D5000803E910570F5883A910570F4853A9105C9
:100D600008F0AEC08130910521F1009711F1049790
:100D700000F5D0E0C0E01DC08F3B910508F4ABC08A
:100D8000805C9109C03CD105A0F30E948C06EC0167
:100D900010C08115904388F4C11580E2D80708F08F
:100DA000FBC0C03FD10528F3CF3FD10509F008F4BF
:100DB000F1C0CE01DF91CF910895C11590E4D9071C
:100DC00008F0F0C0CE019927D3FFE9C0EC01D86C40
:100DD000F0CF811529E5920760F5811538E5930775
:100DE00008F029C1811544E5940778F4C11583E51D
:100DF000D80708F007C1C11592E5D90708F0F1C07E
:100E0000DC2FCC27C16FD06AD4CF811525E592079E
:100E100008F40CC1811536E5930708F0AACF0E94AB
:100E20001109C82FD0E0DC2FCC27CC27DF71D0628E
:100E3000C0CF8D3B9C4509F403C1CE3B8CE5D80760
:100E4000D0F4CB3B9CE5D90709F4FDC008F0FEC007
:100E5000C1153AE5D30708F08CCF8C2F8F700E9414
:100E6000110934E0D695C7953A95E1F7CF709C2FDC
:100E7000EC01D0699ECFC03C4CE5D40709F4E9C031
:100E800060F4CE3B9CE5D90709F4E6C0CF3BDC45D6
:100E900009F06FCFC0E0D2ED8CCFCE019056811516
:100EA000904208F066CF8D2F8F710E94110990E05B
:100EB000982F882788279F719C012C2BE901B7CF99
:100EC000853A910509F4CBC0863A910509F0CAC06C
:100ED000C2E8D0E46ECF883A910509F4C6C0893AD9
:100EE000910509F4C5C08A3A910509F4C4C08B3A4A
:100EF000910509F4C3C08C3A910509F4C2C08B3B3B
:100F0000910509F4C1C08C3B910509F4C0C08D3A2C
:100F1000910509F4BFC0803B910509F4BEC08E3A2B
:100F2000910509F4BDC08F3A910509F4BCC0813B1D
:100F3000910509F4BBC0823B910509F4BAC0833B1B
:100F4000910509F4B9C0843B910509F4B8C0853B0B
:100F5000910509F4B7C0863B910509F4B6C0873BFB
:100F6000910509F4B5C0883B910509F4B4C0893BEB
:100F7000910509F4B3C08D3B910509F4B2C08E3BD5
:100F8000910509F4B1C08A3B910509F4B0C0C0E0F5
:100F9000D4E40FCFD0650DCFCE019F70F6CEEC011B
:100FA000D06C07CFDF70D06A04CFE4E096958795C8
:100FB000EA95E1F783702C2F26952695237040E261
:100FC000249F90011124382B8C2F8370C1E0D0E036
:100FD00002C0CC0FDD1F8A95E2F7C22BD32BDC6851
:100FE000E8CECE018370992721E030E002C0220FC5
:100FF000331F8A95E2F7C695C69580E2C89FE00147
:101000001124EBCFCE018370992721E030E002C09C
:10101000220F331F8A95E2F7C695C69590E2C99FC5
:10102000E0011124C22BD32BDA68C3CED82FCC27F2
:10103000C46FD06ABECED82FCC27C06FD06AB9CECD
:10104000C0E0D1EDB6CEC0E0D4EDB3CEC0E0D5ED7A
:10105000B0CEC0E0D3EDADCEC0E0D0EDAACEC1E8B9
:10106000D0E4A7CEC3E8D0E4A4CEC2EED4E4A1CEAF
:10107000C9EED4E49ECECAEED4E49BCEC5EBD4E454
:1010800098CEC6EBD4E495CEC3EBD4E492CEC4EBB9
:10109000D4E48FCEC7EBD4E48CCECCECD4E489CEB0
:1010A000CDECD4E486CEC3E8D5E483CECAE8D5E45B
:1010B00080CEC2E9D5E47DCEC4E9D5E47ACEC1E2E2
:1010C000D6E477CEC3E2D6E474CEC4E2D6E471CEE1
:1010D000C5E2D6E46ECEC6E2D6E46BCEC7E2D6E475
:1010E00068CECFE6D4E465CEC0E7D4E462CECAE2EF
:1010F000D6E45FCE82389105B1F1B0F48133910529
:1011000009F475C048F48932910509F469C08A323E
:10111000910509F473C008958533910509F459C008
:101120008933910501F10895833E9105A9F138F4C1
:10113000803E9105F9F0823E910549F10895863E81
:101140009105A9F1873E9105C9F1843E910519F5F4
:101150002091950221FF1FC08091940284FD14C04C
:1011600087EE90E00895209194022370A1F080EE24
:1011700090E008952091940220FD47C0309195029F
:1011800030FF09C024FF44C090E080E004C02091FB
:10119000940222FDF7CF08952091940222FD3BC0D6
:1011A0003091950230FDE3CF24FFF5CFEDCF2091B4
:1011B000940223FFF0CF24FDE7CFD2CF20919402F9
:1011C00023FD2CC03091950231FFEECF84EE90E0EC
:1011D00008952091940225FFDECF89E290E00895E2
:1011E0002091940225FFD7CF85E390E008952091C8
:1011F000940226FFD0CF8AE290E0089520919402D5
:1012000026FFC9CF81E390E0089589E390E0089537
:1012100083EE90E0089582EE90E0089586EE90E0EF
:1012200008959091940292FF06C0282F28712830CB
:10123000F9F4877F846093FF06C0282F2871283136
:10124000F1F4877E84612091950220FF06C0382F3B
:1012500038713830D9F4877F816021FF06C0282F8C
:1012600028712831D1F4877E816194FD877E0895AD
:10127000282F24712430F9F68B7F8860DCCF282F4B
:101280002471243101F78B7E8861DDCF382F3171D5
:10129000313019F78E7F8860E0CF282F21712131FE
:1012A00021F78E7E8861E1CF08950C94540908954A
:1012B0000C945709E82FF0E0EE0FFF1FEF59FE4F97
:1012C0008081918108950895A4E3B1E061E070E028
:1012D0008D91E82FE295EF70F0E041A18F709B01B6
:1012E00001C0220F8A95EAF7922F9095942391A33B
:1012F00082A1822B82A381E0AA33B80749F7A4E236
:10130000B1E061E070E08D91E82FE295EF70F0E0E0
:1013100041A18F709B0101C0220F8A95EAF7922F9D
:101320009095942391A382A1822B82A381E0A43380
:10133000B80749F7EDE6F1E0A1E6B1E089E791E011
:10134000119211921D921D928E179F07C9F786E088
:101350000E94440A0C9494035F926F927F928F9242
:101360009F92AF92BF92CF92DF92EF92FF920F9334
:101370001F93CF93DF93ADE6B1E004E311E0512C6E
:10138000EE24E394F12C8D909C9011971D921D9268
:10139000E80189918E01E82FE295EF70F0E091A1CC
:1013A0008F70B70101C0660F8A95EAF7892F862BE7
:1013B00081A382A1662E6094862182A3D0EADA9569
:1013C000F1F784E2C82E81E0D82E30E020E0AD01B4
:1013D00042505109E60179906E01872D82958F70F8
:1013E00090E0EC0188A1EA01A880B98090E0D72DB7
:1013F000DF7002C095958795DA95E2F780FD41C0D0
:10140000C701022E02C0880F991F0A94E2F78A29A9
:101410009B29EA01998388832F5F3F4F2031310553
:10142000C9F681A1D62DD823D1A382A1682B62A3AE
:1014300081E0FA01208131812815390509F480E025
:10144000582AF1E0A937BF0709F09DCF252D46E0C6
:1014500061E671E08DE691E00E94450A0E949E03DC
:10146000852DDF91CF911F910F91FF90EF90DF902D
:10147000CF90BF90AF909F908F907F906F905F9034
:10148000089590E080E0C3CF0895FF920F931F93DB
:10149000CF93DF93F82E092F162FD72FC42F222397
:1014A00049F081E080937B010E94AF2090937A0104
:1014B0008093790180917B018823A1F0809179014B
:1014C00090917A010E94BB20069760F0EF2DF02FDB
:1014D000A12FBD2F90E080E0D0E08C179D0744F055
:1014E00010927B01DF91CF911F910F91FF90089592
:1014F000219131912D933D930196EFCFAF92BF9201
:10150000CF92DF92FF920F931F93CF93DF93362FEB
:10151000472FE82FF0E0ED53FC4F71110DC064919F
:10152000762F862FDF91CF911F910F91FF90DF9043
:10153000CF90BF90AF900895C72FD0E02491F22EA6
:10154000022F10E056E0659FC0011124EFEFF0E09C
:10155000BF010E947F2A832F90E0880F991F35E5F5
:10156000369FD001379FB00D11248A1B9B0B982FFB
:10157000990F980F6F01CC1ADD0AC09ED001C19E51
:10158000B00DD09EB00D11248B2F949FA00111247B
:10159000452F55276F01C41AD50AC09EA001C19ED0
:1015A000500DD09E500D11245F01A91AB108AC9EB8
:1015B0006001AD9ED00CBC9ED00C1124CD2CDD243E
:1015C000EC19FD09E09FE001E19FD00DF09FD00DE7
:1015D0001124ED2F62307105A1F048F461157105F9
:1015E00069F06130710589F0EB2F852F07C06430F9
:1015F000710571F088F066307105B1F76E2F722FAA
:1016000091CFE22F2B2F8D2FF9CFE22F252FF6CF61
:10161000EB2F822F2D2FF2CF2B2F8F2DE52FEECFFB
:101620000895CF93DF93762FE901682F842F0E94CE
:101630007E0A798368838A83DF91CF9108958091B0
:101640004602982F9E7F29F4817082608093460223
:1016500008958A34E8F381708864F8CF88E090E0D8
:101660000C940A2BCF92DF92EF92FF926B017C01D8
:101670000E941F0BB701A60188E090E0FF90EF9059
:10168000DF90CF900C94282BE6E4F2E083E0808397
:1016900011828FEF828383831482608171818281C2
:1016A00093810C94320B8091460280FF02C0869594
:1016B000089580E0089580914A02833018F48F5F86
:1016C00080934A02609146027091470280914802DD
:1016D000909149020C94320B80914A02882319F0B0
:1016E000815080934A026091460270914702809136
:1016F0004802909149020C94320B6091040170E011
:101700008091460280FF0AC08091800123E0829F81
:10171000C0011124855B9D4F0C947D1280917F0147
:101720009091030123E0829FF0011124E55BFD4FBE
:10173000891750F71182108212828F5F3396F8CF8B
:101740009091460290FF14C090917F012091030177
:1017500033E0939FF0011124E55BFD4F921710F0E9
:101760000C947D0B8183608342839F5F3396F6CF19
:101770000895CF93DF9300D00F92CDB7DEB790914D
:10178000460290FF0AC09E012F5F3F4F0E94110B3F
:101790004B8169818A810E94A00B0F900F900F905E
:1017A000DF91CF910895CF93DF93EC01EC81F0E0CE
:1017B000E25CFD4F4491E6E4F2E0628181810E94A7
:1017C000B90B8C818F5F8C83DF91CF910895CF937C
:1017D000DF93EC01E6E4F2E0438162818C810E94B8
:1017E000B90B8C818F5F8C83DF91CF9108950F931C
:1017F0001F93CF93DF9300D00F92CDB7DEB78C014C
:1018000080917C0181110AC09E012F5F3F4F4FEFF5
:101810006FEF0E94110B8A8180937C01F801648133
:10182000613069F080917C0140E0662361F040E026
:10183000623011F440917C0180E060E004C060916E
:101840007C0140E080E00E94A00BF801848190E0E0
:10185000019663E070E00E94932A84830F900F90BA
:101860000F90DF91CF911F910F910895AF92BF928A
:10187000CF92DF92EF92FF920F931F93CF93DF935C
:1018800000D00F92CDB7DEB7182FF62E042FE22E20
:101890009091460290FF29C0E92FE695AE2FB0E067
:1018A000A65CBE4F8C91809388019E7F923059F543
:1018B0009E012F5F3F4F812F0E94110B4B81698149
:1018C0008A810E94A00B10934702F0924802009375
:1018D0004902EE2051F060914602709147028091DA
:1018E0004802909149020E94320B0F900F900F9086
:1018F000DF91CF911F910F91FF90EF90DF90CF90EC
:10190000BF90AF900895823019F400914902DBCF67
:10191000863019F410914702D6CF8930D9F3893136
:1019200091F6E9518E2F8170D82EE695F0E0E25CB9
:10193000FC4FA590B490C12CBB2460910201C61647
:1019400018F00E947D0BBFCF2C2D30E0A29EC0016D
:10195000A39E900DB29E900D112470E00E947F2AEC
:10196000812FD11013C0860F40917F01420F532F5A
:10197000511D9A01220F331F240F351F255B3D4F48
:10198000402F6F2D0E94110BC394D7CF861BECCF35
:10199000E6E4F2E09181282F4381628188E0890F9B
:1019A0000C94360C81E00C94C80CE6E4F2E09181D2
:1019B000282F4381628188EF890F0C94360C81E0D7
:1019C0000C94D50CE6E4F2E0628128E0620F08F4A2
:1019D0006FEF282F438181810C94360C81E00C94A9
:1019E000E20CE6E4F2E0628128E0621B08F460E0C9
:1019F000282F438181810C94360C81E00C94F10CEA
:101A0000E6E4F2E0438128E0420F08F44FEF282F8C
:101A1000628181810C94360C81E00C94000DE6E427
:101A2000F2E0438128E0421B08F440E0282F628165
:101A300081810C94360C81E00C940F0D20E00C9405
:101A4000360CEF92FF921F93CF93DF93EC0110E0DF
:101A5000EE24EA94F12C60910201161770F00E94B6
:101A60007D0B9A818C8190FF27C08F5F8C83DF91E3
:101A7000CF911F91FF90EF90089520917F01422F09
:101A8000410F5527551FCA019A01220F331F280FF6
:101A9000391F255B3D4F70E0C7010E94932A962FA6
:101AA0008C814091490260914802199F800D112458
:101AB0000E94110B1F5FCFCF8150D8CFAF92BF9242
:101AC000CF92DF92EF92FF920F931F93CF93DF930A
:101AD000FC0182810FEF80FF01E010E046E1A42EBF
:101AE000809102011817C8F00E947D0B80917E0141
:101AF000013009F055C0811102C08091020181506E
:101B000080937E01DF91CF911F910F91FF90EF9015
:101B1000DF90CF90BF90AF900895C0917F01C12E0C
:101B2000D12CCC0DDD2DD11DCE01880F991FC80FF2
:101B3000D91FC55BDD4F198218821A8234E0E32E6B
:101B4000F12CB12C80917E018B0D87311CF16A2D17
:101B50000E94712A892F082E000C990BC816D906ED
:101B600091F4809149028E9DA0018F9D500D11240A
:101B700055954795559547959E01609148028091EE
:101B800047020E94110BB00EF1E0EF1AF108D1F6F6
:101B90001F5FA6CF87FFDFCF90910201890FDBCFB8
:101BA00090E001966091020170E00E94932AA8CF14
:101BB0000F931F93CF93DF9380917F019091030147
:101BC00023E0829FF0011124E55BFD4F891740F16E
:101BD000C0E0D3E060910201C61740F10E947D0B86
:101BE0002091000180917D01820F80937D01909171
:101BF0000101920F90930101191654F4082E000C64
:101C0000990B409102014150550B841795071CF028
:101C1000219520930001DF91CF911F910F9108959D
:101C20001182108212828F5F3396D0CF0C2F10E07A
:101C300070E0C8010E94932A20917F01820F482FF3
:101C400050E020917D01022E000C330B0217130788
:101C5000BCF020910101022E000C330B201731073C
:101C60007CF08D9F90011124255B3D4F40914902EE
:101C700060914802809147020E94110BCF5FAACF6A
:101C8000FA01EE0FFF1FE40FF51FE55BFD4F118218
:101C900010821282F3CF0F931F93CF93DF938C01A7
:101CA000FC018481958101968170992795838483B5
:101CB000C0E0D5E580910201C81730F0DF91CF91E7
:101CC0001F910F910C947D0B20917F01422F4C0F9F
:101CD0005527551FCA019A01220F331F280F391F9C
:101CE000255B3D4F8C2F8695F80144815581840FEB
:101CF000952F911D817040914902609148028D9FFE
:101D0000802D11240E94110BCF5FD4CF0F931F930E
:101D1000CF93DF93EC0110E000E090910201901767
:101D2000110609F06CF40E947D0B8C8190E0019605
:101D3000817099278C83DF91CF911F910F91089526
:101D400020917F01A801420F511D9A01220F331FDC
:101D5000240F351F255B3D4F4C81609148028091D7
:101D6000470296959017110651F04CF0442349F024
:101D7000409149020E94110B0F5F1F4FCECF4423A9
:101D8000B9F340E0F7CFE6E4F2E080818E7F808314
:101D900060817181828193810E94320B109289014E
:101DA0002FEF80E792E0215080409040E1F700C0A3
:101DB00000000C947D0BE6E4F2E080818E7F80834E
:101DC000109289012FEF80E792E0215080409040EF
:101DD000E1F700C000000C947D0B6091460266950F
:101DE00070E04BE050E085E091E00E94F52A892BFD
:101DF00019F481E0809389010E94AF2090938201C1
:101E00008093810108959091460290FF35C09170B2
:101E1000811128C0926090934602662351F0609130
:101E200046027091470280914802909149020E94B7
:101E3000320B60914602669570E04BE050E085E021
:101E400091E00E94F52A892BA1F01092890181E08E
:101E50008093840140914902609148028091470239
:101E60000C941E0D853210F09864D5CF880F982BF6
:101E7000D2CF0E94ED0EEBCF0895682F90914602CD
:101E8000969581E0890F853208F081E00C94030F6C
:101E900081E00C943D0F682F9091460296958FEF4C
:101EA000890F09F484E20C94030F81E00C944B0F2A
:101EB00061E00C94030FE6E4F2E0808181608083AE
:101EC00086950C94580F8091460280FD0C94C30EA9
:101ED0000C945B0F60E00C94030F809187018111DB
:101EE00033C080912D02816080932D020E941A1FC1
:101EF000811104C00E94C01F0E94440B0E942E0B3F
:101F0000609346027093470280934802909349027F
:101F10006E7F61F40E94440B0E942E0B6093460278
:101F20007093470280934802909349020E941F0BCE
:101F3000109289018091460280FF03C086950E941D
:101F40006A0F81E0809387010895E6E4F2E08081E2
:101F50008160808386950C946A0F109289010895A0
:101F60000F931F93CF93DF9380918901882309F406
:101F70008DC080918801E0914602E695E81BE093D0
:101F800083018230C9F5F0E0E65CFD4FE491CE2F8D
:101F9000D0E003ED1BE080918401882389F010924A
:101FA00084010E94AF209E0120953095820F931FDF
:101FB0009093820180938101109286011092850195
:101FC00080918101909182010E94BB208C179D0716
:101FD00008F45CC0E0918101F0918201CE0FDF1F17
:101FE000D0938201C093810181E891E0F801DF91F3
:101FF000CF911F910F910994863049F4F0E0E95C8C
:10200000FD4FE491CE2FD0E007EE1BE0C4CF893026
:1020100051F4E695F0E0EC5CFD4FE491CE2FD0E07A
:1020200001E21DE0B8CF8F3051F4E695F0E0EF5CAF
:10203000FD4FE491CE2FD0E00EE51DE0ACCF853111
:1020400049F4F0E0E25DFD4FE491CE2FD0E008EDE1
:102050001DE0A1CFC8EED3E00BE41EE0883109F407
:102060009ACF833239F4ECE2F2E0C591D49107EFD4
:102070001BE091CFC4EFD1E006E81EE0843209F402
:102080008ACFC0EDD7E000E11BE085CFDF91CF9193
:102090001F910F9108950E941A1F811102C00E9482
:1020A000C01F0E94481F80938D02803220F08770ED
:1020B000886180938D0290918D02892F817090FFAD
:1020C00004C0892F8695869586950C948D118091F4
:1020D0008D02982F969596959695933040F49F5F34
:1020E000990F990F990F8770892B80938D0280919A
:1020F0008D02816080938D020E944C1F80918D0221
:102100008695869586950C948D1180918D02982FD9
:10211000987F79F0885080938D02887F91E009F450
:1021200090E080918D0290FB80F980938D020E9457
:102130004C1F80918D028695869586950C948D1105
:1021400080918D0280FD13C0816080938D0281306B
:1021500019F489E080938D0280918D020E944C1FBA
:1021600080918D028695869586950C948D110895A3
:1021700080918D0280FF08C08E7F80938D020E9427
:102180004C1F80E00C948D11089580918D0280FD8C
:102190000C94B8100C94A01090918D02892F869504
:1021A000869586958F5F8F7197708430D8F4880FED
:1021B000880F880F892B80938D0280918D02887FF4
:1021C00091E009F490E080918D0290FB80F980937A
:1021D0008D020E944C1F80918D0286958695869572
:1021E0000C948D1190938D02E8CF843008F083E039
:1021F000982F990F990F990F80918D028770892BD5
:1022000080938D02887F91E009F490E080918D02A7
:1022100090FB80F980938D020E944C1F80918D026B
:102220008695869586950C948D1180918D02869564
:1022300086958695089580918D0281FD07C0826004
:1022400080938D020E944C1F0C94B01108958091D0
:102250008D0281FF07C08D7F80938D020E944C1FED
:102260000C94BC11089580918D0281FD0C9427116E
:102270000C941B1180918D02869581700895CF92E8
:10228000DF92EF92FF928C3724E1920750F469E0DD
:1022900070E00E947F2ACB01FF90EF90DF90CF90FB
:1022A0000895B0E0A0E0BC01CD016A50774D8F4F9A
:1022B0009F4F982F872F762F662725EF38E241E032
:1022C00050E00E94A72A69017A01CA01B9010E945F
:1022D000612A9B01AC01C701B6010E94612A672FE8
:1022E000782F892F99276115710521E082079105C3
:1022F00091F66FEF7FEFCFCFE82FE295EF70F0E030
:1023000032A1282F2F7081E090E001C0880F2A951C
:10231000EAF78095832382A308958430D8F481114D
:102320001AC090918000977F90938000282F30E012
:10233000AFEFBFEF0E94CF2A23E030E040E050E053
:102340000E94A72AC9010E943F1190938D0080939B
:102350008C00089583E0909180009860E5CF089507
:1023600010928B0110928A0110928C01EFE6F0E03E
:102370008081816080830895EFE6F0E080818E7F28
:1023800080830E9415110C948D111F920F920FB62D
:102390000F9211242F933F934F935F936F937F93EB
:1023A0008F939F93AF93BF93CF93EF93FF9320911E
:1023B000100180918A0190918B01019644EF249F36
:1023C00090011124B9010E947F2A90938B01809380
:1023D0008A01B901660F672F661F770B71950E94FE
:1023E0007F2A6F7780918C01823041F4603451F400
:1023F00080916F008E7F80936F0004C0813011F454
:102400006F37B1F3E62FF0E0ED5BFC4FC4910E9413
:102410001511282F41E051E0C49FC001C59F900DC8
:10242000112463E070E00E947F2A269FC001279F4D
:10243000900D11240E943F1190938D0080938C0089
:10244000FF91EF91CF91BF91AF919F918F917F912C
:102450006F915F914F913F912F910F900FBE0F9011
:102460001F901895279A87E30E947C118AE0809339
:10247000800089E1809381008FEF9FEF9093870028
:10248000809386000E944B100E943A1181110C9497
:10249000B011089535B1242F2095232335B1432B56
:1024A0003FB7F894680F791F8617970711F43FBF5D
:1024B0000895FC015191CF01E8E045B9000000C04A
:1024C00057FF25B9550F000000C000C000C025B956
:1024D00000C0EA9591F7E8CF24B1242B24B99B01E1
:1024E000220F331F620F731F0E944A1287EC90E085
:1024F0000197F1F700C00000089548E00C946C12B9
:102500000F931F93CF93DF93C62FD42F022FFC017D
:1025100082818823C9F060938F010E94AF2090933D
:102520008E0180938D0180E28C0F883008F050C0BE
:10253000C77081E001C0880FCA95EAF7DF91CF919B
:102540001F910F910C94061610918F01161335C030
:1025500080918D0190918E010E94BB20883C910555
:1025600060F5C0E2CD0F1D17B9F080E2810F883011
:1025700040F4177081E001C0880F1A95EAF70E94B5
:102580000D16C83048F481E09D2F977001C0880F68
:102590009A95EAF70E940616802F0E94F315C8301C
:1025A000B8F4D77081E001C0880FDA95EAF7DF91BF
:1025B000CF911F910F910C940D1680E28C0F8830F3
:1025C00038F4C77081E001C0880FCA95EAF7EFCFF1
:1025D000DF91CF911F910F9108959C01CB01233F73
:1025E0004CE5340731F190F4283DFCE53F07E9F074
:1025F000293D4CE5340769F1273D3C4579F426E255
:1026000041EE61EE0E94801280E00895253FFCE5D6
:102610003F07B9F090F0263F3C45B9F0FC018281BC
:102620008823D1F010928F01089527E245EE65EEE0
:10263000E9CF26E241EE60EEE5CF27E245EE64EE1B
:10264000E1CF26E241EE62EEDDCF27E245EE66EE17
:10265000D9CF28E241E0EBCF81E008959093950136
:10266000809394010895E0919401F0919501309741
:1026700021F00190F081E02D099480E00895E0912F
:102680009401F0919501309721F00280F381E02DC3
:1026900009940895E0919401F0919501309739F0F3
:1026A00022E0DC012C930480F581E02D099408954B
:1026B00020919201309193012817390771F090937E
:1026C000930180939201E0919401F09195013097EC
:1026D00021F00680F781E02D099408952091900162
:1026E000309191012817390771F0909391018093EF
:1026F0009001E0919401F0919501309721F00084D0
:10270000F185E02D0994089585B7806885BF85B768
:10271000806885BF0895089508950C948B130895DB
:102720000C948F130E9484130E948C130C948D13AD
:1027300081E008950E94A6200E9464090E942D2134
:102740000E944B100E946D0F0C9490135F926F9239
:102750007F928F929F92AF92BF92CF92DF92EF9231
:10276000FF920F931F93CF93DF93CDB7DEB72A97D6
:102770000FB6F894DEBF0FBECDBF0E94AC090E9419
:102780009813882309F47AC097E9A92E91E0B92E0D
:1027900010E000E088248394912C502E802F0E941A
:1027A0005A097C01F501C190D1905F01C816D90684
:1027B00009F45EC080912D0281FD0E94630990E0C2
:1027C00080E0CE24DF243401082E02C0660C771C82
:1027D0000A94E2F7960126213721232B09F443C0FE
:1027E0008E835F82E620F72081E0EF2809F480E005
:1027F00088870E94AF208160782F9A8789874E81D1
:102800005F8168858A850E946514000F111FF80199
:10281000E956FE4F80819181682679267182608217
:102820000E94BA220E943313909196018917B9F140
:102830000E943313809396012A960FB6F894DEBF58
:102840000FBECDBFDF91CF911F910F91FF90EF9001
:10285000DF90CF90BF90AF909F908F907F906F90C0
:102860005F900C94A90301968031910509F0ABCFDC
:102870000F5F1F4F0630110509F08FCF8FEF89834F
:102880008A831B820E94AF208160782F9D838C8376
:1028900049815A816B818D810E946514C1CF2A962E
:1028A0000FB6F894DEBF0FBECDBFDF91CF911F9161
:1028B0000F91FF90EF90DF90CF90BF90AF909F90DF
:1028C0008F907F906F905F900895CF93DF93CDB7F7
:1028D000DEB72B970FB6F894DEBF0FBECDBF4F8388
:1028E000588769877A878B871E821D8285E0FE0163
:1028F0003796DE01119601900D928A95E1F7498194
:102900005A816B817C818D819E812B960FB6F894C4
:10291000DEBF0FBECDBFDF91CF910C94631BFC01D6
:10292000808191810C94181E882309F405C1823896
:10293000B9F40E94331381FDFFC089E30E94461E53
:102940000E94B71E2FEF81EE94E02150804090400E
:10295000E1F700C0000089E30E944D1E0C94B71EF1
:102960008338A1F40E94331380FDE6C083E50E9402
:10297000461E0E94B71E2FEF81EE94E0215080404A
:102980009040E1F700C0000083E5E6CF8438A1F471
:102990000E94331382FDD0C087E40E94461E0E942D
:1029A000B71E2FEF81EE94E0215080409040E1F778
:1029B00000C0000087E4D0CF9CEF980F913A18F444
:1029C0000E94461ECBCF90E2980F983050F487704B
:1029D00091E001C0990F8A95EAF7892F0E946E1E37
:1029E000BDCF9BE5980F933070F4853A31F0863A6D
:1029F00039F083E890E00C94581381E890E0FBCF25
:102A000082E890E0F8CF98E5980F973108F08EC0F3
:102A1000883A09F446C0893A09F446C08A3A09F46A
:102A200046C08B3A09F446C08C3A09F446C08B3B49
:102A300009F446C08C3B09F446C08D3A09F446C0FF
:102A4000803B09F446C08E3A09F446C08F3A09F437
:102A500046C0813B09F446C0823B09F446C0833B33
:102A600009F446C0843B09F446C0853B09F446C0DE
:102A7000863B09F446C0873B09F446C0883B09F40D
:102A800046C0893B09F446C08D3B09F446C08E3BE5
:102A900009F446C08A3B09F446C090E080E00C94FB
:102AA0006E1382EE90E0FBCF89EE90E0F8CF8AEED5
:102AB00090E0F5CF85EB90E0F2CF86EB90E0EFCFA2
:102AC00083EB90E0ECCF84EB90E0E9CF87EB90E0F4
:102AD000E6CF8CEC90E0E3CF8DEC90E0E0CF83E8A4
:102AE00091E0DDCF8AE891E0DACF82E991E0D7CFBB
:102AF00084E991E0D4CF81E292E0D1CF83E292E009
:102B0000CECF84E292E0CBCF85E292E0C8CF86E2DE
:102B100092E0C5CF87E292E0C2CF8FE690E0BFCFD0
:102B200080E790E0BCCF8AE292E0B9CF803F20F00E
:102B30000E94C8210C94AF220895882309F452C042
:102B4000823871F40E94331381FF4CC089E30E94E4
:102B5000461E0E94B71E89E30E944D1E0C94B71EAC
:102B6000833859F40E94331380FF3CC083E50E94F0
:102B7000461E0E94B71E83E5EFCF843859F40E94A9
:102B8000331382FF2FC087E40E94461E0E94B71EA7
:102B900087E4E2CF9CEF980F913AF0F290E2980F21
:102BA000983050F4877091E001C0990F8A95EAF748
:102BB000892F0E94741ED2CF9BE5980F933020F48A
:102BC00090E080E00C94581398E5980F973120F42A
:102BD00090E080E00C946E13803F20F00E94302241
:102BE0000C94AF220895CF93C82F0E949414C93338
:102BF00049F42FEF87EE93E0215080409040E1F7B9
:102C000000C000008C2FCF910C949D15882321F0DB
:102C10000E946E1E0C94B71E0895882321F00E9416
:102C2000741E0C94B71E0895BF92CF92DF92EF925C
:102C3000FF920F931F93CF93DF936C01D62FC72F73
:102C4000FC01058102950F70128111110E948B1EEB
:102C50000E94641EE82E882371F01123B1F080E2F7
:102C60008D0F883090F082E00E94021F0E94641E47
:102C700091E0E82EE926BC2EB2949FE0B922EB2D1C
:102C8000F0E0E45BF44D0C94C92AE12CF4CF0C2F56
:102C90000F70C07F11F00295007F1123A9F000236F
:102CA00059F080E28D0F883010F0D11109C0802FCB
:102CB0000E946E1E0E94B71E8D2F0E94941414C095
:102CC000802F0E947E1EF6CF8D2F0E949D1500231F
:102CD00059F080E28D0F883010F0D1112CC0802F78
:102CE0000E94741E0E94B71E2B2D2850330B2430D7
:102CF000310520F40E9433130E94A903EE2009F449
:102D0000F8C10E94601E80FDF4C1F60112820E948B
:102D10005A1E0E94E71CC6010E9483180E945A1E78
:102D2000DF91CF911F910F91FF90EF90DF90CF90A7
:102D3000BF900C94081D802F0E94841ED3CFFC2FBF
:102D4000FF70FF2EC07FC03219F0F29480EFF8229E
:102D5000DD2369F0D13049F1112391F1002351F1C4
:102D6000F601858180FFA8CF8F70858323C0112352
:102D700081F0011106C00E949E1E8F290E94061636
:102D8000B3CF0130C1F70E949E1E8F290E94A41E5E
:102D9000ABCF011106C00E94AD1E8F2D0E940D16F3
:102DA000A3CF013009F4A0CFF6CF112329F00630CC
:102DB00008F09ACF8F2DE2CF053008F095CFEDCFF8
:102DC000002359F3D93349F4FFEF27EE33E0F150F4
:102DD00020403040E1F700C000008D2F0E949D157B
:102DE00083CF8C2F86958695837069F0813009F0AA
:102DF0007BCF8D2F9C2F9370111102C090E080E04B
:102E00000E946E1371CF8D2F9C2F9370111102C0F1
:102E100090E080E00E94581367CF112309F1D53F5D
:102E200099F0D63FB9F0D43F49F480918E02909149
:102E30008F02816090938F0280938E028D2F0E946B
:102E4000C8210E94AF2250CF80918E0290918F02B4
:102E50008260F0CF80918E0290918F028460EACFE1
:102E6000D53F89F0D63FA9F0D43F49F480918E0236
:102E700090918F028E7F90938F0280938E028D2F80
:102E80000E943022DECF80918E0290918F028D7F42
:102E9000F2CF80918E0290918F028B7FECCF8C2F9E
:102EA000837009F041C011111FCF4D2F42954695F7
:102EB0004770440F440F0D2F0F7010E030E020E0FA
:102EC000042E04C0000F111F221F331F0A94D2F7D3
:102ED00060E070E0CB01D4FF0FC06FE070E080E0F5
:102EE00090E004C0660F771F881F991F4A95D2F79C
:102EF0006095709580959095C695C695C370602B2A
:102F0000712B822B932BC23049F058F4C13019F049
:102F10000E94991CE9CE0E94871CE6CE0E94AB1C41
:102F2000E3CE0E94851CE0CE8695112311F08C2FF4
:102F30008170882309F4D8CE4D2F4295469547706D
:102F4000440F440F0D2F0F7010E030E020E0042EEE
:102F500004C0000F111F221F331F0A94D2F760E034
:102F600070E0CB01D4FF0FC06FE070E080E090E034
:102F700004C0660F771F881F991F4A95D2F7609586
:102F8000709580959095C695C695C370602B712BF2
:102F9000822B932BC23049F058F4C13019F00E94B3
:102FA0005E1DA2CE0E944C1D9FCE0E94701D9CCE25
:102FB0000E94C11C99CECF70112329F08C2F0E9442
:102FC000E71C8D2FDBCE8D2F0E940D168C2F0E94BB
:102FD000081D8ACED23F89F160F4D03FC9F0D13FBD
:102FE00029F1112309F442C0011166CE8C2F8F7193
:102FF00021C0D33F39F1D43FA1F7112369F1CF713B
:103000008C2F0E94E71C63E08C2F0E94ED1E6CCE7B
:10301000112341F0053008F067CE8C2F8F710E948C
:103020002B1D62CE063008F05FCEF7CF8C2F8F714C
:10303000112369F20E94E71C57CE8C2F8F71112348
:10304000C9F3C5CF112329F08C2F8F710E94D21C98
:103050004BCE0E94CD1C48CE81E00E94021F023060
:1030600008F442CE82E00E94021F3ECE002359F0B7
:10307000D93309F0B2CE8FEF97EEE3E08150904064
:10308000E040E1F7A8CE8C2F8F71A1CF4C2F4F706D
:103090006D2FC6010E9473060E94FD1B25CE1111E3
:1030A00023CECF70C230B1F040F4CC2381F0C130D8
:1030B00009F01ACE0E94851017CEC43089F068F04E
:1030C00080E0C53009F010CE0E94F5100DCE0E94B0
:1030D00067100ACE0E94C51007CE0E94CC1004CE05
:1030E00083E0F2CF4C2F4F706D2FC6010E94760601
:1030F000FBCDDF91CF911F910F91FF90EF90DF906B
:10310000CF90BF9008950F931F93CF93DF93EC015F
:103110008B819C81892B29F08881998189238F3F1C
:1031200029F4DF91CF911F910F910895CE010E9454
:10313000C1038823B1F3688179818A810E94221EAC
:103140008C010E94821D0E94841CB801CE01DF9177
:10315000CF911F910F910C9414160E948B1E0E9408
:103160009B1E0E94B71E0E9451230E94AF2290E036
:1031700080E00E94581390E080E00C946E130E944F
:10318000541E0C94AD180E947B1E0C94BF18E92F9E
:10319000E295EF70E250EE3070F4F0E0E45AF44D56
:1031A0000C94C92A803F19F020F4883E20F481E075
:1031B0000895843FE1F380E00895883EC0F3813FA5
:1031C000D1F7F5CF93FB882780F908950E94181E48
:1031D0000C94C718CF93DF9300D000D00F92CDB7D7
:1031E000DEB70F900F900F900F900F90DF91CF915F
:1031F0000895CF93DF9300D000D000D0CDB7DEB7D5
:1032000026960FB6F894DEBF0FBECDBFDF91CF91EB
:1032100008951F93CF93DF93C091A40116E080918E
:10322000A5018C1304C0DF91CF911F910895D0E0C8
:103230001C9FF0011D9FF00D1124EA55FE4F4081A7
:10324000518162817381848195810E94F918219650
:10325000C770E5CF4091D6015091D7016091D80158
:103260007091D9018091DA019091DB010C94F918E9
:103270001F93CF93DF938091DB01807FC1F4809116
:10328000D8018823A1F08091A401C091A50160918B
:10329000D6017091D7014091D9015091DA01D62F12
:1032A000D723DA01A095B09516E0C81304C0DF91CA
:1032B000CF911F91089590E04115510511F0DF3F26
:1032C00031F401968770F1CF2A0F3B1F17C0189F6A
:1032D000F001199FF00D1124EA55FE4F21812713AB
:1032E000F0CF20812613EDCF22812111EACF238157
:1032F00034812417350740F3241B350B283C310556
:1033000000F72091DB012F7020612093DB0126E084
:10331000289FF001299FF00D1124E555FE4F808173
:103320008F708061808386ED91E00E948318DF9129
:10333000CF911F910C940919BF92CF92DF92EF9217
:10334000FF920F931F93CF93DF93CDB7DEB76197B3
:103350000FB6F894DEBF0FBECDBF8C0185E0F8013B
:10336000DE011D9601900D928A95E1F7D8014C91EE
:1033700011965C9111971296EC9012978091D90159
:103380009091DA01009709F47FC12091D601309124
:10339000D701622F63236F3F09F476C11396CD9056
:1033A000DC90B090D801BB2009F411C1C816D90631
:1033B000D0F1F601E81BF90BCF01FF24F394883C10
:1033C000910508F0F12C8091DB01982F907FFF2070
:1033D00009F4B8C091117FC0FE2C351329C0241305
:1033E00027C0E11025C08F7080618093DB010E94AF
:1033F0002A1986ED91E00E9483188091DB01D801A3
:1034000015968C938F2D61960FB6F894DEBF0FBE84
:10341000CDBFDF91CF911F910F91FF90EF90DF9083
:10342000CF90BF900895809590958C0D9D1DC5CF30
:10343000CD2829F0852F84238F3F09F041C180E0FA
:10344000B82FB170DB2E80FF3CC08091A401209189
:10345000A50136E0821315C04D875E878D859E8558
:103460000E94181E292F22952F702230F0F0243050
:1034700018F59F70F1F0F8019581907FD1F4D12C6F
:103480001EC090E0389FF001399FF00D1124EA55DD
:10349000FE4F6181651306C06081641303C06281C1
:1034A000E6120FC001968770D5CF9F7011F0882368
:1034B00031F3805E883018F3C8010E948318FD2C18
:1034C000A1CFEE2009F49ECF8091DB018160809333
:1034D000DB01F12C97CF351306C0241304C0D801AB
:1034E000EE2009F49AC04D875E878D859E850E94E7
:1034F000E618882319F1EE2009F18091DB01803272
:1035000070F02091D6013091D70138872F8319862A
:10351000DB86CA868C87CE0107960E94831886E0D8
:10352000F801A6EDB1E001900D928A95E1F70E94B5
:1035300038190E942A19FF24F39464CFC8010E940D
:103540008318F9CF911113C07C2DD98AC88A6E2DAA
:1035500089890E94EA1886ED91E00E94831886E02E
:10356000E6EDF1E0DF011D928A95E9F763C03513BE
:1035700012C0241310C0E1100EC0F8018583C801E9
:103580000E948318E6EDF1E086E0DF011D928A9546
:10359000E9F7FB2C37CF4D875E878D859E850E948E
:1035A000E618882359F2EE2049F28091DB0180323F
:1035B00008F4B5CF2091D6013091D7013A83298301
:1035C0001B82DD82CC828E83CE010196A6CFC816E7
:1035D000D90698F1F601E81BF90BCF01F12C883CD4
:1035E000910508F049C0FE2CEE2009F4A7CF351351
:1035F00032C0241330C08091DB0180FD23C0982F9E
:10360000907F01F1D80115968C931597903F39F072
:10361000982F907F905F8F70892B15968C93C8019F
:103620000E94831886E0F801A6EDB1E001900D92AA
:103630008A95E1F70E942A19E5CE809590958C0D28
:103640009D1DCCCF86E0F801A6EDB1E001900D9272
:103650008A95E1F7D7CE4D875E878D859E850E943E
:10366000E61881115CCF8091DB0181608093DB01E2
:10367000C8010E948318C6CE7C2DD98AC88A6E2DB7
:1036800089890E94EA186BCFEE2009F457CF4D8745
:103690005E878D859E850E94E618F82E882309F4A2
:1036A0004DCF86E0F801A6EDB1E001900D928A952C
:1036B000E1F786ED91E00E948F140E943819BACF8D
:1036C00081E08E25BDCE1F93CF93DF93CDB7DEB7BC
:1036D0002C970FB6F894DEBF0FBECDBF4F8358872F
:1036E00069877A878B879C87CE0107960E949C19F1
:1036F000882369F08A859B85892B39F04F8158850D
:10370000842F85238F3F09F071C016E05FC086E0EB
:10371000FE013796DE01119601900D928A95E1F730
:103720008A859B85892B89F388859F8189238F3F93
:1037300061F32091A50130E0C901019687709927B6
:103740004091A4014817190671F40E94C318109201
:10375000A5011092A40186E0E6EDF1E0DF011D92E3
:103760008A95E9F7D2CF96E0929FD001939FB00D52
:103770001124AA55BE4FFE01319601900D929A95E3
:10378000E1F78093A5010E940919BFCF819FC00175
:1037900011248A559E4F0E949C198823E9F0E091DC
:1037A000A4011E9FF0011124EA55FE4F4081518172
:1037B00062817381848195810E94F9188091A401AE
:1037C00090E00196877099278093A4018091A401CD
:1037D0009091A5018913DACF2C960FB6F894DEBF2D
:1037E0000FBECDBFDF91CF911F91089569857A8576
:1037F0008B859C850E94F91888CFEF92FF920F93DA
:103800001F93CF93DF938C01892B81F0F12CEE2451
:10381000E394E8012196F8018491843770F48430B0
:1038200008F05FC08130B1F08230A1F1DF91CF911B
:103830001F910F91FF90EF900895853709F44CC0C8
:1038400008F43DC09CE7980F903780F78F770E946F
:103850009D1549C00E5F1F4FFE01849190E2980FA5
:10386000983060F48770FE2D01C0FF0F8A95EAF74B
:103870008F2F0E948E1E0E94B71E02C00E949414B9
:103880008F2D815030F2EFE9FFE03197F1F700C062
:103890000000F7CF0E5F1F4FFE01849190E2980F5A
:1038A000983050F48770FE2D01C0FF0F8A95EAF71B
:1038B0008F2F0E94941EDFCF0E949D15E1CF0E5FD7
:1038C0001F4FFE01C491C150D8F28FE99FE00197CC
:1038D000F1F700C00000F7CF0E5F1F4FFE01F4901C
:1038E000CFCF0E9494148E01CBCF08950C94751CF9
:1038F0000E94761C60931C0270931D0280931E022E
:1039000090931F020C94AD1808950C94781C0F939B
:103910001F9300911C0210911D0220911E023091F4
:103920001F02602B712B822B932B1F910F910C94F4
:10393000781C0F931F9300911C0210911D0220917F
:103940001E0230911F0260237123822393231F9153
:103950000F910C94781C0F931F9300911C021091EF
:103960001D0220911E0230911F02602771278227BD
:1039700093271F910F910C94781C0C94751C0C9438
:10398000BD1C0E94BF1C60931802709319028093A3
:103990001A0290931B020C94AD1860E070E0CB010A
:1039A0000C94C11C0F931F9341E050E060E070E065
:1039B0008A019B0104C0000F111F221F331F8A952B
:1039C000D2F7C901B8011F910F910C94C11C0F933C
:1039D0001F9341E050E060E070E004C0440F551FC9
:1039E000661F771F8A95D2F780911802909119026D
:1039F000A0911A02B0911B028A019B01082B192B7E
:103A00002A2B3B2BC901B8011F910F910C94C11CAB
:103A10000F931F9341E050E060E070E004C0440F5A
:103A2000551F661F771F8A95D2F7CB01BA016095A3
:103A3000709580959095009118021091190220912F
:103A40001A0230911B0260237123822393231F915A
:103A50000F910C94C11C0F931F9341E050E060E064
:103A600070E004C0440F551F661F771F8A95D2F778
:103A70008091180290911902A0911A02B0911B0234
:103A80008A019B01082719272A273B27C901B8016A
:103A90001F910F910C94C11C0F931F93009118025A
:103AA0001091190220911A0230911B02602B712B88
:103AB000822B932B1F910F910C94C11C0F931F937A
:103AC000009118021091190220911A0230911B02E4
:103AD00060237123822393231F910F910C94C11CA7
:103AE0000F931F93009118021091190220911A024E
:103AF00030911B0260277127822793271F910F9116
:103B00000C94C11C08959295907F890F982F9770FF
:103B100041E001C0440F9A95EAF78695869586950F
:103B200095E0899FF0011124E452FE4F30E020E03F
:103B300070E05191DF011197CB01022E02C09695E2
:103B400087950A94E2F781708195852784238527DC
:103B50008C932F5F3F4F2530310559F7089592958B
:103B6000907F890F982F977086958695869525E08A
:103B7000829FF0011124E452FE4F50E040E080E0CB
:103B8000219130E0092E02C0369527950A94E2F77C
:103B900021703327042E01C0220F0A94EAF7822BEA
:103BA0004F5F5F4F4530510559F70895BF92CF924F
:103BB000DF92EF92FF920F931F93CF93DF938C01CD
:103BC000C0901802D0901902E0901A02F0901B02E7
:103BD00080911C0290911D02A0911E02B0911F02C3
:103BE000C82AD92AEA2AFB2ACFE1D0E0BC2ED70185
:103BF000C6010C2E04C0B695A795979587950A9493
:103C0000D2F780FD0EC0219788F7B12C8B2DDF9164
:103C1000CF911F910F91FF90EF90DF90CF90BF90C9
:103C20000895B8018C2F0E949406019761F3EECF9E
:103C3000CF93DF93EC010E94D61DBE01DF91CF919F
:103C40000C9494061F93CF93DF93EB019091A30103
:103C5000992331F0CB01DF91CF911F910C94181E65
:103C6000882379F0CB010E94D61D182F682FCE0132
:103C70000E94831DBE01812FDF91CF911F910C9473
:103C80009406CB010E94AF1D182FF4CF682F8091AE
:103C90001101909112010C940020682F8091110164
:103CA000909112010C9402208091110190911201C7
:103CB0000C94042080912002859585958595089522
:103CC000809120028770089590912002977081E082
:103CD00009F480E0089580912C02089590912C02BF
:103CE000892B80932C020895809590912C02982323
:103CF00090932C02089510922C02089590912B021B
:103D0000892B80932B020895809590912B02982304
:103D100090932B02089510922B02089590912A02FD
:103D2000892B80932A020895809590912A029823E6
:103D300090932A02089510922A02089580912102F8
:103D4000089508950C94A11E90912102981721F0D6
:103D5000809321020C94A21E089580912102882351
:103D600029F01092210280E00C94A21E0895E091A7
:103D70001101F091120180912C028083E0911101D8
:103D8000F0911201808190912B02892B8083E09128
:103D90001101F0911201808190912A02892B808378
:103DA00090912102992381F0E0911101F09112018B
:103DB0008081892B808380911101909112010E9452
:103DC000C71F81110E94AD1E8091110190911201B7
:103DD0000C943F1308950C94EA1E98E0899F90017B
:103DE0001124622B609320020E94E71C8091200224
:103DF0008595859585950C94EB1E1092200280E0A8
:103E00000C94EB1E909120028095892380932002D0
:103E1000282F277071F4282F082E000C330B9217CF
:103E2000130639F08595859585950E94081D0C949B
:103E3000FD1E089590E080E00E94102B21E08C3E52
:103E40009E4F09F020E0822F089582E090E00C94CC
:103E5000022B83E090E00C94022BCF9384E090E05F
:103E60000E94022BC82F81E290E00E94022B982F23
:103E70008C2FCF910895CF93C92F682F84E090E0C5
:103E80000E94162B6C2F81E290E0CF910C94162BA0
:103E900086E090E00C94022B682F86E090E00C9472
:103EA000162BAB01BC018FE090E00C94282BAB01EA
:103EB000BC0183E190E00C94282B60E070E0CB0122
:103EC0000C94571F60E070E0CB010E94511F0C94CE
:103ED0005D1F6CEE7EEF90E080E00E94342B60E08E
:103EE00082E090E00E94162B60E083E090E00E9468
:103EF000162B10921C0210921D0210921E0210929C
:103F00001F0260E084E090E00E94162B60E081E2F6
:103F100090E00E94162B60E085E090E00E94162B56
:103F200060E086E090E00E94162B6FEF87E090E063
:103F30000E94162B40E050E0BA0188E090E00E9419
:103F4000282B60E08DE090E00E94162B40E050E0CE
:103F5000BA0188E190E00E94282B60E087E190E0C0
:103F60000E94162B40E050E0BA018CE190E00E94E4
:103F7000282B60E080E290E00E94162B0C94621FD8
:103F80000C94691F682F8EE090E00C94162B9C0116
:103F90002E5F3F4FAC01485F5F4F80E0241735072D
:103FA00009F40895F90191919F019923B9F38F5F65
:103FB000F5CF9C01FC0132969FEF80E041914617BE
:103FC00051F09F3F19F4411101C0982F8F5F863047
:103FD000A9F79F3F09F40895290F311D97FD3A95E0
:103FE000F90162830895FC01329608962191261307
:103FF00003C0DF0111971C92E817F907B9F708957C
:104000000C94D91F0C94F31F029626E0FC01119228
:104010002A95E9F70895089508950C940C200E94BC
:104020000D2080919A02843009F43CC010922E0237
:1040300088E190E020E40FB6F894A89580936000A2
:104040000FBE2093600080E00E948D1180E00E94EE
:10405000A9030E94AD0F80912F0281110AC081E057
:1040600080932F02809146028170809330020E94DB
:10407000DB0E0E940D2083B7817F846083BF83B7EE
:10408000816083BF7894889583B78E7F83BF0FB696
:10409000F894A895809160008861809360001092E8
:1040A00060000FBE08950895CF930E940B200E94D8
:1040B000AC090E945320C0E08C2F0E945A09892B22
:1040C00031F4CF5FC630C1F780E0CF91089581E031
:1040D000FCCF08950C9469200E94C3180E944B10D5
:1040E0000E9433130E94A90310922F028091300284
:1040F00081110E94A50F0E94ED0E0C946A201F9260
:104100001FB61F9211248F939F93AF93BF938091FB
:104110002E02811113C08091900290919102A09182
:104120009202B09193024196A11DB11D809390021D
:1041300090939102A0939202B0939302BF91AF919A
:104140009F918F911F901FBE1F90189582E084BD94
:1041500093E095BD9AEF97BD80936E0008952FB7B9
:10416000F8948091900290919102A0919202B09166
:1041700093022FBF0895CF92DF92EF92FF920F9399
:104180001F932FB7F8944091900250919102609143
:104190009202709193022FBF6A017B01EE24FF24EB
:1041A0008C0130E020E0C016D106E206F30650F0A4
:1041B000481B590BCA011F910F91FF90EF90DF90A0
:1041C000CF90089541505109F3CF78941F921FB6B4
:1041D0001F9211248F939F93AF93BF93809190026E
:1041E00090919102A0919202B09193020196A11D2B
:1041F000B11D8093900290939102A0939202B0938C
:104200009302BF91AF919F918F911F901FBE1F90FE
:10421000189581E08093E00080E28093D8001092AE
:10422000C9008FE19EE40197F1F700C0000087E02C
:1042300090EBDC018093A3029093A402A093A502CB
:10424000B093A60288E19CE00FB6F894A8958093FD
:1042500060000FBE90936000FFCF0E941A1F811173
:1042600002C00E94C01F0E94251F80932D020E9441
:104270002D1F90939502809394020E94291F682F0E
:1042800070E090E080E00C94851C8091340280FF07
:1042900012C06091160185E0689FB00111247595E8
:1042A00067957595679560387105A8F56115710575
:1042B000A1F1862F089581FF09C06091160185E064
:1042C000689FB001112475956795EDCF6091160137
:1042D00082FD0AC0809133028823D1F090911501AC
:1042E00060911601891728F085E0689FB0011124BC
:1042F000DACF869FB001112485E0869F9001879FC9
:10430000300D1124692F70E0C9010E94932ACBCF90
:1043100065E070E0CECF8FE7089581E00895809149
:10432000340280FF0CC06091140170E075956795B0
:10433000759567956115710549F1862F089581FF7F
:1043400006C06091140170E075956795F3CF609198
:10435000140182FD0BC0909133029923A1F060916A
:10436000130180911401961738F0682F70E06038BF
:10437000710500F38FE70895899FC001112470E053
:104380000E94932AF4CF61E070E0D7CF81E00895D6
:10439000803F31F40E944521819580933802089531
:1043A000813F19F40E944521F8CF823F31F40E94E9
:1043B00045218195809337020895833F19F40E9427
:1043C0004521F8CF893F29F40E948F21809339023B
:1043D00008958A3F21F40E948F218195F7CF8B3F6A
:1043E00031F40E948F21819580933A0208958C3F89
:1043F00019F40E948F21F8CF843F31F48091360266
:104400008160809336020895853F21F480913602C1
:104410008260F7CF863F21F4809136028460F1CF2D
:10442000873F21F4809136028860EBCF883F21F4EA
:10443000809136028061E5CF8D3F31F48091340266
:1044400081608093340208958E3F21F4809134027C
:104450008260F7CF8F3FB9F7809134028460F1CF4B
:1044600090913702803F41F48091380287FD10928D
:104470003802992371F00895813F29F48091380220
:104480001816ACF3F6CF823F81F497FFF2CF10926B
:1044900037028091380290913902892B90913A022B
:1044A000892B49F7109233020895833F19F41916A6
:1044B00074F3DFCF893F39F4809139021816CCF6B6
:1044C00010923902D6CF8A3F29F48091390287FFB2
:1044D000D0CFF6CF8B3F39F480913A0287FFC9CF16
:1044E00010923A02C6CF8C3F29F480913A021816F6
:1044F000BCF3BFCF843F31F4809136028E7F80932E
:104500003602B7CF853F21F4809136028D7FF7CFF9
:10451000863F21F4809136028B7FF1CF873F21F4D3
:1045200080913602877FEBCF883F21F4809136025D
:104530008F7EE5CF8D3F31F4809134028E7F809362
:10454000340297CF8E3F21F4809134028D7FF7CFD4
:104550008F3F09F08ECF809134028B7FF0CF85E3BF
:1045600092E00E944A130E94AF20909332028093FF
:10457000310208951F93CF93DF9380913102909180
:1045800032020E94BB20AC019091330220911701AE
:1045900030E0911106C0209118018AE0289F900117
:1045A00011244217530778F020913702C091380246
:1045B000D091390210913A02211109C08C2F8D2B14
:1045C000812B09F06AC0DF91CF911F9108959F3F21
:1045D00019F09F5F90933302121624F40E94452134
:1045E000809337028091370287FF05C00E944521E2
:1045F0008195809337021C1624F40E9445218093F4
:1046000038028091380287FF05C00E9445218195BC
:1046100080933802309137023323A1F02091380281
:10462000222381F045EB3403C0011124992369F161
:104630009093370245EB240390011124332349F171
:10464000309338021D1624F40E948F218093390282
:104650008091390287FF05C00E948F218195809348
:104660003902111624F40E948F2180933A0280911E
:104670003A0287FF05C00E948F21819580933A02FC
:10468000DF91CF911F910C94AF2281E0809337028C
:10469000D1CF81E080933802D5CF9F3F09F099CFE9
:1046A000AACF86E0E5E3F2E0DF011D928A95E9F703
:1046B00010923302109234020895809143020895BB
:1046C0000F931F93CF93DF9300D00F92CDB7DEB738
:1046D0008C010E94B325823011F0843021F584E0F2
:1046E00089831B830A8382E08093E9008FEF909196
:1046F000E800815095FD06C095ED9A95F1F7000010
:104700008111F5CF8091E80085FF0DC050E040E0B9
:1047100063E070E0CE0101960E94D0258091E80010
:104720008E778093E8000F900F900F90DF91CF91DC
:104730001F910F910895CF93DF9300D00F92CDB7C3
:10474000DEB720919A02243031F523E02983805886
:1047500091099B838A8382E08093E9008FEF909197
:10476000E800815095FD06C095ED9A95F1F700009F
:104770008111F5CF8091E80085FF0DC050E040E049
:1047800063E070E0CE0101960E94D0258091E800A0
:104790008E778093E8000F900F900F90DF91CF916C
:1047A0000895CF93DF93EC010E94B325823011F07E
:1047B0008430F9F482E08093E9008FEF9091E80073
:1047C000815095FD06C095ED9A95F1F70000811195
:1047D000F5CF8091E80085FF0CC050E040E066E036
:1047E00070E0CE010E94D0258091E8008E77809302
:1047F000E800DF91CF910895CF93DF93EC010E9401
:10480000B325823011F0843039F581E08093E900DE
:104810008FEF9091E800815095FD06C095ED9A9537
:10482000F1F700008111F5CF8091E80085FF14C0F9
:1048300050E040E068E070E0CE010E94D025809119
:10484000E8008E778093E80088E0FE01ABE3B2E0F9
:1048500001900D928A95E1F7DF91CF9108958091B3
:104860009902811109C00E9460270E94BD27809192
:10487000E20084608093E200089510929902089506
:10488000089508950C946C2042E061EC81E00E9450
:10489000DC2642E261EC82E00C94DC2680919C02F2
:1048A000833009F45FC030F48130C1F1823009F403
:1048B0009BC008958A3009F487C08B3009F46DC01D
:1048C000893009F04EC080919B02813209F049C0C5
:1048D00080919F029091A002029708F042C08091BF
:1048E000E800877F8093E8008091E80082FF35C070
:1048F0009091F3008091F200029729F48091F100E9
:104900008B7F813021F48091F1008093430280916C
:10491000E8008B778093E8000C94102780919B022D
:10492000813AF9F48091E800877F8093E8008091D4
:104930009F029091A002892B61F468E08BE392E0E2
:1049400070E00E941F268091E8008B778093E8003A
:10495000089560E090E080E0F3CF80919A028111A9
:10496000C3CF089580919B02813AD9F780919F022D
:104970009091A002892BA9F78091E800877F80930E
:10498000E8008091E80080FFFCCF809123018093B4
:10499000F1008091E8008E77BDCF80919B0281323B
:1049A00001F780919F029091A002892BD1F680910E
:1049B000E800877F8093E8000E94102780919D0285
:1049C000809323010C94C31880919B02813249F695
:1049D0008091E800877F8093E8000E9410278091F3
:1049E0009E0280934402089580919B02813A09F0CF
:1049F000B8CF8091E800877F8093E8008091E8003D
:104A000080FFFCCF80914402C2CF84B7877F84BFF0
:104A10000FB6F894A895809160008861809360003B
:104A2000109260000FBE80E88093610010926100D8
:104A30000E9492130E9460270E94BD278091E2008D
:104A400084608093E20078940E94462A0E949A1320
:104A500089E191E00E942E1380919A02853029F01D
:104A60000E94A6130E94B00FF7CF0E940F208091E2
:104A70009802882389F30E945420882369F30E94B6
:104A8000BA25EACF0C944425292F3327233031054A
:104A900019F168F42130310509F44AC0223031059A
:104AA00009F44BC090E080E030E020E028C02132E3
:104AB000310579F122323105A9F780E490E027ED44
:104AC00035E061157105D9F085E890E022E535E023
:104AD00061307105A1F0E6CF99278130910599F0F9
:104AE000009741F08230910589F00397D9F6E3EC05
:104AF000F4E002C0E1E0F5E0849190E09F01FA016A
:104B0000318320830895EFEDF4E0F6CFE9ECF4E093
:104B1000F3CF89E090E027E135E06115710579F385
:104B200089E090E020E335E06130710541F3BACFD0
:104B300082E190E020E435E0E2CF8BE390E025E0F5
:104B400035E0DDCF0895CF93C82F0E94A225C093F2
:104B50004502CF91089580919A02843011F482E049
:104B6000089581E0089580914502811102C00C945E
:104B7000AB25089580E189BD82E189BD09B400FEBD
:104B8000FDCF8091D8008F7D8093D8008091E00088
:104B900082608093E0008091E00081FDFCCF089569
:104BA000AF92BF92CF92DF92FF920F931F93CF935A
:104BB000DF936C01EB018A010E942F27F82E8111EF
:104BC00023C00115110539F0F80180819181C81BBE
:104BD000D90BC80ED91EB12CA12C2097A9F0809119
:104BE000E80085FD22C08091E8008E778093E80080
:104BF00001151105A1F0F80180819181A80EB91E5F
:104C0000B182A08285E0F82E8F2DDF91CF911F9188
:104C10000F91FF90DF90CF90BF90AF9008950E94CA
:104C20002F278823D1F2F82EEFCFF60181916F0163
:104C30008093F1002197FFEFAF1ABF0ACECFFC019E
:104C40008091A1029091A20286179707A0F06115AA
:104C5000710529F49091E8009E779093E80090E028
:104C60006115710551F4911108C08091E80082FF2F
:104C700034C080E00895BC01F2CF80919A0288236D
:104C8000C1F18530C1F18091E80083FD30C0809191
:104C9000E80082FDEACF8091E80080FFE1CF8091BB
:104CA000F3002091F200382F6115710519F02830BA
:104CB000310558F091E02830310509F090E020915D
:104CC000E8002E772093E800CBCF81918093F1000C
:104CD000615071092F5F3F4FE7CF80919A0288237F
:104CE00041F0853041F08091E80083FFBECF81E044
:104CF000089582E0089583E00895FC018091A10267
:104D00009091A20286179707A0F06115710529F40A
:104D10008091E8008E778093E80090E0611571053E
:104D200051F4911108C08091E80082FF35C080E005
:104D30000895BC01F2CF80919A028823C9F1853091
:104D4000C9F18091E80083FD31C08091E80082FDC7
:104D5000EACF8091E80080FFE1CF8091F3002091BD
:104D6000F200382F6115710519F02830310558F01F
:104D700091E02830310509F090E08091E8008E77CD
:104D80008093E800CBCF84918093F10031966150FD
:104D900071092F5F3F4FE6CF80919A02882341F03F
:104DA000853041F08091E80083FFBDCF81E0089518
:104DB00082E0089583E00895982F973028F08F704F
:104DC0008093E90081E008959093E900242F762FE5
:104DD00050E0981731F07091EC002091ED00509167
:104DE000F00021FD02C09F5FE8CF3091EB003E7FD5
:104DF0003093EB003091ED003D7F3093ED0030912A
:104E0000EB0031603093EB007093EC002093ED00E9
:104E10005093F0002091EE0027FDE5CF80E008954B
:104E200080919B0287FF13C08091E80082FF06C03B
:104E30008091E8008B778093E80004C080919A020B
:104E40008111F2CF089580919A028823D9F380913D
:104E5000E80080FFF8CF8091E8008E77ECCF2091BA
:104E6000E4003091E50095E6A9012091EC00822F45
:104E7000817020FF06C08091E80080FF06C080E0BE
:104E800008952091E80022FD1AC080919A0288239B
:104E900089F0853089F08091EB0085FD0FC020916D
:104EA000E4003091E50042175307F9F29150E1F622
:104EB00084E0089582E0089583E0089581E00895F4
:104EC0000E94CE270E94D627E0EEF0E0808181602C
:104ED0008083E8EDF0E080818F77808319BCA7EDB7
:104EE000B0E08C918E7F8C9380818F7E8083109236
:104EF000990208950F931F93CF93DF930E94CE27BB
:104F00000E94D627C8EDD0E088818F77888388817A
:104F10008068888388818F7D888319BC10929A026B
:104F200010929602109298021092970200EE10E0F2
:104F3000F80180818B7F808388818160888342E053
:104F400060E080E00E94DC26E1EEF0E080818E7F70
:104F50008083E2EEF0E080818160808380818860E0
:104F60008083F80180818E7F80838881806188833F
:104F7000DF91CF911F910F910895E8EDF0E08081CE
:104F80008F7E8083E7EDF0E080818160808384E024
:104F900082BF81E0809399020C947A27E8EDF0E0DB
:104FA00080818E7F80831092E20008951092DA0053
:104FB0001092E10008951F920F920FB60F921124E4
:104FC0002F933F934F935F936F937F938F939F9311
:104FD000AF93BF93EF93FF938091E10082FF0BC0EB
:104FE0008091E20082FF07C08091E1008B7F809377
:104FF000E1000E94452A8091DA0080FF19C080916B
:10500000D80080FF15C08091DA008E7F8093DA008F
:105010008091D90080FF96C080E189BD82E189BD81
:1050200009B400FEFDCF81E080939A020E942F24F4
:105030008091E10080FF19C08091E20080FF15C0DF
:105040008091E2008E7F8093E2008091E200806197
:105050008093E2008091D80080628093D80019BCD0
:1050600085E080939A020E9441248091E10084FFB0
:105070002BC08091E20084FF27C080E189BD82E1DE
:1050800089BD89B5982F917080FFFBCF8091D800A2
:105090008F7D8093D8008091E1008F7E8093E10026
:1050A0008091E2008F7E8093E2008091E200816037
:1050B0008093E20080919602882309F449C084E03D
:1050C00080939A020E9442248091E10083FF29C0CC
:1050D0008091E20083FF25C08091E100877F80936B
:1050E000E10082E080939A02109296028091E100A2
:1050F0008E7F8093E1008091E2008E7F8093E200BA
:105100008091E20080618093E20042E060E080E014
:105110000E94DC268091F00088608093F0000E945D
:105120004024FF91EF91BF91AF919F918F917F911B
:105130006F915F914F913F912F910F900FBE0F9004
:105140001F90189519BC10929A020E943D2470CFAE
:105150008091E30087FD93E090939A02B3CF1F9272
:105160000F920FB60F9211242F933F934F935F939B
:105170006F937F938F939F93AF93BF93CF93DF935F
:10518000EF93FF93D091E900DF708091EC00C82F7E
:10519000C17080FDC0E81092E9008091F000877F27
:1051A0008093F00078940E94F3281092E900809197
:1051B000F00088608093F000CD2BCF70C093E900A1
:1051C000FF91EF91DF91CF91BF91AF919F918F911F
:1051D0007F916F915F914F913F912F910F900FBEF3
:1051E0000F901F9018951F93CF93DF93CDB7DEB725
:1051F000AA970FB6F894DEBF0FBECDBF8BE992E041
:105200002091F100FC012193CF01F2E0833A9F0746
:10521000B9F70E944E248091E80083FF1EC180915F
:105220009B0290919C029A3008F017C1E92FF0E0A0
:10523000E659F44D0C94C92A803899F0823809F067
:105240000CC180919F028F70873008F006C1809357
:10525000E9008091EB0085FB882780F91092E90036
:1052600006C080919702909198029111826090916E
:10527000E800977F9093E8008093F1001092F1008E
:105280008091E8008E77E5C0882309F4D3C082308E
:1052900009F0E3C080919D028111D6C080919F02E8
:1052A0008F702FEF280F263008F0D7C08093E900C9
:1052B0002091EB0020FFC8C0933031F48091EB00C7
:1052C00080628093EB00C0C09091EB00906190935E
:1052D000EB0021E030E001C0220F8A95EAF720932D
:1052E000EA001092EA008091EB008860EACF811119
:1052F000B4C010919D021F778091E3008078812BCC
:105300008093E3008091E800877F8093E8000E940B
:1053100010278091E80080FFFCCF8091E300806837
:105320008093E30082E0111183E080939A0295C09C
:105330008058823008F091C080919D0290919E0229
:105340008C3D23E09207A1F583E08A838AE289837A
:105350004FB7F894DE01139620E03EE051E2E32FD0
:10536000F0E050935700E49120FF03C0E295EF7006
:105370003F5FEF708E2F90E0EA30C0F0C7968D93BC
:105380009D932F5F243159F74FBF8091E800877FAD
:105390008093E8006AE270E0CE0101960E941F2629
:1053A0008091E8008B778093E80057C0C096E7CFE4
:1053B00060919F027091A002AE014F5F5F4F0E940B
:1053C0004225BC01892B09F448C09091E800977FE1
:1053D0009093E80089819A810E947D26E1CF8038F0
:1053E000E1F58091E800877F8093E8008091960244
:1053F0008093F10045CF811130C090919D02923091
:1054000060F58091E800877F8093E8009093960292
:105410000E94102780919602882311F084E005C035
:105420008091E30087FDFACF81E080939A020E9489
:10543000442413C080919D02813079F481E093303F
:1054400009F080E0809398021092E9008091E800D2
:10545000877F8093E8000E9410278091E80083FFF7
:105460000AC08091E800877F8093E8008091EB007C
:1054700080628093EB00AA960FB6F894DEBF0FBE51
:10548000CDBFDF91CF911F9108950895CF93809163
:105490009A028823A1F0C091E900CF709091EC00AE
:1054A000892F817090FD80E8C82B1092E9008091CF
:1054B000E80083FD0E94F328CF70C093E900CF91EC
:1054C0000895DB018F939F930E94DE2ABF91AF91D5
:1054D000A29F800D911DA39F900DB29F900D11244E
:1054E000089587FB082E062687FD819567FD619547
:1054F0000E94E92A0EF4919507FC81950895AA1B54
:10550000BB1B51E107C0AA1FBB1FA617B70710F0AE
:10551000A61BB70B881F991F5A95A9F780959095E0
:10552000BC01CD01089597FB072E16F4009407D017
:1055300077FD09D00E947F2A07FC05D03EF49095A4
:1055400081959F4F0895709561957F4F0895A1E2D1
:105550001A2EAA1BBB1BFD010DC0AA1FBB1FEE1FED
:10556000FF1FA217B307E407F50720F0A21BB30B38
:10557000E40BF50B661F771F881F991F1A9469F7B4
:1055800060957095809590959B01AC01BD01CF0110
:105590000895EE0FFF1F0590F491E02D0994A29F4E
:1055A000B001B39FC001A39F700D811D1124911DF7
:1055B000B29F700D811D1124911D08950E94CF2A64
:1055C000A59F900DB49F900DA49F800D911D112457
:1055D0000895991B79E004C0991F961708F0961B4F
:1055E000881F7A95C9F780950895FC014150504075
:1055F00030F001900616D1F73197CF010895882732
:1056000099270895F999FECF92BD81BDF89A9927FF
:1056100080B50895A6E1B0E044E050E00C943C2B46
:10562000A8E1B0E042E050E00C943C2B262FF99921
:10563000FECF92BD81BDF89A019700B4021639F0F1
:105640001FBA20BD0FB6F894FA9AF99A0FBE0895C2
:105650000396272F0E94172B0E94162B252F0E949E
:10566000172B242F0C94172B0196272F0E94172BF2
:105670000C94162BDC01CB01FC01F999FECF06C07E
:10568000F2BDE1BDF89A319600B40D924150504000
:10569000B8F70895F894FFCF471647169F169F1640
:1056A000F1160D17741674164F17DB17EA17EA1761
:1056B00046184F1874167218D218D218DB18DB1857
:1056C000DD18DB18DB18DB18D218D218E218DB184B
:1056D000DB18E2181C2944292D2A44292D2A772970
:0856E00098292D2AEF29FB296E
:1056E800010216161601191A1B1C1D1E1F20212245
:1056F8000622022808140A321E5D23FC23D1239BAC
:1057080023602301F0F1F4F5F6F767663635349730
:1057180032949593303190919296000102020202E0
:105728000606060909090909090F0F0F0F0F0F15BA
:1057380015151819191919191919191919232400DE
:00000001FF
