:100000000C94AD040C94F4040C94F4040C94F404D7
:100010000C94F4040C94F4040C94F4040C94F40480
:100020000C94F4040C94F4040C943D2D0C94112EB7
:100030000C942B250C94F4040C94F4040C94F40408
:100040000C94F4040C94F4040C94F4040C94F40450
:100050000C945E120C949D250C94F4040C94F404FE
:100060000C94F4040C94F4040C94F4040C94F40430
:100070000C94F4040C94F4040C94F4040C94F40420
:100080000C94F4040C94F4040C94F4040C94F40410
:100090000C94F4040C94F4040C94F4040C94F40400
:1000A0000C94F4040C94F4040C94F40429003A0025
:1000B0003B003C003D003E003F004000410042004C
:1000C000430044004500460048004C0035001E0037
:1000D0001F0020002100220023002400250026000C
:1000E00027002D002E002A002A004A002B000000C5
:1000F00014001A000800150017001C0018000C005E
:10010000120013002F00300031004B0039000000B6
:1001100004001600070009000A000B000D000E0085
:100120000F0033003400320028004E00E10064006C
:100130001D001B000600190005001100100036000C
:1001400037003800E500000052004D00E000E300F9
:10015000E20000002C0000002C0000002C00000039
:10016000E60001510000500051004F000100010065
:100170000100010001000100010001000100010077
:100180000100010001000100010001000100010067
:100190000100010001000100010001000100010057
:1001A00001000100010001000100C25C010000002B
:1001B000010001000100005C0100010001000100DC
:1001C00001000100010001000100C35C010000000A
:1001D0000100010001000100010001000100010017
:1001E0000100010001000100010001000100010007
:1001F00001000100010001000100010001000100F7
:1002000001000100010000000100010001000100E7
:1002100001000000010000000100000001000000DA
:1002200001000100000001000100010001000100C7
:1002300001000100010001000100010001000100B6
:1002400001000100010001000100010001000100A6
:100250000100010001000100010001000100010096
:100260000100010001000100010001000100000087
:100270000100010001000100010001000100010076
:100280000100010001000100010001000100000067
:100290000100010001000100010001000100010056
:1002A0000100010001000100010001000100010046
:1002B0000100010001000100010001000100010036
:1002C0000100010001000000010001000100010027
:1002D000010000000100000001000000010000001A
:1002E0000100010000000100010001000100010007
:1002F00001000100010001000100010001000100F6
:1003000001000100010001000100010001000100E5
:1003100001000100010001000100010001000100D5
:1003200001000100010001000100010001000000C6
:1003300001000100010001000100010001000100B5
:1003400001000100010001000100010001000000A6
:100350000100010001000100010001000100010095
:100360000100010001000100010001000100010085
:100370000100010001000100010001000100010075
:100380000100010001000000010001000100010066
:100390000100000001000000010000000100000059
:1003A0000100010000000100010001000000000048
:1003B000000000002A2B28000000000000000000C0
:1003C0000000000000000029000000002C1E342066
:1003D000212224342627252E362D3738271E1F208C
:1003E0002122232425263333362E37381F040506D1
:1003F0000708090A0B0C0D0E0F1011121314151615
:100400001718191A1B1C1D2F3130232D3504050612
:100410000708090A0B0C0D0E0F10111213141516F4
:100420001718191A1B1C1D2F3130354C0000000005
:1004300000000000000000000000000000000000BC
:1004400000000000000000000000000000000000AC
:10045000000000000000000000000000000000009C
:10046000000000000000000000000000000000008C
:10047000000000000000000000000000000000007C
:10048000000000000000000000000000000000006C
:10049000000000000000000000000000000000005C
:1004A000000000000000000000000000000000004C
:1004B000000000000000000000000000000000003C
:1004C0000000000000000000000000000001010129
:1004D0000101010001010101000000000000000015
:1004E0000000000000000100010001010101010104
:1004F00001010101010101010101010101010101EC
:1005000001010101010101000000010100000000E2
:1005100000000000000000000000000000000000DB
:1005200000000000000000010101010000047F3F05
:100530001F643214643214783C1E1E140A052223F0
:10054000252628292A2C2D2F3032333536383A3BB0
:100550003D3E4042434547494A4C4E505153555702
:10056000595A5C5E6062646668696B6D6F71737521
:1005700077797B7D7F81838587898A8C8E90929421
:1005800096989A9C9E9FA1A3A5A7A8AAACAEAFB12E
:10059000B3B4B6B8B9BBBCBEBFC1C2C3C5C6C7C978
:1005A000CACBCCCDCED0D1D2D2D3D4D5D6D7D7D832
:1005B000D9D9DADADBDBDBDCDCDCDCDCDDDDDDDD84
:1005C000DCDCDCDCDCDBDBDBDADAD9D9D8D7D7D68C
:1005D000D5D4D3D2D2D1D0CECDCCCBCAC9C7C6C543
:1005E000C3C2C1BFBEBCBBB9B8B6B4B3B1AFAEAC89
:1005F000AAA8A7A5A3A19F9E9C9A98969492908E34
:100600008C8A89878583817F7D7B79777573716F0C
:100610006D6B6968666462605E5C5A5957555351E8
:10062000504E4C4A4947454342403E3D3B3A38369E
:10063000353332302F2D2C2A292826252322FFAAB4
:100640007F55400000000000000000000000010194
:100650000203040506080A0C0F1114181C20242993
:100660002E33393F464C535B626A7179818A929A84
:10067000A2AAB2B9C1C8CFD5DCE1E7EBF0F4F7FA32
:10068000FCFDFEFFFEFDFCFAF7F4F0EBE7E1DCD544
:10069000CFC8C1B9B2AAA29A928A8179716A625B03
:1006A000534C463F39332E2924201C1814110F0CAB
:1006B0000A08060504030201010000000000000012
:1006C000000000000101010101010101010202021B
:1006D00002020202020203030303030303030404EE
:1006E00004040404040505050505060606060607B8
:1006F0000707070708080808090909090A0A0A0B71
:100700000B0B0C0C0C0D0D0D0E0E0E0F0F0F101011
:100710001111111212131314141515161617171898
:100720001819191A1A1B1B1C1D1D1E1E1F20202103
:100730002222232424252626272829292A2B2C2D4A
:100740002D2E2F30313232333435363738393A3B6B
:100750003C3D3E3F404142434445464748494A4C60
:100760004D4E4F50515354555658595A5B5D5E5F2C
:10077000616264656668696B6C6D6F7072737577C2
:10078000787A7B7D7E8082838587888A8C8E8F9124
:10079000939596989A9C9EA0A2A3A5A7A9ABADAF4E
:1007A000B1B3B5B7BABCBEC0C2C4C6C9CBCDCFD138
:1007B000D4D6D8DBDDDFE2E4E7E9EBEEF0F3F5F8E1
:1007C000FAFDFF0403300000001403680037003511
:1007D000005F00730069006E006700610000002088
:1007E00003530069006E006700610020004B006544
:1007F00000790062006F0061007200640073000005
:10080000000403090409025B00030100A0FA0904C3
:100810000000010301010009211101000122400033
:100820000705810308000A09040100020300000013
:100830000921110100012222000705820320000185
:100840000705030320000109040200010300000062
:100850000921110100012285000705840320000AF7
:100860001201100100000008D8049AEC01000102F6
:1008700003010660FF0961A1010962150026FF005E
:100880009520750881020963150026FF00952075E3
:10089000089102C005010902A10185020901A10018
:1008A0000509190129051500250195057501810224
:1008B0009501750381010501093009311581257FF5
:1008C00095027508810609381581257F95017508FF
:1008D0008106050C0A38021581257F95017508816E
:1008E00006C0C005010980A10185031A81002A8381
:1008F00000160100260300950175108100C0050C4B
:100900000901A10185041A01002A9C021601002692
:100910009C02950175108100C005010906A1010521
:100920000719E029E7150025019508750181029551
:1009300001750881010507190029FF150026FF0030
:1009400095067508810005081901290595057501A9
:100950009102950175039101C00011241FBECFEFD4
:10096000DAE0DEBFCDBF04B603FE27C08091B1023E
:100970009091B202A091B302B091B4028730904B33
:10098000A740B04BD1F41092B1021092B202109273
:10099000B3021092B40214BE84B7877F84BF0FB62F
:1009A000F894A8958091600088618093600010920F
:1009B00060000FBEE0E0F8E3099511E0A0E0B1E0CF
:1009C000E8E0F2E602C005900D92AE36B107D9F725
:1009D00022E0AEE6B1E001C01D92A13BB207E1F713
:1009E0000E94F1290C94B3300C94000081E008952A
:1009F00081E008950C94F8041F93CF93DF9300D007
:100A000000D00F92CDB7DEB749835A836B83209114
:100A1000B10189819A8121111BC06623A9F00E942E
:100A20007C22182F682F89819A810E94292269814E
:100A30007A81812F0F900F900F900F900F90DF9180
:100A4000CF911F910C944E150E945522182FEFCF75
:100A50000E947C2269817A81EDCFFC014081518125
:100A60006281738184810C94FC041F93CF93DF9384
:100A700090E0FC01E455FC4F1491FC01E455FB4F60
:100A8000D491845D9B4FFC01C491DD2319F081EE6C
:100A90000E943A19CC2319F086EE0E943A19812F50
:100AA0000E94991ACC2319F086EE0E94431ADD2386
:100AB00031F081EEDF91CF911F910C94431ADF91B9
:100AC000CF911F910895FF920F931F93CF93DF93C0
:100AD000EC01F62E8881882331F18E010F5F1F4FC4
:100AE000813041F4C9818C2F0E943A198C2F0E94C9
:100AF000431A05C0823079F489810E943A19E801CD
:100B000021968F2D815030F3EFE9FFE03197F1F717
:100B100000C00000F7CF833011F48981E8CF0E9434
:100B200035058E01ECCFDF91CF911F910F91FF9092
:100B3000089560E00C9463058F929F92AF92BF92EC
:100B4000CF92DF92EF92FF920F931F936B017C0184
:100B500081E090E0A0E0B0E04C015D0104C0880CB1
:100B6000991CAA1CBB1C4A95D2F7B501A4014C01E3
:100B70005D0104C0880C991CAA1CBB1C2A95D2F7E5
:100B8000482959296A297B2904C0880F991FAA1F5F
:100B9000BB1F0A95D2F78A019B010C211D212E2132
:100BA0003F21041715072607370789F48C299D294B
:100BB000AE29BF29BC01CD011F910F91FF90EF908D
:100BC000DF90CF90BF90AF909F908F9008958095C9
:100BD0009095A095B0958C219D21AE21BF21EACFA3
:100BE0000F93382F262F6091260270912702809153
:100BF000280290912902042F432F0E949C050F91F7
:100C00000C9467210E944F130E94C623811102C0D9
:100C10000E946C240E94CB120C9469090E94481215
:100C20000C946C0908950C94120681E008950C94BC
:100C30001506CF93C82F0E9413068C2FCF910C94CA
:100C4000170608950E94691D0E9421062FEF84E374
:100C50009CE0215080409040E1F700C000000C94DF
:100C6000C1250F931F93CF93DF93EC010E942D05B5
:100C70008C01BE010E948413882349F1BE01C80182
:100C80000E94FA04882319F1BE01C8010E947B1654
:100C90008823E9F0BE01C8010E94BC168823B9F080
:100CA000BE01C8010E947410882389F08A818823BC
:100CB000D1F0013C8CE5180799F00E3D8CE5180742
:100CC00061F001158CE5180771F40E94220680E09E
:100CD000DF91CF911F910F9108950E946C24F7CF5F
:100CE0000E94CC11F4CF06311C45F9F40E94112367
:100CF0009A81992381F08A7A91E009F490E09093A7
:100D00006E01811106C089E20E94EC220E945D23DF
:100D1000DECF85E3F9CF80916E01811104C089E2B5
:100D20000E94F322F3CF85E3FBCFCE01DF91CF9179
:100D30001F910F910C94F60490E080E008950895BF
:100D4000FC01EE0FFF1FE45DFA4F85919491089529
:100D5000CF93DF930E944E150E948E08EC018115FF
:100D600021E5920708F049C0811530E5930708F0A6
:100D700030C1883E910508F5803E910570F5883AAE
:100D8000910570F4853A910508F0AEC08130910567
:100D900021F1009711F1049700F5D0E0C0E01DC0EB
:100DA0008F3B910508F4ABC0805C9109C03CD10534
:100DB000A0F30E94A006EC0110C08115904388F4B6
:100DC000C11580E2D80708F0FBC0C03FD10528F369
:100DD000CF3FD10509F008F4F1C0CE01DF91CF91EA
:100DE0000895C11590E4D90708F0F0C0CE01992705
:100DF000D3FFE9C0EC01D86CF0CF811529E592074B
:100E000060F5811538E5930708F029C1811544E59F
:100E1000940778F4C11583E5D80708F007C1C11518
:100E200092E5D90708F0F1C0DC2FCC27C16FD06A5A
:100E3000D4CF811525E5920708F40CC1811536E55C
:100E4000930708F0AACF0E942509C82FD0E0DC2F15
:100E5000CC27CC27DF71D062C0CF8D3B9C4509F4F5
:100E600003C1CE3B8CE5D807D0F4CB3B9CE5D9073A
:100E700009F4FDC008F0FEC0C1153AE5D30708F03B
:100E80008CCF8C2F8F700E94250934E0D695C795A2
:100E90003A95E1F7CF709C2FEC01D0699ECFC03C12
:100EA0004CE5D40709F4E9C060F4CE3B9CE5D907D2
:100EB00009F4E6C0CF3BDC4509F06FCFC0E0D2EDCE
:100EC0008CCFCE0190568115904208F066CF8D2FC1
:100ED0008F710E94250990E0982F882788279F719D
:100EE0009C012C2BE901B7CF853A910509F4CBC0C1
:100EF000863A910509F0CAC0C2E8D0E46ECF883ABC
:100F0000910509F4C6C0893A910509F4C5C08A3A29
:100F1000910509F4C4C08B3A910509F4C3C08C3A19
:100F2000910509F4C2C08B3B910509F4C1C08C3B0B
:100F3000910509F4C0C08D3A910509F4BFC0803B0A
:100F4000910509F4BEC08E3A910509F4BDC08F3AEF
:100F5000910509F4BCC0813B910509F4BBC0823BFB
:100F6000910509F4BAC0833B910509F4B9C0843BEB
:100F7000910509F4B8C0853B910509F4B7C0863BDB
:100F8000910509F4B6C0873B910509F4B5C0883BCB
:100F9000910509F4B4C0893B910509F4B3C08D3BB8
:100FA000910509F4B2C08E3B910509F4B1C08A3BAA
:100FB000910509F4B0C0C0E0D4E40FCFD0650DCFE7
:100FC000CE019F70F6CEEC01D06C07CFDF70D06AF7
:100FD00004CFE4E096958795EA95E1F783702C2F8E
:100FE00026952695237040E2249F90011124382BEA
:100FF0008C2F8370C1E0D0E002C0CC0FDD1F8A953A
:10100000E2F7C22BD32BDC68E8CECE0183709927A0
:1010100021E030E002C0220F331F8A95E2F7C69527
:10102000C69580E2C89FE0011124EBCFCE0183700A
:10103000992721E030E002C0220F331F8A95E2F7A2
:10104000C695C69590E2C99FE0011124C22BD32B0F
:10105000DA68C3CED82FCC27C46FD06ABECED82FC3
:10106000CC27C06FD06AB9CEC0E0D1EDB6CEC0E01B
:10107000D4EDB3CEC0E0D5EDB0CEC0E0D3EDADCE73
:10108000C0E0D0EDAACEC1E8D0E4A7CEC3E8D0E45A
:10109000A4CEC2EED4E4A1CEC9EED4E49ECECAEE74
:1010A000D4E49BCEC5EBD4E498CEC6EBD4E495CE85
:1010B000C3EBD4E492CEC4EBD4E48FCEC7EBD4E43C
:1010C0008CCECCECD4E489CECDECD4E486CEC3E88F
:1010D000D5E483CECAE8D5E480CEC2E9D5E47DCE9E
:1010E000C4E9D5E47ACEC1E2D6E477CEC3E2D6E451
:1010F00074CEC4E2D6E471CEC5E2D6E46ECEC6E2CA
:10110000D6E46BCEC7E2D6E468CECFE6D4E465CEB3
:10111000C0E7D4E462CECAE2D6E45FCE823891055D
:10112000B1F1B0F48133910509F475C048F4893206
:10113000910509F469C08A32910509F473C00895D4
:101140008533910509F459C08933910501F108955A
:10115000833E9105A9F138F4803E9105F9F0823E75
:10116000910549F10895863E9105A9F1873E9105C3
:10117000C9F1843E910519F52091A30221FF1FC0FA
:101180008091A20284FD14C087EE90E00895209122
:10119000A2022370A1F080EE90E008952091A202B7
:1011A00020FD47C03091A30230FF09C024FF44C096
:1011B00090E080E004C02091A20222FDF7CF0895C4
:1011C0002091A20222FD3BC03091A30230FDE3CF6B
:1011D00024FFF5CFEDCF2091A20223FFF0CF24FD15
:1011E000E7CFD2CF2091A20223FD2CC03091A302E1
:1011F00031FFEECF84EE90E008952091A20225FF0A
:10120000DECF89E290E008952091A20225FFD7CF9A
:1012100085E390E008952091A20226FFD0CF8AE2D4
:1012200090E008952091A20226FFC9CF81E390E0CB
:10123000089589E390E0089583EE90E0089582EEAA
:1012400090E0089586EE90E008959091A20292FFBA
:1012500006C0282F28712830F9F4877F846093FF17
:1012600006C0282F28712831F1F4877E84612091EF
:10127000A30220FF06C0382F38713830D9F4877F99
:10128000816021FF06C0282F28712831D1F4877E84
:10129000816194FD877E0895282F24712430F9F60A
:1012A0008B7F8860DCCF282F2471243101F78B7E5F
:1012B0008861DDCF382F3171313019F78E7F88602A
:1012C000E0CF282F2171213121F78E7E8861E1CF77
:1012D00008950C94680908950C946B09E82FF0E0C8
:1012E000EE0FFF1FE159FE4F80819181089508950F
:1012F000A4E3B1E061E070E08D91E82FE295EF703A
:10130000F0E041A18F709B0101C0220F8A95EAF79E
:10131000922F9095942391A382A1822B82A381E0A6
:10132000AA33B80749F7A4E2B1E061E070E08D911B
:10133000E82FE295EF70F0E041A18F709B0101C0B2
:10134000220F8A95EAF7922F9095942391A382A178
:10135000822B82A381E0A433B80749F7EBE7F1E0E1
:10136000AFE6B1E087E891E0119211921D921D92D3
:101370008E179F07C9F786E00E94580A0C94020650
:101380005F926F927F928F929F92AF92BF92CF9215
:10139000DF92EF92FF920F931F93CF93DF93ABE710
:1013A000B1E004E311E0512CEE24E394F12C8D9094
:1013B0009C9011971D921D92E80189918E01E82F52
:1013C000E295EF70F0E091A18F70B70101C0660F58
:1013D0008A95EAF7892F862B81A382A1662E6094D5
:1013E000862182A3D0EADA95F1F784E2C82E81E063
:1013F000D82E30E020E0AD0142505109E60179904D
:101400006E01872D82958F7090E0EC0188A1EA0132
:10141000A880B98090E0D72DDF7002C095958795A0
:10142000DA95E2F780FD41C0C701022E02C0880FA5
:10143000991F0A94E2F78A299B29EA0199838883F4
:101440002F5F3F4F20313105C9F681A1D62DD8231A
:10145000D1A382A1682B62A381E0FA0120813181AE
:101460002815390509F480E0582AF1E0A738BF07AC
:1014700009F09DCF252D46E06FE671E08BE791E006
:101480000E94590A0E940E06852DDF91CF911F916F
:101490000F91FF90EF90DF90CF90BF90AF909F9013
:1014A0008F907F906F905F90089590E080E0C3CF21
:1014B0000895FF920F931F93CF93DF93F82E092F78
:1014C000162FD72FC42F222349F081E08093890162
:1014D0000E945B2590938801809387018091890108
:1014E0008823A1F080918701909188010E94732543
:1014F000069760F0EF2DF02FA12FBD2F90E080E038
:10150000D0E08C179D0744F010928901DF91CF91B4
:101510001F910F91FF900895219131912D933D934B
:101520000196EFCFAF92BF92CF92DF92FF920F93CF
:101530001F93CF93DF93362F472FE82FF0E0ED5323
:10154000F94F71110DC06491762F862FDF91CF91E5
:101550001F910F91FF90DF90CF90BF90AF900895B3
:10156000C72FD0E02491F22E022F10E056E0659FA5
:10157000C0011124EFEFF0E0BF010E94E12F832FA3
:1015800090E0880F991F35E5369FD001379FB00D49
:1015900011248A1B9B0B982F990F980F6F01CC1A5F
:1015A000DD0AC09ED001C19EB00DD09EB00D1124A9
:1015B0008B2F949FA0011124452F55276F01C41A2A
:1015C000D50AC09EA001C19E500DD09E500D112481
:1015D0005F01A91AB108AC9E6001AD9ED00CBC9E03
:1015E000D00C1124CD2CDD24EC19FD09E09FE00185
:1015F000E19FD00DF09FD00D1124ED2F62307105C9
:10160000A1F048F46115710569F06130710589F048
:10161000EB2F852F07C06430710571F088F06630BC
:101620007105B1F76E2F722F91CFE22F2B2F8D2FD7
:10163000F9CFE22F252FF6CFEB2F822F2D2FF2CFD0
:101640002B2F8F2DE52FEECF0895CF93DF93762F9D
:10165000E901682F842F0E94920A798368838A8324
:10166000DF91CF91089580915402982F9E7F29F4A5
:10167000817082608093540208958A34E8F3817007
:101680008864F8CF88E090E00C947330CF92DF92BA
:10169000EF92FF926B017C010E94330BB701A60110
:1016A00088E090E0FF90EF90DF90CF900C94913025
:1016B000E4E5F2E083E0808311828FEF828383830D
:1016C000148260817181828193810C94460B809198
:1016D000540280FF02C08695089580E008958091AD
:1016E0005802833018F48F5F80935802609154023F
:1016F0007091550280915602909157020C94460BBE
:1017000080915802882319F081508093580260918B
:1017100054027091550280915602909157020C9498
:10172000460B6091040170E08091540280FF0AC072
:1017300080918E0123E0829FC0011124875A9D4F22
:101740000C94161380918D019091030123E0829FE8
:10175000F0011124E75AFD4F891750F711821082CA
:1017600012828F5F3396F8CF9091540290FF14C08D
:1017700090918D012091030133E0939FF00111249A
:10178000E75AFD4F921710F00C94910B8183608300
:1017900042839F5F3396F6CF0895CF93DF9300D0B7
:1017A0000F92CDB7DEB79091540290FF0AC09E0110
:1017B0002F5F3F4F0E94250B4B8169818A810E94D8
:1017C000B40B0F900F900F90DF91CF910895CF93AE
:1017D000DF93EC01EC81F0E0E25CFA4F4491E4E548
:1017E000F2E0628181810E94CD0B8C818F5F8C83BE
:1017F000DF91CF910895CF93DF93EC01E4E5F2E020
:10180000438162818C810E94CD0B8C818F5F8C83A0
:10181000DF91CF9108950F931F93CF93DF9300D063
:101820000F92CDB7DEB78C0180918A0181110AC079
:101830009E012F5F3F4F4FEF6FEF0E94250B8A8174
:1018400080938A01F8016481613069F080918A0196
:1018500040E0662361F040E0623011F440918A017B
:1018600080E060E004C060918A0140E080E00E9476
:10187000B40BF801848190E0019663E070E00E946F
:10188000F52F84830F900F900F90DF91CF911F91D0
:101890000F910895AF92BF92CF92DF92EF92FF9295
:1018A0000F931F93CF93DF9300D00F92CDB7DEB786
:1018B000182FF62E042FE22E9091540290FF29C08B
:1018C000E92FE695AE2FB0E0A65CBE4F8C918093D9
:1018D00096019E7F923059F59E012F5F3F4F812FD9
:1018E0000E94250B4B8169818A810E94B40B109361
:1018F0005502F092560200935702EE2051F060918B
:1019000054027091550280915602909157020E94A4
:10191000460B0F900F900F90DF91CF911F910F9179
:10192000FF90EF90DF90CF90BF90AF9008958230FE
:1019300019F400915702DBCF863019F4109155024B
:10194000D6CF8930D9F3893191F6E9518E2F817044
:10195000D82EE695F0E0E25CF94FA590B490C12C4A
:10196000BB2460910201C61618F00E94910BBFCFF4
:101970002C2D30E0A29EC001A39E900DB29E900D32
:10198000112470E00E94E12F812FD11013C0860F27
:1019900040918D01420F532F511D9A01220F331F89
:1019A000240F351F275A3D4F402F6F2D0E94250BC6
:1019B000C394D7CF861BECCFE4E5F2E09181282FCA
:1019C0004381628188E0890F0C944A0C81E00C9479
:1019D000DC0CE4E5F2E09181282F4381628188EFFD
:1019E000890F0C944A0C81E00C94E90CE4E5F2E0D8
:1019F000628128E0620F08F46FEF282F4381818114
:101A00000C944A0C81E00C94F60CE4E5F2E062815F
:101A100028E0621B08F460E0282F438181810C9448
:101A20004A0C81E00C94050DE4E5F2E0438128E0E6
:101A3000420F08F44FEF282F628181810C944A0CE9
:101A400081E00C94140DE4E5F2E0438128E0421BB0
:101A500008F440E0282F628181810C944A0C81E0D7
:101A60000C94230D20E00C944A0CEF92FF921F93EC
:101A7000CF93DF93EC0110E0EE24EA94F12C609117
:101A80000201161770F00E94910B9A818C8190FFD1
:101A900027C08F5F8C83DF91CF911F91FF90EF90D4
:101AA000089520918D01422F410F5527551FCA01DE
:101AB0009A01220F331F280F391F275A3D4F70E01C
:101AC000C7010E94F52F962F8C814091570260919B
:101AD0005602199F800D11240E94250B1F5FCFCF46
:101AE0008150D8CFAF92BF92CF92DF92EF92FF9208
:101AF0000F931F93CF93DF93FC0182810FEF80FF41
:101B000001E010E046E1A42E809102011817C8F010
:101B10000E94910B80918C01013009F055C0811118
:101B200002C080910201815080938C01DF91CF919E
:101B30001F910F91FF90EF90DF90CF90BF90AF90EB
:101B40000895C0918D01C12ED12CCC0DDD2DD11D5C
:101B5000CE01880F991FC80FD91FC75ADD4F1982B0
:101B600018821A8234E0E32EF12CB12C80918C0182
:101B70008B0D87311CF16A2D0E94D32F892F082EDF
:101B8000000C990BC816D90691F4809157028E9DCE
:101B9000A0018F9D500D112455954795559547955A
:101BA0009E0160915602809155020E94250BB00E55
:101BB000F1E0EF1AF108D1F61F5FA6CF87FFDFCF64
:101BC00090910201890FDBCF90E0019660910201B4
:101BD00070E00E94F52FA8CF0F931F93CF93DF9350
:101BE00080918D019091030123E0829FF0011124E7
:101BF000E75AFD4F891740F1C0E0D3E06091020140
:101C0000C61740F10E94910B2091000180918B0139
:101C1000820F80938B0190910101920F90930101AB
:101C2000191654F4082E000C990B409102014150F2
:101C3000550B841795071CF0219520930001DF9127
:101C4000CF911F910F9108951182108212828F5FA0
:101C50003396D0CF0C2F10E070E0C8010E94F52F12
:101C600020918D01820F482F50E020918B01022E90
:101C7000000C330B02171307BCF020910101022E58
:101C8000000C330B201731077CF08D9F900111243D
:101C9000275A3D4F4091570260915602809155025C
:101CA0000E94250BCF5FAACFFA01EE0FFF1FE40FB2
:101CB000F51FE75AFD4F118210821282F3CF0F9366
:101CC0001F93CF93DF938C01FC0184819581019652
:101CD0008170992795838483C0E0D5E580910201C6
:101CE000C81730F0DF91CF911F910F910C94910B99
:101CF00020918D01422F4C0F5527551FCA019A0183
:101D0000220F331F280F391F275A3D4F8C2F8695DE
:101D1000F80144815581840F952F911D8170409168
:101D20005702609156028D9F802D11240E94250B31
:101D3000CF5FD4CF0F931F93CF93DF93EC0110E0CD
:101D400000E0909102019017110609F06CF40E94D6
:101D5000910B8C8190E00196817099278C83DF91A3
:101D6000CF911F910F91089520918D01A801420FED
:101D7000511D9A01220F331F240F351F275A3D4F43
:101D80004C816091560280915502969590171106EC
:101D900051F04CF0442349F0409157020E94250B2A
:101DA0000F5F1F4FCECF4423B9F340E0F7CFE4E5F8
:101DB000F2E080818E7F8083608171818281938156
:101DC0000E94460B109297012FEF80E792E021507E
:101DD00080409040E1F700C000000C94910BE4E5D6
:101DE000F2E080818E7F8083109297012FEF80E751
:101DF00092E0215080409040E1F700C000000C9438
:101E0000910B60915402669570E04BE050E085E0E4
:101E100091E00E945E30892B19F481E08093970154
:101E20000E945B259093900180938F01089590917B
:101E3000540290FF35C09170811128C09260909338
:101E40005402662351F060915402709155028091C2
:101E50005602909157020E94460B6091540266957B
:101E600070E04BE050E085E091E00E945E30892B0D
:101E7000A1F01092970181E0809392014091570266
:101E800060915602809155020C94320D853210F00B
:101E90009864D5CF880F982BD2CF0E94010FEBCF3B
:101EA0000895682F90915402969581E0890F8532AC
:101EB00008F081E00C94170F81E00C94510F682F0B
:101EC0009091540296958FEF890F09F484E20C9457
:101ED000170F81E00C945F0F61E00C94170FE4E59D
:101EE000F2E080818160808386950C946C0F8091F4
:101EF000540280FD0C94D70E0C946F0F60E00C948C
:101F0000170F8091950181112EC00E94C623811167
:101F100004C00E946C240E94580B0E94420B6093E4
:101F200054027093550280935602909357026E7F2D
:101F300061F40E94580B0E94420B6093540270930C
:101F4000550280935602909357020E94330B1092D1
:101F500097018091540280FF03C086950E947E0FF6
:101F600081E0809395010895E4E5F2E0808181604D
:101F7000808386950C947E0F1092970108950F939D
:101F80001F93CF93DF9380919701882309F48DC02D
:101F900080919601E0915402E695E81BE09391014F
:101FA0008230C9F5F0E0E65CFA4FE491CE2FD0E044
:101FB00007EE1BE080919201882389F01092920134
:101FC0000E945B259E0120953095820F931F909370
:101FD000900180938F01109294011092930180914F
:101FE0008F01909190010E9473258C179D0708F432
:101FF0005CC0E0918F01F0919001CE0FDF1FD09374
:102000009001C0938F018FE891E0F801DF91CF91AB
:102010001F910F910994863049F4F0E0E95CFA4F82
:10202000E491CE2FD0E00BEF1BE0C4CF893051F408
:10203000E695F0E0EC5CFA4FE491CE2FD0E005E3BA
:102040001DE0B8CF8F3051F4E695F0E0EF5CFA4F29
:10205000E491CE2FD0E002E71DE0ACCF853149F40A
:10206000F0E0E25DFA4FE491CE2FD0E00CEE1DE0FF
:10207000A1CFC8EED3E00FE51EE0883109F49ACF76
:10208000833239F4ECE2F5E0C591D4910BE01CE029
:1020900091CFC4EFD1E00AE91EE0843209F48ACF7F
:1020A000C0EDD7E004E21BE085CFDF91CF911F9117
:1020B0000F910895FA01811101C0FB010994CF939A
:1020C000DF93C82FD62F0E94670B8C1740F00E9419
:1020D000670B8D1720F4DF91CF910C945C0F8C2F40
:1020E000DF91CF910C946C0F0F931F93CF938C01C2
:1020F000FB01C281CC2309F465C00E9411238272C6
:10210000F801E25CFC45E431F10538F4EB54FF4C96
:102110000C942B300E94770FC0E08C2FCF911F9131
:102120000F91089549E65FE06CE57FE00E945A1048
:10213000F3CF4CE55FE069E67FE0F8CF43EF5CE08A
:1021400066EE7CE0F3CF46EE5CE063EF7CE0EECF42
:1021500041E15DE062E07DE0E9CF42E05DE061E128
:102160007DE0E4CF4FE25DE060E27DE0DFCF40E282
:102170005DE06FE27DE0DACF40E85BE06FE67BE0B8
:10218000D5CF4FE65BE060E87BE0D0CF81E00E94F6
:102190006C0FC2CF65E082E00E945F10BDCF68E0A7
:1021A00086E0FACF6EE089E0F7CF64E18FE0F4CF0C
:1021B00067E185E1F1CF88E1EACF62E289E1ECCF26
:1021C00083E2E5CFC1E0A9CF0E94C623811102C0FE
:1021D0000E946C240E94F42380939B02803220F0A2
:1021E0008770886180939B0290919B02892F8170F8
:1021F00090FF04C0892F8695869586950C942612AB
:1022000080919B02982F969596959695933040F4E1
:102210009F5F990F990F990F8770892B80939B026D
:1022200080919B02816080939B020E94F8238091A1
:102230009B028695869586950C94261280919B022A
:10224000982F987F79F0885080939B02887F91E047
:1022500009F490E080919B0290FB80F980939B02AF
:102260000E94F82380919B028695869586950C9412
:10227000261280919B0280FD13C0816080939B0297
:10228000813019F489E080939B0280919B020E9427
:10229000F82380919B028695869586950C9426124C
:1022A000089580919B0280FF08C08E7F80939B02DF
:1022B0000E94F82380E00C942612089580919B02DE
:1022C00080FD0C9451110C94391190919B02892F2F
:1022D0008695869586958F5F8F7197708430D8F438
:1022E000880F880F880F892B80939B0280919B0217
:1022F000887F91E009F490E080919B0290FB80F947
:1023000080939B020E94F82380919B02869586957C
:1023100086950C94261290939B02E8CF843008F0A7
:1023200083E0982F990F990F990F80919B028770E6
:10233000892B80939B02887F91E009F490E0809143
:102340009B0290FB80F980939B020E94F82380916E
:102350009B028695869586950C94261280919B0209
:10236000869586958695089580919B0281FD07C08C
:10237000826080939B020E94F8230C944912089576
:1023800080919B0281FF07C08D7F80939B020E94FA
:10239000F8230C945512089580919B0281FD0C94B2
:1023A000C0110C94B41180919B02869581700895A0
:1023B000CF92DF92EF92FF928C3724E1920750F494
:1023C00069E070E00E94E12FCB01FF90EF90DF9079
:1023D000CF900895B0E0A0E0BC01CD016A50774DE8
:1023E0008F4F9F4F982F872F762F662725EF38E244
:1023F00041E050E00E94093069017A01CA01B90147
:102400000E94C32F9B01AC01C701B6010E94C32FDC
:10241000672F782F892F99276115710521E0820791
:10242000910591F66FEF7FEFCFCFE82FE295EF7038
:10243000F0E032A1282F2F7081E090E001C0880FDA
:102440002A95EAF78095832382A308958430D8F4EF
:1024500081111AC090918000977F90938000282F5F
:1024600030E0AFEFBFEF0E94383023E030E040E0D3
:1024700050E00E940930C9010E94D81190938D004C
:1024800080938C00089583E0909180009860E5CF60
:102490000895109299011092980110929A01EFE616
:1024A000F0E08081816080830895EFE6F0E0808134
:1024B0008E7F80830E94AE110C9426121F920F9281
:1024C0000FB60F9211242F933F934F935F936F9307
:1024D0007F938F939F93AF93BF93CF93EF93FF938C
:1024E000209110018091980190919901019644EFFB
:1024F000249F90011124B9010E94E12F909399012A
:1025000080939801B901660F672F661F770B71954D
:102510000E94E12F6F7780919A01823041F46034FC
:1025200051F480916F008E7F80936F0004C08130E2
:1025300011F46F37B1F3E62FF0E0ED5BF94FC49182
:102540000E94AE11282F41E051E0C49FC001C59FF9
:10255000900D112463E070E00E94E12F269FC001DE
:10256000279F900D11240E94D81190938D00809385
:102570008C00FF91EF91CF91BF91AF919F918F917F
:102580007F916F915F914F913F912F910F900FBE6F
:102590000F901F901895279A87E30E9415128AE0E2
:1025A0008093800089E1809381008FEF9FEF90936B
:1025B0008700809386000E94E4100E94D31181114D
:1025C0000C944912089535B1242F2095232335B159
:1025D000432B3FB7F894680F791F8617970711F4BC
:1025E0003FBF0895FC015191CF01E8E045B90000DB
:1025F00000C057FF25B9550F000000C000C000C043
:1026000025B900C0EA9591F7E8CF24B1242B24B96D
:102610009B01220F331F620F731F0E94E31287EC8E
:1026200090E00197F1F700C00000089548E00C9495
:10263000051382E290E00E946B30803289F483E2DD
:1026400090E00E946B30813059F484E290E00E9467
:102650006B3091E0833009F090E0892F817008950C
:1026600080E0FCCFCF93C82F6FEF811160E282E250
:1026700090E00E947F306FEFC11161E083E290E053
:102680000E947F306FEFC11163E084E290E0CF9150
:102690000C947F3080E00E9432130C94C0230E947F
:1026A000C0098FE39CE90197F1F700C000000E9488
:1026B000C00980E00E946E0980FF04C00E944A1396
:1026C0000C94C1250895089585E290E00E946B3036
:1026D000682F70E090E080E0089585E290E00C942F
:1026E0007F300E9463130E94191381110CC060E0B7
:1026F00070E0CB010E946D130E94C6140E94B015B9
:1027000081E00C9432130895CF93FB01C281CC2356
:1027100009F19C0122513F452031310520F58251BC
:102720000E94C015C0E08C2FCF91089581E00E94D7
:102730008D2143E062E081E00E94F005F3CF81E06B
:102740000E94AE2143E062E081E00E94F005EBCF01
:1027500082E0F6CF8031FFE59F0789F381319F4505
:10276000B9F3C1E0E0CF8031EFE59E07F9F28131A6
:102770009F45C9F682E0DBCF2FEFFC01208308954F
:10278000EF92FF920F931F93CF93DF93EC01062FED
:10279000E881E150E33108F0B5C0F0E0E753FF4CC9
:1027A0000C942B30198289E08A83602FCE01DF914F
:1027B000CF911F910F91FF90EF900C94E5288981A4
:1027C000823069F0833071F08130D9F40E9467253E
:1027D0000E9431306A837B838C839D83E6CF0E9485
:1027E0006413F6CF7E0110E0812F0E946E09F7017D
:1027F000928383831F5FF2E0EF0EF11C1630A1F786
:10280000D4CF602FCE010E94BC13CFCF89818230FC
:10281000C1F76A817B818C819D810E9431300E9449
:102820006D13C3CF4B816A8189810E9498149827C8
:10283000892798279D838C83B8CF2C813D813227AF
:10284000232732274B816A8189810E94B114ADCF41
:102850000E94C614AACF0E945B158983A6CF0E944E
:102860005D159827892798279A8389839ECF6B8146
:1028700070E089819A81AE014C5F5F4F982789276C
:1028800098270E94601591CF6B8170E089819A81B1
:10289000AE014C5F5F4F9827892798270E948615C5
:1028A00084CF0E94B01581CF0E948514D6CF6B8152
:1028B00070E089819A81AE014C5F5F4F982789272C
:1028C00098270E94FE1471CF6B8170E089819A81F4
:1028D000AE014C5F5F4F9827892798270E942415E7
:1028E00064CF0E944A1361CF0E94E5282FEF81EE4A
:1028F00094E0215080409040E1F700C000000E9429
:10290000C12553CF8FEF888350CF84E0089590E2A4
:10291000699FB001112450E0440F551F640F751FCB
:1029200090EC899F600D711D1124CB01869608954E
:102930000F931F93CF93DF930E9487148C010E9403
:102940006B30C82FD0E0DC2FCC27C80101960E9445
:102950006B309E01282BC901DF91CF911F910F9100
:1029600008950F931F93CF93DF93122F032F0E948D
:102970008714EC01602F0E947F30612FCE010196F9
:10298000DF91CF911F910F910C947F30AF92BF9246
:10299000CF92DF92EF92FF921F93CF93DF938CEA57
:1029A000C82E80E0D82ED0E07601C0E014C0F5013A
:1029B00025913491412F6C2F8D2F0E94B11482E00C
:1029C000A80EB11C1F5F103191F780E2E80EF11CD8
:1029D000CF5FC63019F0570110E0E9CFDF5F80EC20
:1029E000C80ED11CD43001F7DF91CF911F91FF9019
:1029F000EF90DF90CF90BF90AF900895EF92FF924D
:102A00000F931F93CF93DF93EC018A017C01E60EB5
:102A1000F71ECE018696CE15DF0539F4DF91CF91F2
:102A20001F910F91FF90EF900895C11523E0D207F9
:102A300040F40E946B30F80180830F5F1F4F219696
:102A4000E8CFF8011082F9CFCF92DF92EF92FF9298
:102A50000F931F93CF93DF937C016A018C01060FC4
:102A6000171FEC01CE018696C017D10749F4DF91FC
:102A7000CF911F910F91FF90EF90DF90CF9008952D
:102A8000C11523E0D20740F4FE01EE19FF09EC0D59
:102A9000FD1D60810E947F302196E4CF462F843057
:102AA00038F4763028F4603118F4672F0C949814B9
:102AB00090E080E0089580E108958AED90E0089527
:102AC000EF92FF920F931F93CF93DF93EC018A0154
:102AD0007C01E60EF71ECE018A5D9C4FCE15DF0508
:102AE00039F4DF91CF911F910F91FF90EF900895EE
:102AF000CA3DD10540F40E946B30F80180830F5F1E
:102B00001F4F2196E8CFF8011082F9CFCF92DF92C4
:102B1000EF92FF920F931F93CF93DF937C016A0193
:102B20008C01060F171FEC01CE018A5D9C4FC01768
:102B3000D10749F4DF91CF911F910F91FF90EF9052
:102B4000DF90CF900895CA3DD10540F4FE01EE1903
:102B5000FF09EC0DFD1D60810E947F302196E4CFBE
:102B6000CF93DF93C6E2D3E060E0CE010E947F30D6
:102B70002196C11584E0D807B9F7DF91CF91089568
:102B8000EF92FF920F931F93CF93DF9300D00F929A
:102B9000CDB7DEB7F82E8FE08F1540F08FEF93E0C2
:102BA0000E946B3006E213E08823B1F00F900F9083
:102BB0000F90DF91CF911F910F91FF90EF900895AB
:102BC000011584E0180791F3C8010E946B30811150
:102BD00001C0FA940F5F1F4FF110F2CF19821A82D1
:102BE0001B8278018FEFE81AF80AC8010E946B3047
:102BF00089831A828823D1F28150833068F40E5F72
:102C00001F4FC7010E946B308A83882379F2CE015F
:102C100001960E949905E5CF8701F9CF0F931F9385
:102C2000CF93DF93C62FD42F022FFC0182818823FC
:102C3000C9F060939D010E945B2590939C01809355
:102C40009B0180E28C0F883008F050C0C77081E093
:102C500001C0880FCA95EAF7DF91CF911F910F91BC
:102C60000C94AC1A10919D01161335C080919B01F4
:102C700090919C010E947325883C910560F5C0E20B
:102C8000CD0F1D17B9F080E2810F883040F4177026
:102C900081E001C0880F1A95EAF70E94B31AC83084
:102CA00048F481E09D2F977001C0880F9A95EAF74C
:102CB0000E94AC1A802F0E94991AC830B8F4D770BD
:102CC00081E001C0880FDA95EAF7DF91CF911F917B
:102CD0000F910C94B31A80E28C0F883038F4C770CF
:102CE00081E001C0880FCA95EAF7EFCFDF91CF915D
:102CF0001F910F9108959C01CB01233F4CE53407B0
:102D000031F190F4283DFCE53F07E9F0293D4CE521
:102D1000340769F1273D3C4579F426E241EE61EE46
:102D20000E940E1680E00895253FFCE53F07B9F0AC
:102D300090F0263F3C45B9F0FC0182818823D1F018
:102D400010929D01089527E245EE65EEE9CF26E257
:102D500041EE60EEE5CF27E245EE64EEE1CF26E2FC
:102D600041EE62EEDDCF27E245EE66EED9CF28E2F6
:102D700041E0EBCF81E00895CF93DF93EC01FB01BD
:102D80008281882309F419C1C230FCE5DF07C0F154
:102D9000C6319CE5D90730F09E012A5F3C452930B9
:102DA000310570F50E94D9239093A3028093A2026B
:102DB000C031ECE5DE0709F4CFC008F05BC0C830D5
:102DC0008CE5D80709F4B6C088F5C430ECE5DE0719
:102DD00009F4A8C0C0F4C2308CE5D80709F49CC03F
:102DE0008091A2028260C330DC4509F498C08091D2
:102DF000A2029091A3020E94E7230E94691D80E035
:102E0000DF91CF9108958091A2028061C630ECE5F8
:102E1000DE0709F484C08091A2028860C730DC45D7
:102E200008F47DC08091A202806279C0CC308CE52C
:102E3000D80709F489C070F48091A2028C60CA306E
:102E4000ECE5DE0709F46BC008F478C08091A202BB
:102E50008E7F65C0CE308CE5D80709F479C08091AB
:102E6000A2028B7FCF30DC4508F459C08091A202CA
:102E70008F7E55C0CB3FECE5DE0709F457C030F537
:102E8000C3318CE5D80709F46FC078F4C131ECE5A3
:102E9000DE0709F465C0C231DC4509F0A8CF0E9405
:102EA000691D8091A2028F773AC0C5318CE5D807A1
:102EB00009F462C008F476C08091A3028160CA3F21
:102EC000DC4509F094CF8093A30291CFCF3FFCE57E
:102ED000DF0709F44DC088F48091A3028D7FCD3FB8
:102EE0009CE5D90781F38091A3028E7FCE3FDC451C
:102EF00050F38091A3028360E6CFC130FDE5DF0788
:102F000009F459C008F444C080E0C230DD4509F03E
:102F10006ECF0E946E246BCF8091A202816080935D
:102F2000A20265CF8091A2028460F9CF8091A302B2
:102F30008260C9CF8091A2028064F1CF0E94691D96
:102F40008091A2028068EBCF8091A2028D7FE7CFB3
:102F50008091A202877FE3CF8091A2028F7DDFCF95
:102F60008091A2028F7BDBCF8091A202837FD7CF9B
:102F70008091A3028C7FA7CF8091A20282FB992728
:102F800090F921E0922790FB82F990FB83F9C7CF5B
:102F90008091A302982F909591708E7F892B90FB42
:102FA00081F991CF0E94691D9091A202892F97FB10
:102FB00087F98058B4CF81E0ACCF81E021CF9093E6
:102FC000A3018093A2010895E091A201F091A301D1
:102FD000309721F00190F081E02D099480E0089570
:102FE000E091A201F091A301309721F00280F381DA
:102FF000E02D09940895E091A201F091A30130978A
:1030000039F022E0DC012C930480F581E02D099455
:1030100008952091A0013091A1012817390771F07E
:103020009093A1018093A001E091A201F091A301EE
:10303000309721F00680F781E02D099408952091C2
:103040009E0130919F012817390771F090939F01DD
:1030500080939E01E091A201F091A301309721F0AD
:103060000084F185E02D0994089585B7806885BFB7
:1030700085B7806885BF0895089508950C943C181D
:1030800008950C9440180E9435180E943D180C9425
:103090003E1881E008950E9452250E9478090E94FE
:1030A00071130E94E5250E94E4100E94810F0C9488
:1030B00041187F928F929F92AF92BF92CF92DF92F0
:1030C000EF92FF920F931F93CF93DF93CDB7DEB7AD
:1030D0002A970FB6F894DEBF0FBECDBF0E94C0097D
:1030E0000E944918882309F471C045EAA42E41E0E2
:1030F000B42E10E000E0702E802F0E946E096C014B
:10310000F501819091905F018816990609F458C0E5
:1031100080913B0281FD0E94770980E0EE24E394D8
:10312000F12C8C249D2494012E213F21232B09F482
:1031300041C08E837F82CE20DF2081E0CD2809F43C
:1031400080E088870E945B258160782F9A87898735
:103150004E815F8168858A850E940B19000F111FBF
:10316000F801EB55FE4F80819181E826F926F18226
:10317000E0820E9472270E94E4179091A4018917AF
:10318000B1F10E94E4178093A4012A960FB6F89437
:10319000DEBF0FBECDBFDF91CF911F910F91FF908A
:1031A000EF90DF90CF90BF90AF909F908F907F90E7
:1031B0000C9419068F5FEE0CFF1C803109F0B3CF21
:1031C0000F5F1F4F0630110509F095CF8FEF8983F0
:1031D0008A831B820E945B258160782F9D838C836C
:1031E00049815A816B818D810E940B19C2CF2A9629
:1031F0000FB6F894DEBF0FBECDBFDF91CF911F9108
:103200000F91FF90EF90DF90CF90BF90AF909F9085
:103210008F907F900895CF93DF93CDB7DEB72B9734
:103220000FB6F894DEBF0FBECDBF4F8358876987B6
:103230007A878B871E821D8285E0FE013796DE012C
:10324000119601900D928A95E1F749815A816B811F
:103250007C818D819E812B960FB6F894DEBF0FBEC8
:10326000CDBFDF91CF910C940920FC018081918129
:103270000C94BE22882309F405C18238B9F40E9457
:10328000E41781FDFFC089E30E94EC220E945D23C8
:103290002FEF81EE94E0215080409040E1F700C094
:1032A000000089E30E94F3220C945D238338A1F48B
:1032B0000E94E41780FDE6C083E50E94EC220E9494
:1032C0005D232FEF81EE94E0215080409040E1F7A4
:1032D00000C0000083E5E6CF8438A1F40E94E41723
:1032E00082FDD0C087E40E94EC220E945D232FEF74
:1032F00081EE94E0215080409040E1F700C0000052
:1033000087E4D0CF9CEF980F913A18F40E94EC22FA
:10331000CBCF90E2980F983050F4877091E001C0C5
:10332000990F8A95EAF7892F0E941423BDCF9BE558
:10333000980F933070F4853A31F0863A39F083E88B
:1033400090E00C94091881E890E0FBCF82E890E0CF
:10335000F8CF98E5980F973108F08EC0883A09F4B5
:1033600046C0893A09F446C08A3A09F446C08B3A05
:1033700009F446C08C3A09F446C08B3B09F446C0B8
:103380008C3B09F446C08D3A09F446C0803B09F4F1
:1033900046C08E3A09F446C08F3A09F446C0813BD4
:1033A00009F446C0823B09F446C0833B09F446C099
:1033B000843B09F446C0853B09F446C0863B09F4CA
:1033C00046C0873B09F446C0883B09F446C0893BA8
:1033D00009F446C08D3B09F446C08E3B09F446C053
:1033E0008A3B09F446C090E080E00C941F1882EEFE
:1033F00090E0FBCF89EE90E0F8CF8AEE90E0F5CF39
:1034000085EB90E0F2CF86EB90E0EFCF83EB90E09E
:10341000ECCF84EB90E0E9CF87EB90E0E6CF8CEC4B
:1034200090E0E3CF8DEC90E0E0CF83E891E0DDCF5A
:103430008AE891E0DACF82E991E0D7CF84E991E0A0
:10344000D4CF81E292E0D1CF83E292E0CECF84E28A
:1034500092E0CBCF85E292E0C8CF86E292E0C5CF82
:1034600087E292E0C2CF8FE690E0BFCF80E790E0A6
:10347000BCCF8AE292E0B9CF803F20F00E94802644
:103480000C9467270895882309F452C0823871F498
:103490000E94E41781FF4CC089E30E94EC220E9445
:1034A0005D2389E30E94F3220C945D23833859F451
:1034B0000E94E41780FF3CC083E50E94EC220E943A
:1034C0005D2383E5EFCF843859F40E94E41782FF2F
:1034D0002FC087E40E94EC220E945D2387E4E2CFA4
:1034E0009CEF980F913AF0F290E2980F983050F4D8
:1034F000877091E001C0990F8A95EAF7892F0E94A1
:103500001A23D2CF9BE5980F933020F490E080E00F
:103510000C94091898E5980F973120F490E080E01A
:103520000C941F18803F20F00E94E8260C94672717
:103530000895CF93C82F0E943A19C93349F42FEF49
:1035400087EE93E0215080409040E1F700C00000FA
:103550008C2FCF910C94431A882321F00E941423BE
:103560000C945D230895882321F00E941A230C9463
:103570005D230895BF92CF92DF92EF92FF920F9357
:103580001F93CF93DF936C01D62FC72FFC010581CA
:1035900002950F70128111110E9431230E940A239B
:1035A000E82E882371F01123B1F080E28D0F88306E
:1035B00090F082E00E94A8230E940A2391E0E82E66
:1035C000E926BC2EB2949FE0B922EB2DF0E0E45244
:1035D000FF4C0C942B30E12CF4CF0C2F0F70C07FDC
:1035E00011F00295007F1123A9F0002359F080E229
:1035F0008D0F883010F0D11109C0802F0E94142344
:103600000E945D238D2F0E943A1914C0802F0E94C2
:103610002423F6CF8D2F0E94431A002359F080E215
:103620008D0F883010F0D1112CC0802F0E941A23EA
:103630000E945D232B2D2850330B2430310520F4BC
:103640000E94E4170E941906EE2009F4F8C10E94B6
:10365000062380FDF4C1F60112820E9400230E941D
:103660008D21C6010E94291D0E940023DF91CF9168
:103670001F910F91FF90EF90DF90CF90BF900C942F
:10368000AE21802F0E942A23D3CFFC2FFF70FF2E64
:10369000C07FC03219F0F29480EFF822DD2369F088
:1036A000D13049F1112391F1002351F1F6018581C7
:1036B00080FFA8CF8F70858323C0112381F0011173
:1036C00006C00E9444238F290E94AC1AB3CF013058
:1036D000C1F70E9444238F290E944A23ABCF0111D6
:1036E00006C00E9453238F2D0E94B31AA3CF01302E
:1036F00009F4A0CFF6CF112329F0063008F09ACFB5
:103700008F2DE2CF053008F095CFEDCF002359F390
:10371000D93349F4FFEF27EE33E0F1502040304039
:10372000E1F700C000008D2F0E94431A83CF8C2F39
:1037300086958695837069F0813009F07BCF8D2F57
:103740009C2F9370111102C090E080E00E941F181E
:1037500071CF8D2F9C2F9370111102C090E080E0EB
:103760000E94091867CF112309F1D53F99F0D63F80
:10377000B9F0D43F49F480919C0290919D02816000
:1037800090939D0280939C028D2F0E9480260E9420
:10379000672750CF80919C0290919D028260F0CF6C
:1037A00080919C0290919D028460EACFD53F89F080
:1037B000D63FA9F0D43F49F480919C0290919D029C
:1037C0008E7F90939D0280939C028D2F0E94E8260D
:1037D000DECF80919C0290919D028D7FF2CF8091EF
:1037E0009C0290919D028B7FECCF8C2F837009F00F
:1037F00041C011111FCF4D2F429546954770440F80
:10380000440F0D2F0F7010E030E020E0042E04C0B4
:10381000000F111F221F331F0A94D2F760E070E0DF
:10382000CB01D4FF0FC06FE070E080E090E004C0F7
:10383000660F771F881F991F4A95D2F7609570957C
:1038400080959095C695C695C370602B712B822B81
:10385000932BC23049F058F4C13019F00E943F2137
:10386000E9CE0E942D21E6CE0E945121E3CE0E9496
:103870002B21E0CE8695112311F08C2F81708823A7
:1038800009F4D8CE4D2F429546954770440F440F0A
:103890000D2F0F7010E030E020E0042E04C0000F68
:1038A000111F221F331F0A94D2F760E070E0CB0192
:1038B000D4FF0FC06FE070E080E090E004C0660FBE
:1038C000771F881F991F4A95D2F76095709580954C
:1038D0009095C695C695C370602B712B822B932B48
:1038E000C23049F058F4C13019F00E940422A2CE2F
:1038F0000E94F2219FCE0E9416229CCE0E94672138
:1039000099CECF70112329F08C2F0E948D218D2FFD
:10391000DBCE8D2F0E94B31A8C2F0E94AE218ACE4F
:10392000D23F89F160F4D03FC9F0D13F29F1112392
:1039300009F442C0011166CE8C2F8F7121C0D33F94
:1039400039F1D43FA1F7112369F1CF718C2F0E9477
:103950008D2163E08C2F0E9493236CCE112341F0C4
:10396000053008F067CE8C2F8F710E94D12162CE76
:10397000063008F05FCEF7CF8C2F8F71112369F2DC
:103980000E948D2157CE8C2F8F711123C9F3C5CF83
:10399000112329F08C2F8F710E9478214BCE0E9429
:1039A000732148CE81E00E94A823023008F442CE61
:1039B00082E00E94A8233ECE002359F0D93309F0BB
:1039C000B2CE8FEF97EEE3E081509040E040E1F718
:1039D000A8CE8C2F8F71A1CF4C2F4F706D2FC601A9
:1039E0000E949C060E94A32025CE111123CECF70E9
:1039F000C230B1F040F4CC2381F0C13009F01ACECE
:103A00000E941E1117CEC43089F068F080E0C530E6
:103A100009F010CE0E948E110DCE0E9400110ACE28
:103A20000E945E1107CE0E94651104CE83E0F2CFA2
:103A30004C2F4F706D2FC6010E949F06FBCDDF916A
:103A4000CF911F910F91FF90EF90DF90CF90BF909B
:103A500008950F931F93CF93DF93EC018B819C818B
:103A6000892B29F08881998189238F3F29F4DF915F
:103A7000CF911F910F910895CE010E9431068823A6
:103A8000B1F3688179818A810E94C8228C010E94E9
:103A900028220E942A21B801CE01DF91CF911F91E7
:103AA0000F910C94BA1A0E9431230E9441230E9464
:103AB0005D230E9409280E94672790E080E00E9411
:103AC000091890E080E00C941F180E94FA220C94D0
:103AD000531D0E9421230C94651DE92FE295EF7080
:103AE000E250EE3070F4F0E0E451FF4C0C942B30D7
:103AF000803F19F020F4883E20F481E00895843F4F
:103B0000E1F380E00895883EC0F3813FD1F7F5CF1F
:103B100093FB882780F908950E94BE220C946D1DA6
:103B2000CF93DF9300D000D00F92CDB7DEB70F90C8
:103B30000F900F900F900F90DF91CF910895CF933A
:103B4000DF9300D000D000D0CDB7DEB726960FB6F9
:103B5000F894DEBF0FBECDBFDF91CF9108951F93C4
:103B6000CF93DF93C091B20116E08091B3018C1323
:103B700004C0DF91CF911F910895D0E01C9FF00108
:103B80001D9FF00D1124EC54FE4F40815181628144
:103B90007381848195810E949F1D2196C770E5CF16
:103BA0004091E4015091E5016091E6017091E701D7
:103BB0008091E8019091E9010C949F1D1F93CF9390
:103BC000DF938091E901807FC1F48091E601882331
:103BD000A1F08091B201C091B3016091E4017091B4
:103BE000E5014091E7015091E801D62FD723DA0192
:103BF000A095B09516E0C81304C0DF91CF911F9136
:103C0000089590E04115510511F0DF3F31F4019620
:103C10008770F1CF2A0F3B1F17C0189FF001199F23
:103C2000F00D1124EC54FE4F21812713F0CF208199
:103C30002613EDCF22812111EACF2381348124176D
:103C4000350740F3241B350B283C310500F7209144
:103C5000E9012F7020612093E90126E0289FF001FF
:103C6000299FF00D1124E754FE4F80818F708061F1
:103C7000808384EE91E00E94291DDF91CF911F91F6
:103C80000C94AF1DBF92CF92DF92EF92FF920F93F1
:103C90001F93CF93DF93CDB7DEB761970FB6F8943C
:103CA000DEBF0FBECDBF8C0185E0F801DE011D96A1
:103CB00001900D928A95E1F7D8014C9111965C9193
:103CC00011971296EC9012978091E7019091E8017C
:103CD000009709F47FC12091E4013091E501622F42
:103CE00063236F3F09F476C11396CD90DC90B090BA
:103CF000E601BB2009F411C1C816D906D0F1F601BE
:103D0000E81BF90BCF01FF24F394883C910508F0E0
:103D1000F12C8091E901982F907FFF2009F4B8C021
:103D200091117FC0FE2C351329C0241327C0E11048
:103D300025C08F7080618093E9010E94D01D84EEC0
:103D400091E00E94291D8091E901D80115968C937C
:103D50008F2D61960FB6F894DEBF0FBECDBFDF91F9
:103D6000CF911F910F91FF90EF90DF90CF90BF9078
:103D70000895809590958C0D9D1DC5CFCD2829F077
:103D8000852F84238F3F09F041C180E0B82FB170A7
:103D9000DB2E80FF3CC08091B2012091B30136E060
:103DA000821315C04D875E878D859E850E94BE2239
:103DB000292F22952F702230F0F0243018F59F70B3
:103DC000F1F0F8019581907FD1F4D12C1EC090E0E4
:103DD000389FF001399FF00D1124EC54FE4F6181A2
:103DE000651306C06081641303C06281E6120FC0D0
:103DF00001968770D5CF9F7011F0882331F3805ED4
:103E0000883018F3C8010E94291DFD2CA1CFEE2097
:103E100009F49ECF8091E90181608093E901F12C42
:103E200097CF351306C0241304C0D801EE2009F43F
:103E30009AC04D875E878D859E850E948C1D882344
:103E400019F1EE2009F18091E901803270F02091A2
:103E5000E4013091E50138872F831986DB86CA8615
:103E60008C87CE0107960E94291D86E0F801A4EEFA
:103E7000B1E001900D928A95E1F70E94DE1D0E944B
:103E8000D01DFF24F39464CFC8010E94291DF9CFEF
:103E9000911113C07C2DD98AC88A6E2D89890E9400
:103EA000901D84EE91E00E94291D86E0E4EEF1E091
:103EB000DF011D928A95E9F763C0351312C0241300
:103EC00010C0E1100EC0F8018583C8010E94291DB1
:103ED000E4EEF1E086E0DF011D928A95E9F7FB2C24
:103EE00037CF4D875E878D859E850E948C1D8823E8
:103EF00059F2EE2049F28091E901803208F4B5CF01
:103F00002091E4013091E5013A8329831B82DD820F
:103F1000CC828E83CE010196A6CFC816D90698F121
:103F2000F601E81BF90BCF01F12C883C910508F054
:103F300049C0FE2CEE2009F4A7CF351332C024135C
:103F400030C08091E90180FD23C0982F907F01F15E
:103F5000D80115968C931597903F39F0982F907F44
:103F6000905F8F70892B15968C93C8010E94291D34
:103F700086E0F801A4EEB1E001900D928A95E1F798
:103F80000E94D01DE5CE809590958C0D9D1DCCCFC7
:103F900086E0F801A4EEB1E001900D928A95E1F778
:103FA000D7CE4D875E878D859E850E948C1D8111A1
:103FB0005CCF8091E90181608093E901C8010E9492
:103FC000291DC6CE7C2DD98AC88A6E2D89890E946A
:103FD000901D6BCFEE2009F457CF4D875E878D85FE
:103FE0009E850E948C1DF82E882309F44DCF86E013
:103FF000F801A4EEB1E001900D928A95E1F784EE0C
:1040000091E00E9435190E94DE1DBACF81E08E2515
:10401000BDCE1F93CF93DF93CDB7DEB72C970FB6EE
:10402000F894DEBF0FBECDBF4F83588769877A876C
:104030008B879C87CE0107960E94421E882369F0D9
:104040008A859B85892B39F04F815885842F85235C
:104050008F3F09F071C016E05FC086E0FE01379621
:10406000DE01119601900D928A95E1F78A859B8574
:10407000892B89F388859F8189238F3F61F3209164
:10408000B30130E0C9010196877099274091B201D0
:104090004817190671F40E94691D1092B30110921D
:1040A000B20186E0E4EEF1E0DF011D928A95E9F7C6
:1040B000D2CF96E0929FD001939FB00D1124AC54C3
:1040C000BE4FFE01319601900D929A95E1F78093D3
:1040D000B3010E94AF1DBFCF819FC00111248C543A
:1040E0009E4F0E94421E8823E9F0E091B2011E9F7C
:1040F000F0011124EC54FE4F4081518162817381A3
:10410000848195810E949F1D8091B20190E001966B
:10411000877099278093B2018091B2019091B30189
:104120008913DACF2C960FB6F894DEBF0FBECDBF41
:10413000DF91CF911F91089569857A858B859C8544
:104140000E949F1D88CFEF92FF920F931F93CF93F2
:10415000DF938C01892B81F0F12CEE24E394E801AC
:104160002196F8018491843770F4843008F05FC0A0
:104170008130B1F08230A1F1DF91CF911F910F9189
:10418000FF90EF900895853709F44CC008F43DC0C6
:104190009CE7980F903780F78F770E94431A49C0A9
:1041A0000E5F1F4FFE01849190E2980F983060F4EB
:1041B0008770FE2D01C0FF0F8A95EAF78F2F0E94AE
:1041C00034230E945D2302C00E943A198F2D815032
:1041D00030F2EFE9FFE03197F1F700C00000F7CFD0
:1041E0000E5F1F4FFE01849190E2980F983050F4BB
:1041F0008770FE2D01C0FF0F8A95EAF78F2F0E946E
:104200003A23DFCF0E94431AE1CF0E5F1F4FFE011A
:10421000C491C150D8F28FE99FE00197F1F700C037
:104220000000F7CF0E5F1F4FFE01F490CFCF0E942A
:104230003A198E01CBCF08950C941B210E941C21AA
:1042400060932A0270932B0280932C0290932D028C
:104250000C94531D08950C941E210F931F930091ED
:104260002A0210912B0220912C0230912D02602BFA
:10427000712B822B932B1F910F910C941E210F9366
:104280001F9300912A0210912B0220912C02309151
:104290002D0260237123822393231F910F910C948D
:1042A0001E210F931F9300912A0210912B0220913F
:1042B0002C0230912D0260277127822793271F91AE
:1042C0000F910C941E210C941B210C9463210E94CD
:1042D00065216093260270932702809328029093B1
:1042E00029020C94531D60E070E0CB010C9467210F
:1042F0000F931F9341E050E060E070E08A019B0162
:1043000004C0000F111F221F331F8A95D2F7C90165
:10431000B8011F910F910C9467210F931F9341E0F7
:1043200050E060E070E004C0440F551F661F771F27
:104330008A95D2F78091260290912702A0912802B7
:10434000B09129028A019B01082B192B2A2B3B2BA8
:10435000C901B8011F910F910C9467210F931F930E
:1043600041E050E060E070E004C0440F551F661F5C
:10437000771F8A95D2F7CB01BA0160957095809529
:1043800090950091260210912702209128023091E9
:10439000290260237123822393231F910F910C9490
:1043A00067210F931F9341E050E060E070E004C08C
:1043B000440F551F661F771F8A95D2F780912602FA
:1043C00090912702A0912802B09129028A019B01B5
:1043D000082719272A273B27C901B8011F910F91E8
:1043E0000C9467210F931F930091260210912702CE
:1043F0002091280230912902602B712B822B932B64
:104400001F910F910C9467210F931F930091260227
:1044100010912702209128023091290260237123F4
:10442000822393231F910F910C9467210F931F9365
:104430000091260210912702209128023091290232
:1044400060277127822793271F910F910C94672172
:1044500008959295907F890F982F977041E001C041
:10446000440F9A95EAF786958695869595E0899FFB
:10447000F0011124E651FE4F30E020E070E0519150
:10448000DF011197CB01022E02C0969587950A9401
:10449000E2F7817081958527842385278C932F5F90
:1044A0003F4F2530310559F708959295907F890F38
:1044B000982F977086958695869525E0829FF001C6
:1044C0001124E651FE4F50E040E080E0219130E0C1
:1044D000092E02C0369527950A94E2F721703327FA
:1044E000042E01C0220F0A94EAF7822B4F5F5F4F20
:1044F0004530510559F70895BF92CF92DF92EF9260
:10450000FF920F931F93CF93DF938C01C0902602ED
:10451000D0902702E0902802F090290280912A0290
:1045200090912B02A0912C02B0912D02C82AD92A79
:10453000EA2AFB2ACFE1D0E0BC2ED701C6010C2E1F
:1045400004C0B695A795979587950A94D2F780FDF4
:104550000EC0219788F7B12C8B2DDF91CF911F9141
:104560000F91FF90EF90DF90CF90BF900895B8012A
:104570008C2F0E94A806019761F3EECFCF93DF93B3
:10458000EC010E947C22BE01DF91CF910C94A80621
:104590001F93CF93DF93EB019091B101992331F0F9
:1045A000CB01DF91CF911F910C94BE22882379F02B
:1045B000CB010E947C22182F682FCE010E94292255
:1045C000BE01812FDF91CF911F910C94A806CB01E2
:1045D0000E945522182FF4CF682F809111019091DD
:1045E00012010C94AC24682F80911101909112015A
:1045F0000C94AE2480911101909112010C94B0247E
:1046000080912E02859585958595089580912E023D
:104610008770089590912E02977081E009F480E0F0
:10462000089580913A02089590913A02892B8093DF
:104630003A020895809590913A02982390933A0215
:10464000089510923A02089590913902892B80932F
:1046500039020895809590913902982390933902F8
:10466000089510923902089590913802892B809311
:1046700038020895809590913802982390933802DB
:10468000089510923802089580912F020895089598
:104690000C94472390912F02981721F080932F02BA
:1046A0000C944823089580912F02882329F01092BA
:1046B0002F0280E00C9448230895E0911101F091BD
:1046C000120180913A028083E0911101F091120170
:1046D000808190913902892B8083E0911101F091C2
:1046E0001201808190913802892B808390912F0252
:1046F000992381F0E0911101F09112018081892BC1
:10470000808380911101909112010E947324811184
:104710000E94532380911101909112010C94F01783
:1047200008950C94902398E0899F90011124622BA6
:1047300060932E020E948D2180912E028595859591
:1047400085950C94912310922E0280E00C94912375
:1047500090912E028095892380932E02282F277016
:1047600071F4282F082E000C330B9217130639F022
:104770008595859585950E94AE210C94A323089577
:104780006FEF7FEF90E080E00C949D3090E080E050
:104790000E94793021E08C3E9E4F09F020E0822F6C
:1047A000089582E090E00C946B3083E090E00C94EC
:1047B0006B30CF9384E090E00E946B30C82F81E291
:1047C00090E00E946B30982F8C2FCF910895CF935B
:1047D000C92F682F84E090E00E947F306C2F81E227
:1047E00090E0CF910C947F3086E090E00C946B3099
:1047F000682F86E090E00C947F30AB01BC018FE025
:1048000090E00C949130AB01BC0183E190E00C94FA
:10481000913060E070E0CB010C94032460E070E024
:10482000CB010E94FD230C9409246CEE7EEF90E0F6
:1048300080E00E949D3060E082E090E00E947F3046
:1048400060E083E090E00E947F3010922A02109294
:104850002B0210922C0210922D0260E084E090E076
:104860000E947F3060E081E290E00E947F3060E053
:1048700085E090E00E947F3060E086E090E00E945A
:104880007F306FEF87E090E00E947F3040E050E0A3
:10489000BA0188E090E00E94913060E08DE090E005
:1048A0000E947F3040E050E0BA0188E190E00E9431
:1048B000913060E087E190E00E947F3040E050E07E
:1048C000BA018CE190E00E94913060E080E290E0DB
:1048D0000E947F300C940E240C941524682F8EE0D7
:1048E00090E00C947F309C012E5F3F4FAC01485FFD
:1048F0005F4F80E02417350709F40895F90191917D
:104900009F019923B9F38F5FF5CF9C01FC0132968B
:104910009FEF80E04191461751F09F3F19F44111FC
:1049200001C0982F8F5F8630A9F79F3F09F4089543
:10493000290F311D97FD3A95F90162830895FC0115
:10494000329608962191261303C0DF0111971C921D
:10495000E817F907B9F708950C9485240C949F245F
:10496000029626E0FC0111922A95E9F70895089530
:1049700008950C94B8240E94B9248091A802843030
:1049800009F43CC010923C0288E190E020E40FB6AC
:10499000F894A895809360000FBE2093600080E09B
:1049A0000E94261280E00E9419060E94BC0F80918E
:1049B0003D0281110AC081E080933D028091540242
:1049C000817080933E020E94EF0E0E94B92483B74B
:1049D000817F846083BF83B7816083BF789488952B
:1049E00083B78E7F83BF0FB6F894A895809160003F
:1049F000886180936000109260000FBE0895089552
:104A0000CF930E94B7240E94C0090E94FF24C0E0F7
:104A10008C2F0E946E09892B31F4CF5FC630C1F70D
:104A200080E0CF91089581E0FCCF08950C94152586
:104A30000E94691D0E94E4100E94E4170E9419065A
:104A400010923D0280913E0281110E94B40F0E949B
:104A5000010F0C9416251F921FB61F9211248F93DD
:104A60009F93AF93BF9380913C02811113C08091BB
:104A70009E0290919F02A091A002B091A102419646
:104A8000A11DB11D80939E0290939F02A093A0024E
:104A9000B093A102BF91AF919F918F911F901FBEC4
:104AA0001F90189582E084BD93E095BD9AEF97BD65
:104AB00080936E0008952FB7F89480919E02909194
:104AC0009F02A091A002B091A1022FBF08952FB71D
:104AD000F89460919E0270919F028091A002909143
:104AE000A1022FBF0895CF92DF92EF92FF920F9312
:104AF0001F932FB7F89440919E0250919F026091AE
:104B0000A0027091A1022FBF6A017B01EE24FF2455
:104B10008C0130E020E0C016D106E206F30650F02A
:104B2000481B590BCA011F910F91FF90EF90DF9026
:104B3000CF90089541505109F3CF78941F921FB63A
:104B40001F9211248F939F93AF93BF9380919E02E6
:104B500090919F02A091A002B091A1020196A11D87
:104B6000B11D80939E0290939F02A093A002B093E8
:104B7000A102BF91AF919F918F911F901FBE1F9077
:104B8000189581E08093E00080E28093D800109235
:104B9000C9008FE19EE40197F1F700C0000087E0B3
:104BA00090EBDC018093B1029093B202A093B30228
:104BB000B093B40288E19CE00FB6F894A895809376
:104BC00060000FBE90936000FFCF0E94C62381114A
:104BD00002C00E946C240E94D12380933B020E9459
:104BE000D9239093A3028093A2020E94D523682F19
:104BF00070E090E080E00C942B218091420280FFD5
:104C000012C06091160185E0689FB001112475956E
:104C100067957595679560387105A8F561157105FB
:104C2000A1F1862F089581FF09C06091160185E0EA
:104C3000689FB001112475956795EDCF60911601BD
:104C400082FD0AC0809141028823D1F09091150124
:104C500060911601891728F085E0689FB001112442
:104C6000DACF869FB001112485E0869F9001879F4F
:104C7000300D1124692F70E0C9010E94F52FCBCFB0
:104C800065E070E0CECF8FE7089581E008958091D0
:104C9000420280FF0CC06091140170E07595679529
:104CA000759567956115710549F1862F089581FF06
:104CB00006C06091140170E075956795F3CF60911F
:104CC000140182FD0BC0909141029923A1F06091E3
:104CD000130180911401961738F0682F70E0603846
:104CE000710500F38FE70895899FC001112470E0DA
:104CF0000E94F52FF4CF61E070E0D7CF81E00895F6
:104D0000803F31F40E94FD258195809346020895ED
:104D1000813F19F40E94FD25F8CF823F31F40E94B3
:104D2000FD258195809345020895833F19F40E94E3
:104D3000FD25F8CF893F29F40E944726809347023A
:104D400008958A3F21F40E9447268195F7CF8B3F33
:104D500031F40E94472681958093480208958C3F44
:104D600019F40E944726F8CF843F31F48091440221
:104D70008160809344020895853F21F4809144022C
:104D80008260F7CF863F21F4809144028460F1CFA6
:104D9000873F21F4809144028860EBCF883F21F463
:104DA000809144028061E5CF8D3F31F480914202D1
:104DB00081608093420208958E3F21F480914202E7
:104DC0008260F7CF8F3FB9F7809142028460F1CFC4
:104DD00090914502803F41F48091460287FD1092F8
:104DE0004602992371F00895813F29F4809146028B
:104DF0001816ACF3F6CF823F81F497FFF2CF1092F2
:104E000045028091460290914702892B9091480279
:104E1000892B49F7109241020895833F19F419161E
:104E200074F3DFCF893F39F4809147021816CCF62E
:104E300010924702D6CF8A3F29F48091470287FF1C
:104E4000D0CFF6CF8B3F39F48091480287FFC9CF8E
:104E500010924802C6CF8C3F29F480914802181660
:104E6000BCF3BFCF843F31F4809144028E7F8093A6
:104E70004402B7CF853F21F4809144028D7FF7CF64
:104E8000863F21F4809144028B7FF1CF873F21F44C
:104E900080914402877FEBCF883F21F480914402C8
:104EA0008F7EE5CF8D3F31F4809142028E7F8093DB
:104EB000420297CF8E3F21F4809142028D7FF7CF3F
:104EC0008F3F09F08ECF809142028B7FF0CF83E439
:104ED00092E00E94FB170E945B2590934002809312
:104EE0003F0208951F93CF93DF9380913F029091EB
:104EF00040020E947325AC0190914102209117015C
:104F000030E0911106C0209118018AE0289F90019D
:104F100011244217530778F020914502C0914602B0
:104F2000D091470210914802211109C08C2F8D2B7E
:104F3000812B09F06AC0DF91CF911F9108959F3FA7
:104F400019F09F5F90934102121624F40E94FD25F0
:104F5000809345028091450287FF05C00E94FD2590
:104F60008195809345021C1624F40E94FD258093B0
:104F700046028091460287FF05C00E94FD2581956B
:104F800080934602309145023323A1F020914602DE
:104F9000222381F045EB3403C0011124992369F1E8
:104FA0009093450245EB240390011124332349F1EA
:104FB000309346021D1624F40E9447268093470230
:104FC0008091470287FF05C00E9447268195809304
:104FD0004702111624F40E944726809348028091CC
:104FE000480287FF05C00E944726819580934802AA
:104FF000DF91CF911F910C94672781E08093450248
:10500000D1CF81E080934602D5CF9F3F09F099CF61
:10501000AACF86E0E3E4F2E0DF011D928A95E9F78A
:105020001092410210924202089580915102089517
:105030000F931F93CF93DF9300D00F92CDB7DEB7BE
:105040008C010E94C62A823011F0843019F584E068
:1050500089831B830A838093E9008FEF9091E80096
:10506000815095FD06C095ED9A95F1F700008111EC
:10507000F5CF8091E80085FF0DC050E040E063E08F
:1050800070E0CE0101960E94E32A8091E8008E77BD
:105090008093E8000F900F900F90DF91CF911F91B8
:1050A0000F910895CF93DF9300D00F92CDB7DEB765
:1050B0002091A802243029F533E0398380589109E2
:1050C0009B838A832093E9008FEF9091E8008150C1
:1050D00095FD06C095ED9A95F1F700008111F5CF89
:1050E0008091E80085FF0DC050E040E063E070E093
:1050F000CE0101960E94E32A8091E8008E7780938A
:10510000E8000F900F900F90DF91CF910895CF930B
:10511000DF93EC010E94C62A823011F08430F9F44A
:1051200084E08093E9008FEF9091E800815095FD35
:1051300006C095ED9A95F1F700008111F5CF8091A9
:10514000E80085FF0CC050E040E066E070E0CE0172
:105150000E94E32A8091E8008E778093E800DF9137
:10516000CF910895CF93DF93EC010E94C62A82303D
:1051700011F0843039F581E08093E9008FEF909150
:10518000E800815095FD06C095ED9A95F1F7000075
:105190008111F5CF8091E80085FF14C050E040E018
:1051A00068E070E0CE010E94E32A8091E8008E77EB
:1051B0008093E80088E0FE01A9E4B2E001900D923E
:1051C0008A95E1F7DF91CF910895CF93FC0160328A
:1051D00021F58091A802843001F5C091E900CF70DB
:1051E0002091EC00922F917020FD90E8C92B82E075
:1051F0008093E9008091E80080FF0CC050E040E01F
:1052000060E270E0CF010E94E32A8091E8008E778F
:105210008093E800CF70C093E900CF91089580910A
:10522000A702811109C00E94C22C0E941F2D8091EB
:10523000E20084608093E20008951092A70208952E
:10524000089508950C94182542E061EC81E00E94D5
:105250003E2C42E261EC84E00E943E2C42E261EC92
:1052600082E00E943E2C42E260EC83E00C943E2CF3
:105270008091AA02833009F461C030F48130D1F109
:10528000823009F49DC008958A3009F489C08B30BA
:1052900009F46FC0893009F050C08091A9028132B1
:1052A00009F04BC08091AD029091AE02009719F0C9
:1052B000029709F042C08091E800877F8093E80060
:1052C0008091E80082FF35C09091F3008091F20058
:1052D000029729F48091F1008B7F813021F4809135
:1052E000F100809351028091E8008B778093E80071
:1052F0000C94722C8091A902813AF9F48091E80013
:10530000877F8093E8008091AD029091AE02892B57
:1053100061F468E089E492E070E00E94812B809162
:10532000E8008B778093E800089560E090E080E0EB
:10533000F3CF8091A8028111C3CF08958091A90273
:10534000813AD9F78091AD029091AE02892BA9F7ED
:105350008091E800877F8093E8008091E80080FFDB
:10536000FCCF809123018093F1008091E8008E773B
:10537000BDCF8091A902813201F78091AD02909159
:10538000AE02892BD1F68091E800877F8093E800F8
:105390000E94722C8091AB02809323010C94691DB2
:1053A0008091A902813249F68091E800877F80933D
:1053B000E8000E94722C8091AC0280935202089502
:1053C0008091A902813A09F0B8CF8091E800877FE7
:1053D0008093E8008091E80080FFFCCF809152022A
:1053E000C2CFCDB7DEB7A0970FB6F894DEBF0FBE21
:1053F000CDBF84B7877F84BF0FB6F894A8958091FE
:105400006000886180936000109260000FBE80E8A9
:1054100090E00FB6F89480936100909361000FBE06
:105420000E9443180E94C22C0E941F2D8091E2000E
:1054300084608093E20078940E94A82F0E944B1809
:1054400089E191E00E94DF1713E08091A802853086
:1054500049F10E9459180E94BF0F8091A802843020
:10546000A1F71093E9008091E80082FFEECF8091D0
:10547000E80090E085FF09C050E040E060E270E0A5
:10548000CE0101960E94322B91E08091E8008B774B
:105490008093E8009923C9F260E2CE0101960E9450
:1054A000C013D3CF0E94BB248091A602882369F247
:1054B0000E940025882349F20E94CD2AC6CF0C9471
:1054C000612A292F33272330310521F168F4213057
:1054D000310509F449C02230310509F44AC090E091
:1054E00080E030E020E029C02132310581F1223214
:1054F0003105A9F76330710590F7FB01EE0FFF1F2F
:10550000EE59FE4F20813181615A7E4FFB0180812F
:1055100090E013C099278130910599F0009741F0F0
:105520008230910589F00397D1F6E3ECF7E002C0F1
:10553000E1E0F8E0849190E09F01FA01318320835B
:105540000895EFEDF7E0F6CFE9ECF7E0F3CF633045
:10555000710528F6660F771FFB01E859FE4F208181
:10556000318189E090E0E9CF82E190E020E638E007
:10557000E4CF8BE590E025E038E0DFCF8091A80212
:10558000843011F482E0089581E0089580915302FF
:10559000811102C00C94BE2A089580E189BD82E188
:1055A00089BD09B400FEFDCF8091D8008F7D809326
:1055B000D8008091E00082608093E0008091E0005C
:1055C00081FDFCCF0895AF92BF92CF92DF92FF9200
:1055D0000F931F93CF93DF936C01EB018A010E941D
:1055E000912CF82E811123C00115110539F0F80115
:1055F00080819181C81BD90BC80ED91EB12CA12C5A
:105600002097A9F08091E80085FD22C08091E800F4
:105610008E778093E80001151105A1F0F8018081D3
:105620009181A80EB91EB182A08285E0F82E8F2D3F
:10563000DF91CF911F910F91FF90DF90CF90BF909E
:10564000AF9008950E94912C8823D1F2F82EEFCFCD
:10565000F60181916F018093F1002197FFEFAF1A5E
:10566000BF0ACECFAF92BF92CF92DF92FF920F933D
:105670001F93CF93DF936C01EB018A010E94912C61
:10568000F82E811123C00115110539F0F801808130
:105690009181C81BD90BC80ED91EB12CA12C209703
:1056A000A9F08091E80085FD22C08091E8008B7709
:1056B0008093E80001151105A1F0F8018081918126
:1056C000A80EB91EB182A08285E0F82E8F2DDF9141
:1056D000CF911F910F91FF90DF90CF90BF90AF902F
:1056E00008950E94912C8823D1F2F82EEFCF80915B
:1056F000F100F60181936F012197FFEFAF1ABF0A06
:10570000CECFFC018091AF029091B002861797072F
:10571000A0F06115710529F49091E8009E779093AF
:10572000E80090E06115710551F4911108C0809175
:10573000E80082FF34C080E00895BC01F2CF809180
:10574000A8028823C1F18530C1F18091E80083FD72
:1057500030C08091E80082FDEACF8091E80080FFB0
:10576000E1CF8091F3002091F200382F611571058F
:1057700019F02830310558F091E02830310509F052
:1057800090E02091E8002E772093E800CBCF819124
:105790008093F100615071092F5F3F4FE7CF8091F7
:1057A000A802882341F0853041F08091E80083FF12
:1057B000BECF81E0089582E0089583E00895FC0162
:1057C0008091AF029091B00286179707A0F0611503
:1057D000710529F48091E8008E778093E80090E0CD
:1057E0006115710551F4911108C08091E80082FFA4
:1057F00035C080E00895BC01F2CF8091A8028823D3
:10580000C9F18530C9F18091E80083FD31C08091F4
:10581000E80082FDEACF8091E80080FFE1CF80912F
:10582000F3002091F200382F6115710519F028302E
:10583000310558F091E02830310509F090E0809171
:10584000E8008E778093E800CBCF84918093F100BD
:105850003196615071092F5F3F4FE6CF8091A802CA
:10586000882341F0853041F08091E80083FFBDCF6F
:1058700081E0089582E0089583E00895982F97309D
:1058800028F08F708093E90081E008959093E900FB
:10589000242F762F50E0981731F07091EC00209172
:1058A000ED005091F00021FD02C09F5FE8CF3091E4
:1058B000EB003E7F3093EB003091ED003D7F309365
:1058C000ED003091EB0031603093EB007093EC0011
:1058D0002093ED005093F0002091EE0027FDE5CFDE
:1058E00080E008958091A90287FF13C08091E800AD
:1058F00082FF06C08091E8008B778093E80004C0A7
:105900008091A8028111F2CF08958091A802882386
:10591000D9F38091E80080FFF8CF8091E8008E777E
:10592000ECCF2091E4003091E50095E6A9012091AB
:10593000EC00822F817020FF06C08091E80080FF7C
:1059400006C080E008952091E80022FD1AC08091F1
:10595000A802882389F0853089F08091EB0085FDCD
:105960000FC02091E4003091E50042175307F9F28F
:105970009150E1F684E0089582E0089583E008956F
:1059800081E008950E94302D0E94382DE0EEF0E075
:10599000808181608083E8EDF0E080818F77808373
:1059A00019BCA7EDB0E08C918E7F8C9380818F7EA7
:1059B00080831092A70208950F931F93CF93DF93D4
:1059C0000E94302D0E94382DC8EDD0E088818F775D
:1059D000888388818068888388818F7D888319BCCB
:1059E0001092A8021092A4021092A6021092A50290
:1059F00000EE10E0F80180818B7F808388818160D8
:105A0000888342E060E080E00E943E2CE1EEF0E01E
:105A100080818E7F8083E2EEF0E0808181608083F0
:105A2000808188608083F80180818E7F8083888177
:105A300080618883DF91CF911F910F910895E8EDE8
:105A4000F0E080818F7E8083E7EDF0E080818160EF
:105A5000808384E082BF81E08093A7020C94DC2CD9
:105A6000E8EDF0E080818E7F80831092E20008955F
:105A70001092DA001092E10008951F920F920FB673
:105A80000F9211242F933F934F935F936F937F93C4
:105A90008F939F93AF93BF93EF93FF938091E10018
:105AA00082FF0BC08091E20082FF07C08091E1007D
:105AB0008B7F8093E1000E94A72F8091DA0080FF06
:105AC00019C08091D80080FF15C08091DA008E7FC8
:105AD0008093DA008091D90080FF96C080E189BD73
