:100000000C949C040C94E3040C94E3040C94E3041B
:100010000C94E3040C94E3040C94E3040C94E304C4
:100020000C94E3040C94E3040C94B3230C946F231A
:100030000C947D290C94E3040C94E3040C94E304E5
:100040000C94E3040C94E3040C94E3040C94E30494
:100050000C94E3040C9459290C94E3040C94E304E9
:100060000C94E3040C94E3040C94E3040C94E30474
:100070000C94E3040C94E3040C94E3040C94E30464
:100080000C94E3040C94E3040C94E3040C94E30454
:100090000C94E3040C94E3040C94E3040C94E30444
:1000A0000C94E3040C94E3040C94E30405010902AA
:1000B000A10185020901A100050919012905150001
:1000C00025019505750181029501750381010501E1
:1000D000093009311581257F950275088106093897
:1000E0001581257F950175088106050C0A380215D2
:1000F00081257F950175088106C0C005010980A191
:100100000185031A81002A83001601002603009549
:100110000175108100C0050C0901A10185041A01B7
:10012000002A9C02160100269C0295017510810090
:10013000C00660FF0961A1010962150026FF009554
:1001400020750881020963150026FF0095207508B7
:100150009102C005010906A101050719E029E7156B
:100160000025019508750181029501750881010539
:1001700007190029FF150026FF0095067508810064
:100180000508190129059505750191029501750369
:100190009101C000010101010101010101020202FE
:1001A0000202020202020303030303030303040423
:1001B00004040404040505050505060606060607ED
:1001C0000707070708080808090909090A0A0A0BA6
:1001D0000B0B0C0C0C0D0D0D0E0E0E0F0F0F101047
:1001E00011111112121313141415151616171718CE
:1001F0001819191A1A1B1B1C1D1D1E1E1F20202139
:100200002222232424252626272829292A2B2C2D7F
:100210002D2E2F30313232333435363738393A3BA0
:100220003C3D3E3F404142434445464748494A4C95
:100230004D4E4F50515354555658595A5B5D5E5F61
:10024000616264656668696B6C6D6F7072737577F7
:10025000787A7B7D7E8082838587888A8C8E8F9159
:10026000939596989A9C9EA0A2A3A5A7A9ABADAF83
:10027000B1B3B5B7BABCBEC0C2C4C6C9CBCDCFD16D
:10028000D4D6D8DBDDDFE2E4E7E9EBEEF0F3F5F816
:10029000FAFDFFFFAA7F55402223252628292A2C74
:1002A0002D2F3032333536383A3B3D3E40424345C0
:1002B00047494A4C4E5051535557595A5C5E6062FB
:1002C000646668696B6D6F71737577797B7D7F810B
:1002D000838587898A8C8E90929496989A9C9E9F0B
:1002E000A1A3A5A7A8AAACAEAFB1B3B4B6B8B9BB29
:1002F000BCBEBFC1C2C3C5C6C7C9CACBCCCDCED098
:10030000D1D2D2D3D4D5D6D7D7D8D9D9DADADBDB84
:10031000DBDCDCDCDCDCDDDDDDDDDCDCDCDCDCDB1B
:10032000DBDBDADAD9D9D8D7D7D6D5D4D3D2D2D164
:10033000D0CECDCCCBCAC9C7C6C5C3C2C1BFBEBC57
:10034000BBB9B8B6B4B3B1AFAEACAAA8A7A5A3A1C8
:100350009F9E9C9A98969492908E8C8A898785838A
:10036000817F7D7B79777573716F6D6B696866646A
:1003700062605E5C5A5957555351504E4C4A49473A
:10038000454342403E3D3B3A3836353332302F2DDF
:100390002C2A29282625232229003A003C003E0049
:1003A0004000000043004500470000003B003D00C6
:1003B0003F004100420044004600480035001F0055
:1003C00021002300250027002E002A004A001E00DD
:1003D00020002200240026002D002A0049004B00A6
:1003E0002B001A0015001C000C0013003000000048
:1003F0004D00140008001700180012002F003100F3
:100400004C004E003900160009000B000E003300AE
:10041000320000000000040007000A000D000F0079
:100420003400280000000000E1001D000600050067
:1004300010003700E5000000520064001B001900A6
:10044000110036003800010000000000E000E2006A
:10045000000000000000E600E70000005100E3009B
:10046000000000002C0000000151E40050004F008B
:10047000010001000100C25CC65C0000C75CC95CF1
:10048000BD5C000001000100C35CC55CC85CCA5CC7
:10049000BF5CBE5C01000100010001000100010021
:1004A0000100010001000100010001000100010044
:1004B000010001000100A90001000100005C010031
:1004C0000100010001000000AB000100010001007B
:1004D0000100010001000100AE00AA0001000100BE
:1004E0000100010001000100010000000000010006
:1004F00001000100010001000100010000000000F6
:1005000001000100010001000100010001000000E4
:1005100001000100010001000100010001000100D3
:1005200000000000010001000000000000000100C8
:1005300001000000010001000000000001000000B7
:100540000100010001000100010001000100C25C86
:10055000C65C0000C75CC95CBD5C00000100010016
:10056000C35CC55CC85CCA5CBF5CBE5C01000100CA
:100570000100010001000100010001000100010073
:100580000100010001000100010001000100A900BB
:1005900001000100005C01000100010001000000F9
:1005A000AB00010001000100010001000100010099
:1005B000AE00AA00010001000100010001000100DD
:1005C0000100000000000100010001000100010025
:1005D0000100010000000000010001000100010015
:1005E0000100010001000000010001000100010004
:1005F00001000100010001000000000001000100F5
:1006000000000000000001000100000001000100E6
:1006100000000000010000000100010001000100D5
:10062000010001000100C25CC65C0000C75CC95C3F
:10063000BD5C000001000100C35CC55CC85CCA5C15
:10064000BF5CBE5C0100010001000100010001006F
:100650000100010001000100010001000100010092
:10066000010001000100A90001000100005C01007F
:100670000100010001000000AB00010001000100C9
:100680000100010001000100AE00AA00010001000C
:100690000100010001000100010000000000010054
:1006A0000100010001000100010001000000000044
:1006B0000100010001000100010001000100000033
:1006C0000100010001000100010001000100010022
:1006D0000000000001000100000000000000010017
:1006E0000100000001000100000000000100000006
:1006F00001000100010001000000000000000000F6
:1007000000000000000000000000000000000000E9
:1007100000000000000000000000000000000000D9
:1007200000000000000000000000000000000000C9
:1007300000000000000000000000000000000000B9
:1007400000000000000000000000000000000000A9
:100750000000000000000000000000000000000099
:100760000000000000000000000000000000000089
:100770000000000000000000000000000000000079
:100780000000000000000000000000000000000069
:100790000000000000000000000101010101010053
:1007A0000101010100000000000000000000000045
:1007B000000001000100010101010101010101012D
:1007C0000101010101010101010101010101010119
:1007D0000101010000000101000000000000000014
:1007E0000000000000000000000000000000000009
:1007F00000000001010101000000000000000000F5
:100800002A2B28000000000000000000000000006B
:1008100000000029000000002C1E34202122243476
:100820002627252E362D3738271E1F202122232448
:1008300025263333362E37381F0405060708090AE4
:100840000B0C0D0E0F101112131415161718191A80
:100850001B1C1D2F3130232D350405060708090AFE
:100860000B0C0D0E0F101112131415161718191A60
:100870001B1C1D2F3130354C00047F3F1F64321488
:10088000643214783C1E1E140A0509025B00030141
:1008900000A0FA090400000103010100092111016F
:1008A00000012240000705810308000A0904010035
:1008B00002030000000921110100012222000705A6
:1008C0008203200001070503032000010904020040
:1008D0000103000000092111010001228500070524
:1008E000840320000A1201100100000008D804E966
:1008F000EC0100010203010403300000000A036858
:100900000038003700610000002803680069006EAD
:100910000065007900620075007300680020006BBC
:10092000006500790062006F00610072006400736E
:10093000000000040309040011241FBECFEFDAE019
:10094000DEBFCDBF04B603FE27C08091D2029091D6
:10095000D302A091D402B091D5028730904BA7402A
:10096000B04BD1F41092D2021092D3021092D40262
:100970001092D50214BE84B7877F84BF0FB6F89457
:10098000A89580916000886180936000109260005B
:100990000FBEE0E0F8E3099511E0A0E0B1E0E6EC7D
:1009A000F5E502C005900D92A236B107D9F722E015
:1009B000A2E6B1E001C01D92A23DB207E1F70E949C
:1009C000A3240C94942A0C940000E8EDF0E08081BC
:1009D0008E7F80831092E2001092DA001092E10084
:1009E000A0EEB0E08C9181608C9380818F778083C2
:1009F00019BCA7EDB0E08C918E7F8C9380818F7EA7
:100A000080831092B00208952091E4003091E500B7
:100A100095E6A9012091EC00822F817020FF06C08D
:100A20008091E80080FF06C080E008952091E800F2
:100A300022FD1AC08091CD02882389F0853089F08B
:100A40008091EB0085FD0FC02091E4003091E5001E
:100A500042175307F9F29150E1F684E0089582E0DD
:100A6000089583E0089581E00895EF92FF920F9337
:100A70001F93CF937C018B010E940405C82F811125
:100A800017C08091E80085FD0BC08091E8008E774B
:100A90008093E8000E940405882399F3C82F08C0BA
:100AA000F70181917F018093F1000150110949F70D
:100AB0008C2FCF911F910F91FF90EF900895CF93BE
:100AC000FC018091CD02843001F5C091E900CF7026
:100AD0002091EC00922F917020FD90E8C92B82E0CC
:100AE0008093E9008091E80080FF0CC050E040E076
:100AF00060E270E0CF010E9435058091E8008E77BA
:100B00008093E800CF70C093E900CF910895809161
:100B1000C50287FF13C08091E80082FF06C0809164
:100B2000E8008B778093E80004C08091CD028111AA
:100B3000F2CF08958091CD028823D9F38091E80007
:100B400080FFF8CF8091E8008E77ECCF982F9093BC
:100B5000E900242F762F50E0891731F07091EC00D6
:100B60002091ED005091F00021FD07C09F5F97306C
:100B700071F78093E90081E008953091EB003E7FAA
:100B80003093EB003091ED003D7F3093ED003091DC
:100B9000EB0031603093EB007093EC002093ED009C
:100BA0005093F0002091EE0027FDE0CF80E0089503
:100BB000CF92DF92EF92FF920F931F93CF93DF9329
:100BC000C8EDD0E088818F7E8883E7EDF0E08081FA
:100BD0008160808384E082BF81E08093B00288815D
:100BE0008E7F888302EE10E0F80110821092DA0006
:100BF00081EEC82ED12CF601108288818F778883F0
:100C000088818068888388818F7D888319BC109251
:100C1000CD021092C4021092C3021092C20290EE52
:100C2000E92EF12CF70180818B7F808388818160A0
:100C3000888342E060E080E00E94A605F6018081A2
:100C40008E7F8083F80180818160808380818860CD
:100C50008083F70180818E7F808388818061888393
:100C6000DF91CF911F910F91FF90EF90DF90CF9088
:100C70000895FC018091CB029091CC0286179707D2
:100C8000A0F06115710529F49091E8009E7790938A
:100C9000E80090E06115710551F4911108C0809150
:100CA000E80082FF34C080E00895BC01F2CF80915B
:100CB000CD028823C1F18530C1F18091E80083FD28
:100CC00030C08091E80082FDEACF8091E80080FF8B
:100CD000E1CF8091F3002091F200382F611571056A
:100CE00019F02830310558F091E02830310509F02D
:100CF00090E02091E8002E772093E800CBCF8191FF
:100D00008093F100615071092F5F3F4FE7CF8091D1
:100D1000CD02882341F0853041F08091E80083FFC7
:100D2000BECF81E0089582E0089583E00895809128
:100D3000CD02843011F482E0089581E00895089591
:100D40008091B902089590916B02803F41F48091A7
:100D50006C0287FD10926C02992371F00895813F17
:100D600029F480916C021816ACF3F6CF823F81F41F
:100D700097FFF2CF10926B0280916C0290916D02FE
:100D8000892B90916E02892B49F710926F0208957A
:100D9000833F19F4191674F3DFCF893F39F480913A
:100DA0006D021816CCF610926D02D6CF8A3F29F448
:100DB00080916D0287FFD0CFF6CF8B3F39F48091C1
:100DC0006E0287FFC9CF10926E02C6CF8C3F29F406
:100DD00080916E021816BCF3BFCF843F31F480912E
:100DE0006A028E7F80936A02B7CF853F21F480919B
:100DF0006A028D7FF7CF863F21F480916A028B7F54
:100E0000F1CF873F21F480916A02877FEBCF883F43
:100E100021F480916A028F7EE5CF8D3F31F480917D
:100E20004A028E7F80934A0297CF8E3F21F48091B1
:100E30004A028D7FF7CF8F3F09F08ECF80914A0213
:100E40008B7FF0CF80914A0280FD16C081FD16C0D5
:100E500082FD16C080916F028823A1F0883280F451
:100E600028E0829FC001112468E270E00E94D62928
:100E7000862F672B39F0089582E0089584E0089565
:100E800088E0089581E0089580914A0280FD14C0B1
:100E900081FD14C082FD16C080916F02882381F00D
:100EA000843180F422E3829FC001112464E170E068
:100EB0000E94D629862F08958CE0089589E108952F
:100EC00085E0089582E30895803F31F40E9444074D
:100ED000819580936C020895813F19F40E94440724
:100EE000F8CF823F31F40E944407819580936B02D2
:100EF0000895833F19F40E944407F8CF893F29F4ED
:100F00000E94220780936D0208958A3F21F40E9477
:100F100022078195F7CF8B3F31F40E9422078195FC
:100F200080936E0208958C3F19F40E942207F8CF37
:100F3000843F31F480916A02816080936A0208954F
:100F4000853F21F480916A028260F7CF863F21F4C9
:100F500080916A028460F1CF873F21F480916A0218
:100F60008860EBCF883F21F480916A028061E5CFF1
:100F70008D3F31F480914A02816080934A02089546
:100F80008E3F21F480914A028260F7CF8F3FB9F7FC
:100F900080914A028460F1CFCF92DF92EF92FF926C
:100FA0000F931F932FB7F8944091AC025091AD026C
:100FB0006091AE027091AF022FBF6A017B01EE24F7
:100FC000FF248C0130E020E0C016D106E206F306D3
:100FD00050F0481B590BCA011F910F91FF90EF90E1
:100FE000DF90CF90089541505109F3CF2FB7F89477
:100FF0008091AC029091AD02A091AE02B091AF028F
:101000002FBF0895E0916602F0916702309749F092
:1010100082E0809369020480F581E02D89E692E008
:1010200009950E94F60790937102809370020895CB
:1010300080914502811110924502089580914402E9
:1010400090914302892B90914202892B80936201F7
:1010500090914502992391F0892B8093620120E0C1
:1010600084E691E0FC013191CF0131112F5FF1E075
:101070008A369F07B9F721110E941808E09166028D
:10108000F0916702309731F00280F381E02D82E623
:1010900091E009940895E4E6F1E09191891303C089
:1010A000DF0111971C9291E0EA36F907B1F7089534
:1010B000A4E6B1E0EFEF90E02D91821751F0EF3F01
:1010C00019F4211101C0E92F9F5F9630A9F7EF3F76
:1010D00009F408950E2E000CFF0BEE59FE4F82838B
:1010E000089529E0929F800D1124982F977086957E
:1010F0008695869525E0829FF0011124E550FE4FEC
:1011000050E040E080E0219130E0092E02C03695A9
:1011100027950A94E2F721703327042E01C0220F8D
:101120000A94EAF7822B4F5F5F4F4530510559F71C
:10113000089529E0929F800D1124982F977041E027
:1011400001C0440F9A95EAF786958695869595E0B5
:10115000899FF0011124E550FE4F90E080E070E09F
:101160005191DF0111979B01082E02C036952795FA
:101170000A94E2F7217021952527242325272C9313
:1011800001968530910561F708958091FA0190915B
:10119000C901981301C008958F5F8770FACF882323
:1011A00041F08095909144028923809344020C94ED
:1011B0001E080895882339F090914402982B90934B
:1011C00044020C941E0808952091BC013091BD0189
:1011D0002817390771F09093BD018093BC01E0910D
:1011E0006602F0916702309721F00084F185E02DCE
:1011F000099408952091BA013091BB01281739074D
:1012000071F09093BB018093BA01E0916602F09176
:101210006702309721F00680F781E02D0994089548
:1012200010924302109242020E941E0886E0E9E6F4
:10123000F2E0DF011D928A95E9F710926F02109299
:101240004A020E94020890E080E00E94FA0890E0C2
:1012500080E00C94E4086093CE027093CF028093F8
:10126000D0029093D1020C9410090F931F936091B8
:10127000CE027091CF028091D0029091D1028B0169
:101280009C010670112722273327063011052105FE
:10129000310529F468601F910F910C942B09677F29
:1012A000FACF0F931F9341E050E060E070E004C07C
:1012B000440F551F661F771F8A95D2F7CB01BA01DD
:1012C00060957095809590950091CE021091CF0217
:1012D0002091D0023091D102602371238223932385
:1012E0001F910F910C942B099091410280958923B5
:1012F00080934102282F277071F4282F082E000CAC
:10130000330B9217130639F08595859585950E94C4
:1013100051091092410208950F931F9341E050E04C
:1013200060E070E004C0440F551F661F771F8A9568
:10133000D2F78091CE029091CF02A091D002B091CD
:10134000D1028A019B01082B192B2A2B3B2BC901A7
:10135000B8011F910F910C942B0960934602709372
:10136000470280934802909349020C941009E0913F
:101370006602F0916702309721F00190F081E02D34
:10138000099480E00895882309F459C0823871F4E3
:101390000E94B70981FF53C089E30E9458080E9448
:1013A0001E0889E30E944B080C941E08833859F4E8
:1013B0000E94B70980FF43C083E50E9458080E943D
:1013C0001E0883E5EFCF843859F40E94B70982FFE5
:1013D00036C087E40E9458080E941E0887E4E2CFC6
:1013E0009CEF980F913AF0F290E2980F983088F4C1
:1013F000877021E030E0A90102C0440F551F8A9593
:10140000E2F7CA01809590914402892380934402B7
:10141000CBCF9BE5980F933020F490E080E00C94C4
:10142000FA0898E5980F973120F490E080E00C944A
:10143000E408803F20F00E94A3060C94020808955F
:10144000CF92DF92EF92FF92843028F5811124C071
:1014500090918000977F90938000282F30E0AFEF2D
:10146000BFEF0E94192A23E030E040E050E00E94E4
:10147000EA29C9012C3764E1360790F469E070E08D
:101480000E94C22970938D0060938C00FF90EF90B2
:10149000DF90CF90089583E0909180009860DBCF3B
:1014A0002A50374D4F4F5F4F942F832F722F66274F
:1014B00025EF38E241E050E00E94EA2969017A0113
:1014C000CA01B9010E94A4299B01AC01C701B60160
:1014D0000E94A429672F782F892F992761157105FC
:1014E00021E08207910571F66FEF7FEFCBCFFA0114
:1014F000811101C0FB0109948091B102982F9E7F58
:1015000061F4817082608093B1028091B402893C61
:1015100018F088EC8093B40208958A34B0F3817097
:101520008864F1CFAF92BF92DF92EF92FF920F9358
:101530001F93CF93DF93082F162FE901E42FF0E0DC
:10154000ED56FE4F611110C0E4915E2F4E2F49837E
:10155000E8835A83DF91CF911F910F91FF90EF9015
:10156000DF90BF90AF900895E62EF12C4491D42ED9
:10157000E42FF0E026E0829FC00111242FEF30E03D
:10158000B9010E94C229802F90E0880F991F55E56C
:10159000569FD001579FB00D11248A1B9B0B982F8B
:1015A000990F890F5901AE18BF08AE9ED001AF9EAA
:1015B000B00DBE9EB00D11245B2F189F8001112429
:1015C000012F11275901A01AB10AAE9E8001AF9ECA
:1015D000100DBE9E100D11245901A81AB108AE9C21
:1015E000C001AF9C900DBE9C900D1124892F9927AE
:1015F000281B390B2E9FC0012F9F900D3E9F900DF1
:101600001124E92F62307105A1F050F461157105C4
:1016100009F49DCF6130710581F0EB2F512F97CFE9
:101620006430710569F080F06630710509F48FCF80
:10163000F4CFE42F4B2F592F8ACFE42F412F87CFA0
:10164000EB2F542F492F83CF4B2F5D2DE12F7FCFD1
:101650009091630292FF06C0282F28712830F9F478
:10166000877F846093FF06C0282F28712831F1F40A
:10167000877E84612091640220FF06C0382F387174
:101680003830D9F4877F816021FF06C0282F287168
:101690002831D1F4877E816194FD877E0895282FBB
:1016A00024712430F9F68B7F8860DCCF282F2471D9
:1016B000243101F78B7E8861DDCF382F31713130D5
:1016C00019F78E7F8860E0CF282F2171213121F713
:1016D0008E7E8861E1CF81FF07C0559A5D9882FFB9
:1016E00005C06E9A769808955598F8CF6E98FACFFF
:1016F0000F931F93CF93DF9300D00F92CDB7DEB738
:101700008C010E949706823011F0843019F584E034
:1017100089831B830A838093E9008FEF9091E8000F
:10172000815095FD06C095ED9A95F1F70000811165
:10173000F5CF8091E80085FF0DC050E040E063E008
:1017400070E0CE0101960E9435058091E8008E7709
:101750008093E8000F900F900F90DF91CF911F9131
:101760000F910895CF93DF9300D00F92CDB7DEB7DE
:101770002091CD02243029F533E039838058910936
:101780009B838A832093E9008FEF9091E80081503A
:1017900095FD06C095ED9A95F1F700008111F5CF02
:1017A0008091E80085FF0DC050E040E063E070E00C
:1017B000CE0101960E9435058091E8008E778093D6
:1017C000E8000F900F900F90DF91CF910895CF9385
:1017D000DF93EC010E949706823011F08430F9F417
:1017E00084E08093E9008FEF9091E800815095FDAF
:1017F00006C095ED9A95F1F700008111F5CF809123
:10180000E80085FF0CC050E040E066E070E0CE01EB
:101810000E9435058091E8008E778093E800DF9183
:10182000CF910895CF93DF93EC010E949706823009
:1018300011F0843039F581E08093E9008FEF9091C9
:10184000E800815095FD06C095ED9A95F1F70000EE
:101850008111F5CF8091E80085FF14C050E040E091
:1018600068E070E0CE010E9435058091E8008E7737
:101870008093E80088E0FE01AAEBB2E001900D92AF
:101880008A95E1F7DF91CF91089581E08093E000A0
:1018900080E28093D8001092C9008FE19EE4019706
:1018A000F1F700C0000087E090EBDC018093D202EA
:1018B0009093D302A093D402B093D50288E19CE028
:1018C0000FB6F894A895809360000FBE90936000C7
:1018D000FFCF882309F408C18238B9F40E94B70900
:1018E00081FD02C189E30E9458080E941E082FEF63
:1018F00081EE94E0215080409040E1F700C000006C
:1019000089E30E944B080C941E088338A1F40E94BE
:10191000B70980FDE9C083E50E9458080E941E08AF
:101920002FEF81EE94E0215080409040E1F700C01D
:10193000000083E5E6CF8438A1F40E94B70982FD58
:10194000D3C087E40E9458080E941E082FEF81EE42
:1019500094E0215080409040E1F700C0000087E40F
:10196000D0CF9CEF980F913A18F40E945808CBCF33
:1019700090E2980F983068F4877021E030E001C061
:10198000220F8A95EAF780914402822B80934402C9
:10199000BACF9BE5980F933070F4853A31F0863AD0
:1019A00039F083E890E00C94FA0881E890E0FBCFEE
:1019B00082E890E0F8CF98E5980F973108F08EC054
:1019C000883A09F446C0893A09F446C08A3A09F4CB
:1019D00046C08B3A09F446C08C3A09F446C08B3BAA
:1019E00009F446C08C3B09F446C08D3A09F446C060
:1019F000803B09F446C08E3A09F446C08F3A09F498
:101A000046C0813B09F446C0823B09F446C0833B93
:101A100009F446C0843B09F446C0853B09F446C03E
:101A2000863B09F446C0873B09F446C0883B09F46D
:101A300046C0893B09F446C08D3B09F446C08E3B45
:101A400009F446C08A3B09F446C090E080E00C945B
:101A5000E40882EE90E0FBCF89EE90E0F8CF8AEECA
:101A600090E0F5CF85EB90E0F2CF86EB90E0EFCF02
:101A700083EB90E0ECCF84EB90E0E9CF87EB90E054
:101A8000E6CF8CEC90E0E3CF8DEC90E0E0CF83E804
:101A900091E0DDCF8AE891E0DACF82E991E0D7CF1B
:101AA00084E991E0D4CF81E292E0D1CF83E292E069
:101AB000CECF84E292E0CBCF85E292E0C8CF86E23F
:101AC00092E0C5CF87E292E0C2CF8FE690E0BFCF31
:101AD00080E790E0BCCF8AE292E0B9CF803F20F06F
:101AE0000E9464070C9402080895CF93C82F0E94A7
:101AF000690CC93349F42FEF87EE93E02150804001
:101B00009040E1F700C000008C2FCF910C94C309E6
:101B10000F931F93CF93DF93C62FD42F022FFC0177
:101B200082818823A1F06093BE010E94F607909302
:101B3000B9018093B801C77081E001C0880FCA95D0
:101B4000EAF7DF91CF911F910F910C94DA08109171
:101B5000BE01161335C08091B8019091B9010E9461
:101B6000CC07883C910560F5C0E2CD0F1D17B9F098
:101B700080E2810F883040F4177081E001C0880F47
:101B80001A95EAF70E94CF08C83048F481E09D2FEB
:101B9000977001C0880F9A95EAF70E94DA08802FA3
:101BA0000E94750DC83098F4D77081E001C0880F8D
:101BB000DA95EAF7DF91CF911F910F910C94CF083E
:101BC000C77081E001C0880FCA95EAF7F3CFDF91B3
:101BD000CF911F910F9108958091B10280FD0AC0AD
:101BE000E0E7F1E0118210821282339651E0E83B87
:101BF000F507C1F7539A3BB1377F2BB128604FB738
:101C0000F89480E791E0FC015191CF0168E02BB995
:101C1000000000C057FF3BB9550F000000C000C0D6
:101C200000C03BB900C06A9591F7F1E0883B9F077F
:101C300051F74FBF87EC90E00197F1F700C000002B
:101C40000895EF92FF920F931F93CF93DF938C0130
:101C5000C0E7D1E0F12CE12CF80194816091B3024E
:101C60008091B202FCE0EF16F10414F5992311F112
:101C70004091B402493C08F048EC9E010E94920A4F
:101C80002FEFE21AF20A239688E1E816F10421F711
:101C90000E94EC0DF801848190E0019681709927F3
:101CA0008483DF91CF911F910F91FF90EF90089562
:101CB0009923F1F29E0140E0E1CFEF92FF921F9352
:101CC000CF93DF93EC0180E7E82E81E0F82E10E05F
:101CD0004091B402493C08F048EC8C819701609136
:101CE000B302810F0E94920A165F83E0E80EF11C96
:101CF000103F71F70E94EC0D9A818C8190FF08C013
:101D00008F5F8C83DF91CF911F91FF90EF900895AB
:101D10008150F7CFBF92CF92DF92EF92FF920F9355
:101D20001F93CF93DF93FC018281DD24DA9480FD41
:101D300002C0DD24D39400E711E0D0E0C0E028E148
:101D4000B22EF80111821082128294E0E92EF12C59
:101D5000C12C80916D018C0D89310CF440C06B2D2C
:101D60000E94B429892F082E000C990B8C179D070F
:101D7000A9F48091B4028E9DA0018F9D500D112475
:101D80005595479555954795493C08F048EC98017D
:101D90006091B3028091B2020E94920ACD0CF1E0F0
:101DA000EF1AF108B1F621960D5F1F4FC831D1052A
:101DB00041F60E94EC0D80916D0191E0D91215C0A1
:101DC000811111C087E180936D01DF91CF911F9147
:101DD0000F91FF90EF90DF90CF90BF90089587FF15
:101DE000C2CF885EC0CF8150EECF90E00196BE0199
:101DF0000E94D629E8CF0F931F93CF93DF93C0E7BC
:101E0000D1E0FE01118210821282339681E0E83B1C
:101E1000F807C1F710E000E080916E01082E000C79
:101E2000990B08171907A4F180910C01082E000CDA
:101E3000990B8017910764F14091B402493C08F076
:101E400048EC9E016091B3028091B2020E94920A16
:101E50000F5F1F4F239608311105F1F60E94EC0D1C
:101E600080910B0190916E01980F90936E012091DB
:101E70000C01280F20930C01121614F497311CF05A
:101E8000819580930B01DF91CF911F910F91089560
:101E9000198218821A82DCCFEF92FF920F931F9360
:101EA000CF93DF93EC018C819D81019681709927FE
:101EB0009D838C8380E7E82E81E0F82E10E005E515
:101EC0004091B402493C08F048EC812F86952C8162
:101ED0003D81820F932F911D817097016091B30214
:101EE000809F802D11240E94920A1F5F83E0E80EDC
:101EF000F11C183129F7DF91CF911F910F91FF90BD
:101F0000EF900C94EC0D9091B10290FF0CC0E0E7C3
:101F1000F1E0818360834283339691E0E83BF907E7
:101F2000C1F70C94EC0D08950F931F93CF93DF939B
:101F300000D00F92CDB7DEB78C0180916F01811177
:101F40000AC09E012F5F3F4F48EC6FEF0E94920A3C
:101F50008A8180936F01F8016481613069F080911A
:101F60006F0140E0662361F040E0623011F440917F
:101F70006F0180E060E004C060916F0140E080E0AC
:101F80000E94830FF801848190E0019663E070E085
:101F90000E94D62984830F900F900F90DF91CF91EC
:101FA0001F910F910895CF93DF9300D00F92CDB77B
:101FB000DEB79091B10290FF0DC0493C08F048ECAB
:101FC0009E012F5F3F4F0E94920A4B8169818A8157
:101FD0000E94830F0F900F900F90DF91CF91089583
:101FE000CF93DF93EC01EC81F0E0E856FD4F449194
:101FF000E1EBF2E0628181810E94D30F8C818F5FDF
:102000008C83DF91CF910895CF93DF93EC01E1EBC7
:10201000F2E0438162818C810E94D30F8C818F5FBB
:102020008C83DF91CF9108953F924F925F926F9290
:102030007F928F929F92AF92BF92CF92DF92EF9258
:10204000FF920F931F93CF93DF930BE412E06DE3A6
:1020500071E0D801412CEE24E394F12C6D907C903A
:1020600011971D921D92EB018991BE01E82FE29517
:10207000EF70F0E091A18F70570101C0AA0C8A9512
:10208000EAF7892F8A2981A382A13A2C30948321EF
:1020900082A3D0EADA95F1F789E4C82E81E0D82E40
:1020A00090E080E0AD0142505109E60159906E0187
:1020B000252D22952F7030E0E90128A1EA018880C2
:1020C000998030E0D52DDF7002C035952795DA95DF
:1020D000E2F720FD47C09701082E02C0220F331FF0
:1020E0000A94E2F728293929EA01398328830196DD
:1020F00089309105D1F681A1D32DD823D1A382A116
:10210000A82AA2A281E0FA01208131812615370593
:1021100009F480E0482AF2E0A336BF0709F09ECF19
:10212000442019F181E080936C010E94F60790939E
:102130006B0180936A0180916A0190916B010E940A
:10214000CC070697B0F0E4E9F2E0D8018D919D91BB
:102150008D0181939193B2E003361B07B1F7109282
:102160006C0107C030E020E0BDCF80916C0181118F
:10217000E2CF842DDF91CF911F910F91FF90EF90CF
:10218000DF90CF90BF90AF909F908F907F906F9097
:102190005F904F903F900895CF9384E090E00E942D
:1021A0003F2AC82F81E290E00E943F2A982F8C2F6F
:1021B000CF9108950F931F93CF93DF93C42FD0E057
:1021C000CC0FDD1F22E1629FC00DD11D112438ED1F
:1021D000839FC00DD11D1124CE0186960E943F2AF7
:1021E000082F10E0102F0027CE0187960E943F2A6B
:1021F0009801282BC901DF91CF911F910F9108956C
:10220000462F843038F47C3028F4693018F4672F76
:102210000C94DA1090E080E00895CF93DF930E9451
:102220000011EC0182389105A9F1D8F581339105AF
:1022300009F496C048F58932910509F48AC08A9755
:1022400009F495C0C11521E5D20708F0C7C0C11532
:1022500030E5D30708F0AFC1C83ED10508F09EC0F5
:10226000C03ED10560F5C83AD10508F087C0C53A2F
:10227000D10508F029C1C130D10509F12097F9F045
:10228000C430D105E0F440C08533910509F45AC04B
:10229000C997C1F680916302837089F0C0EED0E0E7
:1022A0000EC0833E910599F170F4803E910501F1D5
:1022B000823E910539F68091630282FD21C0CE01F4
:1022C000DF91CF910895863E910561F1873E91059A
:1022D00071F1843E910509F0B5CF8091640281FFD0
:1022E000EECF80916302C7EED0E084FD0DC0E7CF52
:1022F0008091630280FDABC19091640290FFDFCFBB
:10230000C3EED0E084FFDBCFD0E0C0E0D8CF809137
:10231000630282FD9FC19091640290FDBFCF84FF54
:10232000CECFF2CF8091630283FDDDCFC8CF809105
:10233000630283FD92C19091640291FFF0CFC4EEDD
:10234000D0E0BDCF8091630285FFB9CFC9E2D0E074
:10235000B6CF8091630285FFB2CFC5E3D0E0AFCFA7
:102360008091630286FFABCFCAE2D0E0A8CF809114
:10237000630286FFA4CFC1E3D0E0A1CFCF3BD1055C
:1023800008F4ADC0C03CD10508F4BECFFE01EE0F8D
:10239000FF1FED5EFF4FC591D49191CFC11540E372
:1023A000D40780F4C11580E2D80708F0F7C0C03F19
:1023B000D10508F4A9CFCF3FD10511F008F07FCFA8
:1023C000D0657DCFC11590E4D90708F0F1C0CE01EA
:1023D0009927D3FFEAC0EC01D86C71CFC11529E56C
:1023E000D20768F5C11538E5D30708F02BC1C11530
:1023F00044E5D40778F4C11583E5D80708F009C18E
:10240000C11592E5D90708F0F3C0DC2FCC27C16FC6
:10241000D06A55CFC11525E5D20708F40EC1C11504
:1024200036E5D30708F070CF8C2F0E94280BC82FF9
:10243000D0E0DC2FCC27CC27DF71D06240CFCD3B62
:102440004CE5D40709F40CC1D0F4CB3B9CE5D9078B
:1024500009F409C108F00AC1C1153AE5D30708F02B
:1024600053CF8C2F8F700E94280B34E0D695C795E0
:102470003A95E1F7CF709C2FEC01D06920CFC03C9A
:102480004CE5D40709F4F5C060F4CE3B9CE5D907D0
:1024900009F4F2C0CF3BDC4509F036CFC0E0D2ED05
:1024A0000ECFCE0190568115904208F02DCF8D2F82
:1024B0008F710E94280B90E0982F882788279F71A2
:1024C0009C012C2BE901B9CFC53AD10509F4D7C03D
:1024D000C63AD10509F0D6C0C2E8D0E4F0CEC83A79
:1024E000D10509F4D2C0C93AD10509F4D1C0CA3A1C
:1024F000D10509F4D0C0CB3AD10509F4CFC0CC3A0C
:10250000D10509F4CEC0CB3BD10509F4CDC0CC3BFD
:10251000D10509F4CCC0CD3AD10509F4CBC0C03BFC
:10252000D10509F4CAC0CE3AD10509F4C9C0CF3AE1
:10253000D10509F4C8C0C13BD10509F4C7C0C23BED
:10254000D10509F4C6C0C33BD10509F4C5C0C43BDD
:10255000D10509F4C4C0C53BD10509F4C3C0C63BCD
:10256000D10509F4C2C0C73BD10509F4C1C0C83BBD
:10257000D10509F4C0C0C93BD10509F4BFC0CD3BAA
:10258000D10509F4BEC0CE3BD10509F4BDC0CA3B9C
:10259000D10509F4BCC0C0E0D4E491CEFE01FF70C7
:1025A000EE0FFF1FED56FE4FF6CEEC01D06C87CE3E
:1025B000DF70D06A84CECE01E4E096958795EA95E7
:1025C000E1F783702C2F26952695237040E2249FF7
:1025D00090011124382B8C2F8370C1E0D0E002C011
:1025E000CC0FDD1F8A95E2F7C22BD32BDC6867CEB8
:1025F000CE018370992721E030E002C0220F331F03
:102600008A95E2F7C695C69580E2C89FE00111243D
:10261000EBCFCE018370992721E030E002C0220F7A
:10262000331F8A95E2F7C695C69590E2C99FE001EF
:102630001124C22BD32BDA6842CEDC2FCC27C46FF7
:10264000D06A3DCEDC2FCC27C06FD06A38CEC9E32C
:10265000D0E035CEC2EED0E032CEC6EED0E02FCE06
:10266000C0E0D1ED2CCEC0E0D4ED29CEC0E0D5ED58
:1026700026CEC0E0D3ED23CEC0E0D0ED20CEC1E821
:10268000D0E41DCEC3E8D0E41ACEC2EED4E417CE17
:10269000C9EED4E414CECAEED4E411CEC5EBD4E432
:1026A0000ECEC6EBD4E40BCEC3EBD4E408CEC4EB21
:1026B000D4E405CEC7EBD4E402CECCECD4E4FFCD19
:1026C000CDECD4E4FCCDC3E8D5E4F9CDCAE8D5E43B
:1026D000F6CDC2E9D5E4F3CDC4E9D5E4F0CDC1E24D
:1026E000D6E4EDCDC3E2D6E4EACDC4E2D6E4E7CD4C
:1026F000C5E2D6E4E4CDC6E2D6E4E1CDC7E2D6E455
:10270000DECDCFE6D4E4DBCDC0E7D4E4D8CDCAE259
:10271000D6E4D5CDBF92CF92DF92EF92FF920F9386
:102720001F93CF93DF938C01C090CE02D090CF0245
:10273000E090D002F090D102809146029091470241
:10274000A0914802B0914902C82AD92AEA2AFB2A54
:10275000CFE1D0E0BC2ED701C6010C2E04C0B69547
:10276000A795979587950A94D2F780FD0EC021977B
:1027700088F7B12C8B2DDF91CF911F910F91FF9096
:10278000EF90DF90CF90BF900895B8018C2F0E94FA
:102790000D11019761F3EECFCF93DF93EC010E940F
:1027A0008A13BE01DF91CF910C940D110E94CC13BE
:1027B000292F2F7092959F7092509E3078F4E92FB8
:1027C000F0E0EA56F54D0C940C2A803F19F020F405
:1027D000883E20F481E00895843FE1F380E008958D
:1027E000883EC0F3813FD1F7F5CF822F869586953D
:1027F000869508956F927F928F929F92AF92BF922B
:10280000CF92DF92EF92FF920F931F93CF93DF93BC
:1028100088E9C82E83E0D82E90E1E92EFF24F394B6
:10282000E701C85DD10936011BC0F5018590949080
:10283000692DC8010E94532A682DC80101960E9483
:10284000532A82E0A80EB11C0E5F1F4FC017D1079C
:1028500061F782E1680E711C6296CE15DF0529F0E2
:102860008E01025111095301E0CF7E0188EDE80E7F
:10287000F11C88EDC80ED11C80E7E81684E0F8064C
:1028800079F6DF91CF911F910F91FF90EF90DF903C
:10289000CF90BF90AF909F908F907F906F90089552
:1028A000982F990F990F990F8091C0018770892BEC
:1028B0008093C001887F91E009F490E06091C001AD
:1028C00090FB60F96093C00186E090E00E94532A7B
:1028D0008091C0018695869586950C94200ACF93A9
:1028E000DF93C6E8D3E060E0CE010E94532A219630
:1028F000C11584E0D807B9F7DF91CF910895CF9340
:10290000C82F6FEF811160E282E290E00E94532AAB
:102910006FEFC11161E083E290E00E94532A6FEFF4
:10292000C11163E084E290E0CF910C94532A90E0CF
:1029300080E00E944D2A21E08C3E9E4F09F020E06D
:10294000822F0895CF92DF92EF92FF926B017C016C
:102950000E947C0AB701A60188E090E0FF90EF900A
:10296000DF90CF900C94652A8091B502833018F4E3
:102970008F5F8093B5026091B1027091B202809135
:10298000B3029091B4020C94A2148091B5028823F2
:1029900019F081508093B5026091B1027091B2023A
:1029A0008091B3029091B4020C94A2145F926F9242
:1029B0007F928F929F92AF92BF92CF92DF92EF92CF
:1029C000FF920F931F93CF93DF9300D00F92CDB759
:1029D000DEB7082F762E142F622E9091B10290FF51
:1029E0002DC0E92FE695AE2FB0E0A85EBE4F8C91CA
:1029F000809392029E7F9230A1F5493C08F048EC0A
:102A00009E012F5F3F4F672D802F0E94920A4B81BE
:102A100069818A810E94830F0093B2027092B3028F
:102A20001093B402662051F06091B1027091B2022D
:102A30008091B3029091B4020E94A2140F900F9063
:102A40000F90DF91CF911F910F91FF90EF90DF904A
:102A5000CF90BF90AF909F908F907F906F905F903E
:102A60000895823019F41091B402D6CF863019F44B
:102A70000091B202D1CF8930D9F3893169F6E95199
:102A80008E2F8170582EE695F0E0ED56FD4FA59003
:102A9000B490BB2480E7E82E81E0F82ED12CC12C25
:102AA00098E1892E912CC601B4010E94C229802F81
:102AB000511016C0860F412F193C08F048EC9701C1
:102AC000672D0E94920ACA0CDB1C83E0E80EF11C01
:102AD00088EBE81681E0F80631F70E94EC0D9CCFF8
:102AE000861BE9CFE1EBF2E0438128E0421B08F4CA
:102AF00040E021E0628181810C94D614E1EBF2E0A8
:102B0000438128E0420F08F44FEF21E06281818188
:102B10000C94D614E1EBF2E0628128E0621B08F429
:102B200060E021E0438181810C94D614E1EBF2E076
:102B3000628128E0620F08F46FEF21E04381818118
:102B40000C94D614E1EBF2E0818121E043816281B3
:102B500088500C94D614E1EBF2E0818121E04381AE
:102B60006281885F0C94D614E1EBF2E083E080830D
:102B700011828FEF828388EC83831482608171815C
:102B8000828193810C94A21410924402E4E6F1E055
:102B900086E0DF011D928A95E9F70C9410091F93D6
:102BA000CF93DF93CDB7DEB7AA970FB6F894DEBF09
:102BB0000FBECDBF85EC92E02091F100DC012D939A
:102BC000CD01B2E08D3C9B07B9F78091C6028330FE
:102BD00009F471C0B8F4813009F448C0823009F4B6
:102BE000B2C08091E80083FF93C28091C5029091AA
:102BF000C6029A3008F08CC2E92FF0E0EC55F54D92
:102C00000C940C2A8A3009F48DC08B3009F470C002
:102C1000893039F78091C502813219F78091C90254
:102C20009091CA02009711F00297D9F68091E800BE
:102C3000877F8093E8008091E80082FF37C0909101
:102C4000F3008091F200029729F48091F1008B7FCC
:102C5000813021F48091F1008093B9028091E800E5
:102C60008B778093E8000E948705BBCF8091C502D7
:102C7000813A09F0B6CF8091E800877F8093E80021
:102C80008091C9029091CA02892B61F468E08AEBB5
:102C900092E070E00E9439068091E8008B77809383
:102CA000E8009FCF60E090E080E0F3CF8091CD021C
:102CB0008111C1CF96CF8091C502813A09F091CFA1
:102CC0008091C9029091CA02892B09F08ACF809124
:102CD000E800877F8093E8008091E80080FFFCCFC8
:102CE000809117018093F1008091E8008E77B9CF31
:102CF0008091C502813209F074CF8091C902909110
:102D0000CA02892B09F06DCF8091E800877F8093FC
:102D1000E8000E9487058091C702809317010E94F6
:102D2000C4155FCF8091C502813209F05ACF8091DE
:102D3000E800877F8093E8000E9487058091C802A1
:102D40008093B8024ECF8091C502813A09F049CFF5
:102D50008091E800877F8093E8008091E80080FF01
:102D6000FCCF8091B802BECF803899F0823809F04C
:102D7000CFC18091C9028F70873008F0C9C180939C
:102D8000E9008091EB0085FB882780F91092E9002B
:102D900006C08091C2029091C3029111826090910D
:102DA000E800977F9093E8008093F1001092F10083
:102DB0008091E8008E77A8C1882309F496C18230FB
:102DC00009F0A6C18091C702811199C18091C90201
:102DD0008F702FEF280F263008F09AC18093E900FA
:102DE0002091EB0020FF8BC1933031F48091EB00F8
:102DF00080628093EB0083C19091EB00906190938F
:102E0000EB0021E030E001C0220F8A95EAF7209321
:102E1000EA001092EA008091EB008860EACF81110D
:102E200077C11091C7021F778091E3008078812BD2
:102E30008093E3008091E800877F8093E8000E9400
:102E400087058091E80080FFFCCF8091E3008068D7
:102E50008093E30082E0111183E08093CD0258C19A
:102E60008058823008F054C12091C7023091C802C6
:102E70002C3DE3E03E07A1F583E08A838AE2898363
:102E80004FB7F894DE01139620E03EE051E2E32FC5
:102E9000F0E050935700E49120FF03C0E295EF70FB
:102EA0003F5FEF708E2F90E0EA30C0F0C7968D93B1
:102EB0009D932F5F243159F74FBF8091E800877FA2
:102EC0008093E8006AE270E0CE0101960E94390624
:102ED0008091E8008B778093E8001AC1C096E7CF15
:102EE0008091C9029091CA02432F55274330510562
:102EF00009F44AC078F54130510509F485C08BE5E5
:102F000090E0EAE8F8E04230510509F001C1209173
:102F1000E800277F2093E8002091CB023091CC027B
:102F20008217930708F49C0140E02115310509F050
:102F300070C041116EC08091E80082FDC9CF8091C0
:102F4000CD02882329F2853019F28091E80083FFB1
:102F5000F2CFBECF4132510509F447C0423251058C
:102F600009F0D6C08330910508F0D2C0FC01EE0F05
:102F7000FF1FEB5AFE4F0190F081E02D8E5A9E4FBD
:102F8000DC018C9190E01DC0332721303105E9F040
:102F90002115310579F022303105F9F02330310562
:102FA00009F0B6C0E7EFF8E0E4918E2F90E0E7EF8C
:102FB000F8E007C0E3E3F9E0E4918E2F90E0E3E36B
:102FC000F9E0009709F4A4C0A2CFE9E0F9E0E491A8
:102FD0008E2F90E0E9E0F9E0F4CFEDEFF8E0E49136
:102FE0008E2F90E0EDEFF8E0ECCF8330910508F004
:102FF0008FC0880F991FFC01E55AFE4F0190F081A8
:10300000E02D89E090E083CF82E190E0E5EEF8E00A
:103010007ECF8091CD02882309F45ACF853009F400
:1030200057CF8091E80083FD53CF8091E80082FD67
:1030300082CF8091E80080FF78CF9091F30080915B
:10304000F2002115310519F08830910550F041E06A
:10305000089709F040E08091E8008E778093E800BF
:1030600064CF44914093F10031962150310901968B
:10307000E8CF803809F04CC08091E800877F8093CA
:10308000E8008091C4028093F10092CE811140C08B
:103090001091C7021230E0F58091E800877F80939D
:1030A000E8001093C4020E948705112311F084E008
:1030B00005C08091E30087FDFACF81E08093CD02C7
:1030C00042E061EC81E00E94A60542E261EC84E00E
:1030D0000E94A60542E261EC82E00E94A60542E25F
:1030E00060EC83E00E94A60513C08091C702813086
:1030F00079F481E0933009F080E08093C30210926C
:10310000E9008091E800877F8093E8000E948705AE
:103110008091E80083FF0AC08091E800877F809358
:10312000E8008091EB0080628093EB00AA960FB6D6
:10313000F894DEBF0FBECDBFDF91CF911F910895F0
:103140006091B102669570E04BE050E080E091E064
:103150000E94872A892B19F481E0809393020E94B0
:10316000F60790938D0280938C0208959091B1029E
:1031700090FF36C09170811129C092609093B10286
:10318000662351F06091B1027091B2028091B30256
:103190009091B4020E94A2146091B102669570E011
:1031A0004BE050E080E091E00E94872A892BA9F053
:1031B0001092930281E080938F0220E04091B4024C
:1031C0006091B3028091B2020C94D614853210F053
:1031D0009864D4CF880F982BD1CF0E94A018EACF43
:1031E000089561E00C94B6186CEE7EEF90E080E0FC
:1031F0000E94712A60E082E090E00E94532A60E021
:1032000083E090E00E94532A1092460210924702F7
:10321000109248021092490260E084E090E00E941F
:10322000532A60E081E290E00E94532A60E085E04A
:1032300090E00E94532A60E086E090E00E94532ACA
:103240006FEF87E090E00E94532A40E050E0BA011F
:1032500088E090E00E94652A60E08DE090E00E94A6
:10326000532A40E050E0BA0188E190E00E94652ACC
:1032700060E087E190E00E94532A40E050E0BA010C
:103280008CE190E00E94652A60E080E290E00E947C
:10329000532AE1EBF2E080818160808386950E9471
:1032A000F11821E040E86FEF80E00E94D6148BE037
:1032B0000E94F11840E050E0BA018FE090E00E94D7
:1032C000652A40E050E0BA0183E190E00C94652A61
:1032D0000E949714811102C00E94F41886E090E0C9
:1032E0000E943F2A8093C001803220F0877088615D
:1032F0008093C0019091C001892F817090FF04C01C
:10330000892F8695869586950C94200A8091B10226
:103310008695815009F484E261E00C94B61880919E
:10332000B10286958F5F853208F081E061E00C94F0
:10333000B6189091B10290FF07C09695981720F0AB
:10334000961710F40C948F190C94F1184F925F9209
:103350006F927F928F929F92AF92BF92CF92DF92A5
:10336000EF92FF920F931F93CF93DF9300D000D083
:103370000F92CDB7DEB77C01FC0183819481892B4C
:1033800031F08081918189238F3F09F0FAC60F9037
:103390000F900F900F900F90DF91CF911F910F9191
:1033A000FF90EF90DF90CF90BF90AF909F908F9065
:1033B0007F906F905F904F9008950E948A13182F0E
:1033C000682F89819A810E94990869817A81812F69
:1033D0000E9400118C01F7019281992309F4C6C65D
:1033E000980122513F452031310508F084C68FEF06
:1033F00093E00E943F2A025146E8E42E43E0F42E77
:103400008111C5CF01112FC01B8287010F5F1F4F94
:10341000C7010E943F2A89831A82882309F4B7CF03
:103420008150833078F532E0E30EF11CC8010E9430
:103430003F2A8A83882309F4AACFCE0101966C0122
:10344000F6012081222309F35601FFEFAF1ABF0ACC
:10345000F60111812130C1F4812F0E94690C812F66
:103460000E94C30916C0E114F4E0FF0609F48FCFEF
:10347000C7010E943F2A811101C001502FEFE21ABB
:10348000F20AC0CF7801D9CF223041F4812F0E94B7
:10349000690C6501FFEFCF1ADF0AD2CF2330F9F2B2
:1034A00030E0F901E850F84FB490F901E858F84FCE
:1034B0000491F901E850F94F1491002319F081EEBD
:1034C0000E94690C112319F086EE0E94690C8B2D65
:1034D0000E94750D112319F086EE0E94C309002386
:1034E00019F081EE0E94C3095601D3CF81E00E94FA
:1034F0008C0903C081E00E9451090F900F900F903A
:103500000F900F90DF91CF911F910F91FF90EF904F
:10351000DF90CF90BF90AF909F908F907F906F90F3
:103520005F904F900C94350982E0E1CF053F2CE588
:10353000120709F476C008F470C027E245EE66EE83
:10354000063F8CE5180709F4F9C5992309F426C24A
:103550001092BE010230ECE51E0708F445C10631A9
:10356000FCE51F0738F098012A5F3C4529303105FA
:1035700008F03AC10E94CC109093640280936302D9
:1035800000312CE5120709F4FEC008F088C00830AD
:103590008CE5180709F4E9C008F05AC00430ECE5DE
:1035A0001E0709F4D6C008F043C002302CE512070C
:1035B00009F4C9C080916302826003301C4509F49C
:1035C000C5C0609163021091640284E090E00E94A3
:1035D000532A612F81E290E00E94532A0F900F90AE
:1035E0000F900F900F90DF91CF911F910F91FF904F
:1035F000EF90DF90CF90BF90AF909F908F907F9093
:103600006F905F904F900C94C41527E245EE65EEE5
:1036100095C526E241EE60EE91C527E245EE64EEE7
:103620008DC526E241EE62EE89C528E241E0EFCF8A
:1036300006308CE5180709F494C080916302886015
:1036400007301C4508F482C08091630280627EC00E
:10365000809163028D7F0C30ECE51E0709F476C083
:1036600070F4809163028C600A302CE5120709F433
:103670006DC008F47EC0809163028E7F67C00E30FB
:103680008CE5180709F47BC0809163028B7F0F30B3
:103690001C4508F45BC0809163028F7E57C00B3FCE
:1036A000ECE51E0709F459C030F503312CE512078B
:1036B00009F471C078F401318CE5180709F467C08A
:1036C00002311C4509F07DCF0E94C4158091630230
:1036D0008F773CC00531ECE51E0709F464C008F49F
:1036E00078C08091640281600A3F1C4509F069CF6F
:1036F0008093640266CF0F3F3CE5130709F44FC087
:1037000088F4809164028D7F0D3F9CE5190781F359
:10371000809164028E7F0E3F1C4550F380916402BD
:103720008360E6CF0130FDE51F0709F45BC008F4B4
:1037300046C060E002301D4509F043CF8EE090E0C6
:103740000E94532A3ECF809163028160809363027E
:1037500038CF809163028460F9CF809164028260E7
:10376000C7CF809163028061F1CF80916302806452
:10377000EDCF0E94C415809163028068E7CF8091ED
:103780006302877FE3CF809163028F7DDFCF8091DB
:1037900063028F7BDBCF80916302837FD7CF8091E1
:1037A00064028C7FA5CF8091630282FB992790F9F8
:1037B00021E0922790FB82F990FB83F9C7CF80919B
:1037C0006402982F909591708E7F892B90FB81F9E0
:1037D0008FCF0E94C41590916302892F97FB87F9C0
:1037E0008058B4CF61E0AACF809144028272F80180
:1037F000E25CFC45E431F10508F0C8C0E255F54D46
:103800000C940C2A8091B10280FF2FC08E7F809390
:10381000B1026091B1027091B2028091B3029091B5
:10382000B4020E94A214109293028FEF90E7E2E09C
:1038300081509040E040E1F700C000000F900F90F1
:103840000F900F900F90DF91CF911F910F91FF90EC
:10385000EF90DF90CF90BF90AF909F908F907F9030
:103860006F905F904F900C94EC0D81608093B1024B
:1038700086950F900F900F900F900F90DF91CF9142
:103880001F910F91FF90EF90DF90CF90BF90AF907E
:103890009F908F907F906F905F904F900C94F11855
:1038A00046E859E16FE879E10F900F900F900F9083
:1038B0000F90DF91CF911F910F91FF90EF90DF90CC
:1038C000CF90BF90AF909F908F907F906F905F90C0
:1038D0004F900C94770A4FE859E166E879E1E4CF1C
:1038E00042EA55E16BEA75E1DFCF4BEA55E162EA66
:1038F00075E1DACF4AE855E166E975E1D5CF46E9E9
:1039000055E16AE875E1D0CF42E755E16EE775E130
:10391000CBCF4EE755E162E775E1C6CF45EC54E108
:1039200064EB74E1C1CF44EB54E165EC74E1BCCFCE
:1039300081E09FCF65E082E00F900F900F900F9095
:103940000F90DF91CF911F910F91FF90EF90DF903B
:10395000CF90BF90AF909F908F907F906F905F902F
:103960004F900C94991968E086E0E6CF6EE089E00C
:10397000E3CF64E18FE0E0CF67E185E1DDCF88E16F
:1039800078CF62E289E1D8CF83E273CF0115FCE5FD
:103990001F0779F10E3D2CE51207C1F106311C45D8
:1039A00009F057C0992309F44AC0809144028A7AE9
:1039B00091E009F490E09093BF0181113EC089E24B
:1039C0000E9458080F900F900F900F900F90DF916A
:1039D000CF911F910F91FF90EF90DF90CF90BF900C
:1039E000AF909F908F907F906F905F904F900C94CE
:1039F0001E080E94C4153FEF84E39CE031508040D4
:103A00009040E1F700C000000E94450C0F900F901D
:103A10000F900F900F90DF91CF911F910F91FF901A
:103A2000EF90DF90CF90BF90AF909F908F907F905E
:103A30006F905F904F900C94F41885E3C1CF809104
:103A4000BF01811104C089E20E944B08BBCF85E30E
:103A5000FBCFF701008111819923C9F1C8010E94B0
:103A60008A13D82E682FC8010E949908B8018D2D9D
:103A70000E940D118C01882EF701A580A2943FE0D1
:103A8000A322D280D110109243028091410287700C
:103A900079F0DD2069F080E2800F883048F082E024
:103AA0000E947409809141028770CC24C3948111D3
:103AB000C12CB12EB2942FE0B222FDE0FB1508F428
:103AC00040C0EB2DF0E0EE53F54D0C940C2AC801EC
:103AD0000E947108D82ECACF212F2F70A22E107FDE
:103AE00019F0A29490EFA922DD20C9F0AA2069F074
:103AF00080E2800F883010F081100BC0809144026A
:103B0000A82AA09244020E941E08802F0E94690CDD
:103B100018C080914302A82AA0924302F4CF802FBC
:103B20000E94C309AA2069F0A094005E083010F03A
:103B300081103DC080914402A822A09244020E94BC
:103B40001E08EB2DE850FF0B349720F40E94B709B4
:103B50000E946B0BCC2009F41ACC8091410280FDAD
:103B600016CCF70112828595859585950E948C0962
:103B7000C7010E94A619809141028595859585957A
:103B80000F900F900F900F900F90DF91CF911F919A
:103B90000F91FF90EF90DF90CF90BF90AF909F90EC
:103BA0008F907F906F905F904F900C94510980910F
:103BB0004302A822A0924302C2CF312F3F70932E1E
:103BC000107F103219F0929480EF9822882071F0C3
:103BD00091E0891661F1DD20B9F1AA2071F1F701B8
:103BE000858180FF92CF8F70858327C0DD2091F083
:103BF00090914502892D892BA11003C00E94DA08FB
:103C0000A0CFE1E0AE12FACF891709F49ACF8093E2
:103C1000450297CFA11006C00E941808892D0E9466
:103C2000CF088FCFF1E0AF1609F48BCFF5CFDD20B1
:103C300031F025E02A1508F484CF892DDFCF34E058
:103C40003A1508F47ECFEACFAA2041F3093349F4AC
:103C5000FFEF27EE33E0F15020403040E1F700C0A5
:103C60000000802F0E94C3096CCF812F8695869516
:103C7000837061F0813009F064CFC8019370D11076
:103C800002C090E080E00E94E4085BCFC80193701E
:103C9000D11002C090E080E00E94FA0852CFDD20EF
:103CA00009F1053F99F0063FB9F0043F49F48091CE
:103CB000C1019091C20181609093C2018093C101C2
:103CC000802F0E9464070E9402083BCF8091C101AF
:103CD0009091C2018260F0CF8091C1019091C201A8
:103CE0008460EACF053F89F0063FA9F0043F49F41C
:103CF0008091C1019091C2018E7F9093C201809307
:103D0000C101802F0E94A306DECF8091C101909156
:103D1000C2018D7FF2CF8091C1019091C2018B7F52
:103D2000ECCF812F837009F066C0D1100ACF802FAD
:103D3000829586958770880F880F602F6F70462E4A
:103D4000512C712C612C082E04C0440C551C661C8F
:103D5000771C0A94D2F740E050E0BA0104FF0FC08C
:103D60004FE050E060E070E004C0440F551F661F54
:103D7000771F8A95D2F74095509560957095812F61
:103D8000869586958370823019F1D8F400914602A9
:103D9000109147022091480230914902813069F028
:103DA0004429552966297729CB01BA01602371235B
:103DB000822393230E94AD09C4CE402A512A622A4D
:103DC000732ACB01BA016429752986299729F2CF74
:103DD0004429552966297729009146021091470206
:103DE0002091480230914902CB01BA016027712726
:103DF00082279327DFCF8695DD2011F0812F8170F8
:103E0000882309F49ECE802F829586958770880F2F
:103E1000880F602F6F70462E512C712C612C082E4C
:103E200004C0440C551C661C771C0A94D2F740E071
:103E300050E0BA0104FF0FC04FE050E060E070E0D6
:103E400004C0440F551F661F771F8A95D2F740950F
:103E5000509560957095812F8695869583708230F8
:103E600019F1D8F40091CE021091CF022091D00226
:103E70003091D102813069F044295529662977298A
:103E8000CB01BA0160237123822393230E942B0963
:103E900058CE402A512A622A732ACB01BA016429DA
:103EA000752986299729F2CF44295529662977292A
:103EB0000091CE021091CF022091D0023091D10218
:103EC000CB01BA016027712782279327DFCF1F70AC
:103ED000DD2029F0812F0E948C09802F8FCE802F2A
:103EE0000E94CF08812F0E9451092BCE802F92EF84
:103EF000891609F450C0981578F0E0EF8E1619F184
:103F0000F1EF8F1609F43FC0DD2009F467C0A1105E
:103F1000FCCD812F8F713CC023EF821609F440C085
:103F200034EF8312F1CFDD2009F44DC01F71812FD2
:103F30000E948C09E8E01E9FC001112483608093D9
:103F40004102812F25C0DD20C9F084E08A1508F4E4
:103F5000F8CD1F7161E070E080E090E004C0660F72
:103F6000771F881F991F1A95D2F70091CE021091E2
:103F7000CF022091D0023091D102A4CF95E09A15C2
:103F800008F4DFCDE6CF812F8F71DD2009F4ABCFB0
:103F90000E948C09D6CD812F8F71DD20C9F3A3CF6C
:103FA00060E070E0CB01DD2009F470CF1F7161E0AB
:103FB00070E080E090E004C0660F771F881F991FB3
:103FC0001A95D2F763CF81E00E947409F1E0FA15E7
:103FD00008F0B7CD82E00E947409B3CDAA2059F051
:103FE000893309F03ECE2FEF37EE83E02150304089
:103FF0008040E1F734CE812F8F7175CFD110A1CDE4
:104000001F701230D1F1B8F4112309F1113009F009
:1040100098CD8091C001982F987F09F44DC08850A9
:104020008093C001887F91E009F490E06091C00125
:1040300090FB60F91FC0143009F45BC008F442C063
:1040400080E0153009F07DCD0E9450147ACD80912A
:10405000C001982F969596959695933040F49F5F62
:10406000990F990F990F8770892B8093C0016091E8
:10407000C00161606093C0011BC06091C00160FF1E
:104080000BC06E7F6093C00186E090E00E94532ACF
:1040900080E00E94200A55CD60FD53CD61606093A1
:1040A000C001613019F489E08093C0016091C001C2
:1040B00086E090E00E94532A8091C0018695869503
:1040C0008695E7CF9091C001892F86958695869534
:1040D0008F5F8F719770843048F4880F880F880F36
:1040E000892B8093C0018091C0019CCF9093C00127
:1040F000FACF83E0A9CF0031FFE51F0709F4F6C925
:1041000001312FE5120709F40FCA033F2CE512070E
:1041100009F47FCA08F00ACA083D8CE5180709F4BB
:1041200074CA093DECE51E0709F47FCA073DFCE5AA
:104130001F0709F00ACA26E241EE61EEC7010F909F
:104140000F900F900F900F90DF91CF911F910F91D3
:10415000FF90EF90DF90CF90BF90AF909F908F90A7
:104160007F906F905F904F900C94880D00313FE5E9
:10417000130709F4BFC901318FE5180731F682E052
:10418000BAC985E0DE01119601900D928A95E1F79A
:10419000F701228189819A8121110FC90E9471083A
:1041A000182F13C91F93CF93DF938091C801807F8D
:1041B000C1F48091C5018823A1F08091FA01C091DA
:1041C000C9016091C3017091C4014091C601509131
:1041D000C701D62FD723DA01A095B09516E0C813F2
:1041E00004C0DF91CF911F91089590E041155105D2
:1041F00011F0DF3F31F401968770F1CF2A0F3B1F9A
:1042000017C0189FF001199FF00D1124E653FE4FBF
:1042100021812713F0CF20812613EDCF2281211198
:10422000EACF238134812417350740F3241B350B53
:10423000283C310500F72091C8012F7020612093A0
:10424000C80126E0289FF001299FF00D1124E153B9
:10425000FE4F80818F708061808383EC91E00E94AB
:10426000A619DF91CF911F910C94C508BF92CF92F0
:10427000DF92EF92FF920F931F93CF93DF93CDB70F
:10428000DEB761970FB6F894DEBF0FBECDBF8C01CD
:1042900085E0F801DE011D9601900D928A95E1F707
:1042A000D8012C9111963C9111971296EC9012978F
:1042B0008091C6019091C701009709F463C14091B4
:1042C000C3015091C401642F65236F3F09F45AC1A3
:1042D0001396CD90DC90B090C501BB2009F413C1BA
:1042E000C816D906C0F1F601E81BF90BCF01FF246F
:1042F000F394883C910508F0F12C8091C801982F27
:10430000907FFF2009F4C1C091117DC0FE2C531392
:1043100027C0421325C0E11023C08F7080618093B5
:10432000C80183EC91E00E94A6198091C801D801D0
:1043300015968C938F2D61960FB6F894DEBF0FBE45
:10434000CDBFDF91CF911F910F91FF90EF90DF9044
:10435000CF90BF900895809590958C0D9D1DC7CFEF
:10436000CD2829F0822F83238F3F09F029C180E0D7
:10437000B82FB170DB2E80FF3CC08091FA014091D4
:10438000C90156E0841315C02D873E878D859E8513
:104390000E94CC13292F22952F702230F0F0243068
:1043A00018F59F70F1F0F8019581907FD1F4D12C30
:1043B0001EC090E0589FF001599FF00D1124E65364
:1043C000FE4F6181361306C06081261303C06281EF
:1043D000E6120FC001968770D5CF9F7011F0882329
:1043E00031F3805E883018F3C8010E94A619FD2CB5
:1043F000A1CFEE2009F49ECF8091C8018160809307
:10440000C801F12C97CF531313C0421311C0E11010
:104410000FC0D80115968C93C8010E94A61986E09A
:10442000F801A3ECB1E001900D928A95E1F782CFFB
:104430002D873E878D859E850E94D613882309F19E
:10444000EE20F9F08091C801803270F02091C30114
:104450003091C40138872F831986DB86CA868C8702
:10446000CE0107960E94A61986E0F801A3ECB1E000
:1044700001900D928A95E1F70E94D220FF24F394D7
:1044800059CFC8010E94A619F9CF91110CC083EC35
:1044900091E00E94A61986E0E3ECF1E0DF011D92B5
:1044A0008A95E9F747CF531312C0421310C0E110A9
:1044B0000EC0F8018583C8010E94A619E3ECF1E063
:1044C00086E0DF011D928A95E9F7FB2C33CF2D871B
:1044D0003E878D859E850E94D613882391F2EE201B
:1044E00081F28091C801803208F4BECF2091C301CF
:1044F0003091C4013A8329831B82DD82CC828E8372
:10450000CE010196AFCFC816D90640F0C81AD90A15
:10451000B8ECCB16D10448F0F12CBDCF8095909526
:104520008C0D9D1D883C9105B8F7FE2CEE2009F4FA
:10453000A8CF531316C0421314C08091C80180FD48
:104540006ECF982F907F09F46ACFF8018583903F52
:1045500009F462CF982F907F905F8F70892B8583AD
:104560005BCF2D873E878D859E850E94D613811156
:104570007BCF8091C80181608093C801C8010E94EF
:10458000A619D8CEEE2009F47CCF2D873E878D85E5
:104590009E850E94D613F82E882309F472CF86E0F8
:1045A000F801A3ECB1E001900D928A95E1F78091BA
:1045B000C3019091C4010E94CC130E94D220BACEB4
:1045C00081E08E25D5CE1F93CF93DF93CDB7DEB795
:1045D00067970FB6F894DEBF0FBECDBF4B8B5C8BD9
:1045E0006D8B7E8B8F8B1A8A198A85E0FE017396FC
:1045F000DE011D9601900D928A95E1F786E0FE019D
:104600003D96DE01179601900D928A95E1F7CE0155
:1046100007960E943621811112C086E0FE0137966E
:10462000DE01119601900D928A95E1F78A859B85AE
:10463000892B29F08F81988589238F3FB1F516E06A
:104640008091FA019091C90189131DC067960FB638
:10465000F894DEBF0FBECDBFDF91CF911F910895BB
:1046600096E0929FD001939FB00D1124A653BE4FA8
:10467000FE01319601900D929A95E1F78093C90160
:104680000E94C508DCCF819FC001112486539E4F34
:104690000E9436218823D1F28091FA0190E00196A0
:1046A000877099278093FA01CBCF2091C90130E020
:1046B000C9010196877099274091FA014817190698
:1046C00079F60E94C4151092C9011092FA0186E091
:1046D000E3ECF1E0DF011D928A95E9F7B0CF1F927C
:1046E0000F920FB60F9211242F933F934F935F9326
:1046F0006F937F938F939F93AF93BF93CF93DF93EA
:10470000EF93FF93D091E900DF708091EC00C82F08
:10471000C17080FDC0E81092E9008091F000877FB1
:104720008093F00078940E94CF151092E900809158
:10473000F00088608093F000CD2BCF70C093E9002B
:10474000FF91EF91DF91CF91BF91AF919F918F91A9
:104750007F916F915F914F913F912F910F900FBE7D
:104760000F901F9018951F920F920FB60F92112461
:104770002F933F934F935F936F937F938F939F9369
:10478000AF93BF93EF93FF938091E10082FF09C045
:104790008091E20082FF05C08091E1008B7F8093D1
:1047A000E1008091DA0080FF24C08091D80080FF72
:1047B00020C08091DA008E7F8093DA008091D9004A
:1047C00080FFB4C080E189BD82E189BD09B400FEEB
:1047D000FDCF81E08093CD028091B002811109C0AC
:1047E0000E94E5040E94D8058091E20084608093D5
:1047F000E2008091E10080FF17C08091E20080FF1D
:1048000013C08091E2008E7F8093E2008091E200ED
:1048100080618093E2008091D80080628093D8000C
:1048200019BC85E08093CD028091E10084FF42C0F5
:104830008091E20084FF3EC080E189BD82E189BDB4
:1048400089B5982F917080FFFBCF8091D8008F7D24
:104850008093D8008091E1008F7E8093E100809169
:10486000E2008F7E8093E2008091E200816080937D
:10487000E2008091C402882309F45EC084E0809342
:10488000CD020E94C4150E9468190E94B7090E94B7
:104890006B0B1092B7028091B602882349F0809189
:1048A000B10281608093B10260E086950E94B618E3
:1048B0000E94A0188091E10083FF27C08091E20050
:1048C00083FF23C08091E100877F8093E10082E035
:1048D0008093CD021092C4028091E1008E7F80937C
:1048E000E1008091E2008E7F8093E2008091E200FF
:1048F00080618093E20042E060E080E00E94A605D3
:104900008091F00088608093F000FF91EF91BF915B
:10491000AF919F918F917F916F915F914F913F9157
:104920002F910F900FBE0F901F90189519BC1092E9
:10493000CD021092B0025DCF8091E30087FD93E03D
:104940009093CD029ECFCDB7DEB7AA970FB6F8945D
:10495000DEBF0FBECDBF84B7877F84BF0FB6F8948C
:10496000A89580916000886180936000109260003B
:104970000FBE80E890E00FB6F894809361009093AA
:1049800061000FBE85B7806885BF85B7806885BF29
:104990000E94E5040E94D8058091E2008460809323
:1049A000E20078948091CD028823A1F01091E90073
:1049B0001F709091EC00892F817090FD80E8182B7A
:1049C0001092E9008091E80083FD0E94CF151F70CE
:1049D0001093E90082E084BD93E095BD9AEF97BD06
:1049E00080936E00ADE3B1E061E070E08D91E82F5F
:1049F000E295EF70F0E041A18F709B0101C0220FA2
:104A00008A95EAF7922F9095942391A382A1822B05
:104A100082A321E0A934B20749F7A9E4B1E061E03B
:104A200070E08D91E82FE295EF70F0E041A18F707A
:104A30009B0101C0220F8A95EAF7922F909594234B
:104A400091A382A1822B82A341E0A235B40749F74A
:104A5000EBE4F2E0A4E9B2E0119211921D921D92F2
:104A600082E0E336F807C1F70E941410EFE3FCE997
:104A70003197F1F700C000000E9414108091940259
:104A800080FF0BC080E00E947F146FEF7FEF90E00B
:104A900080E00E94712A0E94450C0E9497148111A7
:104AA00002C00E94F418279A2F988AE08093800011
:104AB00089E1809381008FEF9FEF9093870080932F
:104AC00086000E94681982E290E00E943F2A8032AC
:104AD00009F0D5C383E290E00E943F2A813009F0BB
:104AE000CEC384E290E00E943F2A833009F0C7C31E
:104AF0000E949714811102C00E94F41882E090E095
:104B00000E943F2A809373020E94CC10909364020B
:104B10008093630283E090E00E943F2A682F70E058
:104B200090E080E00E94AD090E94681980916502C2
:104B3000811133C00E949714811104C00E94F4189F
:104B40000E94B41588E090E00E94472A6093B10269
:104B50007093B2028093B3029093B4026E7F71F4AB
:104B60000E94B41588E090E00E94472A6093B10249
:104B70007093B2028093B3029093B4020E947C0AB5
:104B8000109293028091B10280FF04C060E086958C
:104B90000E94B61881E0809365028DE091E09093C9
:104BA00067028093660278E7E72E78E0F72E80911F
:104BB000CD02853009F4DAC00E941410E4E7F2E077
:104BC000A4E9B2E010E000E0302F8D919D91419179
:104BD00051914817590709F42EC120E0CC24C39401
:104BE000D12C48275927BA016C217D21672B09F464
:104BF0001CC129A33AA39C012C213D2191E0232B28
:104C000009F490E09BA30E94F6078160782F9DA392
:104C10008CA349A15AA16BA18DA10E94E322000F90
:104C2000111FF801EC58FD4F80819181C826D926CB
:104C3000D182C08280917002909171020E94CC0753
:104C4000AC0190916F022CE231E0992311F022E344
:104C500030E04217530778F020916B0210916C02FC
:104C6000D0906D0200916E022111FCC0812F8D2920
:104C7000802B09F01AC30E94B7099091720289171C
:104C800031F00E94B709809372020E946B0B8091F1
:104C90009302882309F441C080919202E091B1020D
:104CA000E695E81BE0938E02823009F03FC1F0E008
:104CB000EA57F74FE4910E2F10E0B0EFCB2EBFE094
:104CC000DB2E80918F02882389F010928F020E9440
:104CD000F607980120953095820F931F90938D02CF
:104CE00080938C02109291021092900280918C021B
:104CF00090918D020E94CC078017910770F0E0918F
:104D00008C02F0918D020E0F1F1F10938D020093E5
:104D10008C028CE892E0F60109958091CD028430F6
:104D200009F045CF83E08093E9008091E80082FF9D
:104D30003ECF8091E80090E085FF06C00E94040508
:104D4000882309F44CC191E08091E8008B7780932F
:104D5000E800992309F42BCFE981E150E33108F011
:104D60009DC1F0E0E053F54D0C940C2A8091CD02EA
:104D7000843009F447C01092680288E190E020E492
:104D80000FB6F894A895809360000FBE2093600042
:104D900080E00E94200A80E00E946B0B1092930238
:104DA0008091B702811117C081E08093B702809192
:104DB000B102982F91709093B6028E7F8093B102CA
:104DC000FFEF20E742E0F15020404040E1F700C013
:104DD00000000E94EC0D83B7817F846083BF83B79E
:104DE000816083BF7894889583B78E7F83BF0FB629
:104DF000F894A8958091600088618093600010927B
:104E000060000FBE8091C302882309F4D0CE0E94B7
:104E10001410E4E9F2E081919191892B09F019C213
:104E200082E0EC3AF807B9F7C2CE2F5FCC0CDD1C5C
:104E3000293009F0D8CE0F5F1F4F0C30110509F053
:104E4000C3CE8FEF8EA38FA318A60E94F6078160B2
:104E5000782F9AA789A74EA15FA168A58AA50E946D
:104E6000E322E8CE9F3F19F09F5F90936F021216E6
:104E700024F40E94440780936B0280916B0287FFA9
:104E800005C00E944407819580936B02111624F49B
:104E90000E94440780936C0280916C0287FF05C0DA
:104EA0000E944407819580936C0230916B023323FA
:104EB000A1F020916C02222381F045EB3403C00164
:104EC0001124992359F190936B0245EB240390012F
:104ED0001124332339F130936C021D1424F40E9401
:104EE000220780936D0280916D0287FF05C00E94AA
:104EF0002207819580936D02101624F40E942207E8
:104F000080936E0280916E0287FF05C00E94220787
:104F1000819580936E020E940208ADCE81E080935D
:104F20006B02D3CF81E080936C02D7CF863059F4E7
:104F3000F0E0ED57F74FE4910E2F10E0A4E0CA2EF9
:104F4000A0E1DA2EBECE893061F4E695F0E0E058BB
:104F5000F74FE4910E2F10E0FDE5CF2EFEE0DF2E9F
:104F6000B0CE8F3061F4E695F0E0E358F74FE4916E
:104F70000E2F10E0EAE8CE2EEEE0DE2EA2CE853136
:104F800059F4F0E0E658F74FE4910E2F10E07BEF74
:104F9000C72E7EE0D72E95CE08EE13E04CE4C42E4B
:104FA0004FE0D42E883109F48CCE833241F4F701DE
:104FB0000591149164E9C62E6FE0D62E82CE04EFDF
:104FC00011E051E2C52E5EE0D52E843209F479CE8F
:104FD00000ED17E03FE9C32E36E0D32E72CE00E29B
:104FE00010E0CE0101966C018091E80085FD0AC0B9
:104FF0008091E8008B778093E8000E940405882365
:1050000099F3A1CE8091F100F60181936F010150D7
:10501000110951F798CE1A8289E08B8319C08A81D1
:10502000823009F439C18330C1F08130B9F52FB72E
:10503000F8946091AC027091AD028091AE029091B3
:10504000AF022FBF0E94122A6B837C838D839E83C5
:10505000CE0101960E945F05AACDDE011196E4E91A
:10506000F2E080819181329612969C93129713966A
:105070008C931397129622E0EC3AF20791F7E8CF5F
:105080008A81823059F46B817C818D819E810E945E
:10509000122A85E290E00E94532ADACF8FEF8983AB
:1050A000D7CF4C816B818A810E94DA10982789279B
:1050B00098279E838D83CCCFCD80DE80DC24CD24C9
:1050C000DC248A810B8142E1049F8001112498ED48
:1050D000899F000D111D11248C8190E0880F991F6C
:1050E000080F191F6D2DC80186960E94532A6C2D3A
:1050F000C8018796D0CF0E94FA13AACF80E18A8395
:10510000A7CF1A828AE789CF0A811B81102701273E
:105110001027FE0131966F01AC80CF018A0D911DE1
:105120005C01C8018A579C4FAC14BD0409F490CFB0
:105130000A37110550F40E943F2AF60184830F5F5D
:105140001F4FFFEFCF1ADF0AECCFF6011482F7CF23
:105150000A811B81102701271027CE0101965C01CF
:10516000CC80C00ED12ED11CC8018A579C4FC016CE
:10517000D10609F46DCF0A37110520F4F5016481D9
:105180000E94532AFFEFAF1ABF0A0F5F1F4FECCFE9
:105190000E946F145DCF84E0B2CF0A811B8110277B
:1051A00001271027CE0101966C01AC80FC01EA0DAD
:1051B000F11D5F01C8018696AC14BD0409F448CF07
:1051C0000036F3E01F0750F40E943F2AF601848363
:1051D0000F5F1F4FFFEFCF1ADF0AECCFF6011482EB
:1051E000F7CF0A811B81102701271027CE010196D6
:1051F0005C01CC80C00ED12ED11CC80186960C1546
:105200001D0509F425CF0036E3E01E0720F4F50163
:1052100064810E94532AFFEFAF1ABF0A0F5F1F4F2E
:10522000ECCF80E00E947F146FEF7FEF90E080E092
:105230000E94712A0DCFCE0101960E945F052FEFCB
:1052400041EE84E0215040408040E1F700C0000082
:1052500022CC80E189BD82E189BD09B400FEFDCF89
:105260008091D8008F7D8093D8008091E00082608B
:105270008093E0008091E00081FDFCCF98CC60E05D
:1052800085E290E00E94532A0E94FA130E946F1454
:1052900081E00E947F142CCC85E290E00E943F2A9E
:1052A0001B821C821D828E83D3CE9F3F09F0DCCDF2
:1052B000EDCD78941F921FB61F9211248F939F9368
:1052C000AF93BF938091AC029091AD02A091AE02DA
:1052D000B091AF020196A11DB11D8093AC029093D5
:1052E000AD02A093AE02B093AF02BF91AF919F9178
:1052F0008F911F901FBE1F9018951F921FB61F926F
:1053000011248F939F93AF93BF9380916802811173
:1053100013C08091AC029091AD02A091AE02B09109
:10532000AF024196A11DB11D8093AC029093AD02D6
:10533000A093AE02B093AF02BF91AF919F918F91B6
:105340001F901FBE1F901895DB018F939F930E94A3
:10535000282ABF91AF91A29F800D911DA39F900D10
:10536000B29F900D1124089587FB082E062687FD15
:10537000819567FD61950E94332A0EF4919507FC93
:1053800081950895AA1BBB1B51E107C0AA1FBB1F33
:10539000A617B70710F0A61BB70B881F991F5A95C1
:1053A000A9F780959095BC01CD01089597FB072E34
:1053B00016F4009407D077FD09D00E94C22907FC9B
:1053C00005D03EF4909581959F4F08957095619515
:1053D0007F4F0895A1E21A2EAA1BBB1BFD010DC031
:1053E000AA1FBB1FEE1FFF1FA217B307E407F50795
:1053F00020F0A21BB30BE40BF50B661F771F881F71
:10540000991F1A9469F760957095809590959B0106
:10541000AC01BD01CF010895EE0FFF1F0590F4917F
:10542000E02D099469279627692778278727782709
:105430000895A29FB001B39FC001A39F700D811D6D
:105440001124911DB29F700D811D1124911D08958D
:105450000E94192AA59F900DB49F900DA49F800DC6
:10546000911D11240895991B79E004C0991F961786
:1054700008F0961B881F7A95C9F780950895F999C9
:10548000FECF92BD81BDF89A992780B50895A6E117
:10549000B0E044E050E00C94792AA8E1B0E042E0AA
:1054A00050E00C94792A262FF999FECF92BD81BD48
:1054B000F89A019700B4021639F01FBA20BD0FB652
:1054C000F894FA9AF99A0FBE08950396272F0E942E
:1054D000542A0E94532A252F0E94542A242F0C94C8
:1054E000542A0196272F0E94542A0C94532ADC0137
:1054F000CB01FC01F999FECF06C0F2BDE1BDF89ADF
:10550000319600B40D9241505040B8F70895FC0117
:105510004150504030F001900616D1F73197CF013D
:105520000895882799270895F894FFCFE513E51388
:10553000EE13EE13F013EE13EE13EE13E513E51373
:10554000F513EE13EE13F513B416DC168818DC16FB
:1055500088180F173017881839184618021C501C65
:105560006B1C701C751C7A1C7F1C841C891C8E1C77
:10557000931C981C9A1CB31CB61CB91CBC1CBF1CE9
:10558000C11CC41C6C1D6C1DDD1DDD1D351E4F1E98
:10559000A11DA11D911E671F761F761FA11DFE1F55
:1055A0000B280F28402851285C287B284E284E289D
:1055B0004E2811291B297E2881288428A828C8283C
:0655C000CB28CD28F128E4
:1055C60001191A1B1C1D1E1F2021220102A00612F2
:1055D6000CE70BB20B780B01000102020202060671
:1055E600060909090909090F0F0F0F0F0F151515E0
:1055F60018191919191919191919192324303132B9
:10560600339091353697349694F0F1F4F5F6F767C2
:10561600669240228553013101AC009C08B508D53D
:0256260008007A
:00000001FF
