:100000000C94B0030C94F7030C94F7030C94F703CF
:100010000C94F7030C94F7030C94F7030C94F70378
:100020000C94F7030C94F7030C9404220C94C02155
:100030000C9434260C94F7030C94F7030C94F703F8
:100040000C94F7030C94F7030C94F7030C94F70348
:100050000C94F7030C9410260C94F7030C94F703FC
:100060000C94F7030C94F7030C94F7030C94F70328
:100070000C94F7030C94F7030C94F7030C94F70318
:100080000C94F7030C94F7030C94F7030C94F70308
:100090000C94F7030C94F7030C94F7030C94F703F8
:1000A0000C94F7030C94F7030C94F7030000000082
:1000B0000000000000000000000000000000000040
:1000C0000000000000000000000000000000000030
:1000D0000000000000000000000000000000000020
:1000E0000000000000000000000000000000000010
:1000F0000000000000000000000000000000000000
:1001000000000000000000000000000000000000EF
:1001100000000000000000000000000000000000DF
:1001200000000000000000000000000000000000CF
:1001300000000000000000000000000000000000BF
:1001400000000000000000000000000000010101AC
:100150000101010001010101000000000000000098
:100160000000000000000100010001010101010187
:10017000010101010101010101010101010101016F
:100180000101010101010100000001010000000066
:10019000000000000000000000000000000000005F
:1001A000000000000000000101010100000000004B
:1001B000000000002A2B28000000000000000000C2
:1001C0000000000000000029000000002C1E342068
:1001D000212224342627252E362D3738271E1F208E
:1001E0002122232425263333362E37381F040506D3
:1001F0000708090A0B0C0D0E0F1011121314151617
:100200001718191A1B1C1D2F3130232D3504050614
:100210000708090A0B0C0D0E0F10111213141516F6
:100220001718191A1B1C1D2F3130354C0001010104
:1002300001010101010102020202020202020203A3
:100240000303030303030304040404040404050573
:100250000505050606060606070707070708080836
:1002600008090909090A0A0A0B0B0B0C0C0C0D0DE5
:100270000D0E0E0E0F0F0F1010111111121213137D
:100280001414151516161717181819191A1A1B1BF6
:100290001C1D1D1E1E1F2020212222232424252652
:1002A00026272829292A2B2C2D2D2E2F303132328A
:1002B000333435363738393A3B3C3D3E3F40414296
:1002C000434445464748494A4C4D4E4F505153547C
:1002D000555658595A5B5D5E5F6162646566686930
:1002E0006B6C6D6F7072737577787A7B7D7E8082B0
:1002F000838587888A8C8E8F91939596989A9C9EF9
:10030000A0A2A3A5A7A9ABADAFB1B3B5B7BABCBE08
:10031000C0C2C4C6C9CBCDCFD1D4D6D8DBDDDFE2D5
:10032000E4E7E9EBEEF0F3F5F8FAFDFFFFAA7F55FD
:10033000402223252628292A2C2D2F3032333536EA
:10034000383A3B3D3E4042434547494A4C4E505166
:10035000535557595A5C5E6062646668696B6D6F8D
:1003600071737577797B7D7F81838587898A8C8E90
:1003700090929496989A9C9E9FA1A3A5A7A8AAAC98
:10038000AEAFB1B3B4B6B8B9BBBCBEBFC1C2C3C5D2
:10039000C6C7C9CACBCCCDCED0D1D2D2D3D4D5D674
:1003A000D7D7D8D9D9DADADBDBDBDCDCDCDCDCDDA7
:1003B000DDDDDDDCDCDCDCDCDBDBDBDADAD9D9D88B
:1003C000D7D7D6D5D4D3D2D2D1D0CECDCCCBCAC923
:1003D000C7C6C5C3C2C1BFBEBCBBB9B8B6B4B3B152
:1003E000AFAEACAAA8A7A5A3A19F9E9C9A989694ED
:1003F00092908E8C8A89878583817F7D7B797775C2
:1004000073716F6D6B6968666462605E5C5A5957A0
:10041000555351504E4C4A4947454342403E3D3B5F
:100420003A3836353332302F2D2C2A2928262523E9
:100430002229003A003C003E0040000000430045F5
:1004400000470000003B003D003F004100420044E7
:10045000004600480035001F00210023002500272A
:10046000002E002A004A001E002000220024002640
:10047000002D00000049004B002B001A0015001C45
:10048000000C001300300000004D0014000800179D
:1004900000180012002F0031004C004E00E300163F
:1004A0000009000B000E00330000000000000004F3
:1004B0000007000A000D000F0034002800000000B3
:1004C00000E1001D000600050010003700E50000F7
:1004D00000520000001B0019001100360038000017
:1004E0000000000000E000E200000000000000004A
:1004F000000000000051000000000000002C00007F
:10050000000151E40050004F00010001000100C251
:100510005CC65C0000C75CC95CBD5C0000010001FA
:1005200000C35CC55CC85CCA5CBF5CBE5C0100010A
:1005300000010001000100010001000100010001B3
:1005400000010001000100010001000000010004A1
:100550005D01000100005C010001000100010000DC
:100560000001000100010001000100010001000183
:10057000000100010039000100010001000100013B
:100580000000000000000001000100010001000166
:100590000001000100000000000100010001000155
:1005A000000100010001000000A90000000100019D
:1005B0000001000100010000000000000001000136
:1005C00000000000000000000000000000AA000081
:1005D0000000000000AE000000010001000100ABBF
:1005E0000068747470733A2F2F716D6B2E666D2FC7
:1005F000012800012B0117011901050000047F3FAC
:100600001F643214643214783C1E1E140A0505015E
:100610000902A10185020901A100050919012905A5
:10062000150025019505750181029501750381016C
:100630000501093009311581257F9502750881066C
:1006400009381581257F950175088106050C0A3842
:10065000021581257F950175088106C0C005010935
:1006600080A10185031A81002A8300160100260358
:1006700000950175108100C0050C0901A1018504D8
:100680001A01002A9C02160100269C029501751091
:100690008100C005010906A101050719E029E71538
:1006A00000250195087501810295017508810105F4
:1006B00007190029FF150026FF009506750881001F
:1006C0000508190129059505750191029501750324
:1006D0009101C009023B00020100A0FA09040000D8
:1006E0000103010100092111010001224000070559
:1006F000810308000A090401000103000000092128
:10070000110100012285000705820320000A120161
:10071000100100000008D804E9EC01000102030107
:100720000403300000000A0368003800370061004D
:1007300000002803680069006E006500790062000F
:1007400075007300680020006B006500790062008E
:100750006F0061007200640073000000040309046C
:1007600011241FBECFEFDAE0DEBFCDBF04B603FE1B
:1007700027C08091C3029091C402A091C502B0919C
:10078000C6028730904BA740B04BD1F41092C30201
:100790001092C4021092C5021092C60214BE84B711
:1007A000877F84BF0FB6F894A89580916000886118
:1007B00080936000109260000FBEE0E0F8E30995BE
:1007C00011E0A0E0B1E0E8EDFEE402C005900D927A
:1007D000A235B107D9F722E0A2E5B1E001C01D9230
:1007E000A33CB207E1F70E94F4220C9444270C9436
:1007F0000000E8EDF0E080818E7F80831092E200BF
:100800001092DA001092E100A0EEB0E08C918160CD
:100810008C9380818F77808319BCA7EDB0E08C9199
:100820008E7F8C9380818F7E80831092A5020895A5
:100830002091E4003091E50095E6A9012091EC00BB
:10084000822F817020FF06C08091E80080FF06C0E3
:1008500080E008952091E80022FD1AC08091B9023D
:10086000882389F0853089F08091EB0085FD0FC0E9
:100870002091E4003091E50042175307F9F29150BE
:10088000E1F684E0089582E0089583E0089581E030
:100890000895EF92FF920F931F93CF937C018B01EA
:1008A0000E941804C82F811117C08091E80085FDAF
:1008B0000BC08091E8008E778093E8000E941804B6
:1008C000882399F3C82F08C0F70181917F01809395
:1008D000F1000150110949F78C2FCF911F910F9111
:1008E000FF90EF9008958091BB0287FF13C0809125
:1008F000E80082FF06C08091E8008B778093E800D3
:1009000004C08091B9028111F2CF08958091B9029B
:100910008823D9F38091E80080FFF8CF8091E80028
:100920008E77ECCF982F9093E900242F762F50E00C
:10093000891731F07091EC002091ED005091F0009A
:1009400021FD07C09F5F973071F78093E90081E038
:1009500008953091EB003E7F3093EB003091ED0035
:100960003D7F3093ED003091EB0031603093EB0030
:100970007093EC002093ED005093F0002091EE0076
:1009800027FDE0CF80E00895CF92DF92EF92FF92B3
:100990000F931F93CF93DF93C8EDD0E088818F7EB4
:1009A0008883E7EDF0E080818160808384E082BF0E
:1009B00081E08093A50288818E7F888302EE10E01B
:1009C000F80110821092DA0081EEC82ED12CF601C7
:1009D000108288818F778883888180688883888166
:1009E0008F7D888319BC1092B9021092BA021092BE
:1009F000B8021092B70290EEE92EF12CF701808137
:100A00008B7F808388818160888342E060E080E022
:100A10000E949204F60180818E7F8083F80180819C
:100A200081608083808188608083F70180818E7FF0
:100A30008083888180618883DF91CF911F910F919E
:100A4000FF90EF90DF90CF900895FC018091C1025C
:100A50009091C20286179707A0F06115710529F4DD
:100A60009091E8009E779093E80090E06115710501
:100A700051F4911108C08091E80082FF34C080E0F9
:100A80000895BC01F2CF8091B9028823C1F185306D
:100A9000C1F18091E80083FD30C08091E80082FDC3
:100AA000EACF8091E80080FFE1CF8091F3002091B0
:100AB000F200382F6115710519F02830310558F012
:100AC00091E02830310509F090E02091E8002E7780
:100AD0002093E800CBCF81918093F10061507109A0
:100AE0002F5F3F4FE7CF8091B902882341F08530D7
:100AF00041F08091E80083FFBECF81E0089582E05D
:100B0000089583E008958091A402811107C0809127
:100B1000B902843011F482E0089581E008950895C7
:100B20008091AE02089590917B02803F41F48091C4
:100B30007C0287FD10927C02992371F00895813F19
:100B400029F480917C021816ACF3F6CF823F81F431
:100B500097FFF2CF10927B0280917C0290917D02F0
:100B6000892B90917E02892B49F710927F0208957C
:100B7000833F19F4191674F3DFCF893F39F480915C
:100B80007D021816CCF610927D02D6CF8A3F29F44A
:100B900080917D0287FFD0CFF6CF8B3F39F48091D3
:100BA0007E0287FFC9CF10927E02C6CF8C3F29F408
:100BB00080917E021816BCF3BFCF843F31F4809140
:100BC0007A028E7F80937A02B7CF853F21F480919D
:100BD0007A028D7FF7CF863F21F480917A028B7F56
:100BE000F1CF873F21F480917A02877FEBCF883F56
:100BF00021F480917A028F7EE5CF8D3F31F4809190
:100C000042028E7F8093420297CF8E3F21F48091E3
:100C100042028D7FF7CF8F3F09F08ECF8091420245
:100C20008B7FF0CF8091420280FD16C081FD16C0FF
:100C300082FD16C080917F028823A1F0883280F463
:100C400028E0829FC001112468E270E00E948D2696
:100C5000862F672B39F0089582E0089584E0089587
:100C600088E0089581E008958091420280FD14C0DB
:100C700081FD14C082FD16C080917F02882381F01F
:100C8000843180F422E3829FC001112464E170E08A
:100C90000E948D26862F08958CE0089589E108959D
:100CA00085E0089582E30895803F31F40E94340680
:100CB000819580937C020895813F19F40E94340647
:100CC000F8CF823F31F40E943406819580937B02F5
:100CD0000895833F19F40E943406F8CF893F29F420
:100CE0000E94120680937D0208958A3F21F40E949B
:100CF00012068195F7CF8B3F31F40E941206819541
:100D000080937E0208958C3F19F40E941206F8CF5A
:100D1000843F31F480917A02816080937A02089551
:100D2000853F21F480917A028260F7CF863F21F4DB
:100D300080917A028460F1CF873F21F480917A021A
:100D40008860EBCF883F21F480917A028061E5CF03
:100D50008D3F31F480914202816080934202089578
:100D60008E3F21F4809142028260F7CF8F3FB9F726
:100D7000809142028460F1CFCF92DF92EF92FF9296
:100D80000F931F932FB7F89440913E0250913F026A
:100D900060914002709141022FBF6A017B01EE24F5
:100DA000FF248C0130E020E0C016D106E206F306F5
:100DB00050F0481B590BCA011F910F91FF90EF9003
:100DC000DF90CF90089541505109F3CF2FB7F89499
:100DD00080913E0290913F02A0914002B091410269
:100DE0002FBF0895E0915E02F0915F02309749F0C5
:100DF00082E0809379020480F581E02D89E792E01A
:100E000009950E94E60690938102809380020895DE
:100E1000809139028111109239020895809138022F
:100E200090913702892B90913602892B8093520141
:100E300090913902992391F0892B8093520120E0FF
:100E400084E591E0FC013191CF0131112F5FF1E098
:100E50008A359F07B9F721110E940807E0915E02C9
:100E6000F0915F02309731F00280F381E02D82E54E
:100E700091E009940895E4E5F1E09191891303C0AC
:100E8000DF0111971C9291E0EA35F907B1F7089557
:100E9000A4E5B1E0EFEF90E02D91821751F0EF3F24
:100EA00019F4211101C0E92F9F5F9630A9F7EF3F98
:100EB00009F408950E2E000CFF0BEE5AFE4F8283AC
:100EC000089529E0929F800D1124982F97708695A0
:100ED0008695869525E0829FF0011124E551FE4F0D
:100EE00050E040E080E0219130E0092E02C03695CC
:100EF00027950A94E2F721703327042E01C0220FB0
:100F00000A94EAF7822B4F5F5F4F4530510559F73E
:100F1000089529E0929F800D1124982F977041E049
:100F200001C0440F9A95EAF786958695869595E0D7
:100F3000899FF0011124E551FE4F90E080E070E0C0
:100F40005191DF0111979B01082E02C0369527951C
:100F50000A94E2F7217021952527242325272C9335
:100F600001968530910561F708958091EA0190918D
:100F7000B901981301C008958F5F8770FACF882355
:100F800041F08095909138028923809338020C9427
:100F90000E070895882339F090913802982B90938A
:100FA00038020C940E0708952091AC013091AD01E8
:100FB0002817390771F09093AD018093AC01E0914F
:100FC0005E02F0915F02309721F00084F185E02D00
:100FD000099408952091AA013091AB01281739078F
:100FE00071F09093AB018093AA01E0915E02F091C1
:100FF0005F02309721F00680F781E02D0994089573
:1010000010923702109236020E940E0786E0E9E73E
:10101000F2E0DF011D928A95E9F710927F021092AB
:1010200042020E94F20690E080E00E94EA0790E00F
:1010300080E00C94D4076093310270933202809365
:101040003302909334020C9400080F931F9341E0F5
:1010500050E060E070E004C0440F551F661F771F2A
:101060008A95D2F7CB01BA016095709580959095DD
:1010700000913102109132022091330230913402FA
:1010800060237123822393231F910F910C941B08DB
:10109000909135028095892380933502282F2770FF
:1010A00071F4282F082E000C330B9217130639F019
:1010B0008595859585950E9425081092350208959D
:1010C0000F931F9341E050E060E070E004C0440FD4
:1010D000551F661F771F8A95D2F780913102909134
:1010E0003202A0913302B09134028A019B01082B95
:1010F000192B2A2B3B2BC901B8011F910F910C947E
:101100001B0860933A0270933B0280933C029093D9
:101110003D020C940008E0915E02F0915F0230976E
:1011200021F00190F081E02D099480E0089588235A
:1011300009F459C0823871F40E948B0881FF53C0B2
:1011400089E30E9448070E940E0789E30E943B073B
:101150000C940E07833859F40E948B0880FF43C01B
:1011600083E50E9448070E940E0783E5EFCF84388D
:1011700059F40E948B0882FF36C087E40E9448071A
:101180000E940E0787E4E2CF9CEF980F913AF0F2AD
:1011900090E2980F983088F4877021E030E0A90140
:1011A00002C0440F551F8A95E2F7CA0180959091BD
:1011B0003802892380933802CBCF9BE5980F933078
:1011C00020F490E080E00C94EA0798E5980F9731BE
:1011D00020F490E080E00C94D407803F20F00E943F
:1011E00093050C94F2060895CF92DF92EF92FF924E
:1011F000843028F5811124C090918000977F9093CE
:101200008000282F30E0AFEFBFEF0E94C92623E017
:1012100030E040E050E00E94A126C9012C3764E193
:10122000360790F469E070E00E94792670938D0093
:1012300060938C00FF90EF90DF90CF90089583E053
:10124000909180009860DBCF2A50374D4F4F5F4F11
:10125000942F832F722F662725EF38E241E050E06C
:101260000E94A12669017A01CA01B9010E945B2688
:101270009B01AC01C701B6010E945B26672F782F46
:10128000892F99276115710521E08207910571F673
:101290006FEF7FEFCBCF8091A60280FF02C08695D3
:1012A000089580E008958091A602982F9E7F29F4EA
:1012B000817082608093A60208958A34E8F3817079
:1012C0008864F8CFAF92BF92DF92EF92FF920F93B4
:1012D0001F93CF93DF93082F162FE901E42FF0E03F
:1012E000E45DFD4F611110C0E4915E2F4E2F4983E4
:1012F000E8835A83DF91CF911F910F91FF90EF9078
:10130000DF90BF90AF900895E62EF12C4491D42E3B
:10131000E42FF0E026E0829FC00111242FEF30E09F
:10132000B9010E947926802F90E0880F991F55E51A
:10133000569FD001579FB00D11248A1B9B0B982FED
:10134000990F890F5901AE18BF08AE9ED001AF9E0C
:10135000B00DBE9EB00D11245B2F189F800111248B
:10136000012F11275901A01AB10AAE9E8001AF9E2C
:10137000100DBE9E100D11245901A81AB108AE9C83
:10138000C001AF9C900DBE9C900D1124892F992710
:10139000281B390B2E9FC0012F9F900D3E9F900D53
:1013A0001124E92F62307105A1F050F46115710527
:1013B00009F49DCF6130710581F0EB2F512F97CF4C
:1013C0006430710569F080F06630710509F48FCFE3
:1013D000F4CFE42F4B2F592F8ACFE42F412F87CF03
:1013E000EB2F542F492F83CF4B2F5D2DE12F7FCF34
:1013F00090915B0292FF06C0282F28712830F9F4E3
:10140000877F846093FF06C0282F28712831F1F46C
:10141000877E846120915C0220FF06C0382F3871DE
:101420003830D9F4877F816021FF06C0282F2871CA
:101430002831D1F4877E816194FD877E0895282F1D
:1014400024712430F9F68B7F8860DCCF282F24713B
:10145000243101F78B7E8861DDCF382F3171313037
:1014600019F78E7F8860E0CF282F2171213121F775
:101470008E7E8861E1CFCF93DF93972F70E029E0D4
:10148000929F600D711D1124FB013CE6839FE00DCE
:10149000F11D1124EE0FFF1FEF5CFB4FC591D4919E
:1014A000CE01C238D105B9F1E8F5C133D10509F44F
:1014B00099C050F5C932D10509F48DC0CA32D105A1
:1014C00009F497C0C11521E5D20708F0C9C0C115BC
:1014D00030E5D30708F0E8C1C83ED10508F0A0C048
:1014E000C03ED10568F5C83AD10508F089C0C53AB3
:1014F000D10508F030C1C130D10511F1209709F4B0
:1015000043C02497E8F440C0C533D10509F45CC05A
:10151000C933D105B9F620915B02237089F080EEC2
:1015200090E00EC0C33ED10591F168F4C03ED105F4
:10153000F9F0C23ED10531F620915B0222FD20C0B8
:10154000DF91CF910895C63ED10561F1C73ED10527
:1015500081F1C43ED10509F0B5CF20915C0221FF95
:10156000EFCF80915B0284FD0FC087EE90E0E8CF63
:1015700020915B0220FDE5C130915C0230FFE0CF9D
:1015800083EE90E024FFDCCF90E080E0D9CF209183
:101590005B0222FDD9C130915C0230FDC0CF24FF37
:1015A000CFCFF2CF20915B0223FFCACF24FDECCF37
:1015B000DCCF20915B0223FDCAC130915C0231FF78
:1015C000EECF84EE90E0BCCF20915B0225FFB8CF38
:1015D00089E290E0B5CF20915B0225FFB1CF85E392
:1015E00090E0AECF20915B0226FFAACF8AE290E086
:1015F000A7CF20915B0226FFA3CF81E390E0A0CF8D
:10160000CF3BD10508F4B6C0C03CD10508F4BCCF2F
:10161000FE01EE0FFF1FE455FF4F8591949190CF8F
:10162000C11520E3D20788F4C11530E2D30708F0D2
:101630002EC1C03FD10508F4A7CFCF3FD10511F08F
:1016400008F07ECFCE0190657BCFC11580E4D8072E
:1016500008F026C1CE019927D3FF20C1986C70CF26
:10166000C11599E5D90760F5C11528E5D20708F03D
:1016700063C1C11534E5D30778F4C11583E5D807F4
:1016800008F041C1C11592E5D90708F029C19C2F86
:101690008827816F906A54CFC11525E5D20708F4D9
:1016A00046C1C11536E5D30708F06ECF8C2F0E94D6
:1016B000F80990E0982F882788279F71906240CF83
:1016C000CD3B8CE5D80709F445C100F580E094EDE9
:1016D000CB3B2CE5D20709F433CF80E095EDCC3B32
:1016E0003CE5D30708F02CCFC1158AE5D80708F0F0
:1016F0004BCF8C2F8F700E94F80934E0D695C79598
:101700003A95E1F7CF709C2F90691ACFC03C9CE5C9
:10171000D90709F422C170F480E090EDCE3B3CE59E
:10172000D30709F40DCFCF3BDC4509F02DCF80E086
:1017300092ED06CFCE0190568115904208F024CF4D
:101740008D2F8F710E94F80990E0982F88278827A5
:101750009F718C2BB3CF81E890E4C53AD10509F491
:10176000EFCE82E890E4C63AD10509F4E9CE83E8E9
:1017700090E4E6CE82EE94E4C83AD10509F4E0CED6
:1017800089EE94E4C93AD10509F4DACE8AEE94E4FC
:10179000CA3AD10509F4D4CE85EB94E4CB3AD1050D
:1017A00009F4CECE86EB94E4CC3AD10509F4C8CE48
:1017B00083EB94E4CB3BD10509F4C2CE84EB94E4F3
:1017C000CC3BD10509F4BCCE87EB94E4CD3AD105EE
:1017D00009F4B6CE8CEC94E4C03BD10509F4B0CE4C
:1017E0008DEC94E4CE3AD10509F4AACE83E895E4D1
:1017F000CF3AD10509F4A4CE8AE895E4C13BD105DE
:1018000009F49ECE82E995E4C23BD10509F498CE55
:1018100084E995E4C33BD10509F492CE81E296E4D4
:10182000C43BD10509F48CCE83E296E4C53BD105D7
:1018300009F486CE84E296E4C63BD10509F480CE55
:1018400085E296E4C73BD10509F47ACE86E296E4B8
:10185000C83BD10509F474CE87E296E4C93BD105B3
:1018600009F46ECE8FE694E4CD3BD10509F468CE41
:1018700080E794E4CE3BD10509F462CE80E094E4A5
:10188000CA3BD10509F05CCE8AE296E459CEFE014E
:10189000FF70EE0FFF1FE45DFD4FBFCE906C50CE8A
:1018A000CE019F70906A4CCE9E01E4E0369527955C
:1018B000EA95E1F723708C2F86958695837030E248
:1018C000839FC0011124922BC37021E030E002C03D
:1018D000220F331FCA95E2F7822B932B9C6830CEE0
:1018E0009E012370332781E090E002C0880F991F8A
:1018F0002A95E2F7C695C69520E2C29FE001112421
:101900008C2B9D2BEBCF9E012370332781E090E041
:1019100002C0880F991F2A95E2F7C695C69530E256
:10192000C39FE00111248C2B9D2B9A6809CE9C2F1C
:101930008827846F906A04CE9C2F8827806F906AD6
:10194000FFCD89E390E0FCCD82EE90E0F9CD86EE0C
:1019500090E0F6CD80E091EDF3CD80E093EDF0CD19
:10196000BF92CF92DF92EF92FF920F931F93CF938C
:10197000DF938C01C0903102D0903202E0903302AC
:10198000F090340280913A0290913B02A0913C0287
:10199000B0913D02C82AD92AEA2AFB2ACFE1D0E039
:1019A000BC2ED701C6010C2E04C0B695A7959795FD
:1019B00087950A94D2F780FD0EC0219788F7B12C45
:1019C0008B2DDF91CF911F910F91FF90EF90DF90C2
:1019D000CF90BF900895B8018C2F0E943B0A0197C9
:1019E00061F3EECFCF93DF93EC010E94B00CBE0108
:1019F000DF91CF910C943B0A0E94F20C292F2F709B
:101A000092959F7092509E3078F4E92FF0E0EA5B57
:101A1000F84D0C94C326803F19F020F4883E20F442
:101A200081E00895843FE1F380E00895883EC0F3AB
:101A3000813FD1F7F5CF822F8695869586950895BB
:101A400081FF07C0559A5D9882FF05C06E9A76980F
:101A500008955598F8CF6E98FACF0F931F93CF93B0
:101A6000DF9300D00F92CDB7DEB78C010E948305C3
:101A7000823011F0843021F584E089831B830A834E
:101A800082E08093E9008FEF9091E800815095FD0E
:101A900006C095ED9A95F1F700008111F5CF809180
:101AA000E80085FF0DC050E040E063E070E0CE014B
:101AB00001960E9449048091E8008E778093E800A7
:101AC0000F900F900F90DF91CF911F910F9108957C
:101AD000CF93DF9300D00F92CDB7DEB72091B9023C
:101AE000243031F523E02983805891099B838A8330
:101AF00082E08093E9008FEF9091E800815095FD9E
:101B000006C095ED9A95F1F700008111F5CF80910F
:101B1000E80085FF0DC050E040E063E070E0CE01DA
:101B200001960E9449048091E8008E778093E80036
:101B30000F900F900F90DF91CF910895CF93DF9387
:101B4000EC010E948305823011F08430F9F482E0C8
:101B50008093E9008FEF9091E800815095FD06C0D9
:101B600095ED9A95F1F700008111F5CF8091E8008D
:101B700085FF0CC050E040E066E070E0CE010E94BE
:101B800049048091E8008E778093E800DF91CF913F
:101B90000895CF93DF93EC010E948305823011F00A
:101BA000843039F581E08093E9008FEF9091E8006F
:101BB000815095FD06C095ED9A95F1F700008111D1
:101BC000F5CF8091E80085FF14C050E040E068E068
:101BD00070E0CE010E9449048091E8008E778093E6
:101BE000E80088E0FE01AFEAB2E001900D928A952C
:101BF000E1F7DF91CF910895882309F408C1823875
:101C0000B9F40E948B0881FD02C189E30E94480754
:101C10000E940E072FEF81EE94E02150804090400B
:101C2000E1F700C0000089E30E943B070C940E0717
:101C30008338A1F40E948B0880FDE9C083E50E94EF
:101C400048070E940E072FEF81EE94E0215080405C
:101C50009040E1F700C0000083E5E6CF8438A1F4AE
:101C60000E948B0882FDD3C087E40E9448070E942F
:101C70000E072FEF81EE94E0215080409040E1F775
:101C800000C0000087E4D0CF9CEF980F913A18F481
:101C90000E944807CBCF90E2980F983068F4877085
:101CA00021E030E001C0220F8A95EAF780913802E6
:101CB000822B80933802BACF9BE5980F933070F453
:101CC000853A31F0863A39F083E890E00C94EA07DF
:101CD00081E890E0FBCF82E890E0F8CF98E5980F9C
:101CE000973108F08EC0883A09F446C0893A09F461
:101CF00046C08A3A09F446C08B3A09F446C08C3A89
:101D000009F446C08B3B09F446C08C3B09F446C03D
:101D10008D3A09F446C0803B09F446C08E3A09F476
:101D200046C08F3A09F446C0813B09F446C0823B65
:101D300009F446C0833B09F446C0843B09F446C01D
:101D4000853B09F446C0863B09F446C0873B09F44D
:101D500046C0883B09F446C0893B09F446C08D3B28
:101D600009F446C08E3B09F446C08A3B09F446C0DC
:101D700090E080E00C94D40782EE90E0FBCF89EEF7
:101D800090E0F8CF8AEE90E0F5CF85EB90E0F2CFCF
:101D900086EB90E0EFCF83EB90E0ECCF84EB90E02C
:101DA000E9CF87EB90E0E6CF8CEC90E0E3CF8DECD1
:101DB00090E0E0CF83E891E0DDCF8AE891E0DACFF0
:101DC00082E991E0D7CF84E991E0D4CF81E292E03B
:101DD000D1CF83E292E0CECF84E292E0CBCF85E216
:101DE00092E0C8CF86E292E0C5CF87E292E0C2CF10
:101DF0008FE690E0BFCF80E790E0BCCF8AE292E030
:101E0000B9CF803F20F00E9454060C94F20608954A
:101E1000CF93C82F0E94FC0DC93349F42FEF87EEF2
:101E200093E0215080409040E1F700C000008C2FEB
:101E3000CF910C9497080F931F93CF93DF93C62FE6
:101E4000D42F022FFC0182818823A1F06093AE0180
:101E50000E94E6069093A9018093A801C77081E0D3
:101E600001C0880FCA95EAF7DF91CF911F910F91BA
:101E70000C94CA071091AE01161335C08091A801C9
:101E80009091A9010E94BC06883C910560F5C0E2D2
:101E9000CD0F1D17B9F080E2810F883040F4177024
:101EA00081E001C0880F1A95EAF70E94BF07C83089
:101EB00048F481E09D2F977001C0880F9A95EAF74A
:101EC0000E94CA07802F0E94080FC83098F4D7706C
:101ED00081E001C0880FDA95EAF7DF91CF911F9179
:101EE0000F910C94BF07C77081E001C0880FCA959D
:101EF000EAF7F3CFDF91CF911F910F910895809171
:101F0000A60280FD0AC0E0E6F1E011821082128292
:101F1000339651E0E83AF507C1F7539A3BB1377F62
:101F20002BB128604FB7F89480E691E0FC01519105
:101F3000CF0168E02BB9000000C057FF3BB9550F37
:101F4000000000C000C000C03BB900C06A9591F716
:101F5000F1E0883A9F0751F74FBF87EC90E0019777
:101F6000F1F700C000000895EF92FF920F931F93C6
:101F7000CF93DF938C01C0E6D1E0F12CE12CF80186
:101F800094816091A8028091A702FCE0EF16F10411
:101F9000FCF49923F9F09E014091A9020E94620984
:101FA0002FEFE21AF20A239688E1E816F10439F7D6
:101FB0000E947F0FF801848190E00196817099273B
:101FC0008483DF91CF911F910F91FF90EF9008953F
:101FD000992309F39E0140E0E1CFEF92FF921F9316
:101FE000CF93DF93EC0180E6E82E81E0F82E10E03D
:101FF0008C8197014091A9026091A802810F0E94F3
:102000006209165F83E0E80EF11C103F89F70E9419
:102010007F0F9A818C8190FF08C08F5F8C83DF9146
:10202000CF911F91FF90EF9008958150F7CFBF920D
:10203000CF92DF92EF92FF920F931F93CF93DF9394
:10204000FC018281DD24DA9480FD02C0DD24D3947A
:1020500000E611E0D0E0C0E028E1B22EF8011182E4
:102060001082128294E0E92EF12CC12C80915D0146
:102070008C0D89310CF43DC06B2D0E946B26892F8D
:10208000082E000C990B8C179D0791F48091A902E2
:102090008E9DA0018F9D500D112455954795559506
:1020A000479598016091A8028091A7020E94620959
:1020B000CD0CF1E0EF1AF108C9F621960D5F1F4F24
:1020C000C831D10559F60E947F0F80915D0191E0E2
:1020D000D91215C0811111C087E180935D01DF9194
:1020E000CF911F910F91FF90EF90DF90CF90BF9015
:1020F000089587FFC5CF885EC3CF8150EECF90E0B3
:102100000196BE010E948D26E8CF0F931F93CF93B7
:10211000DF93C0E6D1E0FE01118210821282339675
:1021200081E0E83AF807C1F710E000E080915E0135
:10213000082E000C990B081719078CF180910C01DF
:10214000082E000C990B801791074CF19E014091CD
:10215000A9026091A8028091A7020E9462090F5F04
:102160001F4F23960831110509F70E947F0F8091B8
:102170000B0190915E01980F90935E0120910C01EC
:10218000280F20930C01121614F497311CF081953E
:1021900080930B01DF91CF911F910F9108951982C8
:1021A00018821A82DCCFEF92FF920F931F93CF9386
:1021B000DF93EC018C819D810196817099279D832D
:1021C0008C8380E6E82E81E0F82E10E005E5812F73
:1021D00086952C813D81820F932F911D81709701EF
:1021E0004091A9026091A802809F802D11240E9435
:1021F00062091F5F83E0E80EF11C183141F7DF919F
:10220000CF911F910F91FF90EF900C947F0F9091C1
:10221000A60290FF0CC0E0E6F1E081836083428378
:10222000339691E0E83AF907C1F70C947F0F0895CF
:102230000F931F93CF93DF9300D00F92CDB7DEB7EC
:102240008C0180915F0181110AC09E012F5F3F4F79
:102250004FEF6FEF0E9462098A8180935F01F8015E
:102260006481613069F080915F0140E0662361F034
:1022700040E0623011F440915F0180E060E004C012
:1022800060915F0140E080E00E940711F8018481C5
:1022900090E0019663E070E00E948D2684830F90A9
:1022A0000F900F90DF91CF911F910F910895CF93D1
:1022B000DF9300D00F92CDB7DEB79091A60290FFCA
:1022C0000AC09E012F5F3F4F0E9462094B816981C6
:1022D0008A810E9407110F900F900F90DF91CF918C
:1022E0000895CF93DF93EC01EC81F0E0EF5CFC4FBD
:1022F0004491E6EAF2E0628181810E9457118C816B
:102300008F5F8C83DF91CF910895CF93DF93EC01A2
:10231000E6EAF2E0438162818C810E9457118C8150
:102320008F5F8C83DF91CF9108953F924F925F92A0
:102330006F927F928F929F92AF92BF92CF92DF92D5
:10234000EF92FF920F931F93CF93DF9303E412E07A
:102350006DE371E0D801412CEE24E394F12C6D90F3
:102360007C9011971D921D92EB018991BE01E82F7F
:10237000E295EF70F0E091A18F70570101C0AA0CB7
:102380008A95EAF7892F8A2981A382A13A2C309471
:10239000832182A3D0EADA95F1F789E4C82E81E09F
:1023A000D82E90E080E0AD0142505109E6015990ED
:1023B0006E01252D22952F7030E0E90128A1EA0158
:1023C0008880998030E0D52DDF7002C03595279543
:1023D000DA95E2F720FD47C09701082E02C0220FD0
:1023E000331F0A94E2F728293929EA01398328831F
:1023F000019689309105D1F681A1D32DD823D1A39F
:1024000082A1A82AA2A281E0FA01208131812615A9
:10241000370509F480E0482AF2E0AB35BF0709F040
:102420009ECF442019F181E080935C010E94E60672
:1024300090935B0180935A0180915A0190915B01C6
:102440000E94BC060697B0F0E1E6F2E0D8018D915B
:102450009D918D0181939193B2E00B351B07B1F7EC
:1024600010925C0107C030E020E0BDCF80915C019C
:102470008111E2CF842DDF91CF911F910F91FF90B9
:10248000EF90DF90CF90BF90AF909F908F907F9014
:102490006F905F904F903F900895EF92FF920F934F
:1024A0001F93CF93DF938C01E62EF8012491222312
:1024B00009F44BC0E8012196213049F4FE01149142
:1024C000812F0E94FC0D812F0E94970806C02230A8
:1024D00089F4FE0184910E94FC0D8E010F5F1F4F55
:1024E0008E2D815010F3EFE9FFE03197F1F700C036
:1024F0000000F7CF233019F4FE018491E5CF30E0DE
:10250000F901E455FE4FF490F901E45DFE4FD491DA
:10251000F901E455FF4FC491DD2319F081EE0E94CB
:10252000FC0DCC2319F086EE0E94FC0D8F2D0E942D
:10253000080FCC2319F086EE0E949708DD2319F0CE
:1025400081EE0E949708E801C8CFDF91CF911F91DB
:102550000F91FF90EF900895CF9384E090E00E9458
:10256000EF26C82F81E290E00E94EF26982F8C2F53
:10257000CF91089590E080E00E94FD2621E08C3EFE
:102580009E4F09F020E0822F0895982F990F990F00
:10259000990F8091B0018770892B8093B001887F5B
:1025A00091E009F490E06091B00190FB60F96093D4
:1025B000B00186E090E00E9403278091B0018695EB
:1025C000869586950C94F408CF92DF92EF92FF9255
:1025D0006B017C010E945309B701A60188E090E0DD
:1025E000FF90EF90DF90CF900C9415275F926F9241
:1025F0007F928F929F92AF92BF92CF92DF92EF9293
:10260000FF920F931F93CF93DF9300D00F92CDB71C
:10261000DEB7182F762E042F622E9091A60290FF1F
:1026200029C0E92FE695AE2FB0E0A85EBE4F8C9191
:102630008093A2029E7F923081F59E012F5F3F4FD3
:10264000812F0E9462094B8169818A810E94071152
:102650001093A7027092A8020093A902662051F07D
:102660006091A6027091A7028091A8029091A902A0
:102670000E94E4120F900F900F90DF91CF911F9165
:102680000F91FF90EF90DF90CF90BF90AF909F9011
:102690008F907F906F905F900895823019F4009131
:1026A000A902D6CF863019F41091A702D1CF893074
:1026B000D9F3893169F6E9518E2F8170582EE6954C
:1026C000F0E0E45DFC4FA590B490BB2480E6E82EDA
:1026D00081E0F82ED12CC12C98E1892E912CC601D5
:1026E000B4010E947926812F511013C0860F9701E3
:1026F000402F672D0E946209CA0CDB1C83E0E80EA4
:10270000F11C88EAE81681E0F80649F70E947F0F7D
:102710009FCF861BECCFE6EAF2E083E08083118254
:102720008FEF8283838314826081718182819381A0
:102730000C94E4126CEE7EEF90E080E00E94212782
:1027400060E082E090E00E94032760E083E090E098
:102750000E94032710923A0210923B0210923C0210
:1027600010923D0260E084E090E00E94032760E068
:1027700081E290E00E94032760E085E090E00E9403
:10278000032760E086E090E00E9403276FEF87E078
:1027900090E00E94032740E050E0BA0188E090E01A
:1027A0000E94152760E08DE090E00E94032740E042
:1027B00050E0BA0188E190E00E94152760E087E1CF
:1027C00090E00E94032740E050E0BA018CE190E0E5
:1027D0000E94152760E080E290E00E94032740E01D
:1027E00050E0BA018FE090E00E94152740E050E0F1
:1027F000BA0183E190E00C9415270E94BA1281116E
:1028000002C00E949A1386E090E00E94EF26809317
:10281000B001803220F0877088618093B001909180
:10282000B001892F817090FF04C0892F869586950D
:1028300086950C94F40810923802E4E5F1E086E005
:10284000DF011D928A95E9F70C9400081F93CF933E
:10285000DF93CDB7DEB7AA970FB6F894DEBF0FBEF1
:10286000CDBF8BEB92E02091F100FC012193CF01D1
:10287000F2E0833C9F07B9F78091BC02833009F4F2
:102880006FC0B8F4813009F446C0823009F4B0C09A
:102890008091E80083FF87C28091BB029091BC02C7
:1028A0009A3008F080C2E92FF0E0EC5AF84D0C9411
:1028B000C3268A3009F48BC08B3009F46EC089308E
:1028C00039F78091BB02813219F78091BF02909154
:1028D000C0020297E8F68091E800877F8093E800C5
:1028E0008091E80082FF37C09091F3008091F20060
:1028F000029729F48091F1008B7F813021F480913F
:10290000F1008093AE028091E8008B778093E8001D
:102910000E947304BDCF8091BB02813A09F0B8CF09
:102920008091E800877F8093E8008091BF029091BA
:10293000C002892B61F468E08FEA92E070E00E94A7
:1029400025058091E8008B778093E800A1CF60E0B7
:1029500090E080E0F3CF8091B9028111C1CF98CF90
:102960008091BB02813A09F093CF8091BF02909190
:10297000C002892B09F08CCF8091E800877F80937B
:10298000E8008091E80080FFFCCF809117018093E0
:10299000F1008091E8008E77B9CF8091BB0281323F
:1029A00009F076CF8091BF029091C002892B09F087
:1029B0006FCF8091E800877F8093E8000E947304C6
:1029C0008091BD02809317010E941B1461CF8091FA
:1029D000BB02813209F05CCF8091E800877F809351
:1029E000E8000E9473048091BE028093AD0250CF34
:1029F0008091BB02813A09F04BCF8091E800877F3C
:102A00008093E8008091E80080FFFCCF8091AD02C8
:102A1000BECF803899F0823809F0C5C18091BF02DD
:102A20008F70873008F0BFC18093E9008091EB0080
:102A300085FB882780F91092E90006C08091B702D3
:102A40009091B802911182609091E800977F9093E5
:102A5000E8008093F1001092F1008091E8008E77F9
:102A60009EC1882309F48CC1823009F09CC18091F9
:102A7000BD0281118FC18091BF028F702FEF280F8F
:102A8000263008F090C18093E9002091EB0020FFF0
:102A900081C1933031F48091EB0080628093EB0030
:102AA00079C19091EB0090619093EB0021E030E0D0
:102AB00001C0220F8A95EAF72093EA001092EA00FB
:102AC0008091EB008860EACF81116DC11091BD0249
:102AD0001F778091E3008078812B8093E3008091C1
:102AE000E800877F8093E8000E9473048091E800EB
:102AF00080FFFCCF8091E30080688093E30082E058
:102B0000111183E08093B9024EC18058823008F0E1
:102B10004AC18091BD029091BE028C3D23E0920794
:102B2000A1F583E08A838AE289834FB7F894DE01B6
:102B3000139620E03EE051E2E32FF0E0509357007F
:102B4000E49120FF03C0E295EF703F5FEF708E2F9E
:102B500090E0EA30C0F0C7968D939D932F5F2431AB
:102B600059F74FBF8091E800877F8093E8006AE2C1
:102B700070E0CE0101960E9425058091E8008B77D8
:102B80008093E80010C1C096E7CF4091BF025091FA
:102B9000C002292F33272330310509F445C078F5C9
:102BA0002130310509F47BC08BE390E0E3EDF6E0E2
:102BB0002230310509F0F7C02091E800277F2093EB
:102BC000E8002091C1023091C2028217930708F4F5
:102BD0009C0140E02115310509F070C041116EC023
:102BE0008091E80082FDC9CF8091B902882329F243
:102BF000853019F28091E80083FFF2CFBECF2132F9
:102C0000310509F440C02232310509F0CCC041152C
:102C1000510509F44EC04130510509F0C4C085E8A2
:102C200090E0EEE0F6E0C8CF992781309105D9F029
:102C3000009771F082309105F1F0039709F0B3C06D
:102C4000E0E2F7E0E4918E2F90E0E0E2F7E007C0E9
:102C5000ECE5F7E0E4918E2F90E0ECE5F7E00097EB
:102C600009F4A1C0A9CFE2E3F7E0E4918E2F90E050
:102C7000E2E3F7E0F4CFE6E2F7E0E4918E2F90E0B4
:102C8000E6E2F7E0ECCF4115510571F04130510516
:102C900009F089C089E090E0EEEFF6E08DCF82E1A7
:102CA00090E0EEE0F7E088CF89E090E0E5EEF6E036
:102CB00083CF80E490E0E3E9F6E07ECF8091B90233
:102CC000882309F45ACF853009F457CF8091E80062
:102CD00083FD53CF8091E80082FD82CF8091E80090
:102CE00080FF78CF9091F3008091F200211531059B
:102CF00019F08830910550F041E0089709F040E064
:102D00008091E8008E778093E80064CF44914093EF
:102D1000F1003196215031090196E8CF803809F051
:102D200042C08091E800877F8093E8008091BA02DA
:102D30008093F10092CE811136C01091BD02123005
:102D400090F58091E800877F8093E8001093BA02A5
:102D50000E947304112311F084E005C08091E30008
:102D600087FDFACF81E08093B90242E061EC81E017
:102D70000E94920442E261EC82E00E94920413C03D
:102D80008091BD02813079F481E0933009F080E0D8
:102D90008093B8021092E9008091E800877F8093C9
:102DA000E8000E9473048091E80083FF0AC08091CC
:102DB000E800877F8093E8008091EB008062809339
:102DC000EB00AA960FB6F894DEBF0FBECDBFDF9121
:102DD000CF911F9108956091A602669570E04BE037
:102DE00050E080E091E00E943727892B19F481E0C0
:102DF0008093A3020E94E60690939D0280939C021A
:102E000008959091A60290FF36C09170811129C05B
:102E100092609093A602662351F06091A602709191
:102E2000A7028091A8029091A9020E94E4126091E9
:102E3000A602669570E04BE050E080E091E00E94D1
:102E40003727892BA9F01092A30281E080939F027B
:102E500020E04091A9026091A8028091A7020C9401
:102E6000F612853210F09864D4CF880F982BD1CF0A
:102E70000E94EB16EACF089561E00C94011780914F
:102E8000A6028695815009F484E261E00C94011752
:102E90008091A60286958F5F853208F081E061E01F
:102EA0000C9401174F925F926F927F928F929F9234
:102EB000AF92BF92CF92DF92EF92FF920F931F9348
:102EC000CF93DF9300D000D00F92CDB7DEB77C0157
:102ED000FC0183819481892B39F01081D180812F6D
:102EE0008D218F3F09F056C70F900F900F900F90D4
:102EF0000F90DF91CF911F910F91FF90EF90DF9096
:102F0000CF90BF90AF909F908F907F906F905F9089
:102F10004F9008950E94B00C082F682F89819A81E4
:102F20000E948907E12FF0E029E0D29EE00DF11D1B
:102F300011243CE6039FE00DF11D1124EE0FFF1F4D
:102F4000EF5CFB4F0591149104308DE51807A9F152
:102F500005309DE5190709F4A0C0033FFCE51F07F4
:102F600009F4B6C008F0A2C0083D3CE5130709F417
:102F7000ABC0093D8CE5180709F4B6C0073D9CE5D8
:102F8000190721F526E241EE61EEC7010F900F907F
:102F90000F900F900F90DF91CF911F910F91FF90A5
:102FA000EF90DF90CF90BF90AF909F908F907F90E9
:102FB0006F905F904F900C941B0FF70182818823D4
:102FC00029F064E183EF95E00E944D12F7018281C0
:102FD000882309F4F0C61092AE010B3CFCE51F07F4
:102FE00009F462C208F0E3C0033C3CE5130709F4AE
:102FF000E9C108F0B8C00631ECE51E0708F077C05B
:103000000230FCE51F0708F01FC101152CE512076F
:1030100009F46EC101301C4509F499C1F701008122
:103020001181882309F4A2C3C8010E94B00CD82ED4
:10303000682FC8010E948907B8018D2D0E943B0AA4
:103040008C01882EF701A580A2943FE0A322D280B4
:10305000D1101092370280913502877079F0DD200F
:1030600069F080E2800F883048F082E00E944808D2
:10307000809135028770CC24C3948111C12CB12E6C
:10308000B2942FE0B222FDE0FB1508F4A9C3EB2DAA
:10309000F0E0E25AF84D0C94C326F70182818823B0
:1030A00009F494CF60E081EE95E08ECF053FECE52A
:1030B0001E07B1F088F0063F2CE5120709F086CF15
:1030C00027E245EE66EE61CF27E245EE65EE5DCF85
:1030D00026E241EE60EE59CF27E245EE64EE55CF91
:1030E00026E241EE62EE51CF28E241E0EFCF063119
:1030F0009CE5190709F40AC3023C1C4509F08ECF70
:103100008091A60280FF43C18E7F8093A6026091CA
:10311000A6027091A7028091A8029091A9020E9434
:10312000E4121092A3029FEFE0E7F2E09150E0403A
:10313000F040E1F700C000000F900F900F900F904B
:103140000F90DF91CF911F910F91FF90EF90DF9043
:10315000CF90BF90AF909F908F907F906F905F9037
:103160004F900C947F0F073CFCE51F0709F47FC1CB
:1031700080F4053C3CE5130709F45AC108F43DC14D
:103180008091A70221E04091A9026091A802885095
:1031900057C1093C9CE5190709F47CC108F473C1C7
:1031A0004091A90228E0421B08F440E079C1033DA8
:1031B000FCE51F0709F4BEC120F50F3C3CE51307F1
:1031C00009F4A0C178F40D3C9CE5190709F498C1F5
:1031D00008F490C10E944B098250833008F411C159
:1031E00082E0D9C0013DFCE51F0709F49BC108F44A
:1031F00091C10E944B098551823008F402C185E1DA
:10320000CAC00D3D3CE5130709F4A0C188F4053D93
:10321000ECE51E0709F498C108F48EC10C3D1C456D
:1032200009F0FCCE882309F45FCE1092A4025CCE94
:103230000E3D3CE5130709F493C098012A5F3C4515
:103240002930310508F0EACE882309F4E7CE0E9440
:10325000BA12811102C00E949A130E94AC1290937C
:103260005C0280935B0200312CE5120709F41DC259
:1032700008F0A7C108308CE5180709F408C208F067
:1032800079C10430ECE51E0709F4F5C108F062C10C
:1032900002302CE5120709F4E8C180915B028260DC
:1032A00003301C4509F4E4C160915B0210915C029B
:1032B00084E090E00E940327612F81E290E00E9469
:1032C00003270F900F900F900F900F90DF91CF91E9
:1032D0001F910F91FF90EF90DF90CF90BF90AF9034
:1032E0009F908F907F906F905F904F900C941B14E5
:1032F0000E941B148FEF94E3ECE081509040E0407B
:10330000E1F700C0000081E08093E00080E280935C
:10331000D8001092C9008FE19EE40197F1F700C038
:10332000000087E090EBDC018093C3029093C4021D
:10333000A093C502B093C60288E19CE00FB6F89452
:10334000A895809360000FBE90936000FFCF90918E
:103350008302892F8E7F90FF816080938302C4CD8A
:103360000F900F900F900F900F90DF91CF911F91C2
:103370000F91FF90EF90DF90CF90BF90AF909F9014
:103380008F907F906F905F904F900C949A13816014
:103390008093A60286950F900F900F900F900F903C
:1033A000DF91CF911F910F91FF90EF90DF90CF9021
:1033B000BF90AF909F908F907F906F905F904F9055
:1033C0000C943C17809138028272D9F00F900F90C4
:1033D0000F900F900F90DF91CF911F910F91FF9061
:1033E000EF90DF90CF90BF90AF909F908F907F90A5
:1033F0006F905F904F900C943F17809138028272CB
:1034000029F30F900F900F900F900F90DF91CF91B5
:103410001F910F91FF90EF90DF90CF90BF90AF90F2
:103420009F908F907F906F905F904F900C94481773
:103430008091A70221E04091A9026091A802885FD3
:103440000F900F900F900F900F90DF91CF911F91E1
:103450000F91FF90EF90DF90CF90BF90AF909F9033
:103460008F907F906F905F904F900C94F6126091C8
:10347000A80228E0620F08F46FEF21E04091A90252
:103480008091A702DDCF6091A80228E0621B08F4BA
:1034900060E0F3CF4091A90228E0420F08F44FEF1B
:1034A00021E06091A802ECCF8091AA02833018F449
:1034B0008F5F8093AA026091A6027091A70280910B
:1034C000A8029091A9020F900F900F900F900F906B
:1034D000DF91CF911F910F91FF90EF90DF90CF90F0
:1034E000BF90AF909F908F907F906F905F904F9024
:1034F0000C94E4128091AA028823E9F28150D9CF7A
:1035000081E049CF0E944B098650823008F479CF80
:1035100086E041CF0E944B098950853008F471CF75
:1035200089E039CF0E944B098F50853008F469CF6C
:103530008FE031CF88E12FCF0E944B09895189302C
:1035400008F45FCF89E127CF83E225CF82E0809323
:10355000A402CACC06308CE5180709F494C0809107
:103560005B02886007301C4508F482C080915B02D2
:1035700080627EC080915B028D7F0C30ECE51E077F
:1035800009F476C070F480915B028C600A302CE5FF
:10359000120709F46DC008F47EC080915B028E7F33
:1035A00067C00E308CE5180709F47BC080915B0280
:1035B0008B7F0F301C4508F45BC080915B028F7ECF
:1035C00057C00B3FECE51E0709F459C030F5033135
:1035D0002CE5120709F471C078F401318CE5180765
:1035E00009F467C002311C4509F05ECE0E941B142D
:1035F00080915B028F773CC00531ECE51E0709F432
:1036000064C008F478C080915C0281600A3F1C4568
:1036100009F04ACE80935C0247CE0F3F3CE513078A
:1036200009F44FC088F480915C028D7F0D3F9CE5CA
:10363000190781F380915C028E7F0E3F1C4550F389
:1036400080915C028360E6CF0130FDE51F0709F43D
:103650005BC008F446C060E002301D4509F024CE8E
:103660008EE090E00E9403271FCE80915B02816074
:1036700080935B0219CE80915B028460F9CF8091C8
:103680005C028260C7CF80915B028061F1CF809144
:103690005B028064EDCF0E941B1480915B02806806
:1036A000E7CF80915B02877FE3CF80915B028F7DC4
:1036B000DFCF80915B028F7BDBCF80915B02837FCA
:1036C000D7CF80915C028C7FA5CF80915B0282FB7B
:1036D000992790F921E0922790FB82F990FB83F9DA
:1036E000C7CF80915C02982F909591708E7F892B27
:1036F00090FB81F98FCF0E941B1490915B02892F60
:1037000097FB87F98058B4CF61E0AACF8091380247
:103710008A7A91E009F490E09093AF0181111AC088
:1037200089E20E9448070F900F900F900F900F9022
:10373000DF91CF911F910F91FF90EF90DF90CF908D
:10374000BF90AF909F908F907F906F905F904F90C1
:103750000C940E0785E3E5CF8091AF01811104C081
:1037600089E20E943B07DFCF85E3FBCFC8010E94BF
:103770006107D82E61CC212F2F70A22E107F19F057
:10378000A29490EFA922DD20C9F0AA2069F080E27E
:10379000800F883010F081100BC080913802A82A69
:1037A000A09238020E940E07802F0E94FC0D18C0C4
:1037B00080913702A82AA0923702F4CF802F0E946E
:1037C0009708AA2069F0A094005E083010F08110DC
:1037D0003DC080913802A822A09238020E940E07B4
:1037E000EB2DE850FF0B349720F40E948B080E94C9
:1037F000200DCC2009F478CB8091350280FD74CB6C
:10380000F70112828595859585950E946008C7010C
:103810000E945217809135028595859585950F9068
:103820000F900F900F900F90DF91CF911F910F91FC
:10383000FF90EF90DF90CF90BF90AF909F908F90D0
:103840007F906F905F904F900C9425088091370285
:10385000A822A0923702C2CF312F3F70932E107F43
:10386000103219F0929480EF9822882071F091E044
:10387000891661F1DD20B9F1AA2071F1F701858186
:1038800080FF92CF8F70858327C0DD2091F09091CB
:103890003902892D892BA11003C00E94CA07A0CF2D
:1038A000E1E0AE12FACF981709F49ACF809339026B
:1038B00097CFA11006C00E940807892D0E94BF075C
:1038C0008FCFF1E0AF1609F48BCFF5CFDD2031F0CB
:1038D00025E02A1508F484CF892DDFCF34E03A158E
:1038E00008F47ECFEACFAA2041F3093349F4FFEF71
:1038F00027EE33E0F15020403040E1F700C00000F7
:10390000802F0E9497086CCF812F869586958370B3
:1039100061F0813009F064CFC8019370D11002C00A
:1039200090E080E00E94D4075BCFC8019370D11073
:1039300002C090E080E00E94EA0752CFDD2009F14A
:10394000053F99F0063FB9F0043F49F48091B10179
:103950009091B20181609093B2018093B101802F68
:103960000E9454060E94F2063BCF8091B1019091D3
:10397000B2018260F0CF8091B1019091B201846078
:10398000EACF053F89F0063FA9F0043F49F4809152
:10399000B1019091B2018E7F9093B2018093B101F9
:1039A000802F0E949305DECF8091B1019091B201EA
:1039B0008D7FF2CF8091B1019091B2018B7FECCFDE
:1039C000812F837009F066C0D1100ACF802F8295B5
:1039D00086958770880F880F602F6F70462E512C48
:1039E000712C612C082E04C0440C551C661C771CDD
:1039F0000A94D2F740E050E0BA0104FF0FC04FE054
:103A000050E060E070E004C0440F551F661F771F50
:103A10008A95D2F74095509560957095812F86953F
:103A200086958370823019F1D8F400913A02109192
:103A30003B0220913C0230913D02813069F04429E3
:103A4000552966297729CB01BA0160237123822386
:103A500093230E948108C4CE402A512A622A732AE5
:103A6000CB01BA016429752986299729F2CF442907
:103A700055296629772900913A0210913B0220913D
:103A80003C0230913D02CB01BA01602771278227A9
:103A90009327DFCF8695DD2011F0812F8170882359
:103AA00009F49ECE802F829586958770880F880FA7
:103AB000602F6F70462E512C712C612C082E04C083
:103AC000440C551C661C771C0A94D2F740E050E069
:103AD000BA0104FF0FC04FE050E060E070E004C0A6
:103AE000440F551F661F771F8A95D2F74095509552
:103AF00060957095812F869586958370823019F137
:103B0000D8F40091310210913202209133023091A9
:103B10003402813069F04429552966297729CB017F
:103B2000BA0160237123822393230E941B0858CE7D
:103B3000402A512A622A732ACB01BA0164297529C5
:103B400086299729F2CF442955296629772900919A
:103B50003102109132022091330230913402CB01B4
:103B6000BA016027712782279327DFCF1F70DD20DE
:103B700029F0812F0E946008802F8FCE802F0E9415
:103B8000BF07812F0E9425082BCE802F92EF891628
:103B900009F450C0981578F0E0EF8E1619F1F1EFA6
:103BA0008F1609F43FC0DD2009F467C0A110FCCDD9
:103BB000812F8F713CC023EF821609F440C034EF8F
:103BC0008312F1CFDD2009F44DC01F71812F0E94B7
:103BD0006008E8E01E9FC0011124836080933502D5
:103BE000812F25C0DD20C9F084E08A1508F4F8CDC6
:103BF0001F7161E070E080E090E004C0660F771F05
:103C0000881F991F1A95D2F7009131021091320244
:103C10002091330230913402A4CF95E09A1508F434
:103C2000DFCDE6CF812F8F71DD2009F4ABCF0E946D
:103C30006008D6CD812F8F71DD20C9F3A3CF60E05E
:103C400070E0CB01DD2009F470CF1F7161E070E0FE
:103C500080E090E004C0660F771F881F991F1A95B7
:103C6000D2F763CF81E00E944808F1E0FA1508F02E
:103C7000B7CD82E00E944808B3CDAA2059F089331D
:103C800009F03ECE2FEF37EE83E0215030408040E8
:103C9000E1F734CE812F8F7175CFD110A1CD1F7078
:103CA0001230D1F1B8F4112309F1113009F098CD97
:103CB0008091B001982F987F09F44DC0885080936F
:103CC000B001887F91E009F490E06091B00190FB31
:103CD00060F91FC0143009F45BC008F442C080E0F2
:103CE000153009F07DCD0E94C5127ACD8091B001CA
:103CF000982F969596959695933040F49F5F990FDF
:103D0000990F990F8770892B8093B0016091B00152
:103D100061606093B0011BC06091B00160FF0BC097
:103D20006E7F6093B00186E090E00E94032780E000
:103D30000E94F40855CD60FD53CD61606093B001E1
:103D4000613019F489E08093B0016091B00186E0A0
:103D500090E00E9403278091B00186958695869514
:103D6000E7CF9091B001892F8695869586958F5FD4
:103D70008F719770843048F4880F880F880F892BD3
:103D80008093B0018091B0019CCF9093B001FACFA5
:103D900083E0A9CF85E0DE01119601900D928A950E
:103DA000E1F7F701228189819A812111B3C80E942C
:103DB0006107082FB7C80B3CFCE51F0709F494C83E
:103DC00020F5033C3CE5130709F48EC808F08CC8C5
:103DD0000631ECE51E0778F40230FCE51F0708F019
:103DE0001DC901152CE5120709F47EC801301C45D8
:103DF00009F47AC813C906319CE5190709F4ACCC5B
:103E0000023C1C4509F470C809C9033DFCE51F07C5
:103E100009F46AC808F468C80D3D3CE5130709F4C5
:103E200063C860F4053DECE51E0709F45DC808F4BD
:103E30005BC80C3D1C4509F457C8F0C80E3D1C4535
:103E400009F452C8EBC81F93CF93DF938091B80158
:103E5000807FC1F48091B5018823A1F08091EA01AF
:103E6000C091B9016091B3017091B4014091B60164
:103E70005091B701D62FD723DA01A095B09516E05F
:103E8000C81304C0DF91CF911F91089590E04115B0
:103E9000510511F0DF3F31F401968770F1CF2A0F01
:103EA0003B1F17C0189FF001199FF00D1124E65415
:103EB000FE4F21812713F0CF20812613EDCF2281E1
:103EC0002111EACF238134812417350740F3241BC5
:103ED000350B283C310500F72091B8012F70206187
:103EE0002093B80126E0289FF001299FF00D1124AE
:103EF000E154FE4F80818F708061808383EB91E07D
:103F00000E945217DF91CF911F910C94B507BF9279
:103F1000CF92DF92EF92FF920F931F93CF93DF9395
:103F2000CDB7DEB761970FB6F894DEBF0FBECDBF39
:103F30008C0185E0F801DE011D9601900D928A95B5
:103F4000E1F7D8012C9111963C9111971296EC90C3
:103F500012978091B6019091B701009709F463C15F
:103F60004091B3015091B401642F65236F3F09F470
:103F70005AC11396CD90DC90B090B501BB2009F4E6
:103F800013C1C816D906C0F1F601E81BF90BCF0121
:103F9000FF24F394883C910508F0F12C8091B8013E
:103FA000982F907FFF2009F4C1C091117DC0FE2C95
:103FB000531327C0421325C0E11023C08F708061C6
:103FC0008093B80183EB91E00E9452178091B80171
:103FD000D80115968C938F2D61960FB6F894DEBF9D
:103FE0000FBECDBFDF91CF911F910F91FF90EF904A
:103FF000DF90CF90BF900895809590958C0D9D1D7A
:10400000C7CFCD2829F0822F83238F3F09F029C104
:1040100080E0B82FB170DB2E80FF3CC08091EA01B8
:104020004091B90156E0841315C02D873E878D85D8
:104030009E850E94F20C292F22952F702230F0F0DD
:10404000243018F59F70F1F0F8019581907FD1F43C
:10405000D12C1EC090E0589FF001599FF00D112403
:10406000E654FE4F6181361306C06081261303C0FB
:104070006281E6120FC001968770D5CF9F7011F054
:10408000882331F3805E883018F3C8010E945217EC
:10409000FD2CA1CFEE2009F49ECF8091B801816064
:1040A0008093B801F12C97CF531313C0421311C062
:1040B000E1100FC0D80115968C93C8010E945217C9
:1040C00086E0F801A3EBB1E001900D928A95E1F74B
:1040D00082CF2D873E878D859E850E94FC0C88238C
:1040E00009F1EE20F9F08091B801803270F0209152
:1040F000B3013091B40138872F831986DB86CA86D5
:104100008C87CE0107960E94521786E0F801A3EB38
:10411000B1E001900D928A95E1F70E94231FFF24E0
:10412000F39459CFC8010E945217F9CF91110CC0D6
:1041300083EB91E00E94521786E0E3EBF1E0DF01B0
:104140001D928A95E9F747CF531312C0421310C04E
:10415000E1100EC0F8018583C8010E945217E3EBFD
:10416000F1E086E0DF011D928A95E9F7FB2C33CF61
:104170002D873E878D859E850E94FC0C882391F2B9
:10418000EE2081F28091B801803208F4BECF2091F8
:10419000B3013091B4013A8329831B82DD82CC8242
:1041A0008E83CE010196AFCFC816D90640F0C81A4B
:1041B000D90AB8ECCB16D10448F0F12CBDCF8095CC
:1041C00090958C0D9D1D883C9105B8F7FE2CEE2036
:1041D00009F4A8CF531316C0421314C08091B8013C
:1041E00080FD6ECF982F907F09F46ACFF801858308
:1041F000903F09F462CF982F907F905F8F70892B4A
:1042000085835BCF2D873E878D859E850E94FC0C24
:1042100081117BCF8091B80181608093B801C80182
:104220000E945217D8CEEE2009F47CCF2D873E870E
:104230008D859E850E94FC0CF82E882309F472CF90
:1042400086E0F801A3EBB1E001900D928A95E1F7C9
:104250008091B3019091B4010E94F20C0E94231F3F
:10426000BACE81E08E25D5CE1F93CF93DF93CDB705
:10427000DEB767970FB6F894DEBF0FBECDBF4B8B8E
:104280005C8B6D8B7E8B8F8B1A8A198A85E0FE0181
:104290007396DE011D9601900D928A95E1F786E0F6
:1042A000FE013D96DE01179601900D928A95E1F789
:1042B000CE0107960E94871F811112C086E0FE0181
:1042C0003796DE01119601900D928A95E1F78A8565
:1042D0009B85892B29F08F81988589238F3FB1F5A4
:1042E00016E08091EA019091B90189131DC067968B
:1042F0000FB6F894DEBF0FBECDBFDF91CF911F91F7
:10430000089596E0929FD001939FB00D1124A6547A
:10431000BE4FFE01319601900D929A95E1F7809380
:10432000B9010E94B507DCCF819FC00111248654DA
:104330009E4F0E94871F8823D1F28091EA0190E06E
:104340000196877099278093EA01CBCF2091B9011C
:1043500030E0C9010196877099274091EA0148171A
:10436000190679F60E941B141092B9011092EA0105
:1043700086E0E3EBF1E0DF011D928A95E9F7B0CF2B
:104380001F920F920FB60F9211242F933F934F93CA
:104390005F936F937F938F939F93AF93BF93CF93CD
:1043A000DF93EF93FF93D091E900DF708091EC00F1
:1043B000C82FC17080FDC0E81092E9008091F00024
:1043C000877F8093F00078940E9426141092E90071
:1043D0008091F00088608093F000CD2BCF70C09367
:1043E000E900FF91EF91DF91CF91BF91AF919F9144
:1043F0008F917F916F915F914F913F912F910F908E
:104400000FBE0F901F9018951F920F920FB60F922C
:1044100011242F933F934F935F936F937F938F93C9
:104420009F93AF93BF93EF93FF938091E10082FF3F
:1044300009C08091E20082FF05C08091E1008B7F7E
:104440008093E1008091DA0080FF24C08091D80041
:1044500080FF20C08091DA008E7F8093DA00809107
:10446000D90080FFB4C080E189BD82E189BD09B473
:1044700000FEFDCF81E08093B9028091A5028111F9
:1044800009C00E94F9030E94C4048091E200846084
:104490008093E2008091E10080FF17C08091E200EC
:1044A00080FF13C08091E2008E7F8093E2008091B4
:1044B000E20080618093E2008091D8008062809366
:1044C000D80019BC85E08093B9028091E10084FF97
:1044D00042C08091E20084FF3EC080E189BD82E15C
:1044E00089BD89B5982F917080FFFBCF8091D8004E
:1044F0008F7D8093D8008091E1008F7E8093E100D2
:104500008091E2008F7E8093E2008091E2008160E2
:104510008093E2008091BA02882309F45EC084E0AF
:104520008093B9020E941B140E94FD130E948B0805
:104530000E94200D1092AC028091AB02882349F0BA
:104540008091A60281608093A60260E086950E9419
:1045500001170E94EB168091E10083FF27C0809134
:10456000E20083FF23C08091E100877F8093E10018
:1045700082E08093B9021092BA028091E1008E7FAE
:104580008093E1008091E2008E7F8093E200809131
:10459000E20080618093E20042E060E080E00E94FF
:1045A00092048091F00088608093F000FF91EF9179
:1045B000BF91AF919F918F917F916F915F914F913B
:1045C0003F912F910F900FBE0F901F90189519BC1F
:1045D0001092B9021092A5025DCF8091E30087FD91
:1045E00093E09093B9029ECFCDB7DEB72A970FB66E
:1045F000F894DEBF0FBECDBF84B7877F84BF0FB6F0
:10460000F894A89580916000886180936000109272
:1046100060000FBE80E8809361001092610085B752
:10462000806885BF85B7806885BF0E94F9030E94B6
:10463000C4048091E20084608093E20078948091C9
:10464000B9028823A1F01091E9001F709091EC004D
:10465000892F817090FD80E8182B1092E9008091DD
:10466000E80083FD0E9426141F701093E90082E089
:1046700084BD93E095BD9AEF97BD80936E00ADE346
:10468000B1E049E451E061E070E08D91E82FE295FE
:10469000EF70F0E011A18F709B0101C0220F8A958D
:1046A000EAF7922F9095912391A382A1822B82A366
:1046B0004A175B0751F7A9E4B1E042E551E061E038
:1046C00070E08D91E82FE295EF70F0E011A18F700E
:1046D0009B0101C0220F8A95EAF7922F90959123B2
:1046E00091A382A1822B82A34A175B0751F7E3E4CF
:1046F000F2E08BE592E0A1E6B2E0119211921D92F8
:104700001D928E179F07C9F70E94BA12811102C02D
:104710000E949A13279A2F988AE08093800089E15B
:10472000809381008FEF9FEF9093870080938600A6
:104730000E94FD130E94BA12811102C00E949A13B6
:1047400082E090E00E94EF26809383020E94AC12E8
:1047500090935C0280935B0283E090E00E94EF26DE
:10476000682F70E090E080E00E9481080E94FD13B5
:1047700080915D02811138C08091830281608093B5
:1047800083020E94BA12811104C00E949A130E94EF
:104790008B1388E090E00E94F7266093A602709346
:1047A000A7028093A8029093A9026E7F71F40E94E1
:1047B0008B1388E090E00E94F7266093A602709326
:1047C000A7028093A8029093A9020E945309109215
:1047D000A3028091A60280FF04C060E086950E943B
:1047E000011781E080935D028DE091E090935F027C
:1047F00080935E02AA24A394B12CBCEFCB2EB5E02B
:10480000DB2E8091B902853009F4B7C00E94951162
:10481000E4E8F2E0A1E6B2E010E000E0902E2D9195
:104820003D91419151914217530709F40BC190E01A
:1048300080E0422753277501082E02C0EE0CFF1CB2
:104840000A94E2F7BA016E217F21672B09F4F5C0C3
:1048500089839A822E213F2181E0232B09F480E075
:104860008B830E94E6068160782F9D838C8349812B
:104870005A816B818D810E943421000F111FF80134
:10488000EC57FD4F80819181E826F926F182E08284
:1048900080918002909181020E94BC06AC019091AF
:1048A0007F022CE231E0992311F022E330E042173D
:1048B000530778F020917B02F0907C0200917D02FA
:1048C00010917E022111D5C08F2D802B812B09F0F4
:1048D000A3C10E948B0890918202891731F00E9437
:1048E0008B08809382020E94200D8091A30288236E
:1048F00009F487CF8091A202E091A602E695E81B19
:10490000E0939E02823009F018C1F0E0E65FF94FB3
:10491000E4910E2F10E0E1E7EE2EE1E1FE2E809112
:104920009F02882389F010929F020E94E606980158
:1049300020953095820F931F90939D0280939C0247
:104940001092A1021092A00280919C0290919D026F
:104950000E94BC068017910708F453CFE0919C0297
:10496000F0919D020E0F1F1F10939D0200939C0259
:104970008CE992E0F701099544CF8091B902843027
:1049800009F447C01092600288E190E020E40FB67D
:10499000F894A895809360000FBE2093600080E09B
:1049A0000E94F40880E00E94200D1092A3028091E2
:1049B000AC02811117C081E08093AC028091A60205
:1049C000982F91709093AB028E7F8093A6022FEF69
:1049D00040E782E0215040408040E1F700C0000005
:1049E0000E947F0F83B7817F846083BF83B781601C
:1049F00083BF7894889583B78E7F83BF0FB6F89472
:104A0000A89580916000886180936000109260009A
:104A10000FBE8091B802882309F4F3CE0E9495114D
:104A200089E792E0E1E6F2E021913191232B09F050
:104A3000DDC08E179F07C1F7E4CE0196893091053E
:104A400009F0F9CE0F5F1F4F0C30110509F0E6CECB
:104A50008FEF8E838F8318860E94E6068160782F01
:104A60009A8789874E815F8168858A850E94342173
:104A70000FCF9F3F19F09F5F90937F02121624F48F
:104A80000E94340680937B0280917B0287FF05C0E1
:104A90000E943406819580937B021F1424F40E94A7
:104AA000340680937C0280917C0287FF05C00E94BF
:104AB0003406819580937C0230917B023323A1F0F0
:104AC00020917C02222381F045EB3403C0011124A4
:104AD000992359F190937B0245EB24039001112413
:104AE000332339F130937C02101624F40E9412060D
:104AF00080937D0280917D0287FF05C00E9412068F
:104B0000819580937D02111624F40E9412068093F1
:104B10007E0280917E0287FF05C00E941206819569
:104B200080937E020E94F206D4CE81E080937B02C5
:104B3000D3CF81E080937C02D7CF863059F4F0E068
:104B4000E95FF94FE4910E2F10E075E8E72E71E16F
:104B5000F72EE5CE893061F4E695F0E0EC5FF94F91
:104B6000E4910E2F10E06DEEE62E6FE0F62ED7CE1C
:104B70008F3061F4E695F0E0EF5FF94FE4910E2F8E
:104B800010E057E1E52E50E1F52EC9CE853159F4FC
:104B9000F0E0E250FA4FE4910E2F10E045E8E42EE9
:104BA00040E1F42EBCCE08EE13E093EDE92E90E147
:104BB000F92E883109F4B3CE833241F4F601059120
:104BC000149138E1E32E31E1F32EA9CE04EF11E088
:104BD00024EBE22E2FE0F22E843209F4A0CE00ED79
:104BE00017E08FE8E82E85E0F82E99CE80E189BDA8
:104BF00082E189BD09B400FEFDCF8091D8008F7D90
:104C00008093D8008091E00082608093E0008091E2
:104C1000E00081FDFCCFF5CD9F3F09F02CCF3DCFCB
:104C200078941F921FB61F9211248F939F93AF9376
:104C3000BF9380913E0290913F02A0914002B091BB
:104C400041020196A11DB11D80933E0290933F0247
:104C5000A0934002B0934102BF91AF919F918F9179
:104C60001F901FBE1F9018951F921FB61F921124F0
:104C70008F939F93AF93BF9380916002811113C074
:104C800080913E0290913F02A0914002B09141027A
:104C90004196A11DB11D80933E0290933F02A093C7
:104CA0004002B0934102BF91AF919F918F911F90AD
:104CB0001FBE1F901895DB018F939F930E94D826EB
:104CC000BF91AF91A29F800D911DA39F900DB29FA8
:104CD000900D1124089587FB082E062687FD8195E7
:104CE00067FD61950E94E3260EF4919507FC81957E
:104CF0000895AA1BBB1B51E107C0AA1FBB1FA61723
:104D0000B70710F0A61BB70B881F991F5A95A9F774
:104D100080959095BC01CD01089597FB072E16F460
:104D2000009407D077FD09D00E94792607FC05D0B2
:104D30003EF4909581959F4F0895709561957F4FB2
:104D40000895A1E21A2EAA1BBB1BFD010DC0AA1FCC
:104D5000BB1FEE1FFF1FA217B307E407F50720F0E4
:104D6000A21BB30BE40BF50B661F771F881F991F5F
:104D70001A9469F760957095809590959B01AC01A8
:104D8000BD01CF010895EE0FFF1F0590F491E02DB6
:104D90000994A29FB001B39FC001A39F700D811D14
:104DA0001124911DB29F700D811D1124911D089534
:104DB0000E94C926A59F900DB49F900DA49F800DC1
:104DC000911D11240895991B79E004C0991F96172D
:104DD00008F0961B881F7A95C9F780950895F99970
:104DE000FECF92BD81BDF89A992780B50895A6E1BE
:104DF000B0E044E050E00C942927A8E1B0E042E0A4
:104E000050E00C942927262FF999FECF92BD81BD41
:104E1000F89A019700B4021639F01FBA20BD0FB6F8
:104E2000F894FA9AF99A0FBE08950396272F0E94D4
:104E300004270E940327252F0E940427242F0C9467
:104E400004270196272F0E9404270C940327DC01D6
:104E5000CB01FC01F999FECF06C0F2BDE1BDF89A85
:104E6000319600B40D9241505040B8F70895FC01BE
:104E70004150504030F001900616D1F73197CF01E4
:104E80000895882799270895F894FFCF0B0D0B0DEF
:104E9000140D140D160D140D140D140D0B0D0B0D1A
:104EA0001B0D140D140D1B0D09153115D3163115DD
:104EB000D31664158515D3168E169B16BB1BBB1B0C
:104EC0002C1C2C1C841C9E1CF01BF01BE01CB61D13
:084ED000C51DC51DF01B4D1EA0
:104ED80001191A1B1C1D1E1F20212201029005C941
:104EE8000D9E0D680D2D0D0100010202020206063D
:104EF800060909090909090F0F0F0F0F0F151515D5
:104F080018191919191919191919192324303132AD
:104F1800339091353697349694F0F1F4F5F6F767B7
:024F280066928F
:00000001FF
