:100000000C94D2020C9419030C9419030C94190348
:100010000C9419030C9419030C9419030C941903F0
:100020000C9419030C9419030C9458260C942C2747
:100030000C94051F0C9419030C9419030C941903C8
:100040000C9419030C9419030C9419030C941903C0
:100050000C94DC100C946B1F0C9419030C94190372
:100060000C9419030C9419030C9419030C941903A0
:100070000C9419030C9419030C9419030C94190390
:100080000C9419030C9419030C9419030C94190380
:100090000C9419030C9419030C9419030C94190370
:1000A0000C9419030C9419030C94190329001E00D5
:1000B0001F00200021002200240025002600270028
:1000C0002D002E0035002A004C002B0014001A00D1
:1000D0000800150017001C0018000C001200130087
:1000E0002F00300031004B003900040016000700DB
:1000F00009000A000B000D000E000F003300340051
:10010000280000004E00E1001D001B000600190041
:100110000500050011001000360037003800E5002A
:1001200052000000E0000000E20023002C0001511A
:100130002C0000000000E600E700500051004F00D6
:1001400000000100C25CC35C01000100010001006D
:100150000100C15CBF5CBE5CBD5C010001004900E8
:100160000100010001000100005C0100010001002C
:100170000100010001000100010001004A0001002E
:100180000100010001000100010001000100010067
:10019000010001000100010000004D00010001000C
:1001A0000100010001000100010001000100010047
:1001B0000100010001000100000001000000010039
:1001C0000100010001000100000000000100010029
:1001D000010001000100000000047F3F1F64321491
:1001E000643214783C1E1E140A0522232526282971
:1001F0002A2C2D2F3032333536383A3B3D3E4042A3
:10020000434547494A4C4E5051535557595A5C5EE5
:100210006062646668696B6D6F71737577797B7DF9
:100220007F81838587898A8C8E90929496989A9CF8
:100230009E9FA1A3A5A7A8AAACAEAFB1B3B4B6B810
:10024000B9BBBCBEBFC1C2C3C5C6C7C9CACBCCCD72
:10025000CED0D1D2D2D3D4D5D6D7D7D8D9D9DADA4D
:10026000DBDBDBDCDCDCDCDCDDDDDDDDDCDCDCDCCD
:10027000DCDBDBDBDADAD9D9D8D7D7D6D5D4D3D201
:10028000D2D1D0CECDCCCBCAC9C7C6C5C3C2C1BFDF
:10029000BEBCBBB9B8B6B4B3B1AFAEACAAA8A7A543
:1002A000A3A19F9E9C9A98969492908E8C8A8987FF
:1002B0008583817F7D7B79777573716F6D6B6968DD
:1002C000666462605E5C5A5957555351504E4C4AB1
:1002D0004947454342403E3D3B3A3836353332305C
:1002E0002F2D2C2A292826252322FFAA7F554000BE
:1002F00000000000000000000000010102030405EE
:1003000006080A0C0F1114181C2024292E33393F1B
:10031000464C535B626A7179818A929AA2AAB2B9F9
:10032000C1C8CFD5DCE1E7EBF0F4F7FAFCFDFEFF46
:10033000FEFDFCFAF7F4F0EBE7E1DCD5CFC8C1B97C
:10034000B2AAA29A928A8179716A625B534C463F43
:1003500039332E2924201C1814110F0C0A08060505
:100360000403020101000000000000000000000082
:100370000101010101010101010202020202020266
:100380000202030303030303030304040404040439
:1003900004050505050506060606060707070707FF
:1003A00008080808090909090A0A0A0B0B0B0C0CB2
:1003B0000C0D0D0D0E0E0E0F0F0F1010111111124E
:1003C0001213131414151516161717181819191ACD
:1003D0001A1B1B1C1D1D1E1E1F2020212222232430
:1003E00024252626272829292A2B2C2D2D2E2F306F
:1003F000313232333435363738393A3B3C3D3E3F83
:10040000404142434445464748494A4C4D4E4F506F
:10041000515354555658595A5B5D5E5F616264652D
:100420006668696B6C6D6F7072737577787A7B7DB7
:100430007E8082838587888A8C8E8F91939596980B
:100440009A9C9EA0A2A3A5A7A9ABADAFB1B3B5B727
:10045000BABCBEC0C2C4C6C9CBCDCFD1D4D6D8DBFE
:10046000DDDFE2E4E7E9EBEEF0F3F5F8FAFDFF0497
:1004700003300000000E035000680079007300692B
:10048000005800000006034C005A00000004030955
:100490000409023B00020100A0FA09040000010364
:1004A000010100092111010001224000070581031B
:1004B00008000A09040100010300000009211101DC
:1004C00000012285000705820320000A12011001A5
:1004D00000000008D80481EC0100010203010501BD
:1004E0000902A10185020901A100050919012905D7
:1004F000150025019505750181029501750381019E
:100500000501093009311581257F9502750881069D
:1005100009381581257F950175088106050C0A3873
:10052000021581257F950175088106C0C005010966
:1005300080A10185031A81002A8300160100260389
:1005400000950175108100C0050C0901A101850409
:100550001A01002A9C02160100269C0295017510C2
:100560008100C005010906A101050719E029E71569
:100570000025019508750181029501750881010525
:1005800007190029FF150026FF0095067508810050
:100590000508190129059505750191029501750355
:1005A0009101C00011241FBECFEFDAE0DEBFCDBF46
:1005B00004B603FE27C080919D0290919E02A091F7
:1005C0009F02B091A0028730904BA740B04BD1F46E
:1005D00010929D0210929E0210929F021092A00211
:1005E00014BE84B7877F84BF0FB6F894A895809116
:1005F0006000886180936000109260000FBEE0E0B0
:10060000F8E3099511E0A0E0B1E0E8E0F4E502C00C
:1006100005900D92AE35B107D9F722E0AEE5B1E015
:1006200001C01D92AD39B207E1F70E948B230C94F3
:10063000C7290C940000539A559A0C945208CF93F2
:10064000C82F0E948103882331F0C1FF06C05B9A46
:10065000C2FF05C05D9ACF9108955B98F9CF5D9870
:10066000FACF81E0089581E008950C9433031F933D
:10067000CF93DF9300D000D00F92CDB7DEB7498380
:100680005A836B8320919B0189819A8121111BC020
:100690006623A9F00E94691C182F682F89819A810E
:1006A0000E94151C69817A81812F0F900F900F9005
:1006B0000F900F90DF91CF911F910C949F050E9496
:1006C000411C182FEFCF0E94691C69817A81EDCF00
:1006D000FC01408151816281738184810C943703D4
:1006E0000E94A01D811102C00E94461E0E94491155
:1006F0000C941B030E94C6100C94540808950C948B
:100700007E0381E00895CF93C82F0E947F038C2F32
:10071000CF910C941F0308950E94CD170E948B0364
:100720002FEF84E39CE0215080409040E1F700C02F
:1007300000000C948F1F0F931F93CF93DF938C01B6
:100740000E946803EC01B8010E943503882319F167
:10075000B801CE010E9404128823E9F0F8018281D9
:10076000882309F4A5C0C115FCE5DF0791F0CE3D53
:100770008CE5D807B1F00E94FE1C8272FE01E15C9C
:10078000FC45E531F10508F093C0E753F64D0C94B4
:1007900046290E948C0380E0DF91CF911F910F9139
:1007A00008950E94461EF7CF0E947F0EF4CF882343
:1007B00029F00E94710EEFCF8823D9F30E94640EB6
:1007C000EACF882329F00E94FB0BE5CF8823D9F3D9
:1007D0000E94EE0BE0CF882329F00E94190CDBCF9A
:1007E0008823D9F30E940A0CD6CF882329F00E94CF
:1007F000370CD1CF8823D9F30E94280CCCCF882383
:1008000029F00E94880AC7CF8823D9F30E94770A6B
:10081000C2CF81E00E94740EBECF0E946F0A823068
:1008200020F00E946F0A853048F282E0F3CF0E94E8
:100830006F0A863088F00E946F0A883068F40E9440
:10084000640E0E946F0A893028F00E946F0A8E3071
:1008500008F4B4CF89E0DECF86E00E94740EF1CFB9
:100860000E946F0A8F3028F00E946F0A843108F4CA
:10087000A5CF8FE0CFCF0E946F0A853128F00E946C
:100880006F0A873108F49ACF85E1C4CF88E1C2CFDF
:100890000E946F0A893128F00E946F0A823208F4A0
:1008A0008DCF89E1B7CF83E2B5CF0E944A1073CFD5
:1008B000C631ECE5DE0709F422C1C8F5C2308CE58B
:1008C000D807D0F1F80182818823B1F10E94A01DE0
:1008D000811102C00E94461E0E94B31D90938F0298
:1008E00080938E02C031FCE5DF0709F4D5C008F023
:1008F00064C0C830ECE5DE0709F4BCC0B8F5C4300C
:100900008CE5D80709F4AEC0F0F4C230FCE5DF078F
:1009100009F49EC0C330DC4509F4A0C080918E026A
:1009200090918F020E94C11D0E94CD1734CFCE013D
:100930008A5F9C45099730F2C801DF91CF911F91E2
:100940000F910C94310380918E028061C630ECE5EA
:10095000DE0709F480C080918E028860C730DC45D4
:1009600008F479C080918E02806275C0CC308CE52D
:10097000D80709F489C070F480918E028C60CA3067
:10098000FCE5DF0709F467C008F478C080918E02A7
:100990008E7F61C080918E02877FCE30ECE5DE07CE
:1009A00009F459C080918E028B7FCF30DC4508F46A
:1009B00052C080918E028F7E4EC0CB3F8CE5D8070F
:1009C00009F454C030F5C331FCE5DF0709F46CC00D
:1009D00078F4C131ECE5DE0709F462C0C231DC45D0
:1009E00009F09CCF0E94CD1780918E028F7733C083
:1009F000C5318CE5D80709F45FC008F473C0809155
:100A00008F028160CA3FDC4509F088CF80938F0256
:100A100085CFCF3F8CE5D80709F44AC060F48091B8
:100A20008F028D7FCD3FFCE5DF0781F388F1809158
:100A30008F028360EBCFC130EDE5DE0709F45BC0C8
:100A400008F446C0C230DD4509F068CF80E054C0EC
:100A500080918E02816080938E0260CF80918E02A1
:100A60008260F9CF80918E028460F5CF80918F02F1
:100A70008260CCCF80918E028064EDCF0E94CD1732
:100A800080918E028068E7CF80918E028D7FE3CFC8
:100A900080918F028E7FBACF80918E028F7DDBCFC7
:100AA00080918E028F7BD7CF80918E02837FD3CFB0
:100AB00080918F028C7FAACF80918E0282FB992732
:100AC00090F921E0922790FB82F990FB83F9C3CF44
:100AD00080918F02982F909591708E7F892B90FB3B
:100AE00081F994CF0E94CD1790918E02892F97FBA8
:100AF00087F98058B0CF81E00E94481E0FCF0E9436
:100B0000FE1CF8019281992381F08A7A91E009F420
:100B100090E090935E01811106C089E20E94D91C89
:100B20000E943D1D38CE85E3F9CF80915E01811191
:100B300004C089E20E94E01CF3CF85E3FBCF972F2E
:100B400070E02FE0929F600D711D1124FB019BE46A
:100B5000899FE00DF11D1124EE0FFF1FE455FF4F9B
:100B6000859194910895CF93DF930E949F050E94F1
:100B70007807EC01811523E5920708F059C081152B
:100B800032E5930708F01EC18F3F910509F008F583
:100B9000803F910508F00CC1883A910570F4853AC0
:100BA000910508F09BC08130910579F0009769F0BC
:100BB000049758F4D0E0C0E008C08F3B910508F4DA
:100BC00098C0805E91090897A8F7CE01DF91CF9178
:100BD0000895811540E5940750F4C11580E4D807C5
:100BE00008F0E8C0C11590E2D90778F3E3CF81158A
:100BF00021E5920708F0E1C0E4E096958795EA9533
:100C0000E1F783702C2F26952695237040E2249FD0
:100C100090011124382B8C2F8370C1E0D0E002C0EA
:100C2000CC0FDD1F8A95E2F7C22BD32BDC68CDCF2A
:100C300081153AE5930710F5811549E5940708F009
:100C4000F0C0C11585E5D80750F4C11594E5D90762
:100C500008F4C8C0DC2FCC27C46FD06AB6CFC1154A
:100C600026E5D20708F4D2C0C11538E5D30708F449
:100C7000A1CFDC2FCC27C06FD06AA7CF8E3B9C457D
:100C800009F4DCC0CF3B8CE5D80770F4CC3B9CE585
:100C9000D90709F4D6C008F0D7C0CB3BDC4509F032
:100CA00089CFC0E0D4ED91CFC03C4CE5D40709F426
:100CB000CEC008F4CFC0CE0190568115904208F006
:100CC00079CF8D2F8F710E940F0890E0982F882781
:100CD00088279F719C012C2BE901A1C0853A9105C1
:100CE00009F4BBC0863A910509F0BAC0C2E8D0E465
:100CF0006CCF883A910509F4B6C0893A910509F498
:100D0000B5C08A3A910509F4B4C08B3A910509F44B
:100D1000B3C08C3A910509F4B2C08B3B910509F43C
:100D2000B1C08C3B910509F4B0C08D3A910509F42E
:100D3000AFC0803B910509F4AEC08E3A910509F42D
:100D4000ADC08F3A910509F4ACC0813B910509F41F
:100D5000ABC0823B910509F4AAC0833B910509F41D
:100D6000A9C0843B910509F4A8C0853B910509F40D
:100D7000A7C0863B910509F4A6C0873B910509F4FD
:100D8000A5C0883B910509F4A4C0893B910509F4ED
:100D9000A3C08D3B910509F4A2C08E3B910509F4D7
:100DA000A1C08A3B910509F4A0C0C0E0D4E40DCFF6
:100DB000D0650BCFDF70D06A08CFD82FCC27C16F9A
:100DC000D06A03CF8370992721E030E002C0220F60
:100DD000331F8A95E2F7C695C69580E2C89FE00169
:100DE000112422CFCE018370992721E030E002C088
:100DF000220F331F8A95E2F7C695C69590E2C99FE8
:100E0000E0011124C22BD32BDA68DFCE8C2F0E9495
:100E10000F08C82FD0E0DC2FCC27CC27DF71D062A1
:100E2000D4CE8F700E940F0834E0D695C7953A95BE
:100E3000E1F7CF709C2FEC01D069C7CEC0E0D0EDB8
:100E4000C4CEC0E0D5EDC1CEC0E0D1EDBECEC0E095
:100E5000D3EDBBCEC0E0D2EDB8CEC1E8D0E4B5CE84
:100E6000C3E8D0E4B2CEC2EED4E4AFCEC9EED4E44F
:100E7000ACCECAEED4E4A9CEC5EBD4E4A6CEC6EB84
:100E8000D4E4A3CEC3EBD4E4A0CEC4EBD4E49DCE93
:100E9000C7EBD4E49ACECCECD4E497CECDECD4E43A
:100EA00094CEC3E8D5E491CECAE8D5E48ECEC2E9AB
:100EB000D5E48BCEC4E9D5E488CEC1E2D6E485CEB4
:100EC000C3E2D6E482CEC4E2D6E47FCEC5E2D6E465
:100ED0007CCEC6E2D6E479CEC7E2D6E476CECFE6C3
:100EE000D4E473CEC0E7D4E470CECAE2D6E46DCECB
:100EF00082389105B1F1B0F48133910509F475C0E0
:100F000048F48932910509F469C08A32910509F4DF
:100F100073C008958533910509F459C0893391054B
:100F200001F10895833E9105A9F138F4803E9105C1
:100F3000F9F0823E910549F10895863E9105A9F1A7
:100F4000873E9105C9F1843E910519F520918F02E4
:100F500021FF1FC080918E0284FD14C087EE90E0B7
:100F6000089520918E022370A1F080EE90E0089504
:100F700020918E0220FD47C030918F0230FF09C0C2
:100F800024FF44C090E080E004C020918E0222FD46
:100F9000F7CF089520918E0222FD3BC030918F0241
:100FA00030FDE3CF24FFF5CFEDCF20918E0223FF5C
:100FB000F0CF24FDE7CFD2CF20918E0223FD2CC0AD
:100FC00030918F0231FFEECF84EE90E008952091B2
:100FD0008E0225FFDECF89E290E0089520918E02F7
:100FE00025FFD7CF85E390E0089520918E0226FF5C
:100FF000D0CF8AE290E0089520918E0226FFC9CFDB
:1010000081E390E0089589E390E0089583EE90E015
:10101000089582EE90E0089586EE90E00895909114
:101020008E0292FF06C0282F28712830F9F4877F9E
:10103000846093FF06C0282F28712831F1F4877E41
:10104000846120918F0220FF06C0382F387138301C
:10105000D9F4877F816021FF06C0282F28712831AD
:10106000D1F4877E816194FD877E0895282F2471B5
:101070002430F9F68B7F8860DCCF282F247124314F
:1010800001F78B7E8861DDCF382F3171313019F750
:101090008E7F8860E0CF282F2171213121F78E7E4D
:1010A0008861E1CF089508950C945308E82FF0E08B
:1010B000EE0FFF1FE15AFE4F808191810895089540
:1010C000CF93DF93A3E3B1E048E351E0C1E0D0E088
:1010D0008D91E82FE295EF70F0E061A18F709E0195
:1010E00001C0220F8A95EAF7922F9095962391A33B
:1010F00082A1822B82A34A175B0751F7A4E2B1E0D9
:1011000061E070E08D91E82FE295EF70F0E041A191
:101110008F709B0101C0220F8A95EAF7922F90955C
:10112000942391A382A1822B82A381E0A333B807E9
:1011300049F710926A0110926901109260011092B1
:101140005F0110926C0110926B011092620110927B
:10115000610110926E0110926D0110926401109263
:1011600063011092700110926F011092660110924B
:101170006501109272011092710110926801109233
:10118000670185E00E946009DF91CF910C947003A4
:101190005F926F927F928F929F92AF92BF92CF9207
:1011A000DF92EF92FF920F931F93CF93DF93A9E605
:1011B000B1E003E311E0512CEE24E394F12C8D9087
:1011C0009C9011971D921D92E80189918E01E82F44
:1011D000E295EF70F0E091A18F70B70101C0660F4A
:1011E0008A95EAF7892F862B81A382A1662E6094C7
:1011F000862182A3D0EADA95F1F784E2C82E81E055
:10120000D82E30E020E0AD0142505109E60179903E
:101210006E01872D82958F7090E0EC0188A1EA0124
:10122000A880B98090E0D72DDF7002C09595879592
:10123000DA95E2F780FD41C0C701022E02C0880F97
:10124000991F0A94E2F78A299B29EA0199838883E6
:101250002F5F3F4F2F303105C9F681A1D62DD823FE
:10126000D1A382A1682B62A381E0FA0120813181A0
:101270002815390509F480E0582AF1E0A337BF07A3
:1012800009F09DCF252D45E06FE571E089E691E0FD
:101290000E9461090E947A03852DDF91CF911F91F1
:1012A0000F91FF90EF90DF90CF90BF90AF909F9005
:1012B0008F907F906F905F90089590E080E0C3CF13
:1012C0000895FF920F931F93CF93DF93F82E092F6A
:1012D000162FD72FC42F222349F081E08093750168
:1012E0000E94351F90937401809373018091750162
:1012F0008823A1F080917301909174010E94411F95
:10130000069760F0EF2DF02FA12FBD2F90E080E029
:10131000D0E08C179D0744F010927501DF91CF91BA
:101320001F910F91FF900895219131912D933D933D
:101330000196EFCFAF92BF92CF92DF92FF920F93C1
:101340001F93CF93DF93362F472FE82FF0E0E1591B
:10135000FC4F71110DC06491762F862FDF91CF91D4
:101360001F910F91FF90DF90CF90BF90AF900895A5
:10137000C72FD0E02491F22E022F10E056E0659F97
:10138000C0011124EFEFF0E0BF010E94FC28832F81
:1013900090E0880F991F35E5369FD001379FB00D3B
:1013A00011248A1B9B0B982F990F980F6F01CC1A51
:1013B000DD0AC09ED001C19EB00DD09EB00D11249B
:1013C0008B2F949FA0011124452F55276F01C41A1C
:1013D000D50AC09EA001C19E500DD09E500D112473
:1013E0005F01A91AB108AC9E6001AD9ED00CBC9EF5
:1013F000D00C1124CD2CDD24EC19FD09E09FE00177
:10140000E19FD00DF09FD00D1124ED2F62307105BA
:10141000A1F048F46115710569F06130710589F03A
:10142000EB2F852F07C06430710571F088F06630AE
:101430007105B1F76E2F722F91CFE22F2B2F8D2FC9
:10144000F9CFE22F252FF6CFEB2F822F2D2FF2CFC2
:101450002B2F8F2DE52FEECF0895CF93DF93762F8F
:10146000E901682F842F0E949A09798368838A830F
:10147000DF91CF91089580913402982F9E7F29F4B7
:10148000817082608093340208958A34E8F3817019
:101490008864F8CF88E090E00C948729CF92DF929F
:1014A000EF92FF926B017C010E943B0AB701A601FB
:1014B00088E090E0FF90EF90DF90CF900C94A5290A
:1014C000E4E3F2E083E0808311828FEF8283838301
:1014D000148260817181828193810C944E0A809183
:1014E000340280FF02C08695089580E008958091BF
:1014F0003802833018F48F5F809338026091340291
:101500007091350280913602909137020C944E0A08
:1015100080913802882319F08150809338026091BD
:1015200034027091350280913602909137020C940A
:101530004E0A6091040170E08091340280FF0AC07D
:1015400080917A0123E0829FC0011124875C9D4F26
:101550000C949411809179019091030123E0829F72
:10156000F0011124E75CFD4F891750F711821082BA
:1015700012828F5F3396F8CF9091340290FF14C09F
:10158000909179012091030133E0939FF0011124A0
:10159000E75CFD4F921710F00C94990A81836083E9
:1015A00042839F5F3396F6CF0895CF93DF9300D0A9
:1015B0000F92CDB7DEB79091340290FF0AC09E0122
:1015C0002F5F3F4F0E942D0A4B8169818A810E94C3
:1015D000BC0A0F900F900F90DF91CF910895CF9399
:1015E000DF93EC01EC81F0E0E651FE4F4491E4E33F
:1015F000F2E0628181810E94D50A8C818F5F8C83A9
:10160000DF91CF910895CF93DF93EC01E4E3F2E013
:10161000438162818C810E94D50A8C818F5F8C838B
:10162000DF91CF9108950F931F93CF93DF9300D055
:101630000F92CDB7DEB78C018091760181110AC07F
:101640009E012F5F3F4F4FEF6FEF0E942D0A8A815F
:1016500080937601F8016481613069F080917601B0
:1016600040E0662361F040E0623011F44091760181
:1016700080E060E004C06091760140E080E00E947C
:10168000BC0AF801848190E0019663E070E00E945A
:10169000102984830F900F900F90DF91CF911F91AD
:1016A0000F910895AF92BF92CF92DF92EF92FF9287
:1016B0000F931F93CF93DF9300D00F92CDB7DEB778
:1016C000182FF62E042FE22E9091340290FF29C09D
:1016D000E92FE695AE2FB0E0A85CBE4F8C918093C9
:1016E00082019E7F923059F59E012F5F3F4F812FDF
:1016F0000E942D0A4B8169818A810E94BC0A109345
:101700003502F092360200933702EE2051F06091DC
:1017100034027091350280913602909137020E9416
:101720004E0A0F900F900F90DF91CF911F910F9164
:10173000FF90EF90DF90CF90BF90AF9008958230F0
:1017400019F400913702DBCF863019F4109135027D
:10175000D6CF8930D9F3893191F6E9518E2F817036
:10176000D82EE695F0E0E651FD4FA590B490C12C3F
:10177000BB2460910201C61618F00E94990ABFCFDF
:101780002C2D30E0A29EC001A39E900DB29E900D24
:10179000112470E00E94FC28812FD11013C0860F05
:1017A00040917901420F532F511D9A01220F331F8F
:1017B000240F351F275C3D4F402F6F2D0E942D0AAF
:1017C000C394D7CF861BECCFE4E3F2E09181282FBE
:1017D0004381628188E0890F0C94520B81E00C9464
:1017E000E40BE4E3F2E09181282F4381628188EFEA
:1017F000890F0C94520B81E00C94F10BE4E3F2E0BE
:10180000628128E0620F08F46FEF282F4381818105
:101810000C94520B81E00C94FE0BE4E3F2E0628145
:1018200028E0621B08F460E0282F438181810C943A
:10183000520B81E00C940D0CE4E3F2E0438128E0CC
:10184000420F08F44FEF282F628181810C94520BD4
:1018500081E00C941C0CE4E3F2E0438128E0421B9D
:1018600008F440E0282F628181810C94520B81E0C2
:101870000C942B0C20E00C94520BEF92FF921F93D0
:10188000CF93DF93EC0110E0EE24EA94F12C609109
:101890000201161770F00E94990A9A818C8190FFBC
:1018A00027C08F5F8C83DF91CF911F91FF90EF90C6
:1018B000089520917901422F410F5527551FCA01E4
:1018C0009A01220F331F280F391F275C3D4F70E00C
:1018D000C7010E941029962F8C8140913702609198
:1018E0003602199F800D11240E942D0A1F5FCFCF51
:1018F0008150D8CFAF92BF92CF92DF92EF92FF92FA
:101900000F931F93CF93DF93FC0182810FEF80FF32
:1019100001E010E04AE1A42E809102011817C8F0FE
:101920000E94990A80917801013009F055C0811117
:1019300002C080910201815080937801DF91CF91A4
:101940001F910F91FF90EF90DF90CF90BF90AF90DD
:101950000895C0917901C12ED12CCC0DDD2DD11D62
:10196000CE01880F991FC80FD91FC75CDD4F1982A0
:1019700018821A8234E0E32EF12CB12C8091780188
:101980008B0D8B311CF16A2D0E94EE28892F082EB9
:10199000000C990BC816D90691F4809137028E9DE0
:1019A000A0018F9D500D112455954795559547954C
:1019B0009E0160913602809135020E942D0AB00E80
:1019C000F1E0EF1AF108D1F61F5FA6CF87FFDFCF56
:1019D00090910201890FDBCF90E0019660910201A6
:1019E00070E00E941029A8CF0F931F93CF93DF932D
:1019F000809179019091030123E0829FF0011124ED
:101A0000E75CFD4F891740F1C0E0D3E0609102012F
:101A1000C61740F10E94990A209100018091770138
:101A2000820F8093770190910101920F90930101B1
:101A3000191654F4082E000C990B409102014150E4
:101A4000550B841795071CF0219520930001DF9119
:101A5000CF911F910F9108951182108212828F5F92
:101A60003396D0CF0C2F10E070E0C8010E941029EF
:101A700020917901820F482F50E020917701022EAA
:101A8000000C330B02171307BCF020910101022E4A
:101A9000000C330B201731077CF08D9F900111242F
:101AA000275C3D4F409137026091360280913502AC
:101AB0000E942D0ACF5FAACFFA01EE0FFF1FE40F9D
:101AC000F51FE75CFD4F118210821282F3CF0F9356
:101AD0001F93CF93DF938C01FC0184819581019644
:101AE0008170992795838483C0E0D5E580910201B8
:101AF000C81730F0DF91CF911F910F910C94990A84
:101B000020917901422F4C0F5527551FCA019A0188
:101B1000220F331F280F391F275C3D4F8C2F8695CE
:101B2000F80144815581840F952F911D817040915A
:101B30003702609136028D9F802D11240E942D0A5C
:101B4000CF5FD4CF0F931F93CF93DF93EC0110E0BF
:101B500000E0909102019017110609F06CF40E94C8
:101B6000990A8C8190E00196817099278C83DF918E
:101B7000CF911F910F91089520917901A801420FF3
:101B8000511D9A01220F331F240F351F275C3D4F33
:101B90004C8160913602809135029695901711061E
:101BA00051F04CF0442349F0409137020E942D0A35
:101BB0000F5F1F4FCECF4423B9F340E0F7CFE4E3EC
:101BC000F2E080818E7F8083608171818281938148
:101BD0000E944E0A109283012FEF80E792E021507D
:101BE00080409040E1F700C000000C94990AE4E3C3
:101BF000F2E080818E7F8083109283012FEF80E757
:101C000092E0215080409040E1F700C000000C9429
:101C1000990A60913402669570E04BE050E085E0EF
:101C200091E00E947229892B19F481E0809383014D
:101C30000E94351F90937C0180937B0108959091C1
:101C4000340290FF35C09170811128C0926090934A
:101C50003402662351F06091340270913502809114
:101C60003602909137020E944E0A609134026695C6
:101C700070E04BE050E085E091E00E947229892BF2
:101C8000A1F01092830181E080937E0140913702A0
:101C900060913602809135020C943A0C853210F036
:101CA0009864D5CF880F982BD2CF0E94090EEBCF26
:101CB0000895682F90913402969581E0890F8532BE
:101CC00008F081E00C941F0E81E00C94590E682FEF
:101CD0009091340296958FEF890F09F484E20C9469
:101CE0001F0E81E00C94670E61E00C941F0EE4E37C
:101CF000F2E080818160808386950C94740E8091DF
:101D0000340280FD0C94DF0D0C94770E60E00C948F
:101D10001F0E8091810181112EC00E94A01D811192
:101D200004C00E94461E0E94600A0E944A0A6093F4
:101D300034027093350280933602909337026E7F9F
:101D400061F40E94600A0E944A0A60933402709310
:101D5000350280933602909337020E943B0A10921C
:101D600083018091340280FF03C086950E94860E15
:101D700081E0809381010895E4E3F2E08081816055
:101D8000808386950C94860E1092830108950F939C
:101D90001F93CF93DF9380918301882309F48DC033
:101DA00080918201E0913402E695E81BE0937D0189
:101DB0008230C9F5F0E0EA51FE4FE491CE2FD0E039
:101DC0000FEE1AE080917E01882389F010927E0147
:101DD0000E94351F9E0120953095820F931F90938E
:101DE0007C0180937B011092800110927F01809191
:101DF0007B0190917C010E94411F8C179D0708F484
:101E00005CC0E0917B01F0917C01CE0FDF1FD0938D
:101E10007C01C0937B018BE791E0F801DF91CF91CA
:101E20001F910F910994863049F4F0E0ED51FE4F77
:101E3000E491CE2FD0E003E01BE0C4CF893051F411
:101E4000E695F0E0E052FE4FE491CE2FD0E00DE3B6
:101E50001CE0B8CF8F3051F4E695F0E0E352FE4F2E
:101E6000E491CE2FD0E00AE71CE0ACCF853149F4F5
:101E7000F0E0E652FE4FE491CE2FD0E004EF1CE0FC
:101E8000A1CFC8EED3E007E61DE0883109F49ACF70
:101E9000833239F4E8EDF1E0C591D49103E11BE020
:101EA00091CFC4EFD1E002EA1DE0843209F48ACF79
:101EB000C0EDD7E00CE21AE085CFDF91CF911F9102
:101EC0000F9108950E94A01D811102C00E94461E1C
:101ED0000E94CE1D80938702803220F08770886137
:101EE0008093870290918702892F817090FF04C0B0
:101EF000892F8695869586950C94A41080918702EB
:101F0000982F969596959695933040F49F5F990FEC
:101F1000990F990F8770892B809387028091870290
:101F20008160809387020E94D21D809187028695EE
:101F3000869586950C94A41080918702982F987F9F
:101F400079F0885080938702887F91E009F490E0CF
:101F50008091870290FB80F9809387020E94D21DB6
:101F6000809187028695869586950C94A410809121
:101F7000870280FD13C0816080938702813019F44D
:101F800089E080938702809187020E94D21D809110
:101F900087028695869586950C94A4100895809165
:101FA000870280FF08C08E7F809387020E94D21D27
:101FB00080E00C94A41008958091870280FD0C9419
:101FC000CF0F0C94B70F90918702892F8695869535
:101FD00086958F5F8F7197708430D8F4880F880F43
:101FE000880F892B8093870280918702887F91E0F8
:101FF00009F490E08091870290FB80F9809387023A
:102000000E94D21D809187028695869586950C94B4
:10201000A41090938702E8CF843008F083E0982FD3
:10202000990F990F990F809187028770892B809360
:102030008702887F91E009F490E08091870290FB0D
:1020400080F9809387020E94D21D80918702869535
:10205000869586950C94A410809187028695869526
:10206000869508958091870281FD07C082608093E4
:1020700087020E94D21D0C94C71008958091870298
:1020800081FF07C08D7F809387020E94D21D0C9430
:10209000D31008958091870281FD0C943E100C941A
:1020A000321080918702869581700895CF92DF92D9
:1020B000EF92FF928C3724E1920750F469E070E0D0
:1020C0000E94FC28CB01FF90EF90DF90CF90089505
:1020D000B0E0A0E0BC01CD016A50774D8F4F9F4F1B
:1020E000982F872F762F662725EF38E241E050E0C2
:1020F0000E94242969017A01CA01B9010E94DE28DF
:102100009B01AC01C701B6010E94DE28672F782F22
:10211000892F99276115710521E08207910591F6B4
:102120006FEF7FEFCFCFE82FE295EF70F0E032A1B5
:10213000282F2F7081E090E001C0880F2A95EAF7E0
:102140008095832382A308958430D8F481111AC026
:1021500090918000977F90938000282F30E0AFEF20
:10216000BFEF0E944C2923E030E040E050E00E94A5
:102170002429C9010E94561090938D0080938C00F1
:10218000089583E0909180009860E5CF08951092C3
:1021900085011092840110928601EFE6F0E08081C3
:1021A000816080830895EFE6F0E080818E7F8083F8
:1021B0000E942C100C94A4101F920F920FB60F9235
:1021C00011242F933F934F935F936F937F938F933C
:1021D0009F93AF93BF93CF93EF93FF932091100101
:1021E0008091840190918501019644EF249F900194
:1021F0001124B9010E94FC289093850180938401E9
:10220000B901660F672F661F770B71950E94FC2836
:102210006F7780918601823041F4603451F480916F
:102220006F008E7F80936F0004C0813011F46F3790
:10223000B1F3E62FF0E0E151FD4FC4910E942C1064
:10224000282F41E051E0C49FC001C59F900D11248B
:1022500063E070E00E94FC28269FC001279F900D3C
:1022600011240E94561090938D0080938C00FF9152
:10227000EF91CF91BF91AF919F918F917F916F918E
:102280005F914F913F912F910F900FBE0F901F9034
:102290001895279A87E30E9493108AE08093800024
:1022A00089E1809381008FEF9FEF90938700809367
:1022B00086000E94620F0E94511081110C94C71079
:1022C00008953EB1242F209523233EB1432B3FB7E1
:1022D000F894680F791F8617970711F43FBF089588
:1022E000FC015191CF01E8E04EB9000000C057FF5A
:1022F0002EB9550F000000C000C000C02EB900C0AC
:10230000EA9591F7E8CF2DB1242B2DB99B01220F2F
:10231000331F620F731F0E94611187EC90E00197D9
:10232000F1F700C00000089540E40C9483110F936E
:102330001F93CF93DF93C62FD42F022FFC018281EE
:102340008823C9F0609389010E94351F909388010A
:102350008093870180E28C0F883008F050C0C770EE
:1023600081E001C0880FCA95EAF7DF91CF911F91F4
:102370000F910C941D1510918901161335C0809191
:102380008701909188010E94411F883C910560F56A
:10239000C0E2CD0F1D17B9F080E2810F883040F404
:1023A000177081E001C0880F1A95EAF70E94241582
:1023B000C83048F481E09D2F977001C0880F9A952E
:1023C000EAF70E941D15802F0E940A15C830B8F444
:1023D000D77081E001C0880FDA95EAF7DF91CF91DD
:1023E0001F910F910C94241580E28C0F883038F4E3
:1023F000C77081E001C0880FCA95EAF7EFCFDF917F
:10240000CF911F910F9108959C01CB01233F4CE583
:10241000340731F190F4283DFCE53F07E9F0293D10
:102420004CE5340769F1273D3C4579F426E241EE5D
:1024300061EE0E94971180E00895253FFCE53F077B
:10244000B9F090F0263F3C45B9F0FC018281882329
:10245000D1F010928901089527E245EE65EEE9CFAB
:1024600026E241EE60EEE5CF27E245EE64EEE1CFF5
:1024700026E241EE62EEDDCF27E245EE66EED9CFF1
:1024800028E241E0EBCF81E0089590938F018093A3
:102490008E010895E0918E01F0918F01309721F027
:1024A0000190F081E02D099480E00895E0918E0183
:1024B000F0918F01309721F00280F381E02D099493
:1024C0000895E0918E01F0918F01309739F022E06C
:1024D000DC012C930480F581E02D0994089520916E
:1024E0008C0130918D012817390771F090938D017F
:1024F00080938C01E0918E01F0918F01309721F053
:102500000680F781E02D0994089520918A01309189
:102510008B012817390771F090938B0180938A0102
:10252000E0918E01F0918F01309721F00084F185C8
:10253000E02D0994089585B7806885BF85B78068C8
:1025400085BF0895089508950C94A21208950C94DF
:10255000A6120E949B120E94A3120C94A41281E066
:1025600008950E942C1F0E9460080E94B31F0E94C1
:10257000620F0E94890E0C94A7125F926F927F9255
:102580008F929F92AF92BF92CF92DF92EF92FF9283
:102590000F931F93CF93DF93CDB7DEB72A970FB674
:1025A000F894DEBF0FBECDBF0E94C8080E94AF12D4
:1025B000882309F47AC091E9A92E91E0B92E10E0A0
:1025C00000E088248394912C502E802F0E9456087E
:1025D0007C01F501C190D1905F01C816D90609F4BC
:1025E0005EC080911B0281FD0E945F0890E080E048
:1025F000CE24DF243401082E02C0660C771C0A9416
:10260000E2F7960126213721232B09F443C08E835C
:102610005F82E620F72081E0EF2809F480E08887D8
:102620000E94351F8160782F9A8789874E815F814C
:1026300068858A850E947C13000F111FF801EF56F0
:10264000FE4F8081918168267926718260820E9486
:1026500040210E944A12909190018917B9F10E947D
:102660004A12809390012A960FB6F894DEBF0FBEEF
:10267000CDBFDF91CF911F910F91FF90EF90DF9031
:10268000CF90BF90AF909F908F907F906F905F9012
:102690000C94830301968F30910509F0ABCF0F5F47
:1026A0001F4F0530110509F08FCF8FEF89838A8383
:1026B0001B820E94351F8160782F9D838C83498106
:1026C0005A816B818D810E947C13C1CF2A960FB6EF
:1026D000F894DEBF0FBECDBFDF91CF911F910F9158
:1026E000FF90EF90DF90CF90BF90AF909F908F9032
:1026F0007F906F905F900895CF93DF93CDB7DEB753
:102700002B970FB6F894DEBF0FBECDBF4F8358870F
:1027100069877A878B871E821D8285E0FE01379646
:10272000DE01119601900D928A95E1F749815A8157
:102730006B817C818D819E812B960FB6F894DEBFD4
:102740000FBECDBFDF91CF910C946D1AFC0180813B
:1027500091810C94AB1C882309F405C18238B9F42B
:102760000E944A1281FDFFC089E30E94D91C0E9489
:102770003D1D2FEF81EE94E0215080409040E1F725
:1027800000C0000089E30E94E01C0C943D1D8338CA
:10279000A1F40E944A1280FDE6C083E50E94D91C84
:1027A0000E943D1D2FEF81EE94E02150804090402B
:1027B000E1F700C0000083E5E6CF8438A1F40E9471
:1027C0004A1282FDD0C087E40E94D91C0E943D1DA0
:1027D0002FEF81EE94E0215080409040E1F700C05F
:1027E000000087E4D0CF9CEF980F913A18F40E9434
:1027F000D91CCBCF90E2980F983050F4877091E0BD
:1028000001C0990F8A95EAF7892F0E94011DBDCF5B
:102810009BE5980F933070F4853A31F0863A39F0A1
:1028200083E890E00C946F1281E890E0FBCF82E89F
:1028300090E0F8CF98E5980F973108F08EC0883A6D
:1028400009F446C0893A09F446C08A3A09F446C0F8
:102850008B3A09F446C08C3A09F446C08B3B09F424
:1028600046C08C3B09F446C08D3A09F446C0803B13
:1028700009F446C08E3A09F446C08F3A09F446C0BE
:10288000813B09F446C0823B09F446C0833B09F40E
:1028900046C0843B09F446C0853B09F446C0863BEC
:1028A00009F446C0873B09F446C0883B09F446C09A
:1028B000893B09F446C08D3B09F446C08E3B09F4C0
:1028C00046C08A3B09F446C090E080E00C94851233
:1028D00082EE90E0FBCF89EE90E0F8CF8AEE90E0B8
:1028E000F5CF85EB90E0F2CF86EB90E0EFCF83EB76
:1028F00090E0ECCF84EB90E0E9CF87EB90E0E6CF7F
:102900008CEC90E0E3CF8DEC90E0E0CF83E891E0B9
:10291000DDCF8AE891E0DACF82E991E0D7CF84E990
:1029200091E0D4CF81E292E0D1CF83E292E0CECFAA
:1029300084E292E0CBCF85E292E0C8CF86E292E0DB
:10294000C5CF87E292E0C2CF8FE690E0BFCF80E7AD
:1029500090E0BCCF8AE292E0B9CF803F20F00E94A5
:102960004E200C9435210895882309F452C08238F2
:1029700071F40E944A1281FF4CC089E30E94D91C65
:102980000E943D1D89E30E94E01C0C943D1D83388C
:1029900059F40E944A1280FF3CC083E50E94D91C72
:1029A0000E943D1D83E5EFCF843859F40E944A12FE
:1029B00082FF2FC087E40E94D91C0E943D1D87E43E
:1029C000E2CF9CEF980F913AF0F290E2980F983096
:1029D00050F4877091E001C0990F8A95EAF7892F2A
:1029E0000E94071DD2CF9BE5980F933020F490E012
:1029F00080E00C946F1298E5980F973120F490E0E6
:102A000080E00C948512803F20F00E94B6200C9448
:102A100035210895CF93C82F0E94AB13C93349F4D1
:102A20002FEF87EE93E0215080409040E1F700C007
:102A300000008C2FCF910C94B414882321F00E94B5
:102A4000011D0C943D1D0895882321F00E94071D4F
:102A50000C943D1D0895BF92CF92DF92EF92FF92AA
:102A60000F931F93CF93DF936C01D62FC72FFC01D9
:102A7000058102950F70128111110E941E1D0E9486
:102A8000F71CE82E882371F01123C9F080E28D0F26
:102A90008830A8F082E00E94881D0E94F71C91E017
:102AA000E82EE926BC2EB2949FE0B922FDE0FB158A
:102AB000A8F1EB2DF0E0E252F64D0C944629E12C02
:102AC000F1CF0C2F0F70C07F11F00295007F112302
:102AD000A9F0002359F080E28D0F883010F0D11159
:102AE00009C0802F0E94011D0E943D1D8D2F0E9454
:102AF000AB1314C0802F0E94111DF6CF8D2F0E94A2
:102B0000B414002359F080E28D0F883010F0D111F9
:102B10002CC0802F0E94071D0E943D1D2B2D285088
:102B2000330B2430310520F40E944A120E948303A3
:102B3000EE2009F4E8C10E94F31C80FDE4C1F60117
:102B400012820E94ED1C0E94791BC6010E948D1703
:102B50000E94ED1CDF91CF911F910F91FF90EF909C
:102B6000DF90CF90BF900C949A1B802F0E94171D6E
:102B7000D3CF2C2F2F70F22EC07FC03219F0F294D9
:102B800080EFF822DD2369F0D13049F1112391F172
:102B9000002351F1F601858180FFA8CF8F708583D6
:102BA00023C0112381F0011106C00E94241D8F292A
:102BB0000E941D15B3CF0130C1F70E94241D8F293B
:102BC0000E942A1DABCF011106C00E94331D8F2D1C
:102BD0000E942415A3CF013009F4A0CFF6CF112312
:102BE00029F0063008F09ACF8F2DE2CF053008F09B
:102BF00095CFEDCF002359F3D93349F4FFEF27EEFA
:102C000033E0F15020403040E1F700C000008D2F4C
:102C10000E94B41483CF8C2F86958695837069F0BB
:102C2000813009F07BCF8D2F9C2F9370111102C042
:102C300090E080E00E94851271CF8D2F9C2F9370C1
:102C4000111102C090E080E00E946F1267CF112343
:102C500009F1D53F99F0D63FB9F0D43F49F48091BE
:102C60008802909189028160909389028093880202
:102C70008D2F0E944E200E94352150CF80918802D6
:102C8000909189028260F0CF8091880290918902B0
:102C90008460EACFD53F89F0D63FA9F0D43F49F40C
:102CA00080918802909189028E7F9093890280930F
:102CB00088028D2F0E94B620DECF809188029091ED
:102CC00089028D7FF2CF80918802909189028B7F5B
:102CD000ECCF8C2F837009F041C011111FCF4D2F05
:102CE000429546954770440F440F0D2F0F7010E02A
:102CF00030E020E0042E04C0000F111F221F331FFC
:102D00000A94D2F760E070E0CB01D4FF0FC06FE00F
:102D100070E080E090E004C0660F771F881F991F65
:102D20004A95D2F76095709580959095C695C69511
:102D3000C370602B712B822B932BC23049F058F457
:102D4000C13019F00E942B1BE9CE0E94191BE6CE60
:102D50000E943D1BE3CE0E94171BE0CE86951123F7
:102D600011F08C2F8170882309F4D8CE4D2F429515
:102D700046954770440F440F0D2F0F7010E030E060
:102D800020E0042E04C0000F111F221F331F0A94DD
:102D9000D2F760E070E0CB01D4FF0FC06FE070E0CD
:102DA00080E090E004C0660F771F881F991F4A9546
:102DB000D2F76095709580959095C695C695C3702D
:102DC000602B712B822B932BC23049F058F4C13009
:102DD00019F00E94F01BA2CE0E94DE1B9FCE0E9423
:102DE000021C9CCE0E94531B99CECF70112329F058
:102DF0008C2F0E94791B8D2FDBCE8D2F0E942415E6
:102E00008C2F0E949A1B8ACED23F89F160F4D03F6A
:102E1000C9F0D13F29F1112309F442C0011166CE56
:102E20008C2F8F7121C0D33F39F1D43FA1F71123EB
:102E300069F1CF718C2F0E94791B63E08C2F0E9467
:102E4000731D6CCE112341F0053008F067CE8C2F36
:102E50008F710E94BD1B62CE063008F05FCEF7CFA7
:102E60008C2F8F71112369F20E94791B57CE8C2F02
:102E70008F711123C9F3C5CF112329F08C2F8F71C6
:102E80000E94641B4BCE0E945F1B48CE81E00E94D3
:102E9000881D023008F442CE82E00E94881D3ECE9A
:102EA000002359F0D93309F0B2CE8FEF97EEE3E06B
:102EB00081509040E040E1F7A8CE8C2F8F71A1CFD8
:102EC00011112CCECF70C230B1F040F4CC2381F080
:102ED000C13009F023CE0E949C0F20CEC43089F06F
:102EE00068F080E0C53009F019CE0E940C1016CEB3
:102EF0000E947E0F13CE0E94DC0F10CE0E94E30FC3
:102F00000DCE83E0F2CFDF91CF911F910F91FF9013
:102F1000EF90DF90CF90BF9008950F931F93CF93C2
:102F2000DF93EC018B819C81892B29F08881998129
:102F300089238F3F29F4DF91CF911F910F9108953D
:102F4000CE010E949B038823B1F3688179818A8135
:102F50000E94B51C8C010E94141C0E94161BB80113
:102F6000CE01DF91CF911F910F910C942B150E94F0
:102F70001E1D0E94211D0E943D1D0E94D7210E94FE
:102F8000352190E080E00E946F1290E080E00C9488
:102F900085120E94E71C0C94B7170E940E1D0C941A
:102FA000C917E92FE295EF70E250EE3070F4F0E0CF
:102FB000E451F64D0C944629803F19F020F4883EE8
:102FC00020F481E00895843FE1F380E00895883E95
:102FD000C0F3813FD1F7F5CF93FB882780F908959F
:102FE0000E94AB1C0C94D117CF93DF9300D000D07C
:102FF0000F92CDB7DEB70F900F900F900F900F90FC
:10300000DF91CF910895CF93DF9300D000D000D00F
:10301000CDB7DEB726960FB6F894DEBF0FBECDBF94
:10302000DF91CF9108951F93CF93DF93C0919C01BF
:1030300016E080919D018C1304C0DF91CF911F9108
:103040000895D0E01C9FF0011D9FF00D1124E25661
:10305000FE4F4081518162817381848195810E94FC
:1030600003182196C770E5CF4091CE015091CF0152
:103070006091D0017091D1018091D2019091D301E2
:103080000C9403181F93CF93DF938091D301807F1B
:10309000C1F48091D0018823A1F080919C01C0915E
:1030A0009D016091CE017091CF014091D10150916D
:1030B000D201D62FD723DA01A095B09516E0C81318
:1030C00004C0DF91CF911F91089590E04115510503
:1030D00011F0DF3F31F401968770F1CF2A0F3B1FCB
:1030E00017C0189FF001199FF00D1124E256FE4FF2
:1030F00021812713F0CF20812613EDCF22812111CA
:10310000EACF238134812417350740F3241B350B84
:10311000283C310500F72091D3012F7020612093C6
:10312000D30126E0289FF001299FF00D1124ED55D1
:10313000FE4F80818F70806180838EEC91E00E94D1
:103140008D17DF91CF911F910C941318BF92CF92DE
:10315000DF92EF92FF920F931F93CF93DF93CDB740
:10316000DEB761970FB6F894DEBF0FBECDBF8C01FE
:1031700085E0F801DE011D9601900D928A95E1F738
:10318000D8014C9111965C9111971296EC90129780
:103190008091D1019091D201009709F47FC12091D3
:1031A000CE013091CF01622F63236F3F09F476C1C6
:1031B0001396CD90DC90B090D001BB2009F411C1E2
:1031C000C816D906D0F1F601E81BF90BCF01FF2490
:1031D000F394883C910508F0F12C8091D301982F4D
:1031E000907FFF2009F4B8C091117FC0FE2C3513E9
:1031F00029C0241327C0E11025C08F7080618093FF
:10320000D3010E9434188EEC91E00E948D178091BA
:10321000D301D80115968C938F2D61960FB6F89433
:10322000DEBF0FBECDBFDF91CF911F910F91FF90F9
:10323000EF90DF90CF90BF900895809590958C0D82
:103240009D1DC5CFCD2829F0852F84238F3F09F000
:1032500041C180E0B82FB170DB2E80FF3CC080916F
:103260009C0120919D0136E0821315C04D875E8739
:103270008D859E850E94AB1C292F22952F702230B0
:10328000F0F0243018F59F70F1F0F8019581907FEF
:10329000D1F4D12C1EC090E0389FF001399FF00D81
:1032A0001124E256FE4F6181651306C060816413EC
:1032B00003C06281E6120FC001968770D5CF9F7060
:1032C00011F0882331F3805E883018F3C8010E9422
:1032D0008D17FD2CA1CFEE2009F49ECF8091D30154
:1032E00081608093D301F12C97CF351306C024134E
:1032F00004C0D801EE2009F49AC04D875E878D8501
:103300009E850E94F017882319F1EE2009F1809123
:10331000D301803270F02091CE013091CF013887F7
:103320002F831986DB86CA868C87CE0107960E947A
:103330008D1786E0F801AEECB1E001900D928A9510
:10334000E1F70E9442180E943418FF24F39464CFDE
:10335000C8010E948D17F9CF911113C07C2DD98A15
:10336000C88A6E2D89890E94F4178EEC91E00E9424
:103370008D1786E0EEECF1E0DF011D928A95E9F70A
:1033800063C0351312C0241310C0E1100EC0F80141
:103390008583C8010E948D17EEECF1E086E0DF0125
:1033A0001D928A95E9F7FB2C37CF4D875E878D8577
:1033B0009E850E94F017882359F2EE2049F28091F1
:1033C000D301803208F4B5CF2091CE013091CF01E6
:1033D0003A8329831B82DD82CC828E83CE010196C3
:1033E000A6CFC816D90698F1F601E81BF90BCF0154
:1033F000F12C883C910508F049C0FE2CEE2009F420
:10340000A7CF351332C0241330C08091D30180FD83
:1034100023C0982F907F01F1D80115968C931597B2
:10342000903F39F0982F907F905F8F70892B159681
:103430008C93C8010E948D1786E0F801AEECB1E0D4
:1034400001900D928A95E1F70E943418E5CE80959F
:1034500090958C0D9D1DCCCF86E0F801AEECB1E0CF
:1034600001900D928A95E1F7D7CE4D875E878D85C5
:103470009E850E94F01781115CCF8091D3018160FD
:103480008093D301C8010E948D17C6CE7C2DD98AA6
:10349000C88A6E2D89890E94F4176BCFEE2009F43B
:1034A00057CF4D875E878D859E850E94F017F82E39
:1034B000882309F44DCF86E0F801AEECB1E001902D
:1034C0000D928A95E1F78EEC91E00E94A6130E947E
:1034D0004218BACF81E08E25BDCE1F93CF93DF93E4
:1034E000CDB7DEB72C970FB6F894DEBF0FBECDBFB9
:1034F0004F83588769877A878B879C87CE01079689
:103500000E94A618882369F08A859B85892B39F04B
:103510004F815885842F85238F3F09F071C016E0B5
:103520005FC086E0FE013796DE01119601900D9294
:103530008A95E1F78A859B85892B89F388859F8108
:1035400089238F3F61F320919D0130E0C9010196ED
:103550008770992740919C014817190671F40E94C1
:10356000CD1710929D0110929C0186E0EEECF1E0E7
:10357000DF011D928A95E9F7D2CF96E0929FD001A4
:10358000939FB00D1124A256BE4FFE0131960190BB
:103590000D929A95E1F780939D010E941318BFCF79
:1035A000819FC001112482569E4F0E94A618882335
:1035B000E9F0E0919C011E9FF0011124E256FE4FBC
:1035C0004081518162817381848195810E940318B9
:1035D00080919C0190E001968770992780939C01CF
:1035E00080919C0190919D018913DACF2C960FB6A2
:1035F000F894DEBF0FBECDBFDF91CF911F9108952C
:1036000069857A858B859C850E94031888CF0895EB
:103610000C94071B0E94081B60930A0270930B0214
:1036200080930C0290930D020C94B71708950C949C
:103630000A1B0F931F9300910A0210910B02209115
:103640000C0230910D02602B712B822B932B1F915A
:103650000F910C940A1B0F931F9300910A02109173
:103660000B0220910C0230910D0260237123822302
:1036700093231F910F910C940A1B0F931F9300919A
:103680000A0210910B0220910C0230910D0260276A
:103690007127822793271F910F910C940A1B0C947A
:1036A000071B0C944F1B0E94511B609306027093E2
:1036B000070280930802909309020C94B71760E008
:1036C00070E0CB010C94531B0F931F9341E050E02B
:1036D00060E070E08A019B0104C0000F111F221FEF
:1036E000331F8A95D2F7C901B8011F910F910C942D
:1036F000531B0F931F9341E050E060E070E004C063
:10370000440F551F661F771F8A95D2F780910602D6
:1037100090910702A0910802B09109028A019B01D1
:10372000082B192B2A2B3B2BC901B8011F910F9194
:103730000C94531B0F931F9341E050E060E070E046
:1037400004C0440F551F661F771F8A95D2F7CB011F
:10375000BA01609570958095909500910602109140
:10376000070220910802309109026023712382230D
:1037700093231F910F910C94531B0F931F9341E0C0
:1037800050E060E070E004C0440F551F661F771FD3
:103790008A95D2F78091060290910702A0910802C3
:1037A000B09109028A019B01082719272A273B2784
:1037B000C901B8011F910F910C94531B0F931F93D4
:1037C000009106021091070220910802309109022F
:1037D000602B712B822B932B1F910F910C94531BF9
:1037E0000F931F9300910602109107022091080287
:1037F0003091090260237123822393231F910F913B
:103800000C94531B0F931F93009106021091070213
:10381000209108023091090260277127822793279F
:103820001F910F910C94531B08952FE0929F800DD0
:103830001124982F977041E001C0440F9A95EAF740
:1038400086958695869595E0899FF0011124EC5226
:10385000FE4F90E080E070E05191DF0111979B01F5
:10386000082E02C0369527950A94E2F7217021951B
:103870002527242325272C9301968530910561F770
:1038800008952FE0929F800D1124982F97708695B0
:103890008695869525E0829FF0011124EC52FE4F1B
:1038A00050E040E080E0219130E0092E02C03695E2
:1038B00027950A94E2F721703327042E01C0220FC6
:1038C0000A94EAF7822B4F5F5F4F4530510559F755
:1038D0000895BF92CF92DF92EF92FF920F931F93C2
:1038E000CF93DF938C01C0900602D0900702E09046
:1038F0000802F090090280910A0290910B02A091B7
:103900000C02B0910D02C82AD92AEA2AFB2ACFE17B
:10391000D0E0BC2ED701C6010C2E04C0B695A795E9
:10392000979587950A94D2F780FD0EC0219788F766
:10393000B12C8B2DDF91CF911F910F91FF90EF90C4
:10394000DF90CF90BF900895B8018C2F0E94B305EF
:10395000019761F3EECFCF93DF93EC010E94691CD6
:10396000BE01DF91CF910C94B3051F93CF93DF93EA
:10397000EB0190919B01992331F0CB01DF91CF9125
:103980001F910C94AB1C882379F0CB010E94691C19
:10399000182F682FCE010E94151CBE01812FDF91C8
:1039A000CF911F910C94B305CB010E94411C182F9D
:1039B000F4CF682F80911101909112010C94861E12
:1039C000682F80911101909112010C94881E8091B2
:1039D0001101909112010C948A1E80910E0285951E
:1039E00085958595089580910E0287700895909130
:1039F0000E02977081E009F480E0089580911A0228
:103A0000089590911A02892B80931A020895809547
:103A100090911A02982390931A02089510921A0214
:103A2000089590911902892B809319020895809529
:103A300090911902982390931902089510921902F7
:103A4000089510921802089580910F020895089524
:103A50000C94271D90910F02981721F080930F026C
:103A60000C94281D089580910F02882329F010924C
:103A70000F0280E00C94281D0895E0911101F0914F
:103A8000120180911A028083E0911101F0911201DC
:103A9000808190911902892B8083E0911101F0912E
:103AA0001201808190911802892B808390910F02DE
:103AB000992381F0E0911101F09112018081892B0D
:103AC000808380911101909112010E944D1E8111FD
:103AD0000E94331D80911101909112010C94561295
:103AE00008950C94701D98E0899F90011124622B19
:103AF00060930E020E94791B80910E028595859538
:103B000085950C94711D10920E0280E00C94711D2D
:103B100090910E028095892380930E02282F2770A2
:103B200071F4282F082E000C330B9217130639F06E
:103B30008595859585950E949A1B0C94831D089503
:103B400090E080E00E948D2921E08C3E9E4F09F09C
:103B500020E0822F089582E090E00C947F2983E09A
:103B600090E00C947F29CF9384E090E00E947F291D
:103B7000C82F81E290E00E947F29982F8C2FCF914F
:103B80000895CF93C92F682F84E090E00E94932975
:103B90006C2F81E290E0CF910C94932986E090E025
:103BA0000C947F29682F86E090E00C949329AB0158
:103BB000BC018FE090E00C94A529AB01BC0183E12E
:103BC00090E00C94A52960E070E0CB010C94DD1D21
:103BD00060E070E0CB010E94D71D0C94E31D6CEEF9
:103BE0007EEF90E080E00E94B12960E082E090E00A
:103BF0000E94932960E083E090E00E949329109254
:103C00000A0210920B0210920C0210920D0260E058
:103C100084E090E00E94932960E081E290E00E94BD
:103C2000932960E085E090E00E94932960E086E0BF
:103C300090E00E9493296FEF87E090E00E94932923
:103C400040E050E0BA0188E090E00E94A52960E0E1
:103C50008DE090E00E94932940E050E0BA0188E1B5
:103C600090E00E94A52960E087E190E00E949329FE
:103C700040E050E0BA018CE190E00E94A52960E0AC
:103C800080E290E00E9493290C94E81D0C94EF1DB3
:103C9000682F8EE090E00C9493299C012E5F3F4F9B
:103CA000AC01485F5F4F80E02417350709F40895A1
:103CB000F90191919F019923B9F38F5FF5CF9C0191
:103CC000FC0132969FEF80E04191461751F09F3FF3
:103CD00019F4411101C0982F8F5F8630A9F79F3FDB
:103CE00009F40895290F311D97FD3A95F901628372
:103CF0000895FC01329608962191261303C0DF0136
:103D000011971C92E817F907B9F708950C945F1EF4
:103D10000C94791E029626E0FC0111922A95E9F78F
:103D20000895089508950C94921E0E94931E809108
:103D30009402843009F43CC010921C0288E190E0A7
:103D400020E40FB6F894A895809360000FBE2093EE
:103D5000600080E00E94A41080E00E9483030E9423
:103D6000C40E80911D0281110AC081E080931D0262
:103D700080913402817080931E020E94F70D0E9490
:103D8000931E83B7817F846083BF83B7816083BFC5
:103D90007894889583B78E7F83BF0FB6F894A895E3
:103DA00080916000886180936000109260000FBE77
:103DB00008950895CF930E94911E0E94C8080E9402
:103DC000D91EC0E08C2F0E945608892B31F4CF5F9A
:103DD000C530C1F780E0CF91089581E0FCCF089510
:103DE0000C94EF1E0E94CD170E94620F0E944A128F
:103DF0000E94830310921D0280911E0281110E9475
:103E0000BC0E0E94090E0C94F01E1F921FB61F924A
:103E100011248F939F93AF93BF9380911C028111C4
:103E200013C080918A0290918B02A0918C02B09174
:103E30008D024196A11DB11D80938A0290938B0241
:103E4000A0938C02B0938D02BF91AF919F918F91FF
:103E50001F901FBE1F90189582E084BD93E095BD12
:103E60009AEF97BD80936E0008952FB7F8948091D4
:103E70008A0290918B02A0918C02B0918D022FBF8B
:103E80000895CF92DF92EF92FF920F931F932FB777
:103E9000F89440918A0250918B0260918C0270914B
:103EA0008D022FBF6A017B01EE24FF248C0130E0DC
:103EB00020E0C016D106E206F30650F0481B590B6D
:103EC000CA011F910F91FF90EF90DF90CF9008955E
:103ED00041505109F3CF78941F921FB61F921124BD
:103EE0008F939F93AF93BF9380918A0290918B029F
:103EF000A0918C02B0918D020196A11DB11D8093FD
:103F00008A0290938B02A0938C02B0938D02BF9192
:103F1000AF919F918F911F901FBE1F90189581E0C8
:103F20008093E00080E28093D8001092C9008FE176
:103F30009EE40197F1F700C0000087E090EBDC0100
:103F400080939D0290939E02A0939F02B093A00243
:103F500088E19CE00FB6F894A895809360000FBEAE
:103F600090936000FFCF0E94A01D811102C00E94AB
:103F7000461E0E94AB1D80931B020E94B31D9093AE
:103F80008F0280938E020E94AF1D682F70E090E038
:103F900080E00C94171B8091220280FF12C0609178
:103FA000160185E0689FB001112475956795759598
:103FB000679560387105A8F561157105A1F1862F27
:103FC000089581FF09C06091160185E0689FB001E6
:103FD000112475956795EDCF6091160182FD0AC099
:103FE000809121028823D1F09091150160911601F2
:103FF000891728F085E0689FB0011124DACF869FE9
:10400000B001112485E0869F9001879F300D112417
:10401000692F70E0C9010E941029CBCF65E070E0E4
:10402000CECF8FE7089581E008958091220280FF2E
:104030000CC06091140170E0759567957595679552
:104040006115710549F1862F089581FF06C06091C1
:10405000140170E075956795F3CF6091140182FDAE
:104060000BC0909121029923A1F0609113018091DE
:104070001401961738F0682F70E06038710500F36E
:104080008FE70895899FC001112470E00E941029D4
:10409000F4CF61E070E0D7CF81E00895803F31F444
:1040A0000E94CB1F8195809326020895813F19F4C9
:1040B0000E94CB1FF8CF823F31F40E94CB1F819525
:1040C000809325020895833F19F40E94CB1FF8CFF7
:1040D000893F29F40E9415208093270208958A3F82
:1040E00021F40E9415208195F7CF8B3F31F40E9477
:1040F000152081958093280208958C3F19F40E9421
:104100001520F8CF843F31F48091240281608093A0
:1041100024020895853F21F4809124028260F7CF24
:10412000863F21F4809124028460F1CF873F21F4FF
:10413000809124028860EBCF883F21F48091240293
:104140008061E5CF8D3F31F48091220281608093C0
:10415000220208958E3F21F4809122028260F7CFDF
:104160008F3FB9F7809122028460F1CF90912502B0
:10417000803F41F48091260287FD10922602992308
:1041800071F00895813F29F4809126021816ACF34E
:10419000F6CF823F81F497FFF2CF109225028091F3
:1041A000260290912702892B90912802892B49F7AA
:1041B000109221020895833F19F4191674F3DFCF8A
:1041C000893F39F4809127021816CCF61092270205
:1041D000D6CF8A3F29F48091270287FFD0CFF6CF30
:1041E0008B3F39F48091280287FFC9CF10922802B3
:1041F000C6CF8C3F29F4809128021816BCF3BFCF9C
:10420000843F31F4809124028E7F80932402B7CFC3
:10421000853F21F4809124028D7FF7CF863F21F4E2
:10422000809124028B7FF1CF873F21F4809124027B
:10423000877FEBCF883F21F4809124028F7EE5CFEA
:104240008D3F31F4809122028E7F8093220297CF9E
:104250008E3F21F4809122028D7FF7CF8F3F09F0AE
:104260008ECF809122028B7FF0CF83E292E00E947A
:1042700061120E94351F9093200280931F020895BF
:104280001F93CF93DF9380911F02909120020E9491
:10429000411FAC01909121022091170130E0911152
:1042A00006C0209118018AE0289F9001112442172E
:1042B000530778F020912502C0912602D091270261
:1042C00010912802211109C08C2F8D2B812B09F010
:1042D0006AC0DF91CF911F9108959F3F19F09F5FB2
:1042E00090932102121624F40E94CB1F8093250282
:1042F0008091250287FF05C00E94CB1F8195809386
:1043000025021C1624F40E94CB1F80932602809164
:10431000260287FF05C00E94CB1F8195809326024D
:10432000309125023323A1F020912602222381F02F
:1043300045EB3403C0011124992369F190932502C0
:1043400045EB240390011124332349F130932602D5
:104350001D1624F40E9415208093270280912702C5
:1043600087FF05C00E9415208195809327021116B2
:1043700024F40E941520809328028091280287FF50
:1043800005C00E941520819580932802DF91CF916E
:104390001F910C94352181E080932502D1CF81E0DB
:1043A00080932602D5CF9F3F09F099CFAACF86E010
:1043B000E3E2F2E0DF011D928A95E9F71092210213
:1043C0001092220208958091310208950F931F9355
:1043D000CF93DF9300D00F92CDB7DEB78C010E9450
:1043E0003024823011F0843021F584E089831B83EE
:1043F0000A8382E08093E9008FEF9091E80081507A
:1044000095FD06C095ED9A95F1F700008111F5CF65
:104410008091E80085FF0DC050E040E063E070E06F
:10442000CE0101960E944D248091E8008E77809302
:10443000E8000F900F900F90DF91CF911F910F9197
:104440000895CF93DF9300D00F92CDB7DEB72091C0
:104450009402243031F523E02983805891099B830D
:104460008A8382E08093E9008FEF9091E800815089
:1044700095FD06C095ED9A95F1F700008111F5CFF5
:104480008091E80085FF0DC050E040E063E070E0FF
:10449000CE0101960E944D248091E8008E77809392
:1044A000E8000F900F900F90DF91CF910895CF9378
:1044B000DF93EC010E943024823011F08430F9F453
:1044C00082E08093E9008FEF9091E800815095FDA4
:1044D00006C095ED9A95F1F700008111F5CF809116
:1044E000E80085FF0CC050E040E066E070E0CE01DF
:1044F0000E944D248091E8008E778093E800DF9140
:10450000CF910895CF93DF93EC010E943024823045
:1045100011F0843039F581E08093E9008FEF9091BC
:10452000E800815095FD06C095ED9A95F1F70000E1
:104530008111F5CF8091E80085FF14C050E040E084
:1045400068E070E0CE010E944D248091E8008E77F3
:104550008093E80088E0FE01A9E2B2E001900D92AC
:104560008A95E1F7DF91CF910895809193028111AF
:1045700009C00E94DD250E943A268091E2008460F5
:104580008093E2000895109293020895089508958B
:104590000C94F21E42E061EC81E00E94592542E257
:1045A00061EC82E00C94592580919602833009F4E5
:1045B0005FC030F48130C1F1823009F49BC00895AE
:1045C0008A3009F487C08B3009F46DC0893009F056
:1045D0004EC080919502813209F049C080919902C4
:1045E00090919A02029708F042C08091E800877F7C
:1045F0008093E8008091E80082FF35C09091F3003D
:104600008091F200029729F48091F1008B7F813034
:1046100021F48091F100809331028091E8008B7742
:104620008093E8000C948D2580919502813AF9F4ED
:104630008091E800877F8093E800809199029091B3
:104640009A02892B61F468E089E292E070E00E94AE
:104650009C248091E8008B778093E800089560E0C7
:1046600090E080E0F3CF809194028111C3CF089550
:1046700080919502813AD9F78091990290919A029E
:10468000892BA9F78091E800877F8093E8008091CB
:10469000E80080FFFCCF809123018093F10080919E
:1046A000E8008E77BDCF80919502813201F780912D
:1046B000990290919A02892BD1F68091E800877F28
:1046C0008093E8000E948D258091970280932301BA
:1046D0000C94CD1780919502813249F68091E800C3
:1046E000877F8093E8000E948D25809198028093B7
:1046F0003202089580919502813A09F0B8CF8091F5
:10470000E800877F8093E8008091E80080FFFCCF7D
:1047100080913202C2CF84B7877F84BF0FB6F894EE
:10472000A89580916000886180936000109260007D
:104730000FBE80E880936100109261000E94A91270
:104740000E94DD250E943A268091E20084608093D9
:10475000E20078940E94C3280E94B11289E191E09E
:104760000E94451280919402853029F00E94BD126A
:104770000E94C70EF7CF0E94951E80919202882357
:1047800089F30E94DA1E882369F30E943724EACF56
:104790000C94CA23292F33272330310519F168F4EB
:1047A0002130310509F44AC02230310509F44BC0EB
:1047B00090E080E030E020E028C02132310579F13E
:1047C00022323105A9F780E490E023E635E0611557
:1047D0007105D9F085E890E02EED34E06130710587
:1047E000A1F0E6CF99278130910599F0009741F02B
:1047F0008230910589F00397D9F6EFE6F4E002C024
:10480000EDE8F4E0849190E09F01FA013183208388
:104810000895E5E8F4E0F6CFE5E7F4E0F3CF89E0CA
:1048200090E023EA34E06115710579F389E090E0C6
:104830002CEB34E06130710541F3BACF82E190E0B6
:104840002CEC34E0E2CF8BE390E021E934E0DDCFE3
:1048500080919402843011F482E0089581E00895FB
:1048600080913302811102C00C942824089580E1C4
:1048700089BD82E189BD09B400FEFDCF8091D800D9
:104880008F7D8093D8008091E00082608093E0006B
:104890008091E00081FDFCCF0895AF92BF92CF924E
:1048A000DF92FF920F931F93CF93DF936C01EB0185
:1048B0008A010E94AC25F82E811123C00115110533
:1048C00039F0F80180819181C81BD90BC80ED91E1F
:1048D000B12CA12C2097A9F08091E80085FD22C081
:1048E0008091E8008E778093E80001151105A1F012
:1048F000F80180819181A80EB91EB182A08285E065
:10490000F82E8F2DDF91CF911F910F91FF90DF90A7
:10491000CF90BF90AF9008950E94AC258823D1F22C
:10492000F82EEFCFF60181916F018093F10021976E
:10493000FFEFAF1ABF0ACECFFC0180919B0290918E
:104940009C0286179707A0F06115710529F49091D4
:10495000E8009E779093E80090E06115710551F4AE
:10496000911108C08091E80082FF34C080E0089572
:10497000BC01F2CF809194028823C1F18530C1F14E
:104980008091E80083FD30C08091E80082FDEACF8D
:104990008091E80080FFE1CF8091F3002091F20048
:1049A000382F6115710519F02830310558F091E064
:1049B0002830310509F090E02091E8002E7720930F
:1049C000E800CBCF81918093F100615071092F5F96
:1049D0003F4FE7CF80919402882341F0853041F02A
:1049E0008091E80083FFBECF81E0089582E00895C2
:1049F00083E00895FC0180919B0290919C028617B0
:104A00009707A0F06115710529F48091E8008E7771
:104A10008093E80090E06115710551F4911108C090
:104A20008091E80082FF35C080E00895BC01F2CF9C
:104A3000809194028823C9F18530C9F18091E80002
:104A400083FD31C08091E80082FDEACF8091E800CB
:104A500080FFE1CF8091F3002091F200382F6115A3
:104A6000710519F02830310558F091E028303105F2
:104A700009F090E08091E8008E778093E800CBCF3A
:104A800084918093F1003196615071092F5F3F4FFF
:104A9000E6CF80919402882341F0853041F08091E7
:104AA000E80083FFBDCF81E0089582E0089583E0B0
:104AB0000895982F973028F08F708093E90081E057
:104AC00008959093E900242F762F50E0981731F045
:104AD0007091EC002091ED005091F00021FD02C09A
:104AE0009F5FE8CF3091EB003E7F3093EB00309139
:104AF000ED003D7F3093ED003091EB00316030935D
:104B0000EB007093EC002093ED005093F0002091A7
:104B1000EE0027FDE5CF80E008958091950287FFA4
:104B200013C08091E80082FF06C08091E8008B7777
:104B30008093E80004C0809194028111F2CF08951F
:104B4000809194028823D9F38091E80080FFF8CF08
:104B50008091E8008E77ECCF2091E4003091E50061
:104B600095E6A9012091EC00822F817020FF06C0FC
:104B70008091E80080FF06C080E008952091E80061
:104B800022FD1AC080919402882389F0853089F033
:104B90008091EB0085FD0FC02091E4003091E5008D
:104BA00042175307F9F29150E1F684E0089582E04C
:104BB000089583E0089581E008950E944B260E94A5
:104BC0005326E0EEF0E0808181608083E8EDF0E044
:104BD00080818F77808319BCA7EDB0E08C918E7FA8
:104BE0008C9380818F7E80831092930208950F931F
:104BF0001F93CF93DF930E944B260E945326C8ED4C
:104C0000D0E088818F7788838881806888838881D5
:104C10008F7D888319BC109294021092900210929A
:104C200092021092910200EE10E0F80180818B7FD9
:104C3000808388818160888342E060E080E00E9418
:104C40005925E1EEF0E080818E7F8083E2EEF0E096
:104C5000808181608083808188608083F801808189
:104C60008E7F8083888180618883DF91CF911F91BF
:104C70000F910895E8EDF0E080818F7E8083E7ED6D
:104C8000F0E080818160808384E082BF81E0809356
:104C900093020C94F725E8EDF0E080818E7F80830D
:104CA0001092E20008951092DA001092E100089547
:104CB0001F920F920FB60F9211242F933F934F9391
:104CC0005F936F937F938F939F93AF93BF93EF9374
:104CD000FF938091E10082FF0BC08091E20082FF90
:104CE00007C08091E1008B7F8093E1000E94C22881
:104CF0008091DA0080FF19C08091D80080FF15C034
:104D00008091DA008E7F8093DA008091D90080FF55
:104D100096C080E189BD82E189BD09B400FEFDCF66
:104D200081E0809394020E94B5228091E10080FF8F
:104D300019C08091E20080FF15C08091E2008E7F53
:104D40008093E2008091E20080618093E200809194
:104D5000D80080628093D80019BC85E080939402CB
:104D60000E94C7228091E10084FF2BC08091E20065
:104D700084FF27C080E189BD82E189BD89B5982F74
:104D8000917080FFFBCF8091D8008F7D8093D800F9
:104D90008091E1008F7E8093E1008091E2008F7E20
:104DA0008093E2008091E20081608093E200809134
:104DB0009002882309F449C084E0809394020E9401
:104DC000C8228091E10083FF29C08091E20083FF27
:104DD00025C08091E100877F8093E10082E080938D
:104DE0009402109290028091E1008E7F8093E10006
:104DF0008091E2008E7F8093E2008091E2008061EA
:104E00008093E20042E060E080E00E9459258091BA
:104E1000F00088608093F0000E94C622FF91EF911D
:104E2000BF91AF919F918F917F916F915F914F91C2
:104E30003F912F910F900FBE0F901F90189519BCA6
:104E4000109294020E94C32270CF8091E30087FDEC
:104E500093E090939402B3CF1F920F920FB60F92EC
:104E600011242F933F934F935F936F937F938F936F
:104E70009F93AF93BF93CF93DF93EF93FF93D09123
:104E8000E900DF708091EC00C82FC17080FDC0E8A0
:104E90001092E9008091F000877F8093F000789471
:104EA0000E9470271092E9008091F0008860809342
:104EB000F000CD2BCF70C093E900FF91EF91DF910F
:104EC000CF91BF91AF919F918F917F916F915F91A2
:104ED0004F913F912F910F900FBE0F901F901895FB
:104EE0001F93CF93DF93CDB7DEB7AA970FB6F89491
:104EF000DEBF0FBECDBF85E992E02091F100FC013D
:104F00002193CF01F2E08D399F07B9F70E94D42297
:104F10008091E80083FF1EC18091950290919602D6
:104F20009A3008F017C1E92FF0E0E650F64D0C94E6
:104F30004629803899F0823809F00CC18091990295
:104F40008F70873008F006C18093E9008091EB00F4
:104F500085FB882780F91092E90006C080919102B4
:104F600090919202911182609091E800977F9093C6
:104F7000E8008093F1001092F1008091E8008E77B4
:104F8000E5C0882309F4D3C0823009F0E3C08091E2
:104F900097028111D6C0809199028F702FEF280F50
:104FA000263008F0D7C08093E9002091EB0020FF65
:104FB000C8C0933031F48091EB0080628093EB00A5
:104FC000C0C09091EB0090619093EB0021E030E045
:104FD00001C0220F8A95EAF72093EA001092EA00B6
:104FE0008091EB008860EACF8111B4C010919702E4
:104FF0001F778091E3008078812B8093E30080917C
:10500000E800877F8093E8000E948D258091E8006A
:1050100080FFFCCF8091E30080688093E30082E012
:10502000111183E08093940295C08058823008F07B
:1050300091C080919702909198028C3D23E0920755
:10504000A1F583E08A838AE289834FB7F894DE0171
:10505000139620E03EE051E2E32FF0E0509357003A
:10506000E49120FF03C0E295EF703F5FEF708E2F59
:1050700090E0EA30C0F0C7968D939D932F5F243166
:1050800059F74FBF8091E800877F8093E8006AE27C
:1050900070E0CE0101960E949C248091E8008B77FD
:1050A0008093E80057C0C096E7CF60919902709155
:1050B0009A02AE014F5F5F4F0E94C823BC01892B4B
:1050C00009F448C09091E800977F9093E8008981A7
:1050D0009A810E94FA24E1CF8038E1F58091E800BE
:1050E000877F8093E800809190028093F10045CF04
:1050F000811130C090919702923060F58091E80064
:10510000877F8093E800909390020E948D25809184
:105110009002882311F084E005C08091E30087FDB0
:10512000FACF81E0809394020E94CA2213C080913A
:105130009702813079F481E0933009F080E0809328
:1051400092021092E9008091E800877F8093E80046
:105150000E948D258091E80083FF0AC08091E800BD
:10516000877F8093E8008091EB0080628093EB0062
:10517000AA960FB6F894DEBF0FBECDBFDF91CF91D8
:105180001F9108950895CF93809194028823A1F0F0
:10519000C091E900CF709091EC00892F817090FD53
:1051A00080E8C82B1092E9008091E80083FD0E94FE
:1051B0007027CF70C093E900CF910895DB018F93E2
:1051C0009F930E945B29BF91AF91A29F800D911D7B
:1051D000A39F900DB29F900D1124089587FB082E78
:1051E000062687FD819567FD61950E9466290EF46C
:1051F000919507FC81950895AA1BBB1B51E107C03F
:10520000AA1FBB1FA617B70710F0A61BB70B881F56
:10521000991F5A95A9F780959095BC01CD010895E5
:1052200097FB072E16F4009407D077FD09D00E9453
:10523000FC2807FC05D03EF4909581959F4F08957A
:10524000709561957F4F0895A1E21A2EAA1BBB1B92
:10525000FD010DC0AA1FBB1FEE1FFF1FA217B30742
:10526000E407F50720F0A21BB30BE40BF50B661F58
:10527000771F881F991F1A9469F76095709580951C
:1052800090959B01AC01BD01CF010895EE0FFF1F6A
:105290000590F491E02D0994A29FB001B39FC00145
:1052A000A39F700D811D1124911DB29F700D811D52
:1052B0001124911D08950E944C29A59F900DB49F23
:1052C000900DA49F800D911D11240895991B79E0E4
:1052D00004C0991F961708F0961B881F7A95C9F786
:1052E00080950895FC014150504030F00190061621
:1052F000D1F73197CF010895882799270895F99913
:10530000FECF92BD81BDF89A992780B50895A6E198
:10531000B0E044E050E00C94B929A8E1B0E042E0EC
:1053200050E00C94B929262FF999FECF92BD81BD8A
:10533000F89A019700B4021639F01FBA20BD0FB6D3
:10534000F894FA9AF99A0FBE08950396272F0E94AF
:1053500094290E949329252F0E949429242F0C948C
:1053600094290196272F0E9494290C949329DC01FB
:10537000CB01FC01F999FECF06C0F2BDE1BDF89A60
:10538000319600B40D9241505040B8F70895F8940A
:10539000FFCF5504D403D703DC03E103E603EB039B
:1053A000F003F503FA03FF03040409040D041704D2
:1053B000210430043B04460448045304611561157C
:1053C000B915B9150B1627168E158E156916F51613
:1053D000041704178E156017DC17DC17E517E5179F
:1053E000E717E517E517E517DC17DC17EC17E517E6
:1053F000E517EC179927C127AA28C127AA28F4275F
:085400001528AA286C28782861
:1054080001021A1A1A01191A1B1C1D1E1F2021221B
:105418000610022808140A321EE32182225722218C
:1054280022E62101F0F1F4F5F6F733323130353464
:10543800979694909192676600010202020206060E
:10544800060909090909090F0F0F0F0F0F1515157F
:0E5458001819191919191919191919232400ED
:00000001FF
