:100000000C947C0A0C94C50A0C94C50A0C94C50A7D
:100010000C94C50A0C94C50A0C94C50A0C94C50A24
:100020000C94C50A0C94C50A0C94AC390C94843A0F
:100030000C9405300C94C50A0C94C50A0C94C50A9E
:100040000C94C50A0C94C50A0C94C50A0C94C50AF4
:100050000C94561C0C9477300C94C50A0C94C50A69
:100060000C94C50A0C94C50A0C94C50A0C94C50AD4
:100070000C94C50A0C94C50A0C94C50A0C94C50AC4
:100080000C94C50A0C94C50A0C94C50A0C94C50AB4
:100090000C94C50A0C94C50A68747470733A2F2FB7
:1000A000716D6B2E666D2F012800514D4B206973C9
:1000B000207468652062657374207468696E6720B7
:1000C00065766572210029003A003B003C003D0046
:1000D0003E003F0040004100420043004400450014
:1000E0002A004C0049004B004E0035001E001F0046
:1000F00020002100220023002400250026002700E4
:100100002D002E00350053005400550048002B00F0
:1001100014001A000800150017001C0018000C003D
:10012000120013002F00300031005F0060006100FA
:100130005600390004001600070009000A000B00F1
:100140000D000E000F0033003400320028005C0068
:100150005D005E005700E10064001D001B0006000A
:100160001900050011001000360037003800E100CA
:10017000520059005A005B000100E000E300E20079
:10018000000000002C00000000000000E20001510F
:10019000E700500051004F0062006300580001006A
:1001A0000100010001000100010001000100010047
:1001B00001000100010001000100460047004A0063
:1001C0004D000100010001000100010001000100DB
:1001D0000100010001000100010001000100C65CF6
:1001E000C55C010001000100010001000100005C8C
:1001F00001000100010001000100010001000100F7
:100200000100C85CC75C01000100010001000100A1
:1002100001000100010001000100010001000100D6
:10022000010001000100CA5CC95C0100010001007D
:1002300001000100010001000100010001000100B6
:100240000100010001000100A900C25CC35C0100C3
:10025000010001000100010000000000AE000000EC
:1002600000000000010001000100AC00AA00AB008A
:100270000100010001000100010001000100010076
:100280000100010001000100010001000100010066
:100290000100010001000100010001000100010056
:1002A0000100010001000100010001000100010046
:1002B0000100010001000100010001000100010036
:1002C0000100010001000100010001000100010026
:1002D0000100010001000100010001000100010016
:1002E0000100010001000100010001000100010006
:1002F00001000100010001000100010001000100F6
:10030000C95C0100010001000100010001000100C1
:1003100001000100010001000100010001000100D5
:1003200001000100010001000100010001000100C5
:1003300000000000010000000000000001000100BA
:1003400001000100010001000100010001000100A5
:100350000100010001000100010001000100010095
:100360000100010001000100010001000100010085
:100370000100010001000100010001000100010075
:100380000100010001000100010001000100010065
:100390000100010001000100010001000100010055
:1003A0000100010001000100010001000100010045
:1003B0000100010001000100010001000100010035
:1003C0000100010001000100010001000100010025
:1003D0000100010001000100C95C010001000100F1
:1003E0000100010001000100010001000100010005
:1003F00001000100010001000100010001000100F5
:1004000001000100010001000000000001000000E7
:1004100000000000010001000100010001000100D6
:1004200001000100010044454255473A20646973C8
:1004300061626C65642E0A0044454255473A206566
:100440006E61626C65642E0A00000000000000000E
:10045000002A2B280000000000000000000000001F
:100460000000000029000000002C1E34202122245E
:10047000342627252E362D3738271E1F20212223EC
:100480002425263333362E37381F0405060708097E
:100490000A0B0C0D0E0F1011121314151617181944
:1004A0001A1B1C1D2F3130232D35040506070809A2
:1004B0000A0B0C0D0E0F1011121314151617181924
:1004C0001A1B1C1D2F3130354C00000000000000AD
:1004D000000000000000000000000000000000001C
:1004E000000000000000000000000000000000000C
:1004F00000000000000000000000000000000000FC
:1005000000000000000000000000000000000000EB
:1005100000000000000000000000000000000000DB
:1005200000000000000000000000000000000000CB
:1005300000000000000000000000000000000000BB
:1005400000000000000000000000000000000000AB
:10055000000000000000000000000000000000009B
:100560000000000000000000000001010101010185
:100570000001010101000000000000000000000077
:100580000000000100010001010101010101010160
:10059000010101010101010101010101010101014B
:1005A0000101010100000001010000000000000045
:1005B000000000000000000000000000000000003B
:1005C0000000000001010101000A00253033326CF7
:1005D00062003A200025303258000A722F63203022
:1005E0003132333435363738394142434445463069
:1005F0003132333435363738394142434445460A7F
:10060000007267626C696768742074696D65722036
:1006100064697361626C652E0A007267626C696757
:1006200068742074696D657220656E61626C6564C2
:100630002E0A007267626C696768742073657420A3
:10064000687376205B4E4F454550524F4D5D3A20C2
:1006500025752C25752C25750A007267626C6967F3
:1006600068742073657420687376205B454550522A
:100670004F4D5D3A2025752C25752C25750A007285
:1006800067626C69676874207261696E626F772057
:10069000736574206873763A2025642C25642C25B4
:1006A000642C25750A007267626C6967687420643F
:1006B000697361626C65205B4E4F454550524F4DEA
:1006C0005D3A207267626C696768745F636F6E661B
:1006D00069672E656E61626C65203D2025750A0094
:1006E0007267626C696768742064697361626C65C3
:1006F000205B454550524F4D5D3A207267626C69F0
:100700006768745F636F6E6669672E656E61626CA1
:1007100065203D2025750A007267626C6967687400
:1007200020656E61626C65205B4E4F454550524FAF
:100730004D5D3A207267626C696768745F636F6EC3
:100740006669672E656E61626C65203D2025750ABD
:10075000007267626C6967687420656E61626C65BF
:10076000205B454550524F4D5D3A207267626C697F
:100770006768745F636F6E6669672E656E61626C31
:1007800065203D2025750A007267626C6967687490
:1007900020746F67676C65205B454550524F4D5D17
:1007A0003A207267626C696768745F636F6E66692E
:1007B000672E656E61626C65203D2025750A0072AA
:1007C00067626C69676874206D6F6465205B4E4F6B
:1007D000454550524F4D5D3A2025750A00726762BB
:1007E0006C69676874206D6F6465205B4545505285
:1007F0004F4D5D3A2025750A007267626C69676823
:10080000745F696E6974207267626C696768745F8F
:10081000636F6E6669672E6D6F6465203D20302EB4
:100820002057726974652064656661756C74207602
:10083000616C75657320746F20454550524F4D2E85
:100840000A007267626C696768745F696E69742018
:100850006565636F6E666967206973206E6F7420CB
:10086000656E61626C65642E0A007267626C69670E
:1008700068745F696E6974207374617274210A0010
:100880007267626C696768745F696E69742063611E
:100890006C6C65642E0A007267626C696768745FCD
:1008A000636F6E6669672E7370656564203D2025F1
:1008B000640A007267626C696768745F636F6E6672
:1008C00069672E76616C203D2025640A007267629C
:1008D0006C696768745F636F6E6669672E736174B5
:1008E000203D2025640A007267626C696768745F46
:1008F000636F6E6669672E687565203D2025640A02
:10090000007267686C696768745F636F6E666967B9
:100910002E6D6F6465203D2025640A007267626C4D
:10092000696768745F636F6E6669672E656E616282
:100930006C65203D2025640A007267626C696768F7
:10094000745F636F6E66696720454550524F4D3A3C
:100950000A0000047F3F1F643214643214783C1E86
:100960001E140A052223252628292A2C2D2F303251
:10097000333536383A3B3D3E4042434547494A4C81
:100980004E5051535557595A5C5E606264666869AF
:100990006B6D6F71737577797B7D7F8183858789B7
:1009A0008A8C8E90929496989A9C9E9FA1A3A5A7BC
:1009B000A8AAACAEAFB1B3B4B6B8B9BBBCBEBFC1E8
:1009C000C2C3C5C6C7C9CACBCCCDCED0D1D2D2D373
:1009D000D4D5D6D7D7D8D9D9DADADBDBDBDCDCDC87
:1009E000DCDCDDDDDDDDDCDCDCDCDCDBDBDBDADA4A
:1009F000D9D9D8D7D7D6D5D4D3D2D2D1D0CECDCCC1
:100A0000CBCAC9C7C6C5C3C2C1BFBEBCBBB9B8B6D5
:100A1000B4B3B1AFAEACAAA8A7A5A3A19F9E9C9A60
:100A200098969492908E8C8A89878583817F7D7B2E
:100A300079777573716F6D6B6968666462605E5C0F
:100A40005A5957555351504E4C4A494745434240D5
:100A50003E3D3B3A3836353332302F2D2C2A29286B
:100A600026252322FFAA7F55406261636B6C69676C
:100A7000687420627265617468696E672064697366
:100A800061626C650A006261636B6C6967687420FF
:100A9000627265617468696E6720656E61626C651B
:100AA0000A006261636B6C696768742062726561D9
:100AB0007468696E6720746F67676C653A20257586
:100AC0000A006261636B6C69676874207374657097
:100AD0003A2025750A006261636B6C69676874204F
:100AE00064697361626C650A006261636B6C69675B
:100AF000687420656E61626C650A006261636B6C8C
:100B00006967687420746F67676C653A2025750A99
:100B1000006261636B6C6967687420646563726509
:100B20006173653A2025750A006261636B6C6967C1
:100B3000687420696E6372656173653A2025750A71
:100B4000000000000000000000000000010102039E
:100B5000040506080A0C0F1114181C2024292E3332
:100B6000393F464C535B626A7179818A929AA2AA94
:100B7000B2B9C1C8CFD5DCE1E7EBF0F4F7FAFCFD80
:100B8000FEFFFEFDFCFAF7F4F0EBE7E1DCD5CFC8A1
:100B9000C1B9B2AAA29A928A8179716A625B534CF6
:100BA000463F39332E2924201C1814110F0C0A0833
:100BB000060504030201010000000000000000001F
:100BC0000000010101010101010101020202020212
:100BD00002020202030303030303030304040404E5
:100BE00004040405050505050606060606070707AD
:100BF000070708080808090909090A0A0A0B0B0B64
:100C00000C0C0C0D0D0D0E0E0E0F0F0F1010111100
:100C10001112121313141415151616171718181984
:100C2000191A1A1B1B1C1D1D1E1E1F2020212222EB
:100C3000232424252626272829292A2B2C2D2D2E2E
:100C40002F30313232333435363738393A3B3C3D48
:100C50003E3F404142434445464748494A4C4D4E39
:100C60004F50515354555658595A5B5D5E5F6162FF
:100C700064656668696B6C6D6F7072737577787A8E
:100C80007B7D7E8082838587888A8C8E8F919395E9
:100C900096989A9C9EA0A2A3A5A7A9ABADAFB1B30D
:100CA000B5B7BABCBEC0C2C4C6C9CBCDCFD1D4D6ED
:100CB000D8DBDDDFE2E4E7E9EBEEF0F3F5F8FAFD8F
:100CC000FF0A002530325820006B6579626F61722F
:100CD000645F7265706F72743A20000A00253032CA
:100CE00058006B6579626F6172645F7365745F6CE5
:100CF00065643A200064656C5F6B65795F62697456
:100D00003A2063616E27742064656C3A2025303286
:100D1000580A006164645F6B65795F6269743A20A8
:100D200063616E2774206164643A20253032580A6A
:100D3000003F00433E20004C25640A0074696D6545
:100D4000725F72656164333228293A202530346C31
:100D5000580A006B65796D61705F636F6E666967D5
:100D60002E6E6B726F3A2025580A006B6579626FA0
:100D70006172645F69646C653A2025580A006B658E
:100D800079626F6172645F70726F746F636F6C3AD7
:100D90002025580A00686F73745F6B6579626F6114
:100DA00072645F6C65647328293A2025580A000A2A
:100DB000092D20537461747573202D0A0047434335
:100DC0003A20382E332E30204156522D4C49424382
:100DD0003A20322E302E30204156525F4152434845
:100DE0003A2061767235310A004F5054494F4E53C4
:100DF0003A204C5546412045585452414B455920C4
:100E0000434F4E534F4C4520434F4D4D414E442090
:100E10004E4B524F20383139320A004255494C442A
:100E20003A2022706C616E636B2D342E312D383078
:100E300035322D676563323231372D6469727479CA
:100E400022202831343A31323A3235204A616E203C
:100E500020332032303230290A005649443A2030BB
:100E600078303444382868696E6579627573682013
:100E70006B6579626F6172647329205049443A202E
:100E800030784543453828686263702920564552BA
:100E90003A203078303030310A00444553433A200C
:100EA000636F6D706163742031383030206C61790C
:100EB0006F757420637573746F6D206B6579626FE5
:100EC0006172640A000A092D2056657273696F6E9B
:100ED000202D0A000A092D20436F6E736F6C652068
:100EE0002D0A4553432F713A09717569740A000A36
:100EF000092D204D61676963202D0A443A09446534
:100F0000627567204D65737361676520546F67670D
:100F10006C650A583A094D617472697820446562BB
:100F20007567204D6F646520546F67676C65202D71
:100F30002053686F77206B65797072657373657382
:100F400020696E206D617472697820677269640A25
:100F50004B3A094B6579626F617264204465627532
:100F60006720546F67676C65202D2053686F77206A
:100F70006B65797072657373207265706F72740A35
:100F80004D3A094465627567204D6F75736520544D
:100F90006F67676C650A563A0956657273696F6EBA
:100FA0000A533A095374617475730A433A094163E9
:100FB00074697661746520436F6E736F6C65204D44
:100FC0006F64650A46312D4631303A0953776974AA
:100FD000636820746F204C6179657220302D392050
:100FE00028463130203D204C30290A302D393A092D
:100FF00053776974636820746F204C61796572203F
:10100000302D390A47524156453A0953776974637E
:101010006820746F204C6179657220302028616CE3
:101020007465726E617465290A423A094A756D7079
:1010300020746F20426F6F746C6F616465720A4533
:1010400053433A094A756D7020746F20426F6F7474
:101050006C6F616465722028616C7465726E617476
:1010600065290A453A095072696E74204545505207
:101070004F4D2053657474696E67730A4253504133
:1010800043453A09436C65617220454550524F4DC6
:101090000A4E3A094E4B524F20546F67676C650AEF
:1010A000000A002575002E6C6576656C3A20000AF2
:1010B000002575002E656E61626C653A20000A009D
:1010C00025303258006261636B6C696768745F63D6
:1010D0006F6E6669672E7261773A20000A00257587
:1010E000002E6E6B726F3A20000A002575002E7379
:1010F0007761705F6261636B736C6173685F62617B
:10110000636B73706163653A20000A002575002ED9
:10111000737761705F67726176655F6573633A20AC
:10112000000A002575002E6E6F5F6775693A200012
:101130000A002575002E737761705F72616C745FB1
:10114000726775693A20000A002575002E73776171
:10115000705F6C616C745F6C6775693A20000A009F
:101160002575002E737761705F7263746C5F7267B0
:1011700075693A20000A002575002E737761705F4B
:101180006C63746C5F6C6775693A20000A002575A2
:10119000002E636170736C6F636B5F746F5F636F5E
:1011A0006E74726F6C3A20000A002575002E7377FA
:1011B00061705F636F6E74726F6C5F636170736C8C
:1011C0006F636B3A20000A0025303258006B657956
:1011D0006D61705F636F6E6669672E7261773A202A
:1011E000000A002575002E6D6F7573653A20000AA0
:1011F000002575002E6B6579626F6172643A20007C
:101200000A002575002E6D61747269783A20000A13
:10121000002575002E656E61626C653A20000A003B
:10122000253032580064656275675F636F6E66696A
:10123000672E7261773A20000A00257500646566A2
:1012400061756C745F6C617965723A20003F004E85
:101250004B524F3A206F66660A004E4B524F3A206F
:101260006F6E0A000A6D6F7573653A206F66660AC5
:10127000000A6D6F7573653A206F6E0A000A6B6520
:1012800079626F6172643A206F66660A000A6B6564
:1012900079626F6172643A206F6E0A000A6D617440
:1012A0007269783A206F66660A000A6D6174726925
:1012B000783A206F6E0A000A64656275673A206F9B
:1012C00066660A000A64656275673A206F6E0A00F6
:1012D0000A0A4A756D70696E6720746F20626F6FBD
:1012E000746C6F616465722E2E2E2000433E2000C8
:1012F000436C656172696E6720454550524F4D0AD7
:10130000006565636F6E6669673A0A005B735D002E
:101310004B6579626F6172642073746172742E0A16
:10132000005B575D005B535D005B525D005B445D9D
:10133000005B435D000403300000000A03680062A4
:10134000006300700000002803680069006E0065FB
:10135000007900620075007300680020006B006572
:1013600000790062006F0061007200640073000089
:10137000000403090409027B00040100A0FA090427
:1013800000000103010100092111010001224000B8
:101390000705810308000A09040100020300000098
:1013A000092111010001222200070582032000010A
:1013B00007050303200001090402000103000000E7
:1013C0000921110100012271000705840320000A90
:1013D0000904030002030000000921110100012299
:1013E00022000705850320000107050503200001F1
:1013F0001201100100000008D804E8EC010001020D
:1014000003010631FF0974A1010975150026FF00CB
:101410009520750881020976150026FF0095207534
:10142000089102C00660FF0961A10109621500264A
:10143000FF009520750881020963150026FF0095BD
:101440002075089102C005010980A10185031A8158
:10145000002A830016010026030095017510810003
:10146000C0050C0901A10185041A01002A9C02167D
:101470000100269C02950175108100C00501090636
:10148000A1018505050719E029E715002501950843
:10149000750181020507190029EF1500250195F056
:1014A000750181020508190129059505750191024B
:1014B000950175039101C005010906A101050719F0
:1014C000E029E71500250195087501810295017550
:1014D0000881010507190029FF150026FF00950660
:1014E0007508810005081901290595057501910206
:1014F000950175039101C00011241FBECFEFD0E20A
:10150000DEBFCDBF04B603FE27C080911A039091C1
:101510001B03A0911C03B0911D038730904BA74083
:10152000B04BD1F410921A0310921B0310921C03BB
:1015300010921D0314BE84B7877F84BF0FB6F89442
:10154000A89580916000886180936000109260008F
:101550000FBEE0E0F0EF099511E0A0E0B1E0E8E7B0
:10156000FBE700E00BBF02C007900D92A037B10768
:10157000D9F723E0A0E7B1E001C01D92AA31B2077C
:10158000E1F70E9453360C942C3D0C940000FF931D
:10159000EF93E0917001F0917101309709F0099596
:1015A000EF91FF910895FC018591803011F0EFDFFC
:1015B000FBCF0895FF27E0E230E247FF0CC04195E2
:1015C00097FF09C0EDE26095709580959095611D3B
:1015D000711D811D911D27FF02C0219530E350E24E
:1015E000AA27660F771F881F991FAA1FA41710F03C
:1015F000A41B63955A95A9F7AA3008F0A95FA05DCE
:10160000AF93F395611571058105910541F7ED32B1
:1016100011F4EF93F395F21718F43F93F395FBCF82
:101620008F91B5DFFA95E1F70895E991F9918591E8
:10163000803021F0853219F0AADFF9CF089520E03B
:10164000E89455915532C1F3503311F46894559193
:101650005A3348F4505390F3220F022E220F220FD8
:10166000200D250FF4CF0EF42195899199915336D1
:1016700019F3533729F1533559F1BC0188279927BC
:10168000E8945C3621F48991999168945591543687
:1016900039F446EF7EF077FF0DC08FEF9FEF0AC061
:1016A00055374AE039F0583540E121F0523642E0F2
:1016B00009F00895FF93EF937DDFEF91FF91B7CF8E
:1016C000FF93EF93FC0181918030B9F360DFFBCF92
:1016D000FF93EF9368DFF1CFDF93CF93CDB7DEB702
:1016E0002596A3DFCF91DF9108950C94DB0B0C942A
:1016F000DC0B0C94C20BCF93C82F25EB32E081FF9B
:101700001AC048E760E080E00E94E81228EB32E06F
:10171000C0FF17C048E760E080E00E94E8122BEBB2
:1017200032E0C2FF14C048E760E080E00E94E812A7
:10173000CF910C94D11340E060E080E00E94F6125B
:10174000E5CF40E060E080E00E94F612E8CF40E0A4
:1017500060E080E00E94F612EBCF0C947B0B68E116
:1017600083E00E94D71287E00E947B0B2FEF85EA6F
:101770009EE0215080409040E1F700C0000080E0F2
:101780000C947B0B88302DE5920729F089309D451C
:1017900059F081E00895FB0182818823D1F38AEA20
:1017A00090E00E94B90CF5CFFB018281882389F378
:1017B00088E990E0F6CF0895089581E008951F9399
:1017C000CF93DF9300D000D00F92CDB7DEB749831F
:1017D0005A836B832091D90189819A8121111BC081
:1017E0006623A9F00E949A2C182F682F89819A816C
:1017F0000E94462C69817A81812F0F900F900F9063
:101800000F900F90DF91CF911F910C944A1F0E946F
:10181000722C182FEFCF0E949A2C69817A81EDCF1C
:10182000FC01408151816281738184810C94DF0BC2
:101830001F93CF93DF9390E0FC01E75BFB4F149184
:10184000FC01E75BFA4FD49187539B4FFC01C49195
:10185000DD2319F081EE0E94C823CC2319F086EE17
:101860000E94C823812F0E94FC24CC2319F086EE0D
:101870000E94AD24DD2331F081EEDF91CF911F91E5
:101880000C94AD24DF91CF911F910895FF920F9397
:101890001F93CF93DF93EC01F62E8881882331F1DB
:1018A0008E010F5F1F4F813041F4C9818C2F0E9440
:1018B000C8238C2F0E94AD2405C0823079F4898121
:1018C0000E94C823E80121968F2D815030F3EFE963
:1018D000FFE03197F1F700C00000F7CF833011F43B
:1018E0008981E8CF0E94180C8E01ECCFDF91CF9157
:1018F0001F910F91FF90089560E00C94460CFF92A9
:101900000F931F93CF93DF938C01F62EF8018491F0
:10191000882349F1E8012196813049F4FE011491B0
:10192000812F0E94C823812F0E94AD2406C08230DF
:1019300089F4FE0184910E94C8238E010F5F1F4F1E
:101940008F2D815018F3EFE9FFE03197F1F700C0D8
:101950000000F7CF833019F4FE018491E5CF0E9497
:10196000180CE801EACFDF91CF911F910F91FF9002
:10197000089560E00C947F0C8F929F92AF92BF927B
:10198000CF92DF92EF92FF920F931F936B017C0136
:1019900081E090E0A0E0B0E04C015D0104C0880C63
:1019A000991CAA1CBB1C4A95D2F7B501A4014C0195
:1019B0005D0104C0880C991CAA1CBB1C2A95D2F797
:1019C000482959296A297B2904C0880F991FAA1F11
:1019D000BB1F0A95D2F78A019B010C211D212E21E4
:1019E0003F21041715072607370789F48C299D29FD
:1019F000AE29BF29BC01CD011F910F91FF90EF903F
:101A0000DF90CF90BF90AF909F908F90089580957A
:101A10009095A095B0958C219D21AE21BF21EACF54
:101A20000F93382F262F60915802709159028091A0
:101A30005A0290915B02042F432F0E94BC0C0F911D
:101A40000C94842B0E944B1D0E94342E811102C0E5
:101A50000E94DA2E0E94C71C0C94750B0E94401C39
:101A60000C94770B81E008950C94320DCF93C82F1E
:101A70000E94AD0B8C2FCF910C94340D08950E94D1
:101A800086270E943E0D2FEF84E39CE0215080408A
:101A90009040E1F700C000000C949B300F931F931F
:101AA000CF93DF938C010E94100CEC01B8010E94CF
:101AB000801D882309F44CC0B801CE010E94790B27
:101AC000882309F445C0B801CE010E9477208823FD
:101AD00009F43EC0B801CE010E94B8208823C1F1AC
:101AE000B801CE010E94D219882391F1F8018281B8
:101AF000882349F0C130FCE5DF0781F1E0F4C1152E
:101B0000ECE5DE0719F1C631DC4509F048C00E945A
:101B10002F2DF80192819923C1F18A7A91E009F47D
:101B200090E09093720181112EC089E20E940A2DEB
:101B30000E947B2D0DC0C13CFCE5DF0709F1CE3DC5
:101B40008CE5D80701F70E94DA2E02C00E943F0DF3
:101B500080E0DF91CF911F910F91089590918502C0
:101B6000892F8E7F90FF81608093850280FF05C062
:101B700088E394E00E94D30AEBCF86E294E0FACFA8
:101B80000E94AE1BE5CF85E3D1CF80917201811118
:101B900004C089E20E94112DCBCF85E3FBCFC801A1
:101BA000DF91CF911F910F910C94DD0B90E080E0BD
:101BB00008950895FC01EE0FFF1FE753FA4F85913A
:101BC00094910895CF93DF930E944A1F0E94BD0F06
:101BD000EC01811522E5920708F048C0811531E536
:101BE000930708F053C1883E910508F5803E9105A2
:101BF00088F5883A910570F4853A910508F0B6C0E9
:101C00008130910539F1009729F1049718F5D0E05A
:101C1000C0E020C08F3B910508F4B3C0805C9109FF
:101C2000C03CD105A0F30E94DA0DEC0113C0811570
:101C300040E4940798F4C11580E3D80708F000C188
:101C4000C11591E0D90718F3CE019F70C11520E2AC
:101C5000D20748F7CE01DF91CF910895811530E585
:101C6000930708F0F7C0DF70D06AF4CF811549E51B
:101C70009407B8F5C11588E5D80708F01FC1C1154C
:101C800094E5D907C8F49C2F969596959E012370EC
:101C90003327C115D34508F4FEC0C1E0D0E002C02F
:101CA000CC0FDD1F2A95E2F730E2939FC00111248B
:101CB000C82BD92BDA68CECFC11585E5D80708F433
:101CC000F8C0C11596E5D90708F0A1CF8C2F0E9466
:101CD0005410C82FD0E0DC2FCC27CC27DF71D06286
:101CE000B9CF8D3B2CE5920709F4EDC0E0F48B3BB6
:101CF0009C4509F4EBC0CC3B8CE5D80708F0E9C063
:101D0000C1159AE5D90708F082CF8C2F8F700E94F9
:101D1000541034E0D695C7953A95E1F7CF709C2FD3
:101D2000EC01D06997CF803C2CE5920709F4D4C030
:101D300058F48E3B9C4509F4D2C0CF3BDC4509F0FA
:101D400066CFC0E0D2ED86CF90568115904208F064
:101D50005ECF8D2F8F710E94541090E0982F8827AE
:101D600088279F719C012C2BE901B9CF853A9105F9
:101D700009F4B8C0863A910509F0B7C0C2E8D0E4CA
:101D800069CF883A910509F4B3C0893A910509F4FD
:101D9000B2C08A3A910509F4B1C08B3A910509F4B1
:101DA000B0C08C3A910509F4AFC08B3B910509F4A2
:101DB000AEC08C3B910509F4ADC08D3A910509F494
:101DC000ACC0803B910509F4ABC08E3A910509F493
:101DD000AAC08F3A910509F4A9C0813B910509F485
:101DE000A8C0823B910509F4A7C0833B910509F483
:101DF000A6C0843B910509F4A5C0853B910509F473
:101E0000A4C0863B910509F4A3C0873B910509F462
:101E1000A2C0883B910509F4A1C0893B910509F452
:101E2000A0C08D3B910509F49FC08E3B910509F43C
:101E30009EC08A3B910509F49DC0C0E0D4E40ACF5E
:101E4000CE019927D3FF03C0EC01D86C03CFEC017E
:101E5000D06C00CFE4E096958795EA95E1F7837022
:101E60002C2F26952695237040E2249F9001112463
:101E7000382B8C2F8370C1E0D0E002C0CC0FDD1F67
:101E80008A95E2F7C22BD32BDC68E4CED82FCC277F
:101E9000C16FD06ADFCEC1E0D0E002C0CC0FDD1F41
:101EA0002A95E2F720E2929FC0011124C82BD92B7A
:101EB000EBCFDC2FCC27C46FD06ACCCEDC2FCC2765
:101EC000C06FD06AC7CEC0E0D1EDC4CEC0E0D4EDC3
:101ED000C1CEC0E0D5EDBECEC0E0D3EDBBCEC0E0FC
:101EE000D0EDB8CEC1E8D0E4B5CEC3E8D0E4B2CEF0
:101EF000C2EED4E4AFCEC9EED4E4ACCECAEED4E4A4
:101F0000A9CEC5EBD4E4A6CEC6EBD4E4A3CEC3EBF6
:101F1000D4E4A0CEC4EBD4E49DCEC7EBD4E49ACEF7
:101F2000CCECD4E497CECDECD4E494CEC3E8D5E4A5
:101F300091CECAE8D5E48ECEC2E9D5E48BCEC4E911
:101F4000D5E488CEC1E2D6E485CEC3E2D6E482CE23
:101F5000C4E2D6E47FCEC5E2D6E47CCEC6E2D6E4C7
:101F600079CEC7E2D6E476CECFE6D4E473CEC0E72E
:101F7000D4E470CECAE2D6E46DCE82389105B1F1D8
:101F8000B0F48133910509F475C048F489329105A4
:101F900009F469C08A32910509F473C00895853344
:101FA000910509F459C08933910501F10895833EE3
:101FB0009105A9F138F4803E9105F9F0823E910532
:101FC00049F10895863E9105A9F1873E9105C9F131
:101FD000843E910519F520910C0321FF1FC08091CB
:101FE0000B0384FD14C087EE90E0089520910B034D
:101FF0002370A1F080EE90E0089520910B0320FD66
:1020000047C030910C0330FF09C024FF44C090E06A
:1020100080E004C020910B0322FDF7CF08952091AA
:102020000B0322FD3BC030910C0330FDE3CF24FFB6
:10203000F5CFEDCF20910B0323FFF0CF24FDE7CFA9
:10204000D2CF20910B0323FD2CC030910C0331FF24
:10205000EECF84EE90E0089520910B0325FFDECFB4
:1020600089E290E0089520910B0325FFD7CF85E307
:1020700090E0089520910B0326FFD0CF8AE290E0F4
:10208000089520910B0326FFC9CF81E390E00895C6
:1020900089E390E0089583EE90E0089582EE90E069
:1020A000089586EE90E0089590910B0392FF06C08C
:1020B000282F28712830F9F4877F846093FF06C0A9
:1020C000282F28712831F1F4877E846120910C0338
:1020D00020FF06C0382F38713830D9F4877F8160EF
:1020E00021FF06C0282F28712831D1F4877E816115
:1020F00094FD877E0895282F24712430F9F68B7F74
:102100008860DCCF282F2471243101F78B7E886111
:10211000DDCF382F3171313019F78E7F8860E0CFF5
:10212000282F2171213121F78E7E8861E1CF94E043
:10213000899FF0011124ED58FE4F608171818281E9
:1021400093810895CF92DF92EF92FF920F931F93A6
:10215000CF93DF938AED95E00E94D30A83E7E82EC0
:1021600081E0F82ED0E0C0E095EDC92E95E0D92EA3
:102170000BEC15E0DF93CF93DF92CF920E946C0BB4
:1021800082ED95E00E94D30AF701619171918191EE
:1021900091917F010E94082E9F938F937F936F935D
:1021A0001F930F930E946C0B89EC95E00E94D30A59
:1021B00021968DB79EB70A960FB6F8949EBF0FBEB4
:1021C0008DBFC630D105B1F6DF91CF911F910F9130
:1021D000FF90EF90DF90CF900895A0E3B1E061E031
:1021E00070E08D91E82FE295EF70F0E041A18F70E3
:1021F0009B0101C0220F8A95EAF7922F90959423B4
:1022000091A382A1822B82A381E0A633B80749F76C
:10221000AEE1B1E061E070E08D91E82FE295EF7002
:10222000F0E041A18F709B0101C0220F8A95EAF76F
:10223000922F9095942391A382A1822B82A381E077
:10224000A033B80749F7EBE8F1E0A3E7B1E083EA90
:1022500091E011921192119211921D921D921D9274
:102260001D928E179F07A9F786E00E9408120C9412
:10227000220D2F923F924F925F926F927F928F9298
:102280009F92AF92BF92CF92DF92EF92FF920F9305
:102290001F93CF93DF93CDB7DEB728970FB6F8948F
:1022A000DEBF0FBECDBF2BE831E038872F8360E360
:1022B00071E010E0AF81B885CD90DD90ED90FC909D
:1022C0001397FD011192119211921192F887EF83E9
:1022D000DB018D91BD01E82FE295EF70F0E091A157
:1022E0008F7022242394312C01C0220C8A95EAF7A6
:1022F000892F822981A382A1022D0095802382A3A8
:10230000B0EABA95F1F72EE131E03C832B8390E0FF
:1023100080E04F815885445051095E834D83AB81E5
:10232000BC816D90BC83AB83262D22952F7030E04D
:10233000D90190962C91AD81BE818D909D90AD90EC
:10234000BC9030E0B62DBF7002C035952795BA9588
:10235000E2F720FD59C021E030E040E050E0082ED7
:1023600004C0220F331F441F551F0A94D2F72901BE
:102370003A0184289528A628B728AD81BE818D9280
:102380009D92AD92BC92139701968231910539F6D8
:1023900081A1082301A382A1822982A381E08D90DB
:1023A0009D90AD90BC908C149D04AE04BF0409F4C4
:1023B00080E0182BEF81F885E35AF14009F07ACFDD
:1023C000212F46E063E771E08BE891E00E9409125B
:1023D0000E942E0D812F28960FB6F894DEBF0FBEF7
:1023E000CDBFDF91CF911F910F91FF90EF90DF90C4
:1023F000CF90BF90AF909F908F907F906F905F90A5
:102400004F903F902F900895412C512C3201B1CF25
:102410000895FF920F931F93CF93DF93F82ED92F38
:102420008B01C42F222349F081E08093A5010E94F3
:1024300035309093A4018093A3018091A501882356
:1024400099F08091A3019091A4010E944D300697CC
:1024500058F0EF2DFD2FD80190E080E0D0E08C17F0
:102460009D0744F01092A501DF91CF911F910F912C
:10247000FF90089501911191219131910D931D9338
:102480002D933D930196EBCFAF92BF92CF92DF9207
:10249000FF920F931F93CF93DF93362F472FE82F91
:1024A000F0E0EF53F44F71110DC06491762F862F39
:1024B000DF91CF911F910F91FF90DF90CF90BF9050
:1024C000AF900895C72FD0E02491F22E022F10E094
:1024D00056E0659FC0011124EFEFF0E0BF010E94BC
:1024E000633C832F90E0880F991F35E5369FD0011C
:1024F000379FB00D11248A1B9B0B982F990F980FB3
:102500006F01CC1ADD0AC09ED001C19EB00DD09ED5
:10251000B00D11248B2F949FA0011124452F552716
:102520006F01C41AD50AC09EA001C19E500DD09E55
:10253000500D11245F01A91AB108AC9E6001AD9E37
:10254000D00CBC9ED00C1124CD2CDD24EC19FD093F
:10255000E09FE001E19FD00DF09FD00D1124ED2F01
:1025600062307105A1F048F46115710569F06130C0
:10257000710589F0EB2F852F07C06430710571F06C
:1025800088F066307105B1F76E2F722F91CFE22F70
:102590002B2F8D2FF9CFE22F252FF6CFEB2F822F68
:1025A0002D2FF2CF2B2F8F2DE52FEECF08958B31CE
:1025B00070F4482F460F5527551F4C3151053CF4F8
:1025C0008093A901860F809303016093020108950F
:1025D000CF93DF93762FE901682F842F0E94441256
:1025E000798368838A83DF91CF9108950C94E812F0
:1025F0008091B002982F9E7F29F481708260809331
:10260000B00208958A34E8F381708864F8CF88E0D6
:1026100090E00C94EC3CCF92DF92EF92FF926B0132
:102620007C010E94F812B701A60188E090E0FF90BB
:10263000EF90DF90CF900C940A3DE0EBF2E083E066
:10264000808311828FEF8283838314826081718102
:10265000828193810C940B138091850280FF76C058
:1026600089E399E09F938F930E946C0B8091850280
:102670000F900F9080FF6AC08091B00281701F920E
:102680008F938CE199E09F938F930E946C0B8091C4
:1026900085020F900F900F900F9080FF57C0809190
:1026A000B00286951F928F9381E099E09F938F935C
:1026B0000E946C0B809185020F900F900F900F90ED
:1026C00080FF44C08091B1021F928F9387EE98E003
:1026D0009F938F930E946C0B809185020F900F90B7
:1026E0000F900F9080FF32C08091B2021F928F93A3
:1026F0008DEC98E09F938F930E946C0B80918502E4
:102700000F900F900F900F9080FF20C08091B30228
:102710001F928F9383EB98E09F938F930E946C0B93
:10272000809185020F900F900F900F9080FF0EC048
:102730008091B4021F928F9387E998E09F938F93C3
:102740000E946C0B0F900F900F900F900895809146
:10275000B00280FF02C08695089580E008958091C0
:10276000B402833018F48F5F8093B4026091B0029A
:102770007091B1028091B2029091B3020C940B134C
:102780008091B402882319F081508093B402609143
:10279000B0027091B1028091B2029091B3020C9498
:1027A0000B136091040170E08091B00280FF0AC0B9
:1027B0008091AA0123E0829FC00111248B549D4F78
:1027C0000C94121D8091A9019091030123E0829F36
:1027D000F0011124EB54FD4F891750F7118210823C
:1027E00012828F5F3396F8CF9091B00290FF14C0A1
:1027F0009091A9012091030133E0939FF0011124EE
:10280000EB54FD4F921710F00C94D1138183608329
:1028100042839F5F3396F6CF0895CF93DF9300D026
:102820000F92CDB7DEB79091B00290FF0AC09E0123
:102830002F5F3F4F0E94E8124B8169818A810E947D
:10284000F4130F900F900F90DF91CF910895CF93D5
:10285000DF93EC01EC81F0E0EC59F64F4491E0EBB2
:10286000F2E0628181810E940D148C818F5F8C83E4
:10287000DF91CF910895CF93DF93EC01E0EBF2E08D
:10288000438162818C810E940D148C818F5F8C83C7
:10289000DF91CF9108950F931F93CF93DF9300D0D3
:1028A0000F92CDB7DEB78C018091A60181110AC0CD
:1028B0009E012F5F3F4F4FEF6FEF0E94E8128A811A
:1028C0008093A601F8016481613069F08091A601CE
:1028D00040E0662361F040E0623011F44091A601CF
:1028E00080E060E004C06091A60140E080E00E94CA
:1028F000F413F801848190E0019663E070E00E9497
:10290000773C84830F900F900F90DF91CF911F91B0
:102910000F9108954F925F926F927F928F929F9244
:10292000AF92BF92CF92DF92EF92FF920F931F93DD
:10293000CF93DF9300D00F92CDB7DEB7182FD62EEE
:10294000042F722E9091B00290FF46C0E92FE695B9
:10295000AE2FB0E0AA5CBE4F8C918093B2019E7FF7
:10296000923009F04DC09E012F5F3F4F812F0E9492
:10297000E8124B8169818A810E94F4131093B1029D
:10298000D092B2020093B302772009F49CC0609108
:10299000B0027091B1028091B2029091B3020E9494
:1029A0000B138091850280FF17C08091B3021F92A4
:1029B0008F938091B2021F928F938091B1021F92E8
:1029C0008F938AE596E09F938F930E946C0B0FB6CE
:1029D000F894DEBF0FBECDBF0F900F900F90DF9128
:1029E000CF911F910F91FF90EF90DF90CF90BF900C
:1029F000AF909F908F907F906F905F904F900895D1
:102A0000823019F40091B302B9CF863019F41091D5
:102A1000B102B4CF8930D9F3893109F0AFCFE95190
:102A20008E2F8170682E8E2F80958170C82EE6952E
:102A3000F0E0EC59F54FE590F490412CFF249FE72E
:102A4000A92E96E0B92E60910201461618F00E9458
:102A5000D11394CF842C912C8E9CC0018F9C900D0F
:102A60009E9C900D112470E00E94633C512E6110D9
:102A700028C0560E8091850280FF11C0FF92EF9210
:102A80001F92CF921F925F921F924F92BF92AF926E
:102A90000E946C0B0FB6F894DEBF0FBECDBF209125
:102AA000A901820E911C9401220F331F280D391D9C
:102AB0002B543D4F402F6D2D852D0E94E8124394DD
:102AC000C2CF561AD7CF8091850280FF85CF1F9243
:102AD0000F931F92DF921F921F9383E396E073CFB1
:102AE000E0EBF2E09181282F4381628188E0890F39
:102AF0000C948A1481E00C947015E0EBF2E0918163
:102B0000282F4381628188EF890F0C948A1481E019
:102B10000C947D15E0EBF2E0628128E0620F08F48E
:102B20006FEF282F438181810C948A1481E00C94EB
:102B30008A15E0EBF2E0628128E0621B08F460E0B5
:102B4000282F438181810C948A1481E00C9499157B
:102B5000E0EBF2E0438128E0420F08F44FEF282F2A
:102B6000628181810C948A1481E00C94A815E0EBB9
:102B7000F2E0438128E0421B08F440E0282F628104
:102B800081810C948A1481E00C94B71520E00C9498
:102B90008A14EF92FF921F93CF93DF93EC0110E022
:102BA000EE24EA94F12C60910201161770F00E9455
:102BB000D1139A818C8190FF27C08F5F8C83DF9126
:102BC000CF911F91FF90EF9008952091A901422F7E
:102BD000410F5527551FCA019A01220F331F280F95
:102BE000391F2B543D4F70E0C7010E94773C962F50
:102BF0008C814091B3026091B202199F800D112423
:102C00000E94E8121F5FCFCF8150D8CFAF92BF9202
:102C1000CF92DF92EF92FF920F931F93CF93DF93A8
:102C2000FC0182810FEF80FF01E010E04BE1A42E58
:102C3000809102011817C8F00E94D1138091A80159
:102C4000013009F055C0811102C08091020181500C
:102C50008093A801DF91CF911F910F91FF90EF908A
:102C6000DF90CF90BF90AF900895C091A901C12E81
:102C7000D12CCC0DDD2DD11DCE01880F991FC80F91
:102C8000D91FCB54DD4F198218821A8234E0E32E0B
:102C9000F12CB12C8091A8018B0D8C311CF16A2D87
:102CA0000E94553C892F082E000C990BC816D90696
:102CB00091F48091B3028E9DA0018F9D500D11243F
:102CC00055954795559547959E016091B202809123
:102CD000B1020E94E812B00EF1E0EF1AF108D1F64D
:102CE0001F5FA6CF87FFDFCF90910201890FDBCF57
:102CF00090E001966091020170E00E94773CA8CFBD
:102D00000F931F93CF93DF938091A90190910301BB
:102D100023E0829FF0011124EB54FD4F891740F10D
:102D2000C0E0D3E060910201C61740F10E94D113C8
:102D3000209100018091A701820F8093A7019091BB
:102D40000101920F90930101191654F4082E000C02
:102D5000990B409102014150550B841795071CF0C7
:102D6000219520930001DF91CF911F910F9108953C
:102D70001182108212828F5F3396D0CF0C2F10E019
:102D800070E0C8010E94773C2091A901820F482F72
:102D900050E02091A701022E000C330B02171307FD
:102DA000BCF020910101022E000C330B20173107DB
:102DB0007CF08D9F900111242B543D4F4091B30224
:102DC0006091B2028091B1020E94E812CF5FAACF57
:102DD000FA01EE0FFF1FE40FF51FEB54FD4F1182B8
:102DE00010821282F3CF0F931F93CF93DF938C0146
:102DF000FC01848195810196817099279583848354
:102E0000C0E0D5E580910201C81730F0DF91CF9185
:102E10001F910F910C94D1132091A901422F4C0FB7
:102E20005527551FCA019A01220F331F280F391F3A
:102E30002B543D4F8C2F8695F80144815581840F8A
:102E4000952F911D81704091B3026091B2028D9FC8
:102E5000802D11240E94E812CF5FD4CF0F931F93CF
:102E6000CF93DF93EC0110E000E090910201901706
:102E7000110609F06CF40E94D1138C8190E0019648
:102E8000817099278C83DF91CF911F910F910895C5
:102E90002091A901A801420F511D9A01220F331F51
:102EA000240F351F2B543D4F4C816091B20280910D
:102EB000B10296959017110651F04CF0442349F059
:102EC0004091B3020E94E8120F5F1F4FCECF442300
:102ED000B9F340E0F7CF6091B002669570E04BE047
:102EE00050E085E091E00E94D73C892B19F481E005
:102EF0008093B3010E9435309093AC018093AB0175
:102F00008091850280FF08C08AE196E09F938F93AD
:102F10000E946C0B0F900F9008951092B301809156
:102F2000850280FF08C081E096E09F938F930E9406
:102F30006C0B0F900F9008959091B00290FF54C0C9
:102F4000917081113BC092609093B0026623E9F1C9
:102F50006091B0027091B1028091B2029091B3027F
:102F60000E940B138091850280FF0FC08091B002F8
:102F700086951F928F938DED97E09F938F930E947C
:102F80006C0B0F900F900F900F906091B0026695B0
:102F900070E04BE050E085E091E00E94D73C892B47
:102FA00001F10E948D1781E08093AE014091B30240
:102FB0006091B2028091B1020C94C615853210F076
:102FC0009864C2CF880F982BBFCF8091850280FF75
:102FD000DCCF8091B00286951F928F938FEB97E0A4
:102FE000CCCF0E946B17DFCF0895682F9091B0026D
:102FF000969581E0890F853208F081E00C949C174A
:1030000081E00C94F517682F9091B00296958FEFA0
:10301000890F09F484E20C949C1781E00C94031846
:1030200061E00C949C178091B00281608093B002A3
:103030008091850280FF0DC01F9281E08F9381E512
:1030400097E09F938F930E946C0B0F900F900F90BF
:103050000F908091B00286950C94101860E00C944B
:103060009C178091B101811160C08091850280FF21
:1030700014C080E898E09F938F930E946C0B80911E
:1030800085020F900F9080FF08C08AE698E09F931A
:103090008F930E946C0B0F900F900E94342E811121
:1030A00010C08091850280FF08C082E498E09F9361
:1030B0008F930E946C0B0F900F900E94DA2E0E944B
:1030C0001D130E9407136093B0027093B1028093A6
:1030D000B2029093B3026E7FC1F48091850280FFAB
:1030E00008C089EF97E09F938F930E946C0B0F901D
:1030F0000F900E941D130E9407136093B0027093FB
:10310000B1028093B2029093B3020E94F8120E941F
:103110002C131092B3018091B00280FF03C08695FA
:103120000E942E1881E08093B10108958091B00231
:1031300081608093B0028091850280FF0DC01F9254
:1031400081E08F9388E197E09F938F930E946C0BAF
:103150000F900F900F900F908091B00286950C9475
:103160002E188091B0028E7F8093B0026091B002E1
:103170007091B1028091B2029091B3020E940B1340
:103180008091850280FF0FC08091B00281701F92F4
:103190008F9380EE96E09F938F930E946C0B0F901D
:1031A0000F900F900F900E948D172FEF80E792E005
:1031B000215080409040E1F700C000000C94D113F2
:1031C0008091850280FF10C08091B002809581704F
:1031D0001F928F9388E897E09F938F930E946C0BC8
:1031E0000F900F900F900F908091B00280FD0C9483
:1031F000B1180C9413188091B0028E7F8093B002A6
:103200008091850280FF0CC01F921F9286EA96E093
:103210009F938F930E946C0B0F900F900F900F90C5
:103220000E948D172FEF80E792E021508040904060
:10323000E1F700C000000C94D1130F931F93CF93BC
:10324000DF938091B301882309F48DC08091B2018E
:10325000E091B002E695E81BE093AD018230C9F53C
:10326000F0E0E05AF64FE491CE2FD0E007E214E10F
:103270008091AE01882389F01092AE010E94353012
:103280009E0120953095820F931F9093AC018093FF
:10329000AB011092B0011092AF018091AB019091FF
:1032A000AC010E944D308C179D0708F45CC0E09182
:1032B000AB01F091AC01CE0FDF1FD093AC01C093F6
:1032C000AB018BEA91E0F801DF91CF911F910F9153
:1032D0000994863049F4F0E0E35AF64FE491CE2F9A
:1032E000D0E00BE314E1C4CF893051F4E695F0E06F
:1032F000E65AF64FE491CE2FD0E009EC15E1B8CFB5
:103300008F3051F4E695F0E0E95AF64FE491CE2F74
:10331000D0E006E016E1ACCF853149F4F0E0EC5A9C
:10332000F64FE491CE2FD0E000E816E1A1CFC8EE31
:10333000D3E003EF16E1883109F49ACF833239F4F0
:10334000E2E5F9E0C591D4910BE414E191CFC4EF2B
:10335000D1E00EE217E1843209F48ACFC0EDD7E064
:1033600006ED12E185CFDF91CF911F910F91089566
:10337000FA01811101C0FB010994CF93DF93C82F9B
:10338000D62F0E94A7138C1740F00E94A7138D1709
:1033900020F4DF91CF910C9400188C2FDF91CF9106
:1033A0000C9410180F931F93CF938C01FB01C281D3
:1033B000CC2309F465C00E942F2D8272F801E25CD3
:1033C000FC45E431F10538F4E25DF24C0C94AD3C7F
:1033D0000E94E018C0E08C2FCF911F910F910895AB
:1033E0004DE058E160E078E10E94B819F3CF40E089
:1033F00058E16DE078E1F8CF47E855E16AE775E11B
:10340000F3CF4AE755E167E875E1EECF45EA55E1CC
:1034100066E975E1E9CF46E955E165EA75E1E4CF92
:1034200043EC55E164EB75E1DFCF44EB55E163EC30
:1034300075E1DACF40EC53E16FEA73E1D5CF4FEAA3
:1034400053E160EC73E1D0CF81E00E941018C2CF4D
:1034500065E082E00E94BD19BDCF68E086E0FACF4A
:103460006EE089E0F7CF64E18FE0F4CF67E185E1BA
:10347000F1CF88E1EACF62E289E1ECCF83E2E5CFE8
:10348000C1E0A9CF0E94342E811102C00E94DA2E21
:103490000E94622E80930603803220F0877088613C
:1034A0008093060390910603892F817090FF04C0DA
:1034B000892F8695869586950C941E1C809106030F
:1034C000982F969596959695933040F49F5F990F17
:1034D000990F990F8770892B8093060380910603BB
:1034E0008160809306030E94662E8091850280FF92
:1034F00011C0809106038695869586951F928F93BD
:1035000089E29BE09F938F930E946C0B0F900F902A
:103510000F900F90809106038695869586950C9462
:103520001E1C80910603982F987F79F08850809315
:103530000603887F91E009F490E08091060390FBF8
:1035400080F9809306030E94662E8091850280FF99
:1035500011C0809106038695869586951F928F935C
:1035600081E19BE09F938F930E946C0B0F900F90D3
:103570000F900F90809106038695869586950C9402
:103580001E1C8091060380FD1FC08160809306038E
:10359000813019F489E080930603809106030E942C
:1035A000662E8091850280FF08C089EE9AE09F9385
:1035B0008F930E946C0B0F900F908091060386955D
:1035C000869586950C941E1C08958091060380FFB5
:1035D00014C08E7F809306030E94662E8091850220
:1035E00080FF08C086ED9AE09F938F930E946C0B3A
:1035F0000F900F9080E00C941E1C0895CF93C09103
:103600000603C1708091850280FF0CC01F92CF938A
:103610008BEF9AE09F938F930E946C0B0F900F900B
:103620000F900F90CC2319F0CF910C94E51ACF9105
:103630000C94C11A90910603892F869586958695DC
:103640008F5F8F719770843080F5880F880F880F97
:10365000892B8093060380910603887F91E009F40B
:1036600090E08091060390FB80F9809306030E940E
:10367000662E8091850280FF11C080910603869599
:10368000869586951F928F9382EC9AE09F938F93F5
:103690000E946C0B0F900F900F900F90809106037B
:1036A0008695869586950C941E1C90930603D3CF21
:1036B000843008F083E0982F990F990F990F80912B
:1036C00006038770892B80930603887F91E009F4B5
:1036D00090E08091060390FB80F9809306030E949E
:1036E000662E809106038695869586950C941E1C01
:1036F00080910603869586958695089580910603A8
:1037000081FD13C08260809306030E94662E809123
:10371000850280FF08C086E89AE09F938F930E94FD
:103720006C0B0F900F900C94411C08958091060330
:1037300081FF13C08D7F809306030E94662E8091C7
:10374000850280FF08C089E69AE09F938F930E94CC
:103750006C0B0F900F900C944D1C0895CF93C0915B
:103760000603C695C1708091850280FF0CC01F9230
:10377000CF9382EA9AE09F938F930E946C0B0F90F5
:103780000F900F900F90CC2319F0CF910C94961BB3
:10379000CF910C947E1B80910603869581700895CD
:1037A000CF92DF92EF92FF928C3724E1920750F490
:1037B00069E070E00E94633CCB01FF90EF90DF90E6
:1037C000CF900895B0E0A0E0BC01CD016A50774DE4
:1037D0008F4F9F4F982F872F762F662725EF38E240
:1037E00041E050E00E948B3C69017A01CA01B901B5
:1037F0000E94393C9B01AC01C701B6010E94393CD3
:10380000672F782F892F99276115710521E082078D
:10381000910591F66FEF7FEFCFCFE82FE295EF7034
:10382000F0E032A1282F2F7081E090E001C0880FD6
:103830002A95EAF78095832382A308958430D8F4EB
:1038400081111AC090918000977F90938000282F5B
:1038500030E0AFEFBFEF0E94BD3C23E030E040E03E
:1038600050E00E948B3CC9010E94D01B90938D00B8
:1038700080938C00089583E0909180009860E5CF5C
:1038800008951092B5011092B4011092B601EFE6BE
:10389000F0E08081816080830895EFE6F0E0808130
:1038A0008E7F80830E94781B0C941E1C1F920F92A7
:1038B0000FB60F9211240BB60F922F933F934F9395
:1038C0005F936F937F938F939F93AF93BF93CF93A8
:1038D000EF93FF93209110018091B4019091B50175
:1038E000019644EF249F90011124B9010E94633C8A
:1038F0009093B5018093B401B901660F672F661FDD
:10390000770B71950E94633C6F778091B60182308E
:1039100041F4603451F480916F008E7F80936F008A
:1039200004C0813011F46F37B1F3E62FF0E0EF5BA4
:10393000F44FC4910E94781B282F41E051E0C49FAE
:10394000C001C59F900D112463E070E00E94633CAC
:10395000269FC001279F900D11240E94D01B909399
:103960008D0080938C00FF91EF91CF91BF91AF912B
:103970009F918F917F916F915F914F913F912F9187
:103980000F900BBE0F900FBE0F901F901895279AA7
:1039900087E30E940D1C8AE08093800089E1809378
:1039A00081008FEF9FEF90938700809386000E94A5
:1039B000421A0E94CB1B81110C94411C089535B111
:1039C000242F2095232335B1432B3FB7F894680F5C
:1039D000791F8617970711F43FBF0895FC01519195
:1039E000CF01E8E045B9000000C057FF25B9550FE9
:1039F000000000C000C000C025B900C0EA9591F7E2
:103A0000E8CF24B1242B24B99B01220F331F620F6E
:103A1000731F0E94DF1C87EC90E00197F1F700C054
:103A20000000089541E00C94011D82E290E00E94A4
:103A3000E43C803289F483E290E00E94E43C8130EF
:103A400059F484E290E00E94E43C91E0833009F074
:103A500090E0892F8170089580E0FCCFCF93C82F2C
:103A60006FEF811160E282E290E00E94F83C6FEF1C
:103A7000C11161E083E290E00E94F83C6FEFC11158
:103A800063E084E290E0CF910C94F83C80E00E94E7
:103A90002E1D0C942E2E0E9439118FE39CE9019764
:103AA000F1F700C000000E94391180E00E949710D9
:103AB00060FF04C00E94461D0C949B300895089539
:103AC00085E290E00E94E43C682F70E090E080E0A6
:103AD000089585E290E00C94F83C0E945F1D0E94DE
:103AE000151D81110CC060E070E0CB010E94691DC2
:103AF0000E94C21E0E94AC1F81E00C942E1D0895EE
:103B0000CF93FB01C281CC2309F19C0122513F4597
:103B10002031310520F582510E94BC1FC0E08C2F5E
:103B2000CF91089581E00E94AA2B43E062E081E0FA
:103B30000E94100DF3CF81E00E94CB2B43E062E0A6
:103B400081E00E94100DEBCF82E0F6CF8031FFE5DF
:103B50009F0789F381319F45B9F3C1E0E0CF803100
:103B6000EFE59E07F9F281319F45C9F682E0DBCF90
:103B70002FEFFC0120830895EF92FF920F931F9384
:103B8000CF93DF93EC01E62EE881E150E33108F0BA
:103B9000B6C0F0E0EE5BF24C0C94AD3C198289E0CB
:103BA0008A836E2DCE01DF91CF911F910F91FF90EF
:103BB000EF900C94EF348981823069F0833071F09A
:103BC0008130E1F40E9441300E94B63C6A837B83DD
:103BD0008C839D83E6CF0E94601DF6CF8E01F12C71
:103BE0008F2D0E949710F801828373836483F3946E
:103BF0000D5F1F4FF6E0FF12F3CFD3CF6E2DCE0136
:103C00000E94B81DCECF89818230C1F76A817B8145
:103C10008C819D810E94B63C0E94691DC2CF4B8160
:103C20006A8189810E94941E9827892798279D83FD
:103C30008C83B7CF2C813D813227232732274B81BC
:103C40006A8189810E94AD1EACCF0E94C21EA9CF9D
:103C50000E94571F8983A5CF0E94591F9827892743
:103C600098279A8389839DCF6B8170E089819A819F
:103C7000AE014C5F5F4F9827892798270E945C1FF1
:103C800090CF6B8170E089819A81AE014C5F5F4F6C
:103C90009827892798270E94821F83CF0E94AC1FF4
:103CA00080CF0E94821ED6CF6B8170E089819A817D
:103CB000AE014C5F5F4F9827892798270E94FA1E14
:103CC00070CF6B8170E089819A81AE014C5F5F4F4C
:103CD0009827892798270E94201F63CF0E94461D9E
:103CE00060CF0E94EF342FEF81EE94E021508040AE
:103CF0009040E1F700C000000E949B3052CF8FEF50
:103D000088834FCF84E0089550E0440F551F94E21C
:103D1000699F400D511D112498ED899F400D511D43
:103D20001124CA01869608950F931F93CF93DF93B2
:103D30000E94841E8C010E94E43CC82FD0E0DC2F3E
:103D4000CC27C80101960E94E43C9E01282BC901A2
:103D5000DF91CF911F910F9108950F931F93CF93F0
:103D6000DF93122F032F0E94841EEC01602F0E940C
:103D7000F83C612FCE010196DF91CF911F910F91F9
:103D80000C94F83CAF92BF92CF92DF92EF92FF92E9
:103D90001F93CF93DF9386ECC82E80E0D82ED0E01F
:103DA0007601C0E014C0F50125913491412F6C2FAC
:103DB0008D2F0E94AD1E82E0A80EB11C1F5F123134
:103DC00091F784E2E80EF11CCF5FC63019F057017D
:103DD00010E0E9CFDF5F88EDC80ED11CD43001F7C9
:103DE000DF91CF911F91FF90EF90DF90CF90BF9028
:103DF000AF900895EF92FF920F931F93CF93DF93AD
:103E0000EC018A017C01E60EF71ECE018696CE15E6
:103E1000DF0539F4DF91CF911F910F91FF90EF9063
:103E20000895C03623E0D20740F40E94E43CF80134
:103E300080830F5F1F4F2196E8CFF8011082F9CFE2
:103E4000CF92DF92EF92FF920F931F93CF93DF9366
:103E50007C016A018C01060F171FEC01CE018696CA
:103E6000C017D10749F4DF91CF911F910F91FF90B7
:103E7000EF90DF90CF900895C03623E0D20740F452
:103E8000FE01EE19FF09EC0DFD1D60810E94F83C5A
:103E90002196E4CF462F843038F4763028F462310E
:103EA00018F4672F0C94941E90E080E0089580E150
:103EB00008958AE790E00895EF92FF920F931F9381
:103EC000CF93DF93EC018A017C01E60EF71ECE0151
:103ED0008A579C4FCE15DF0539F4DF91CF911F91A2
:103EE0000F91FF90EF900895CA37D10540F40E94DA
:103EF000E43CF80180830F5F1F4F2196E8CFF80163
:103F00001082F9CFCF92DF92EF92FF920F931F931F
:103F1000CF93DF937C016A018C01060F171FEC0120
:103F2000CE018A579C4FC017D10749F4DF91CF913A
:103F30001F910F91FF90EF90DF90CF900895CA37B7
:103F4000D10540F4FE01EE19FF09EC0DFD1D608165
:103F50000E94F83C2196E4CFCF93DF93C6E8D3E0EC
:103F600060E0CE010E94F83C2196C11584E0D8079C
:103F7000B9F7DF91CF910895EF92FF920F931F93BE
:103F8000CF93DF9300D00F92CDB7DEB7F82E8FE03E
:103F90008F1540F08FEF93E00E94E43C06E813E0B9
:103FA0008823B1F00F900F900F90DF91CF911F9168
:103FB0000F91FF90EF900895011584E0180791F399
:103FC000C8010E94E43C811101C0FA940F5F1F4FA9
:103FD000F110F2CF19821A821B8278018FEFE81A52
:103FE000F80AC8010E94E43C89831A828823D1F22E
:103FF0008150833068F40E5F1F4FC7010E94E43C7C
:104000008A83882379F2CE0101960E947C0CE5CF49
:104010008701F9CF0F931F93CF93DF93C62FD42F30
:10402000022FFC0182818823C9F06093B9010E94AC
:1040300035309093B8018093B70180E28C0F8830BF
:1040400008F050C0C77081E001C0880FCA95EAF738
:10405000DF91CF911F910F910C940F251091B90111
:10406000161335C08091B7019091B8010E944D3070
:10407000883C910560F5C0E2CD0F1D17B9F080E2D4
:10408000810F883040F4177081E001C0880F1A95C5
:10409000EAF70E941625C83048F481E09D2F9770FA
:1040A00001C0880F9A95EAF70E940F25802F0E9481
:1040B000FC24C830B8F4D77081E001C0880FDA95CD
:1040C000EAF7DF91CF911F910F910C94162580E2B2
:1040D0008C0F883038F4C77081E001C0880FCA9512
:1040E000EAF7EFCFDF91CF911F910F9108959C01D7
:1040F000CB01233F4CE5340731F190F4283DFCE53A
:104100003F07E9F0293D4CE5340769F1273D3C457F
:1041100079F426E241EE61EE0E940A2080E00895E3
:10412000253FFCE53F07B9F090F0263F3C45B9F04C
:10413000FC0182818823D1F01092B901089527E211
:1041400045EE65EEE9CF26E241EE60EEE5CF27E2EF
:1041500045EE64EEE1CF26E241EE62EEDDCF27E2EE
:1041600045EE66EED9CF28E241E0EBCF81E008953D
:10417000CF93DF93EC01FB018281882309F419C1FD
:10418000C230FCE5DF07C0F1C6319CE5D90730F04D
:104190009E012A5F3C452930310570F50E94472E6B
:1041A00090930C0380930B03C031ECE5DE0709F418
:1041B000CFC008F05BC0C8308CE5D80709F4B6C0A2
:1041C00088F5C430ECE5DE0709F4A8C0C0F4C230BD
:1041D0008CE5D80709F49CC080910B038260C33042
:1041E000DC4509F498C080910B0390910C030E9468
:1041F000552E0E94862780E0DF91CF91089580910F
:104200000B038061C630ECE5DE0709F484C08091C1
:104210000B038860C730DC4508F47DC080910B0338
:10422000806279C0CC308CE5D80709F489C070F47D
:1042300080910B038C60CA30ECE5DE0709F46BC09B
:1042400008F478C080910B038E7F65C0CE308CE57A
:10425000D80709F479C080910B038B7FCF30DC4500
:1042600008F459C080910B038F7E55C0CB3FECE51D
:10427000DE0709F457C030F5C3318CE5D80709F4DF
:104280006FC078F4C131ECE5DE0709F465C0C231D6
:10429000DC4509F0A8CF0E94862780910B038F7719
:1042A0003AC0C5318CE5D80709F462C008F476C07D
:1042B00080910C038160CA3FDC4509F094CF809364
:1042C0000C0391CFCF3FFCE5DF0709F44DC088F424
:1042D00080910C038D7FCD3F9CE5D90781F38091C0
:1042E0000C038E7FCE3FDC4550F380910C0383603E
:1042F000E6CFC130FDE5DF0709F459C008F444C03A
:1043000080E0C230DD4509F06ECF0E94DC2E6BCF1D
:1043100080910B03816080930B0365CF80910B0329
:104320008460F9CF80910C038260C9CF80910B0328
:104330008064F1CF0E94862780910B038068EBCFC9
:1043400080910B038D7FE7CF80910B03877FE3CFB5
:1043500080910B038F7DDFCF80910B038F7BDBCFB1
:1043600080910B03837FD7CF80910C038C7FA7CFE5
:1043700080910B0382FB992790F921E0922790FB13
:1043800082F990FB83F9C7CF80910C03982F909509
:1043900091708E7F892B90FB81F991CF0E948627A7
:1043A00090910B03892F97FB87F98058B4CF81E058
:1043B000ACCF81E021CF9093BF018093BE010895DF
:1043C000E091BE01F091BF01309721F00190F081A2
:1043D000E02D099480E00895EF92FF920F931F93D0
:1043E000CF93DF93EC01E091BE01F091BF013097D4
:1043F00009F446C080911D01882341F080910B0390
:1044000087FF04C08881898385E088830280F381E7
:10441000E02DCE0109958091850282FF31C080FF99
:1044200004C089EC9CE00E94D30A10E000E083EC19
:10443000E82E8CE0F82E8091850280FF0EC0FE01F0
:10444000E00FF11F80811F928F93FF92EF920E94E5
:104450006C0B0F900F900F900F900F5F1F4F083055
:10446000110549F78091850280FF0AC081EC9CE02C
:10447000DF91CF911F910F91FF90EF900C94D30A91
:10448000DF91CF911F910F91FF90EF9008952091B0
:10449000BC013091BD012817390771F09093BD011F
:1044A0008093BC01E091BE01F091BF01309721F0F3
:1044B0000680F781E02D099408952091BA0130918A
:1044C000BB012817390771F09093BB018093BA01A3
:1044D000E091BE01F091BF01309721F00084F18599
:1044E000E02D0994089585B7806885BF85B78068F9
:1044F00085BF0895089508950C947A220C94AF0B0B
:104500000E9473220E947B220C947C2281E00895F9
:104510000E942C300E94ED100E946D1D0E94BF3041
:104520000E94421A0E9431180C947E22CF93C82F09
:104530008091850282FF1EC080FF1CC082EE9CE03D
:104540000E94D30A8091850280FF14C01F92CF93EE
:104550008DED9CE09F938F930E946C0B8091850260
:104560000F900F900F900F9080FF04C08BED9CE098
:104570000E94D30A8C2FCF910C94360D2F923F922C
:104580004F925F926F927F928F929F92AF92BF9263
:10459000CF92DF92EF92FF920F931F93CF93DF930F
:1045A000CDB7DEB72B970FB6F894DEBF0FBECDBFE9
:1045B0000E9439110E948622882309F490C041ECA0
:1045C000242E41E0342E10E000E00B87802F0E9463
:1045D00097104B015C01F1014190519061907190F5
:1045E0001F01481459046A047B0409F472C08091C5
:1045F000850281FD0E94A21080E0C12CD12C7601A1
:10460000C394482459246A247B24B301A2014C2179
:104610005D216E217F21452B462B472B09F451C08C
:104620008E83FB85FF838C209D20AE20BF2081E000
:1046300089288A288B2809F480E088870E943530F1
:104640008160782F9A8789874E815F8168858A8506
:104650000E949923000F111F000F111FF801EF5343
:10466000FE4F80819181A281B3818C259D25AE254D
:10467000BF2580839183A283B3830E94E021909120
:10468000C0018917E9F10E94E0218093C0012B96B7
:104690000FB6F894DEBF0FBECDBFDF91CF911F9153
:1046A0000F91FF90EF90DF90CF90BF90AF909F90D1
:1046B0008F907F906F905F904F903F902F900C94D1
:1046C00096228F5FCC0CDD1CEE1CFF1C823109F0A2
:1046D0009CCF0F5F1F4F0630110509F076CF8FEF8B
:1046E00089838A831B820E9435308160782F9D8365
:1046F0008C8349815A816B818D810E949923BDCF22
:104700002B960FB6F894DEBF0FBECDBFDF91CF91D1
:104710001F910F91FF90EF90DF90CF90BF90AF90DF
:104720009F908F907F906F905F904F903F902F90D1
:104730000895CF93DF93CDB7DEB72B970FB6F894DC
:10474000DEBF0FBECDBF4F83588769877A878B87BF
:104750001E821D8285E0FE013796DE0111960190D2
:104760000D928A95E1F749815A816B817C818D8117
:104770009E812B960FB6F894DEBF0FBECDBFDF91A2
:10478000CF910C94262AFC01808191810C94DC2C21
:10479000CF93C82F882309F4DEC08238C1F40E9469
:1047A000E02181FDD8C089E30E940A2D0E947B2D63
:1047B0002FEF81EE94E0215080409040E1F700C05F
:1047C000000089E30E94112DCF910C947B2D83383A
:1047D000A1F40E94E02180FDBEC083E50E940A2D65
:1047E0000E947B2D2FEF81EE94E02150804090407D
:1047F000E1F700C0000083E5E5CF8438A1F40E9412
:10480000E02182FDA8C087E40E940A2D0E947B2D32
:104810002FEF81EE94E0215080409040E1F700C0FE
:10482000000087E4CFCF8CEF8C0F813A48F48C2FB7
:104830000E94913381118FC08C2F0E940A2DC4CF0A
:1048400080E28C0F883048F4C77081E001C0880F87
:10485000CA95EAF70E94322DB7CF8BE58C0F8330D3
:1048600068F481E890E0C53A31F083E890E0C63A18
:1048700011F482E890E0CF910C94472288E58C0FE8
:10488000873108F068C082EE90E0C83A09F460C051
:1048900089EE90E0C93A09F45BC08AEE90E0CA3A2A
:1048A00009F456C085EB90E0CB3A09F451C086EB91
:1048B00090E0CC3A09F44CC083EB90E0CB3B09F498
:1048C00047C084EB90E0CC3B09F442C087EB90E01A
:1048D000CD3AF1F18CEC90E0C03BD1F18DEC90E061
:1048E000CE3AB1F183E891E0CF3A91F18AE891E0D4
:1048F000C13B71F182E991E0C23B51F184E991E061
:10490000C33B31F181E292E0C43B11F183E292E0DA
:10491000C53BF1F084E292E0C63BD1F085E292E043
:10492000C73BB1F086E292E0C83B91F087E292E0AB
:10493000C93B71F08FE690E0CD3B51F080E790E00D
:10494000CE3B31F090E080E0CA3B11F48AE292E085
:10495000CF910C945D22CF910895882309F44BC028
:10496000823871F40E94E02181FF45C089E30E94F2
:104970000A2D0E947B2D89E30E94112D0C947B2D22
:10498000833859F40E94E02180FF35C083E50E94FE
:104990000A2D0E947B2D83E5EFCF843859F40E94C5
:1049A000E02182FF28C087E40E940A2D0E947B2D0F
:1049B00087E4E2CF9CEF980F913AF0F290E2980FE3
:1049C000983050F4877091E001C0990F8A95EAF70A
:1049D000892F0E94382DD2CF9BE5980F933020F479
:1049E00090E080E00C944722885A873120F490E0D0
:1049F00080E00C945D220895CF93C82F0E94C823B5
:104A0000C93349F42FEF87EE93E021508040904066
:104A1000E1F700C000008C2FCF910C94AD248823C7
:104A200021F00E94322D0C947B2D0895882321F0D3
:104A30000E94382D0C947B2D0895BF92CF92DF9267
:104A4000EF92FF920F931F93CF93DF936C01D62FBA
:104A5000C72FFC01058102950F70128111110E9470
:104A60004F2D0E94282DE82E882371F01123B1F0DC
:104A700080E28D0F883090F082E00E94C62D0E9467
:104A8000282D91E0E82EE926BC2EB2949FE0B922B1
:104A9000EB2DF0E0EB5AF24C0C94AD3CE12CF4CF52
:104AA0000C2F0F70C07F11F00295007F1123A9F029
:104AB000002359F080E28D0F883010F0D11109C029
:104AC000802F0E94322D0E947B2D8D2F0E94C823A3
:104AD00014C0802F0E94422DF6CF8D2F0E94AD244E
:104AE000002359F080E28D0F883010F0D1112CC0D6
:104AF000802F0E94382D0E947B2D2B2D2850330BA8
:104B00002430310520F40E94E0210E94360DEE2071
:104B100009F4B6C10E94242D80FDB2C1F6011282B3
:104B20000E941E2D0E94AA2BC6010E944A270E94A5
:104B30001E2DDF91CF911F910F91FF90EF90DF908D
:104B4000CF90BF900C94CB2B802F0E94482DD3CFB9
:104B5000FC2FFF70FF2EC07FC03219F0F29480EF5F
:104B6000F822DD2369F0D13049F1112391F10023BE
:104B700051F1F601858180FFA8CF8F70858323C016
:104B8000112381F0011106C00E94622D8F290E941D
:104B90000F25B3CF0130C1F70E94622D8F290E94EB
:104BA000682DABCF011106C00E94712D8F2D0E9480
:104BB0001625A3CF013009F4A0CFF6CF112329F099
:104BC000063008F09ACF8F2DE2CF053008F095CF50
:104BD000EDCF002359F3D93349F4FFEF27EE33E04B
:104BE000F15020403040E1F700C000008D2F0E94BE
:104BF000AD2483CF8C2F86958695837069F08130A4
:104C000009F07BCF8D2F9C2F9370111102C090E083
:104C100080E00E945D2271CF8D2F9C2F9370111127
:104C200002C090E080E00E94472267CF8C2F837003
:104C300009F041C0111161CF4D2F42954695477043
:104C4000440F440F0D2F0F7010E030E020E0042ED1
:104C500004C0000F111F221F331F0A94D2F760E017
:104C600070E0CB01D4FF0FC06FE070E080E090E017
:104C700004C0660F771F881F991F4A95D2F7609569
:104C8000709580959095C695C695C370602B712BD5
:104C9000822B932BC23049F058F4C13019F00E9496
:104CA0005C2B2BCF0E944A2B28CF0E946E2B25CF46
:104CB0000E94482B22CF8695112311F08C2F8170F2
:104CC000882309F41ACF4D2F429546954770440F1B
:104CD000440F0D2F0F7010E030E020E0042E04C0D0
:104CE000000F111F221F331F0A94D2F760E070E0FB
:104CF000CB01D4FF0FC06FE070E080E090E004C013
:104D0000660F771F881F991F4A95D2F76095709597
:104D100080959095C695C695C370602B712B822B9C
:104D2000932BC23049F058F4C13019F00E94212C65
:104D3000E4CE0E940F2CE1CE0E94332CDECE0E94E6
:104D4000842BDBCECF70112329F08C2F0E94AA2B4D
:104D50008D2F1DCF8D2F0E9416258C2F0E94CB2BBF
:104D6000CCCED23F89F160F4D03FC9F0D13F29F1D8
:104D7000112309F442C00111A8CE8C2F8F7121C0DC
:104D8000D33F39F1D43FA1F7112369F1CF718C2FB3
:104D90000E94AA2B63E08C2F0E94B12DAECE11236E
:104DA00041F0053008F0A9CE8C2F8F710E94EE2BB8
:104DB000A4CE063008F0A1CEF7CF8C2F8F7111232F
:104DC00069F20E94AA2B99CE8C2F8F711123C9F3FF
:104DD000C5CF112329F08C2F8F710E94952B8DCE7A
:104DE0000E94902B8ACE81E00E94C62D023008F4EA
:104DF00084CE82E00E94C62D80CE002359F0D933A4
:104E000009F0F4CE8FEF97EEE3E081509040E04060
:104E1000E1F7EACE8C2F8F71A1CF4C2F4F706D2F01
:104E2000C6010E94D60D0E94C02A67CE111165CE20
:104E3000CF70C230B1F040F4CC2381F0C13009F022
:104E40005CCE0E94911A59CEC43089F068F080E09F
:104E5000C53009F052CE0E94581B4FCE0E945E1AF8
:104E60004CCE0E94FE1A49CE0E941A1B46CE83E009
:104E7000F2CF4C2F4F706D2FC6010E94D90D3DCE41
:104E8000DF91CF911F910F91FF90EF90DF90CF9026
:104E9000BF9008950F931F93CF93DF93EC018B8105
:104EA0009C81892B29F08881998189238F3F29F45E
:104EB000DF91CF911F910F910895CE010E944E0D69
:104EC0008823B1F3688179818A810E94E62C8C0164
:104ED0000E94452C0E94472BB801CE01DF91CF9153
:104EE0001F910F910C941D250E944F2D0E945F2D44
:104EF0000E947B2D90E080E00E94472290E080E0BD
:104F00000C945D220E94182D0C9474270E943F2D52
:104F10000C948227E92FE295EF70E250EE3070F4A6
:104F2000F0E0EB59F24C0C94AD3C803F19F020F4CA
:104F3000883E20F481E00895843FE1F380E0089505
:104F4000883EC0F3813FD1F7F5CF93FB882780F9E6
:104F500008950E94DC2C0C948A27CF93DF9300D015
:104F600000D00F92CDB7DEB70F900F900F900F903B
:104F70000F90DF91CF910895CF93DF9300D000D0B1
:104F800000D0CDB7DEB726960FB6F894DEBF0FBEC1
:104F9000CDBFDF91CF9108951F93CF93DF93C09141
:104FA000DA0116E08091DB018C1304C0DF91CF9110
:104FB0001F910895D0E01C9FF0011D9FF00D11245A
:104FC000E452FE4F408151816281738184819581D9
:104FD0000E94BC272196C770E5CF40910C025091EA
:104FE0000D0260910E0270910F028091100290915B
:104FF00011020C94BC271F93CF93DF938091110271
:10500000807FC1F480910E028823A1F08091DA01A3
:10501000C091DB0160910C0270910D0240910F0272
:1050200050911002D62FD723DA01A095B09516E043
:10503000C81304C0DF91CF911F91089590E04115EE
:10504000510511F0DF3F31F401968770F1CF2A0F3F
:105050003B1F17C0189FF001199FF00D1124E45257
:10506000FE4F21812713F0CF20812613EDCF22811F
:105070002111EACF238134812417350740F3241B03
:10508000350B283C310500F7209111022F7020616B
:105090002093110226E0289FF001299FF00D112492
:1050A000EF51FE4F80818F70806180838CE092E0B1
:1050B0000E944A27DF91CF911F910C94CC27BF9279
:1050C000CF92DF92EF92FF920F931F93CF93DF93D4
:1050D000CDB7DEB761970FB6F894DEBF0FBECDBF78
:1050E0008C0185E0F801DE011D9601900D928A95F4
:1050F000E1F7D8014C9111965C9111971296EC90C2
:10510000129780910F0290911002009709F47FC1CD
:1051100020910C0230910D02622F63236F3F09F43E
:1051200076C11396CD90DC90B0900E02BB2009F4AE
:1051300011C1C816D906D0F1F601E81BF90BCF0151
:10514000FF24F394883C910508F0F12C8091110222
:10515000982F907FFF2009F4B8C091117FC0FE2CDA
:10516000351329C0241327C0E11025C08F7080613A
:10517000809311020E94ED278CE092E00E944A2762
:1051800080911102D80115968C938F2D61960FB6E0
:10519000F894DEBF0FBECDBFDF91CF911F910F916D
:1051A000FF90EF90DF90CF90BF90089580959095FD
:1051B0008C0D9D1DC5CFCD2829F0852F84238F3FD1
:1051C00009F041C180E0B82FB170DB2E80FF3CC0F8
:1051D0008091DA012091DB0136E0821315C04D8702
:1051E0005E878D859E850E94DC2C292F22952F704D
:1051F0002230F0F0243018F59F70F1F0F80195811D
:10520000907FD1F4D12C1EC090E0389FF001399FDF
:10521000F00D1124E452FE4F6181651306C06081D8
:10522000641303C06281E6120FC001968770D5CF68
:105230009F7011F0882331F3805E883018F3C80125
:105240000E944A27FD2CA1CFEE2009F49ECF809129
:105250001102816080931102F12C97CF351306C0A3
:10526000241304C0D801EE2009F49AC04D875E874C
:105270008D859E850E94A927882319F1EE2009F1CA
:1052800080911102803270F020910C0230910D0259
:1052900038872F831986DB86CA868C87CE010796CE
:1052A0000E944A2786E0F801ACE0B2E001900D923E
:1052B0008A95E1F70E94FB270E94ED27FF24F394D3
:1052C00064CFC8010E944A27F9CF911113C07C2DE9
:1052D000D98AC88A6E2D89890E94AD278CE092E018
:1052E0000E944A2786E0ECE0F2E0DF011D928A95F9
:1052F000E9F763C0351312C0241310C0E1100EC0CB
:10530000F8018583C8010E944A27ECE0F2E086E0BC
:10531000DF011D928A95E9F7FB2C37CF4D875E8719
:105320008D859E850E94A927882359F2EE2049F297
:1053300080911102803208F4B5CF20910C02309197
:105340000D023A8329831B82DD82CC828E83CE01BB
:105350000196A6CFC816D90698F1F601E81BF90BFD
:10536000CF01F12C883C910508F049C0FE2CEE20BD
:1053700009F4A7CF351332C0241330C08091110235
:1053800080FD23C0982F907F01F1D80115968C9352
:105390001597903F39F0982F907F905F8F70892BF1
:1053A00015968C93C8010E944A2786E0F801ACE06C
:1053B000B2E001900D928A95E1F70E94ED27E5CECB
:1053C000809590958C0D9D1DCCCF86E0F801ACE0CA
:1053D000B2E001900D928A95E1F7D7CE4D875E87B6
:1053E0008D859E850E94A92781115CCF8091110235
:1053F000816080931102C8010E944A27C6CE7C2D8D
:10540000D98AC88A6E2D89890E94AD276BCFEE207C
:1054100009F457CF4D875E878D859E850E94A92709
:10542000F82E882309F44DCF86E0F801ACE0B2E015
:1054300001900D928A95E1F78CE092E00E94C323DF
:105440000E94FB27BACF81E08E25BDCE1F93CF935C
:10545000DF93CDB7DEB72C970FB6F894DEBF0FBE43
:10546000CDBF4F83588769877A878B879C87CE010A
:1054700007960E945F28882369F08A859B85892B7F
:1054800039F04F815885842F85238F3F09F071C0F3
:1054900016E05FC086E0FE013796DE0111960190AE
:1054A0000D928A95E1F78A859B85892B89F38885FA
:1054B0009F8189238F3F61F32091DB0130E0C90197
:1054C0000196877099274091DA014817190671F4FF
:1054D0000E9486271092DB011092DA0186E0ECE050
:1054E000F2E0DF011D928A95E9F7D2CF96E0929F14
:1054F000D001939FB00D1124A452BE4FFE013196EE
:1055000001900D929A95E1F78093DB010E94CC27E0
:10551000BFCF819FC001112484529E4F0E945F28FB
:105520008823E9F0E091DA011E9FF0011124E45292
:10553000FE4F4081518162817381848195810E94F7
:10554000BC278091DA0190E00196877099278093BB
:10555000DA018091DA019091DB018913DACF2C9680
:105560000FB6F894DEBF0FBECDBFDF91CF911F9174
:10557000089569857A858B859C850E94BC2788CF94
:10558000EF92FF920F931F93CF93DF938C01892BA0
:1055900081F0F12CEE24E394E8012196F801849146
:1055A000843770F4843008F05FC08130B1F082300D
:1055B000A1F1DF91CF911F910F91FF90EF9008958E
:1055C000853709F44CC008F43DC09CE7980F90372C
:1055D00080F78F770E94AD2449C00E5F1F4FFE01F8
:1055E000849190E2980F983060F48770FE2D01C08E
:1055F000FF0F8A95EAF78F2F0E94522D0E947B2D74
:1056000002C00E94C8238F2D815030F2EFE9FFE0E5
:105610003197F1F700C00000F7CF0E5F1F4FFE017A
:10562000849190E2980F983050F48770FE2D01C05D
:10563000FF0F8A95EAF78F2F0E94582DDFCF0E9427
:10564000AD24E1CF0E5F1F4FFE01C491C150D8F2CF
:105650008FE99FE00197F1F700C00000F7CF0E5FE0
:105660001F4FFE01F490CFCF0E94C8238E01CBCFF5
:1056700008950C94382B0E94392B60935C02709330
:105680005D0280935E0290935F020C9474270895EC
:105690000C943B2B0F931F9300915C0210915D02C1
:1056A00020915E0230915F02602B712B822B932B35
:1056B0001F910F910C943B2B0F931F9300915C0251
:1056C00010915D0220915E0230915F026023712390
:1056D000822393231F910F910C943B2B0F931F93C5
:1056E00000915C0210915D0220915E0230915F0298
:1056F00060277127822793271F910F910C943B2BD2
:105700000C94382B0C94802B0E94822B60935802AF
:105710007093590280935A0290935B020C94742701
:1057200060E070E0CB010C94842B0F931F9341E059
:1057300050E060E070E08A019B0104C0000F111F7F
:10574000221F331F8A95D2F7C901B8011F910F910B
:105750000C94842B0F931F9341E050E060E070E0C5
:1057600004C0440F551F661F771F8A95D2F780919A
:10577000580290915902A0915A02B0915B028A019D
:105780009B01082B192B2A2B3B2BC901B8011F9118
:105790000F910C94842B0F931F9341E050E060E035
:1057A00070E004C0440F551F661F771F8A95D2F71B
:1057B000CB01BA0160957095809590950091580243
:1057C0001091590220915A0230915B02602371239B
:1057D000822393231F910F910C94842B0F931F937B
:1057E00041E050E060E070E004C0440F551F661FC8
:1057F000771F8A95D2F78091580290915902A09113
:105800005A02B0915B028A019B01082719272A27B7
:105810003B27C901B8011F910F910C94842B0F9362
:105820001F93009158021091590220915A02309111
:105830005B02602B712B822B932B1F910F910C9489
:10584000842B0F931F9300915802109159022091BD
:105850005A0230915B0260237123822393231F91AC
:105860000F910C94842B0F931F9300915802109169
:10587000590220915A0230915B02602771278227DA
:1058800093271F910F910C94842B089522E1929FEE
:10589000800D1124982F977041E001C0440F9A9514
:1058A000EAF786958695869595E0899FF001112403
:1058B000EE5EFD4F90E080E070E05191DF011197C6
:1058C0009B01082E02C0369527950A94E2F72170B5
:1058D00021952527242325272C9301968530910592
:1058E00061F7089522E1929F800D1124982F9770FF
:1058F00086958695869525E0829FF0011124EE5EBF
:10590000FD4F50E040E080E0219130E0092E02C0E0
:10591000369527950A94E2F721703327042E01C0AB
:10592000220F0A94EAF7822B4F5F5F4F45305105F3
:1059300059F70895BF92CF92DF92EF92FF920F93A3
:105940001F93CF93DF938C01C0905802D0905902DF
:10595000E0905A02F0905B0280915C0290915D02AF
:10596000A0915E02B0915F02C82AD92AEA2AFB2AD6
:10597000CFE1D0E0BC2ED701C6010C2E04C0B695F5
:10598000A795979587950A94D2F780FD0EC0219729
:1059900088F7B12C8B2DDF91CF911F910F91FF9044
:1059A000EF90DF90CF90BF900895B8018C2F0E94A8
:1059B000E20D019761F3EECFCF93DF93EC010E94EC
:1059C0009A2CBE01DF91CF910C94E20D1F93CF93DF
:1059D000DF93EB019091D901992331F0CB01DF9155
:1059E000CF911F910C94DC2C882379F0CB010E947D
:1059F0009A2C182F682FCE010E94462CBE01812FB1
:105A0000DF91CF911F910C94E20DCB010E94722C7B
:105A1000182FF4CF682F80911101909112010C94EE
:105A2000672F682F80911101909112010C94722FB1
:105A300080911101909112010C947D2F8091600250
:105A40008595859585950895809160028770089564
:105A500090916002977081E009F480E00895809150
:105A60008402089590918402892B80938402089582
:105A700080959091840298239093840208951092C7
:105A80008402089590918302892B80938302089564
:105A900080959091830298239093830208951092A9
:105AA0008302089590918202892B80938202089547
:105AB000809590918202982390938202089510928B
:105AC0008202089580916102089508950C94652DD5
:105AD00090916102981721F0809361020C94662DD9
