:100000000C947F090C94C8090C94C8090C94C80975
:100010000C94C8090C94C8090C94C8090C94C8091C
:100020000C94C8090C94C8090C9402350C94DA3568
:100030000C94062C0C94C8090C94C8090C94C8099B
:100040000C94C8090C94C8090C94C8090C94C809EC
:100050000C947B1C0C94782C0C94C8090C94C80943
:100060000C94C8090C94C8090C94C8090C94C809CC
:100070000C94C8090C94C8090C94C8090C94C809BC
:100080000C94C8090C94C8090C94C8090C94C809AC
:100090000C94C8090C94C80968747470733A2F2FB3
:1000A000716D6B2E666D2F012800514D4B206973C9
:1000B000207468652062657374207468696E6720B7
:1000C00065766572210029003A003B003C003D0046
:1000D0003E003F0040004100420043004400450014
:1000E0002A004C0049004B004E0035001E001F0046
:1000F00020002100220023002400250026002700E4
:100100002D002E00350053005400550048002B00F0
:1001100014001A000800150017001C0018000C003D
:10012000120013002F00300031005F0060006100FA
:100130005600390004001600070009000A000B00F1
:100140000D000E000F0033003400320028005C0068
:100150005D005E005700E10064001D001B0006000A
:100160001900050011001000360037003800E100CA
:10017000520059005A005B000100E000E300E20079
:10018000000000002C00000000000000E20001510F
:10019000E700500051004F0062006300580001006A
:1001A0000100010001000100010001000100010047
:1001B00001000100010001000100460047004A0063
:1001C0004D000100010001000100010001000100DB
:1001D0000100010001000100010001000100C65CF6
:1001E000C55C010001000100010001000100005C8C
:1001F00001000100010001000100010001000100F7
:100200000100C85CC75C01000100010001000100A1
:1002100001000100010001000100010001000100D6
:10022000010001000100CA5CC95C0100010001007D
:1002300001000100010001000100010001000100B6
:100240000100010001000100A900C25CC35C0100C3
:10025000010001000100010000000000AE000000EC
:1002600000000000010001000100AC00AA00AB008A
:1002700001000100010044454255473A206469737A
:1002800061626C65642E0A0044454255473A206518
:100290006E61626C65642E0A0000000000000000C0
:1002A000002A2B28000000000000000000000000D1
:1002B0000000000029000000002C1E342021222410
:1002C000342627252E362D3738271E1F202122239E
:1002D0002425263333362E37381F04050607080930
:1002E0000A0B0C0D0E0F10111213141516171819F6
:1002F0001A1B1C1D2F3130232D3504050607080954
:100300000A0B0C0D0E0F10111213141516171819D5
:100310001A1B1C1D2F3130354C000000000000005E
:1003200000000000000000000000000000000000CD
:1003300000000000000000000000000000000000BD
:1003400000000000000000000000000000000000AD
:10035000000000000000000000000000000000009D
:10036000000000000000000000000000000000008D
:10037000000000000000000000000000000000007D
:10038000000000000000000000000000000000006D
:10039000000000000000000000000000000000005D
:1003A000000000000000000000000000000000004D
:1003B0000000000000000000000001010101010137
:1003C0000001010101000000000000000000000029
:1003D0000000000100010001010101010101010112
:1003E00001010101010101010101010101010101FD
:1003F00001010101000000010100000000000000F7
:1004000000000000000000000000000000000000EC
:100410000000000001010101000A00253033326CA8
:1004200062003A200025303258000A722F632030D3
:10043000313233343536373839414243444546301A
:100440003132333435363738394142434445460A30
:10045000007267626C696768742074696D657220E8
:1004600064697361626C652E0A007267626C696709
:1004700068742074696D657220656E61626C656474
:100480002E0A007267626C69676874207365742055
:10049000687376205B4E4F454550524F4D5D3A2074
:1004A00025752C25752C25750A007267626C6967A5
:1004B00068742073657420687376205B45455052DC
:1004C0004F4D5D3A2025752C25752C25750A007237
:1004D00067626C69676874207261696E626F772009
:1004E000736574206873763A2025642C25642C2566
:1004F000642C25750A007267626C696768742064F1
:10050000697361626C65205B4E4F454550524F4D9B
:100510005D3A207267626C696768745F636F6E66CC
:1005200069672E656E61626C65203D2025750A0045
:100530007267626C696768742064697361626C6574
:10054000205B454550524F4D5D3A207267626C69A1
:100550006768745F636F6E6669672E656E61626C53
:1005600065203D2025750A007267626C69676874B2
:1005700020656E61626C65205B4E4F454550524F61
:100580004D5D3A207267626C696768745F636F6E75
:100590006669672E656E61626C65203D2025750A6F
:1005A000007267626C6967687420656E61626C6571
:1005B000205B454550524F4D5D3A207267626C6931
:1005C0006768745F636F6E6669672E656E61626CE3
:1005D00065203D2025750A007267626C6967687442
:1005E00020746F67676C65205B454550524F4D5DC9
:1005F0003A207267626C696768745F636F6E6669E0
:10060000672E656E61626C65203D2025750A00725B
:1006100067626C69676874206D6F6465205B4E4F1C
:10062000454550524F4D5D3A2025750A007267626C
:100630006C69676874206D6F6465205B4545505236
:100640004F4D5D3A2025750A007267626C696768D4
:10065000745F696E6974207267626C696768745F41
:10066000636F6E6669672E6D6F6465203D20302E66
:100670002057726974652064656661756C742076B4
:10068000616C75657320746F20454550524F4D2E37
:100690000A007267626C696768745F696E697420CA
:1006A0006565636F6E666967206973206E6F74207D
:1006B000656E61626C65642E0A007267626C6967C0
:1006C00068745F696E6974207374617274210A00C2
:1006D0007267626C696768745F696E6974206361D0
:1006E0006C6C65642E0A007267626C696768745F7F
:1006F000636F6E6669672E7370656564203D2025A3
:10070000640A007267626C696768745F636F6E6623
:1007100069672E76616C203D2025640A007267624D
:100720006C696768745F636F6E6669672E73617466
:10073000203D2025640A007267626C696768745FF7
:10074000636F6E6669672E687565203D2025640AB3
:10075000007267686C696768745F636F6E6669676B
:100760002E6D6F6465203D2025640A007267626CFF
:10077000696768745F636F6E6669672E656E616234
:100780006C65203D2025640A007267626C696768A9
:10079000745F636F6E66696720454550524F4D3AEE
:1007A0000A0000047F3F1F643214643214783C1E38
:1007B0001E140A052223252628292A2C2D2F303203
:1007C000333536383A3B3D3E4042434547494A4C33
:1007D0004E5051535557595A5C5E60626466686961
:1007E0006B6D6F71737577797B7D7F818385878969
:1007F0008A8C8E90929496989A9C9E9FA1A3A5A76E
:10080000A8AAACAEAFB1B3B4B6B8B9BBBCBEBFC199
:10081000C2C3C5C6C7C9CACBCCCDCED0D1D2D2D324
:10082000D4D5D6D7D7D8D9D9DADADBDBDBDCDCDC38
:10083000DCDCDDDDDDDDDCDCDCDCDCDBDBDBDADAFB
:10084000D9D9D8D7D7D6D5D4D3D2D2D1D0CECDCC72
:10085000CBCAC9C7C6C5C3C2C1BFBEBCBBB9B8B687
:10086000B4B3B1AFAEACAAA8A7A5A3A19F9E9C9A12
:1008700098969492908E8C8A89878583817F7D7BE0
:1008800079777573716F6D6B6968666462605E5CC1
:100890005A5957555351504E4C4A49474543424087
:1008A0003E3D3B3A3836353332302F2D2C2A29281D
:1008B00026252322FFAA7F55406261636B6C69671E
:1008C000687420627265617468696E672064697318
:1008D00061626C650A006261636B6C6967687420B1
:1008E000627265617468696E6720656E61626C65CD
:1008F0000A006261636B6C6967687420627265618B
:100900007468696E6720746F67676C653A20257537
:100910000A006261636B6C69676874207374657048
:100920003A2025750A006261636B6C696768742000
:1009300064697361626C650A006261636B6C69670C
:10094000687420656E61626C650A006261636B6C3D
:100950006967687420746F67676C653A2025750A4B
:10096000006261636B6C69676874206465637265BB
:100970006173653A2025750A006261636B6C696773
:10098000687420696E6372656173653A2025750A23
:100990000000000000000000000000000101020350
:1009A000040506080A0C0F1114181C2024292E33E4
:1009B000393F464C535B626A7179818A929AA2AA46
:1009C000B2B9C1C8CFD5DCE1E7EBF0F4F7FAFCFD32
:1009D000FEFFFEFDFCFAF7F4F0EBE7E1DCD5CFC853
:1009E000C1B9B2AAA29A928A8179716A625B534CA8
:1009F000463F39332E2924201C1814110F0C0A08E5
:100A000006050403020101000000000000000000D0
:100A100000000101010101010101010202020202C3
:100A20000202020203030303030303030404040496
:100A3000040404050505050506060606060707075E
:100A4000070708080808090909090A0A0A0B0B0B15
:100A50000C0C0C0D0D0D0E0E0E0F0F0F10101111B2
:100A60001112121313141415151616171718181936
:100A7000191A1A1B1B1C1D1D1E1E1F20202122229D
:100A8000232424252626272829292A2B2C2D2D2EE0
:100A90002F30313232333435363738393A3B3C3DFA
:100AA0003E3F404142434445464748494A4C4D4EEB
:100AB0004F50515354555658595A5B5D5E5F6162B1
:100AC00064656668696B6C6D6F7072737577787A40
:100AD0007B7D7E8082838587888A8C8E8F9193959B
:100AE00096989A9C9EA0A2A3A5A7A9ABADAFB1B3BF
:100AF000B5B7BABCBEC0C2C4C6C9CBCDCFD1D4D69F
:100B0000D8DBDDDFE2E4E7E9EBEEF0F3F5F8FAFD40
:100B1000FF0A002530325820006B6579626F6172E0
:100B2000645F7265706F72743A20000A002530327B
:100B300058006B6579626F6172645F7365745F6C96
:100B400065643A200064656C5F6B65795F62697407
:100B50003A2063616E27742064656C3A2025303238
:100B6000580A006164645F6B65795F6269743A205A
:100B700063616E2774206164643A20253032580A1C
:100B8000003F00433E20004C25640A0074696D65F7
:100B9000725F72656164333228293A202530346CE3
:100BA000580A006B65796D61705F636F6E66696787
:100BB0002E6E6B726F3A2025580A006B6579626F52
:100BC0006172645F69646C653A2025580A006B6540
:100BD00079626F6172645F70726F746F636F6C3A89
:100BE0002025580A00686F73745F6B6579626F61C6
:100BF00072645F6C65647328293A2025580A000ADC
:100C0000092D20537461747573202D0A00474343E6
:100C10003A20382E332E30204156522D4C49424333
:100C20003A20322E302E30204156525F41524348F6
:100C30003A2061767235310A004F5054494F4E5375
:100C40003A204C5546412045585452414B45592075
:100C5000434F4E534F4C4520434F4D4D414E442042
:100C60004E4B524F20383139320A004255494C44DC
:100C70003A2022302E372E36322D312D67656430E2
:100C80003537352D646972747922202831373A302E
:100C9000343A3137204E6F762020352032303139CA
:100CA000290A005649443A203078303444382868BC
:100CB000696E657962757368206B6579626F6172C0
:100CC000647329205049443A2030784543453828F8
:100CD0006862637029205645523A203078303030AF
:100CE000310A00444553433A20636F6D7061637469
:100CF0002031383030206C61796F757420637573E2
:100D0000746F6D206B6579626F6172640A000A0905
:100D10002D2056657273696F6E202D0A000A092D09
:100D200020436F6E736F6C65202D0A4553432F71FE
:100D30003A09717569740A000A092D204D616769C5
:100D400063202D0A443A094465627567204D657336
:100D50007361676520546F67676C650A583A094D7F
:100D60006174726978204465627567204D6F6465AF
:100D700020546F67676C65202D2053686F77206B58
:100D800065797072657373657320696E206D617427
:100D900072697820677269640A4B3A094B65796217
:100DA0006F61726420446562756720546F67676C79
:100DB00065202D2053686F77206B6579707265739D
:100DC00073207265706F72740A4D3A0944656275DA
:100DD00067204D6F75736520546F67676C650A56A1
:100DE0003A0956657273696F6E0A533A0953746112
:100DF0007475730A433A09416374697661746520B6
:100E0000436F6E736F6C65204D6F64650A46312DBC
:100E10004631303A0953776974636820746F204C07
:100E20006179657220302D392028463130203D20EF
:100E30004C30290A302D393A095377697463682098
:100E4000746F204C6179657220302D390A47524108
:100E500056453A0953776974636820746F204C6172
:100E600079657220302028616C7465726E617465DA
:100E7000290A423A094A756D7020746F20426F6FDB
:100E8000746C6F616465720A4553433A094A756D23
:100E90007020746F20426F6F746C6F616465722094
:100EA00028616C7465726E617465290A453A09504F
:100EB00072696E7420454550524F4D2053657474CD
:100EC000696E67730A4253504143453A09436C6562
:100ED000617220454550524F4D0A4E3A094E4B52D1
:100EE0004F20546F67676C650A000A002575002E55
:100EF0006C6576656C3A20000A002575002E656EDB
:100F000061626C653A20000A002530325800626147
:100F1000636B6C696768745F636F6E6669672E7276
:100F200061773A20000A002575002E6E6B726F3AC9
:100F300020000A002575002E737761705F6261637F
:100F40006B736C6173685F6261636B73706163651F
:100F50003A20000A002575002E737761705F677272
:100F60006176655F6573633A20000A002575002E7F
:100F70006E6F5F6775693A20000A002575002E7351
:100F80007761705F72616C745F726775693A200097
:100F90000A002575002E737761705F6C616C745F59
:100FA0006C6775693A20000A002575002E73776119
:100FB000705F7263746C5F726775693A20000A0033
:100FC0002575002E737761705F6C63746C5F6C675E
:100FD00075693A20000A002575002E636170736CF4
:100FE0006F636B5F746F5F636F6E74726F6C3A20C8
:100FF000000A002575002E737761705F636F6E7451
:10100000726F6C5F636170736C6F636B3A20000A80
:101010000025303258006B65796D61705F636F6ECB
:101020006669672E7261773A20000A002575002EE6
:101030006D6F7573653A20000A002575002E6B658B
:1010400079626F6172643A20000A002575002E6D86
:1010500061747269783A20000A002575002E656E69
:1010600061626C653A20000A0025303258006465E0
:101070006275675F636F6E6669672E7261773A208B
:10108000000A0025750064656661756C745F6C61AB
:101090007965723A20003F004E4B524F3A206F66FE
:1010A000660A004E4B524F3A206F6E0A000A6D6F6F
:1010B0007573653A206F66660A000A6D6F75736511
:1010C0003A206F6E0A000A6B6579626F6172643A4A
:1010D000206F66660A000A6B6579626F6172643A16
:1010E000206F6E0A000A6D61747269783A206F662B
:1010F000660A000A6D61747269783A206F6E0A00A0
:101100000A64656275673A206F66660A000A64655C
:101110006275673A206F6E0A000A0A4A756D706937
:101120006E6720746F20626F6F746C6F616465729C
:101130002E2E2E2000433E2000436C656172696EA6
:101140006720454550524F4D0A006565636F6E66D6
:1011500069673A0A005B735D004B6579626F617283
:10116000642073746172742E0A005B575D005B53D8
:101170005D005B525D005B445D005B435D0004030A
:10118000300000000A036800620063007000000085
:101190002803680069006E00650079006200750030
:1011A0007300680020006B006500790062006F002A
:1011B0006100720064007300000004030904090266
:1011C0005B00030100A0FA09040000010301010013
:1011D0000921110100012240000705810308000ACE
:1011E000090401000103000000092111010001228E
:1011F00071000705820320000A09040200020300AF
:1012000000000921110100012222000705830320AB
:101210000001070503032000011201100100000076
:1012200008D804E8EC0100010203010631FF09744B
:10123000A1010975150026FF009520750881020996
:1012400076150026FF00952075089102C00501095A
:1012500080A10185031A81002A830016010026035C
:1012600000950175108100C0050C0901A1018504DC
:101270001A01002A9C02160100269C029501751095
:101280008100C005010906A1018505050719E029AE
:10129000E715002501950875018102050719002948
:1012A000EF1500250195F075018102050819012946
:1012B00005950575019102950175039101C0050120
:1012C0000906A101050719E029E715002501950880
:1012D000750181029501750881010507190029FF33
:1012E000150026FF009506750881000508190129DB
:1012F00005950575019102950175039101C01124B1
:101300001FBECFEFD0E2DEBFCDBF04B603FE27C0C5
:101310008091140390911503A0911603B0911703C7
:101320008730904BA740B04BD1F410921403109229
:101330001503109216031092170314BE84B7877F0B
:1013400084BF0FB6F894A89580916000886180935F
:101350006000109260000FBEE0E0F0EF099511E030
:10136000A0E0B1E0E8ECF1E700E00BBF02C00790BD
:101370000D92AA36B107D9F723E0AAE6B1E001C081
:101380001D92A431B207E1F70E9420320C947B3801
:101390000C940000FF93EF93E0916A01F0916B01D0
:1013A000309709F00995EF91FF910895FC0185911F
:1013B000803011F0EFDFFBCF0895FF27E0E230E24D
:1013C00047FF0CC0419597FF09C0EDE2609570950D
:1013D00080959095611D711D811D911D27FF02C093
:1013E000219530E350E2AA27660F771F881F991FC7
:1013F000AA1FA41710F0A41B63955A95A9F7AA3049
:1014000008F0A95FA05DAF93F395611571058105A3
:10141000910541F7ED3211F4EF93F395F21718F4BB
:101420003F93F395FBCF8F91B5DFFA95E1F70895E0
:10143000E991F9918591803021F0853219F0AADF88
:10144000F9CF089520E0E89455915532C1F3503317
:1014500011F4689455915A3348F4505390F3220F85
:10146000022E220F220F200D250FF4CF0EF421950E
:1014700089919991533619F3533729F1533559F11D
:10148000BC0188279927E8945C3621F489919991C9
:1014900068945591543639F446EF7EF077FF0DC0CD
:1014A0008FEF9FEF0AC055374AE039F0583540E1D9
:1014B00021F0523642E009F00895FF93EF937DDF6B
:1014C000EF91FF91B7CFFF93EF93FC0181918030B3
:1014D000B9F360DFFBCFFF93EF9368DFF1CFDF93CA
:1014E000CF93CDB7DEB72596A3DFCF91DF910895D7
:1014F0000C94DE0A0C94DF0A0C94C50ACF93C82F13
:101500002FEA32E081FF1AC048E760E080E00E94E5
:10151000941322EB32E0C0FF17C048E760E080E0A0
:101520000E94941325EB32E0C2FF14C048E760E04C
:1015300080E00E949413CF910C947D1440E060E011
:1015400080E00E94A213E5CF40E060E080E00E94CE
:10155000A213E8CF40E060E080E00E94A213EBCF4E
:101560000C947E0A68E183E00E94831387E00E9466
:101570007E0A2FEF85EA9EE0215080409040E1F7FF
:1015800000C0000080E00C947E0A88302DE59207B0
:1015900029F089309D4559F081E00895FB01828151
:1015A0008823D1F38AEA90E00E94830BF5CFFB01F8
:1015B0008281882389F388E990E0F6CF0895089521
:1015C00081E008951F93CF93DF9300D000D00F9256
:1015D000CDB7DEB749835A836B832091D3018981CC
:1015E0009A8121111BC06623A9F00E94A128182FFF
:1015F000682F89819A810E944D2869817A81812F83
:101600000F900F900F900F900F90DF91CF911F913F
:101610000C94670E0E947928182FEFCF0E94A12802
:1016200069817A81EDCFFC014081518162817381B2
:1016300084810C94E20A1F93CF93DF9390E0FC0126
:10164000E756FD4F1491FC01E756FC4FD491875E9D
:101650009C4FFC01C491DD2319F081EE0E94CF1F45
:10166000CC2319F086EE0E94CF1F812F0E94032108
:10167000CC2319F086EE0E94B420DD2331F081EEF8
:10168000DF91CF911F910C94B420DF91CF911F91E6
:101690000895FF920F931F93CF93DF938C01F62E43
:1016A000F8018491882349F1E8012196813049F4B9
:1016B000FE011491812F0E94CF1F812F0E94B42020
:1016C00006C0823089F4FE0184910E94CF1F8E01F2
:1016D0000F5F1F4F8F2D815018F3EFE9FFE0319717
:1016E000F1F700C00000F7CF833019F4FE018491B8
:1016F000E5CF0E941B0BE801EACFDF91CF911F914C
:101700000F91FF90089560E00C94490B0E94352AD8
:10171000811102C00E94DB2A0E94EC1C0C94780A02
:101720000E94651C0C947A0A0C94B00A08950E94D9
:101730008D230E94960B2FEF84E39CE02150804084
:101740009040E1F700C000000C949C2C0F931F9375
:10175000CF93DF938C010E94130BEC01B8010E9420
:101760007C0A882309F40BC1B801CE010E94A71D91
:10177000882309F404C1CB3C8CE5D80709F455C192
:1017800008F060C0C33CECE5DE0709F422C1C0F5F7
:10179000C6318CE5D807A8F4C2309CE5D90708F01B
:1017A000AEC0C115ECE5DE0709F4E4C0C130DC458C
:1017B00009F4EBC0C801DF91CF911F910F910C94F8
:1017C000E00AC13C8CE5D80709F475C208F0FAC0FC
:1017D000C631DC4579F70E943629F80192819923B8
:1017E00009F45FC28A7A91E009F490E090936C0169
:1017F000811155C289E20E9411290E948229BFC02D
:10180000F8018281C73CFCE5DF0709F4FCC068F4FD
:10181000C53CECE5DE0709F4F0C008F4E5C0882318
:1018200009F4ADC00E943316AAC0C93C9CE5D90793
:1018300009F4F5C008F4EDC0882309F4A0C00E94A3
:101840006F169DC0C33DFCE5DF0709F42CC190F580
:10185000F8018281CF3CFCE5DF0709F4FBC0A8F466
:10186000CD3CECE5DE0709F4EEC008F4E6C08823C1
:1018700009F485C00E945314823028F00E9453144A
:10188000853008F4B7C082E0E2C0C13D9CE5D907CD
:1018900009F4FBC008F4EBC0882309F470C00E946F
:1018A0005314853128F00E945314873108F4A2C0E4
:1018B00085E1CDC0CD3DFCE5DF0709F412C1A0F400
:1018C000C53D9CE5D90709F405C108F4F3C0CC3D3A
:1018D000DC4509F06FCFF8018281882309F44FC0FD
:1018E00080E00E94C9324BC0CE3D8CE5D80709F498
:1018F00062C0CE018A5F9C45099708F05BCFF80172
:101900008281882309F456CF0E94352A811102C0B2
:101910000E94DB2A0E94482A9093060380930503C5
:10192000C031FCE5DF0709F489C108F019C1C830EE
:101930009CE5D90709F478C108F0E8C0C430FCE59B
:10194000DF0709F465C108F0D3C0C2309CE5D907B0
:1019500009F458C1809105038260C330DC4509F465
:1019600054C180910503909106030E94562A0E945B
:101970008D2305C0F801828181110E94970B80E0C0
:10198000DF91CF911F910F910895F80182818823F3
:10199000B1F390917F02892F8E7F90FF81608093B9
:1019A0007F0280FF05C088E892E00E94D609E7CF59
:1019B00086E792E0FACFF8018281882301F30E9442
:1019C000DB2ADDCFF80182818823C9F20E948F19BA
:1019D000D6CFF8018281882391F20E943629827243
:1019E00049F00E94B918CBCF882349F20E943629CA
:1019F0008272B9F30E94AC18C2CF882309F4BFCF1A
:101A00000E942616BCCF882309F4B9CF0E94421643
:101A1000B6CF882309F4B3CF0E945116B0CF8823E4
:101A200009F4ADCF0E946016AACFF8018281882305
:101A300009F4A5CF0E945B14A2CF882309F49FCF9D
:101A40000E946C149CCF882309F499CF81E00E94F6
:101A5000BC1895CF882309F492CF0E945314863086
:101A600020F00E945314883028F286E0F0CF8823BB
:101A700009F485CF0E945314893028F00E94531432
:101A80008E3008F4B7CF89E0E2CF882309F477CF0E
:101A90000E9453148F3028F00E945314843108F4AC
:101AA000A9CF8FE0D4CFF8018281882309F467CFD2
:101AB00088E1CDCFF8018281882309F460CF0E94AC
:101AC0005314893128F00E945314823208F492CFC3
:101AD00089E1BDCFF8018281882309F450CF83E2E8
:101AE000B6CFF8018281882309F449CF82E0F9CE8C
:101AF000809105038061C630FCE5DF0709F485C0ED
:101B000008F48AC08091050380627FC0809105033C
:101B10008D7FCC309CE5D90709F477C070F48091B3
:101B200005038C60CA30FCE5DF0709F46EC008F4D9
:101B30007FC0809105038E7F68C080910503877FF9
:101B4000CE309CE5D90709F460C0809105038B7FF6
:101B5000CF30DC4508F459C0809105038F7E55C015
:101B6000CB3FFCE5DF0709F45BC030F5C3319CE5F2
:101B7000D90709F46BC078F4C131FCE5DF0709F43B
:101B800061C0C231DC4509F0ECCE0E948D2380910A
:101B900005038F773AC0C5319CE5D90709F45EC0CB
:101BA00008F472C0809106038160CA3FDC4509F0E9
:101BB000D8CE80930603D5CECF3F8CE5D80709F465
:101BC00049C088F4809106038D7FCD3FECE5DE07A8
:101BD00081F3809106038E7FCE3FDC4550F38091E8
:101BE00006038360E6CFC1308DE5D80709F455C000
:101BF00008F440C080E0C230DD4509F0B2CE0E945A
:101C0000DD2AAFCE80910503816080930503A9CEC4
:101C1000809105038460F9CF809105038860F5CF3A
:101C2000809106038260C5CF809105038064EDCF6B
:101C30000E948D23809105038068E7CF8091050382
:101C40008F7DE3CF809105038F7BDFCF80910503EC
:101C5000837FDBCF809106038C7FABCF8091050320
:101C600082FB992790F921E0922790FB82F990FB63
:101C700083F9CBCF80910603982F909591708E7F3A
:101C8000892B90FB81F995CF0E948D2390910503BC
:101C9000892F97FB87F98058B8CF81E0B0CF85E3D3
:101CA000AACD80916C01811104C089E20E9418299B
:101CB000A4CD85E3FBCFF8018281882309F45FCEB0
:101CC0000E94D31B5CCE90E080E008950895972F8A
:101CD00070E022E1929F600D711D1124FB019CE6D2
:101CE000899FE00DF11D1124EE0FFF1FEA53FF4FF6
:101CF000859194910895FC01EE0FFF1FE75EFB4F65
:101D0000859194910895CF93DF930E94670E0E946E
:101D10006910EC01811521E5920708F049C0811591
:101D200030E5930708F030C1883E910508F5803E04
:101D3000910570F5883A910570F4853A910508F09F
:101D4000AEC08130910521F1009711F1049700F5A3
:101D5000D0E0C0E01DC08F3B910508F4ABC0805CB3
:101D60009109C03CD105A0F30E947B0EEC0110C08C
:101D70008115904388F4C11580E2D80708F0FBC0B4
:101D8000C03FD10528F3CF3FD10509F008F4F1C0D9
:101D9000CE01DF91CF910895C11590E4D90708F0E5
:101DA000F0C0CE019927D3FFE9C0EC01D86CF0CF89
:101DB000811529E5920760F5811538E5930708F04C
:101DC00029C1811544E5940778F4C11583E5D80746
:101DD00008F007C1C11592E5D90708F0F1C0DC2F62
:101DE000CC27C16FD06AD4CF811525E5920708F4BE
:101DF0000CC1811536E5930708F0AACF0E940011A7
:101E0000C82FD0E0DC2FCC27CC27DF71D062C0CF29
:101E10008D3B9C4509F403C1CE3B8CE5D807D0F43B
:101E2000CB3B9CE5D90709F4FDC008F0FEC0C11505
:101E30003AE5D30708F08CCF8C2F8F700E940011E9
:101E400034E0D695C7953A95E1F7CF709C2FEC0119
:101E5000D0699ECFC03C4CE5D40709F4E9C060F4DA
:101E6000CE3B9CE5D90709F4E6C0CF3BDC4509F041
:101E70006FCFC0E0D2ED8CCFCE019056811590424D
:101E800008F066CF8D2F8F710E94001190E0982F7F
:101E9000882788279F719C012C2BE901B7CF853AB1
:101EA000910509F4CBC0863A910509F0CAC0C2E891
:101EB000D0E46ECF883A910509F4C6C0893A9105FD
:101EC00009F4C5C08A3A910509F4C4C08B3A91055A
:101ED00009F4C3C08C3A910509F4C2C08B3B91054B
:101EE00009F4C1C08C3B910509F4C0C08D3A91053D
:101EF00009F4BFC0803B910509F4BEC08E3A91053C
:101F000009F4BDC08F3A910509F4BCC0813B91052D
:101F100009F4BBC0823B910509F4BAC0833B91052B
:101F200009F4B9C0843B910509F4B8C0853B91051B
:101F300009F4B7C0863B910509F4B6C0873B91050B
:101F400009F4B5C0883B910509F4B4C0893B9105FB
:101F500009F4B3C08D3B910509F4B2C08E3B9105E5
:101F600009F4B1C08A3B910509F4B0C0C0E0D4E4E3
:101F70000FCFD0650DCFCE019F70F6CEEC01D06CA7
:101F800007CFDF70D06A04CFE4E096958795EA9595
:101F9000E1F783702C2F26952695237040E2249F2D
:101FA00090011124382B8C2F8370C1E0D0E002C047
:101FB000CC0FDD1F8A95E2F7C22BD32BDC68E8CE6D
:101FC000CE018370992721E030E002C0220F331F39
:101FD0008A95E2F7C695C69580E2C89FE001112474
:101FE000EBCFCE018370992721E030E002C0220FB1
:101FF000331F8A95E2F7C695C69590E2C99FE00126
:102000001124C22BD32BDA68C3CED82FCC27C46FB0
:10201000D06ABECED82FCC27C06FD06AB9CEC0E070
:10202000D1EDB6CEC0E0D4EDB3CEC0E0D5EDB0CEAC
:10203000C0E0D3EDADCEC0E0D0EDAACEC1E8D0E493
:10204000A7CEC3E8D0E4A4CEC2EED4E4A1CEC9EEBC
:10205000D4E49ECECAEED4E49BCEC5EBD4E498CEB5
:10206000C6EBD4E495CEC3EBD4E492CEC4EBD4E477
:102070008FCEC7EBD4E48CCECCECD4E489CECDECBF
:10208000D4E486CEC3E8D5E483CECAE8D5E480CED6
:10209000C2E9D5E47DCEC4E9D5E47ACEC1E2D6E486
:1020A00077CEC3E2D6E474CEC4E2D6E471CEC5E204
:1020B000D6E46ECEC6E2D6E46BCEC7E2D6E468CEF6
:1020C000CFE6D4E465CEC0E7D4E462CECAE2D6E47B
:1020D0005FCE82389105B1F1B0F48133910509F4F6
:1020E00075C048F48932910509F469C08A329105B6
:1020F00009F473C008958533910509F459C08933F3
:10210000910501F10895833E9105A9F138F4803ECF
:102110009105F9F0823E910549F10895863E9105B9
:10212000A9F1873E9105C9F1843E910519F52091E9
:10213000060321FF1FC08091050384FD14C087EEB4
:1021400090E00895209105032370A1F080EE90E0C7
:1021500008952091050320FD47C03091060330FF0C
:1021600009C024FF44C090E080E004C02091050332
:1021700022FDF7CF08952091050322FD3BC0309149
:10218000060330FDE3CF24FFF5CFEDCF209105030B
:1021900023FFF0CF24FDE7CFD2CF2091050323FD0D
:1021A0002CC03091060331FFEECF84EE90E008950D
:1021B0002091050325FFDECF89E290E0089520916C
:1021C000050325FFD7CF85E390E00895209105030F
:1021D00026FFD0CF8AE290E008952091050326FFE4
:1021E000C9CF81E390E0089589E390E0089583EEFC
:1021F00090E0089582EE90E0089586EE90E00895D4
:102200009091050392FF06C0282F28712830F9F419
:10221000877F846093FF06C0282F28712831F1F44E
:10222000877E84612091060320FF06C0382F387115
:102230003830D9F4877F816021FF06C0282F2871AC
:102240002831D1F4877E816194FD877E0895282FFF
:1022500024712430F9F68B7F8860DCCF282F24711D
:10226000243101F78B7E8861DDCF382F3171313019
:1022700019F78E7F8860E0CF282F2171213121F757
:102280008E7E8861E1CF94E0899FF0011124E359AB
:10229000FE4F60817181828193810895CF92DF9298
:1022A000EF92FF920F931F93CF93DF938AE294E014
:1022B0000E94D6098DE6E82E81E0F82ED0E0C0E03D
:1022C00095E2C92E94E0D92E0BE114E0DF93CF9371
:1022D000DF92CF920E946F0A82E294E00E94D609B8
:1022E000F70161917191819191917F010E940F2A73
:1022F0009F938F937F936F931F930F930E946F0A07
:1023000089E194E00E94D60921968DB79EB70A967E
:102310000FB6F8949EBF0FBE8DBFC630D105B1F683
:10232000DF91CF911F910F91FF90EF90DF90CF90B1
:102330000895A0E3B1E061E070E08D91E82FE295AF
:10234000EF70F0E041A18F709B0101C0220F8A95D0
:10235000EAF7922F9095942391A382A1822B82A3D6
:1023600081E0A633B80749F7AEE1B1E061E070E083
:102370008D91E82FE295EF70F0E041A18F709B0105
:1023800001C0220F8A95EAF7922F9095942391A38A
:1023900082A1822B82A381E0A033B80749F7E5E848
:1023A000F1E0ADE6B1E08DE991E011921192119268
:1023B00011921D921D921D921D928E179F07A9F7D3
:1023C00086E00E94B4120C94860B2F923F924F929B
:1023D0005F926F927F928F929F92AF92BF92CF92B5
:1023E000DF92EF92FF920F931F93CF93DF93CDB7BE
:1023F000DEB728970FB6F894DEBF0FBECDBF25E835
:1024000031E038872F8360E371E010E0AF81B88559
:10241000CD90DD90ED90FC901397FD0111921192FB
:1024200011921192F887EF83DB018D91BD01E82FA6
:10243000E295EF70F0E091A18F7022242394312C6B
:1024400001C0220C8A95EAF7892F822981A382A1F3
:10245000022D0095802382A3B0EABA95F1F72EE110
:1024600031E03C832B8390E080E04F8158854450DD
:1024700051095E834D83AB81BC816D90BC83AB837E
:10248000262D22952F7030E0D90190962C91AD81A8
:10249000BE818D909D90AD90BC9030E0B62DBF7008
:1024A00002C035952795BA95E2F720FD59C021E085
:1024B00030E040E050E0082E04C0220F331F441FDC
:1024C000551F0A94D2F729013A0184289528A62895
:1024D000B728AD81BE818D929D92AD92BC9213972B
:1024E00001968231910539F681A1082301A382A1C9
:1024F000822982A381E08D909D90AD90BC908C1438
:102500009D04AE04BF0409F480E0182BEF81F88528
:10251000ED59F14009F07ACF212F46E06DE671E0E8
:1025200085E891E00E94B5120E94900B812F2896B9
:102530000FB6F894DEBF0FBECDBFDF91CF911F91D4
:102540000F91FF90EF90DF90CF90BF90AF909F9052
:102550008F907F906F905F904F903F902F90089555
:10256000412C512C3201B1CF0895FF920F931F934C
:10257000CF93DF93F82ED92F8B01C42F222349F05C
:1025800081E080939F010E94362C90939E0180935E
:102590009D0180919F01882399F080919D019091E8
:1025A0009E010E944E2C069758F0EF2DFD2FD8016A
:1025B00090E080E0D0E08C179D0744F010929F01DE
:1025C000DF91CF911F910F91FF900895019111918B
:1025D000219131910D931D932D933D930196EBCF56
:1025E000AF92BF92CF92DF92FF920F931F93CF9340
:1025F000DF93362F472FE82FF0E0EF5EF54F711194
:102600000DC06491762F862FDF91CF911F910F918E
:10261000FF90DF90CF90BF90AF900895C72FD0E08C
:102620002491F22E022F10E056E0659FC001112484
:10263000EFEFF0E0BF010E94B937832F90E0880FE1
:10264000991F35E5369FD001379FB00D11248A1BA5
:102650009B0B982F990F980F6F01CC1ADD0AC09E23
:10266000D001C19EB00DD09EB00D11248B2F949F30
:10267000A0011124452F55276F01C41AD50AC09E09
:10268000A001C19E500DD09E500D11245F01A91ACA
:10269000B108AC9E6001AD9ED00CBC9ED00C112444
:1026A000CD2CDD24EC19FD09E09FE001E19FD00D68
:1026B000F09FD00D1124ED2F62307105A1F048F488
:1026C0006115710569F06130710589F0EB2F852F77
:1026D00007C06430710571F088F066307105B1F79C
:1026E0006E2F722F91CFE22F2B2F8D2FF9CFE22F4C
:1026F000252FF6CFEB2F822F2D2FF2CF2B2F8F2DC3
:10270000E52FEECF08958B3170F4482F460F5527F3
:10271000551F4C3151053CF48093A301860F8093E3
:102720000301609302010895CF93DF93762FE901AF
:10273000682F842F0E94F012798368838A83DF9147
:10274000CF9108950C9494138091AA02982F9E7FA4
:1027500029F4817082608093AA0208958A34E8F394
:1027600081708864F8CF88E090E00C943B38CF9279
:10277000DF92EF92FF926B017C010E94A413B701DC
:10278000A60188E090E0FF90EF90DF90CF900C944E
:102790005938EAEAF2E083E0808311828FEF828386
:1027A0008383148260817181828193810C94B71339
:1027B00080917F0280FF76C089E897E09F938F9396
:1027C0000E946F0A80917F020F900F9080FF6AC075
:1027D0008091AA0281701F928F938CE697E09F935D
:1027E0008F930E946F0A80917F020F900F900F903D
:1027F0000F9080FF57C08091AA0286951F928F93F9
:1028000081E597E09F938F930E946F0A80917F02EA
:102810000F900F900F900F9080FF44C08091AB02FB
:102820001F928F9387E397E09F938F930E946F0A85
:1028300080917F020F900F900F900F9080FF32C019
:102840008091AC021F928F938DE197E09F938F93BD
:102850000E946F0A80917F020F900F900F900F904F
:1028600080FF20C08091AD021F928F9383E097E09C
:102870009F938F930E946F0A80917F020F900F9019
:102880000F900F9080FF0EC08091AE021F928F9329
:1028900087EE96E09F938F930E946F0A0F900F90A0
:1028A0000F900F9008958091AA0280FF02C0869534
:1028B000089580E008958091AE02833018F48F5F10
:1028C0008093AE026091AA027091AB028091AC023B
:1028D0009091AD020C94B7138091AE02882319F049
:1028E00081508093AE026091AA027091AB028091F8
:1028F000AC029091AD020C94B7136091040170E0AA
:102900008091AA0280FF0AC08091A40123E0829FE7
:10291000C001112481559D4F0C94371D8091A30156
:102920009091030123E0829FF0011124E155FD4FB6
:10293000891750F71182108212828F5F3396F8CF79
:102940009091AA0290FF14C09091A30120910301DD
:1029500033E0939FF0011124E155FD4F921710F0E1
:102960000C947D148183608342839F5F3396F6CFFE
:102970000895CF93DF9300D00F92CDB7DEB790913B
:10298000AA0290FF0AC09E012F5F3F4F0E9494133E
:102990004B8169818A810E94A0140F900F900F9043
:1029A000DF91CF910895CF93DF93EC01EC81F0E0BC
:1029B000EC54F84F4491EAEAF2E0628181810E948E
:1029C000B9148C818F5F8C83DF91CF910895CF9361
:1029D000DF93EC01EAEAF2E0438162818C810E949C
:1029E000B9148C818F5F8C83DF91CF9108950F9301
:1029F0001F93CF93DF9300D00F92CDB7DEB78C013A
:102A00008091A00181110AC09E012F5F3F4F4FEFBF
:102A10006FEF0E9494138A818093A001F801648172
:102A2000613069F08091A00140E0662361F040E0F0
:102A3000623011F44091A00180E060E004C0609138
:102A4000A00140E080E00E94A014F801848190E0A1
:102A5000019663E070E00E94CD3784830F900F9061
:102A60000F90DF91CF911F910F9108954F925F9238
:102A70006F927F928F929F92AF92BF92CF92DF928E
:102A8000EF92FF920F931F93CF93DF9300D00F929B
:102A9000CDB7DEB7182FD62E042F722E9091AA0232
:102AA00090FF46C0E92FE695AE2FB0E0AA5CBE4F7E
:102AB0008C918093AC019E7F923009F04DC09E01B5
:102AC0002F5F3F4F812F0E9494134B8169818A8130
:102AD0000E94A0141093AB02D092AC020093AD02FE
:102AE000772009F49CC06091AA027091AB0280919A
:102AF000AC029091AD020E94B71380917F0280FFDB
:102B000017C08091AD021F928F938091AC021F92EB
:102B10008F938091AB021F928F938AEA94E09F93E8
:102B20008F930E946F0A0FB6F894DEBF0FBECDBF21
:102B30000F900F900F90DF91CF911F910F91FF9009
:102B4000EF90DF90CF90BF90AF909F908F907F904D
:102B50006F905F904F900895823019F40091AD020C
:102B6000B9CF863019F41091AB02B4CF8930D9F3C4
:102B7000893109F0AFCFE9518E2F8170682E8E2FE9
:102B800080958170C82EE695F0E0EC54F74FE59003
:102B9000F490412CFF249FECA92E94E0B92E609173
:102BA0000201461618F00E947D1494CF842C912CBB
:102BB0008E9CC0018F9C900D9E9C900D112470E006
:102BC0000E94B937512E611028C0560E80917F02A5
:102BD00080FF11C0FF92EF921F92CF921F925F92DF
:102BE0001F924F92BF92AF920E946F0A0FB6F89455
:102BF000DEBF0FBECDBF2091A301820E911C9401B8
:102C0000220F331F280D391D21553D4F402F6D2DAB
:102C1000852D0E9494134394C2CF561AD7CF80912A
:102C20007F0280FF85CF1F920F931F92DF921F922A
:102C30001F9383E894E073CFEAEAF2E09181282FB2
:102C40004381628188E0890F0C94361581E00C94F1
:102C50001C16EAEAF2E09181282F4381628188EF15
:102C6000890F0C94361581E00C942916EAEAF2E0FB
:102C7000628128E0620F08F46FEF282F4381818181
:102C80000C94361581E00C943616EAEAF2E0628183
:102C900028E0621B08F460E0282F438181810C94B6
:102CA000361581E00C944516EAEAF2E0438128E00B
:102CB000420F08F44FEF282F628181810C94361562
:102CC00081E00C945416EAEAF2E0438128E0421BCA
:102CD00008F440E0282F628181810C94361581E050
:102CE0000C94631620E00C943615EF92FF921F931C
:102CF000CF93DF93EC0110E0EE24EA94F12C609185
:102D00000201161770F00E947D149A818C8190FF49
:102D100027C08F5F8C83DF91CF911F91FF90EF9041
:102D200008952091A301422F410F5527551FCA0135
:102D30009A01220F331F280F391F21553D4F70E094
:102D4000C7010E94CD37962F8C814091AD026091D2
:102D5000AC02199F800D11240E9494131F5FCFCFE6
:102D60008150D8CFAF92BF92CF92DF92EF92FF9275
:102D70000F931F93CF93DF93FC0182810FEF80FFAE
:102D800001E010E04BE1A42E809102011817C8F079
:102D90000E947D148091A201013009F055C081117B
:102DA00002C08091020181508093A201DF91CF91F6
:102DB0001F910F91FF90EF90DF90CF90BF90AF9059
:102DC0000895C091A301C12ED12CCC0DDD2DD11DB4
:102DD000CE01880F991FC80FD91FC155DD4F198229
:102DE00018821A8234E0E32EF12CB12C8091A201DA
:102DF0008B0D8C311CF16A2D0E94AB37892F082E68
:102E0000000C990BC816D90691F48091AD028E9DE5
:102E1000A0018F9D500D11245595479555954795C7
:102E20009E016091AC028091AB020E949413B00E9F
:102E3000F1E0EF1AF108D1F61F5FA6CF87FFDFCFD1
:102E400090910201890FDBCF90E001966091020121
:102E500070E00E94CD37A8CF0F931F93CF93DF93DD
:102E60008091A3019091030123E0829FF00111243E
:102E7000E155FD4F891740F1C0E0D3E060910201B8
:102E8000C61740F10E947D14209100018091A1019C
:102E9000820F8093A10190910101920F9093010103
:102EA000191654F4082E000C990B40910201415060
:102EB000550B841795071CF0219520930001DF9195
:102EC000CF911F910F9108951182108212828F5F0E
:102ED0003396D0CF0C2F10E070E0C8010E94CD37A0
:102EE0002091A301820F482F50E02091A101022ED2
:102EF000000C330B02171307BCF020910101022EC6
:102F0000000C330B201731077CF08D9F90011124AA
:102F100021553D4F4091AD026091AC028091AB02D2
:102F20000E949413CF5FAACFFA01EE0FFF1FE40FA8
:102F3000F51FE155FD4F118210821282F3CF0F93DE
:102F40001F93CF93DF938C01FC01848195810196BF
:102F50008170992795838483C0E0D5E58091020133
:102F6000C81730F0DF91CF911F910F910C947D1411
:102F70002091A301422F4C0F5527551FCA019A01DA
:102F8000220F331F280F391F21553D4F8C2F869557
:102F9000F80144815581840F952F911D81704091D6
:102FA000AD026091AC028D9F802D11240E9494137C
:102FB000CF5FD4CF0F931F93CF93DF93EC0110E03B
:102FC00000E0909102019017110609F06CF40E9444
:102FD0007D148C8190E00196817099278C83DF911C
:102FE000CF911F910F9108952091A301A801420F45
:102FF000511D9A01220F331F240F351F21553D4FBC
:103000004C816091AC028091AB02969590171106AD
:1030100051F04CF0442349F04091AD020E949413CA
:103020000F5F1F4FCECF4423B9F340E0F7CF60913D
:10303000AA02669570E04BE050E085E091E00E94C6
:103040002638892B19F481E08093AD010E94362C3B
:103050009093A6018093A50180917F0280FF08C014
:103060008AE694E09F938F930E946F0A0F900F90CF
:1030700008951092AD0180917F0280FF08C081E524
:1030800094E09F938F930E946F0A0F900F90089582
:103090009091AA0290FF54C0917081113BC0926040
:1030A0009093AA026623E9F16091AA027091AB02A3
:1030B0008091AC029091AD020E94B71380917F0283
:1030C00080FF0FC08091AA0286951F928F938DE298
:1030D00096E09F938F930E946F0A0F900F900F902E
:1030E0000F906091AA02669570E04BE050E085E099
:1030F00091E00E942638892B01F10E94391881E065
:103100008093A8014091AD026091AC028091AB0226
:103110000C947216853210F09864C2CF880F982BE9
:10312000BFCF80917F0280FFDCCF8091AA0286957D
:103130001F928F938FE096E0CCCF0E941718DFCFBD
:103140000895682F9091AA02969581E0890F8532A3
:1031500008F081E00C94481881E00C94A118682FC5
:103160009091AA0296958FEF890F09F484E20C944E
:10317000481881E00C94AF1861E00C9448188091D5
:10318000AA0281608093AA0280917F0280FF0DC015
:103190001F9281E08F9381EA95E09F938F930E9425
:1031A0006F0A0F900F900F900F908091AA02869552
:1031B0000C94BC1860E00C9448188091AB0181110C
:1031C00063C080917F02816080937F0280FF14C082
:1031D00080ED96E09F938F930E946F0A80917F020B
:1031E0000F900F9080FF08C08AEB96E09F938F931B
:1031F0000E946F0A0F900F900E94352A811110C013
:1032000080917F0280FF08C082E996E09F938F93B0
:103210000E946F0A0F900F900E94DB2A0E94C91330
:103220000E94B3136093AA027093AB028093AC0226
:103230009093AD026E7FC1F480917F0280FF08C041
:1032400089E496E09F938F930E946F0A0F900F90EE
:103250000E94C9130E94B3136093AA027093AB0239
:103260008093AC029093AD020E94A4130E94D813E5
:103270001092AD018091AA0280FF03C086950E9442
:10328000DA1881E08093AB0108958091AA028160F1
:103290008093AA0280917F0280FF0DC01F9281E07F
:1032A0008F9388E695E09F938F930E946F0A0F900B
:1032B0000F900F900F908091AA0286950C94DA18C7
:1032C0008091AA028E7F8093AA026091AA027091D7
:1032D000AB028091AC029091AD020E94B713809135
:1032E0007F0280FF0FC08091AA0281701F928F938E
:1032F00080E395E09F938F930E946F0A0F900F9049
:103300000F900F900E9439182FEF80E792E0215024
:1033100080409040E1F700C000000C947D14809143
:103320007F0280FF10C08091AA02809581701F9259
:103330008F9388ED95E09F938F930E946F0A0F9073
:103340000F900F900F908091AA0280FD0C9460194D
:103350000C94BF188091AA028E7F8093AA0280915C
:103360007F0280FF0CC01F921F9286EF94E09F9314
:103370008F930E946F0A0F900F900F900F900E94F2
:1033800039182FEF80E792E0215080409040E1F71C
:1033900000C000000C947D140F931F93CF93DF9314
:1033A0008091AD01882309F48DC08091AC01E0913A
:1033B000AA02E695E81BE093A7018230C9F5F0E088
:1033C000E055F84FE491CE2FD0E003ED14E1809169
:1033D000A801882389F01092A8010E94362C9E0132
:1033E00020953095820F931F9093A6018093A5019D
:1033F0001092AA011092A9018091A5019091A601B5
:103400000E944E2C8C179D0708F45CC0E091A5012A
:10341000F091A601CE0FDF1FD093A601C093A501A6
:1034200085EA91E0F801DF91CF911F910F91099406
:10343000863049F4F0E0E355F84FE491CE2FD0E028
:1034400007EE14E1C4CF893051F4E695F0E0E6557B
:10345000F84FE491CE2FD0E005E716E1B8CF8F30DA
:1034600051F4E695F0E0E955F84FE491CE2FD0E025
:1034700002EB16E1ACCF853149F4F0E0EC55F84FA2
:10348000E491CE2FD0E00CE217E1A1CFC8EED3E05B
:103490000FE917E1883109F49ACF833239F4E2EA6F
:1034A000F7E0C591D49107EF14E191CFC4EFD1E0DB
:1034B0000AED17E1843209F48ACFC0EDD7E002E8C3
:1034C00013E185CFDF91CF911F910F9108950E9455
:1034D000352A811102C00E94DB2A0E94632A809350
:1034E0000003803220F08770886180930003909100
:1034F0000003892F817090FF04C0892F86958695DF
:1035000086950C94431C80910003982F9695969570
:103510009695933040F49F5F990F990F990F87709C
:10352000892B8093000380910003816080930003C6
:103530000E94672A80917F0280FF11C08091000362
:103540008695869586951F928F9389E799E09F933C
:103550008F930E946F0A0F900F900F900F908091A1
:1035600000038695869586950C94431C80910003F4
:10357000982F987F79F0885080930003887F91E09E
:1035800009F490E08091000390FB80F980930003A0
:103590000E94672A80917F0280FF11C08091000302
:1035A0008695869586951F928F9381E699E09F93E5
:1035B0008F930E946F0A0F900F900F900F90809141
:1035C00000038695869586950C94431C8091000394
:1035D00080FD1FC0816080930003813019F489E071
:1035E00080930003809100030E94672A80917F02EC
:1035F00080FF08C089E399E09F938F930E946F0A30
:103600000F900F90809100038695869586950C9477
:10361000431C08958091000380FF14C08E7F809327
:1036200000030E94672A80917F0280FF08C086E223
:1036300099E09F938F930E946F0A0F900F9080E004
:103640000C94431C0895CF93C0910003C1708091E6
:103650007F0280FF0CC01F92CF938BE499E09F9371
:103660008F930E946F0A0F900F900F900F90CC23B2
:1036700019F0CF910C940A1BCF910C94E61A9091FB
:103680000003892F8695869586958F5F8F71977039
:10369000843080F5880F880F880F892B8093000372
:1036A00080910003887F91E009F490E0809100030D
:1036B00090FB80F9809300030E94672A80917F022B
:1036C00080FF11C0809100038695869586951F9294
:1036D0008F9382E199E09F938F930E946F0A0F90DE
:1036E0000F900F900F908091000386958695869598
:1036F0000C94431C90930003D3CF843008F083E0F4
:10370000982F990F990F990F809100038770892B3B
:1037100080930003887F91E009F490E0809100039A
:1037200090FB80F9809300030E94672A8091000338
:103730008695869586950C94431C8091000386950A
:103740008695869508958091000381FD13C082605F
:10375000809300030E94672A80917F0280FF08C047
:1037600086ED98E09F938F930E946F0A0F900F90C1
:103770000C94661C08958091000381FF13C08D7F17
:10378000809300030E94672A80917F0280FF08C017
:1037900089EB98E09F938F930E946F0A0F900F9090
:1037A0000C94721C0895CF93C0910003C695C1700C
:1037B00080917F0280FF0CC01F92CF9382EF98E030
:1037C0009F938F930E946F0A0F900F900F900F900E
:1037D000CC2319F0CF910C94BB1BCF910C94A31B5D
:1037E00080910003869581700895CF92DF92EF92C9
:1037F000FF928C3724E1920750F469E070E00E9458
:10380000B937CB01FF90EF90DF90CF900895B0E0F3
:10381000A0E0BC01CD016A50774D8F4F9F4F982F8C
:10382000872F762F662725EF38E241E050E00E948F
:10383000E13769017A01CA01B9010E948F379B0102
:10384000AC01C701B6010E948F37672F782F892FEF
:1038500099276115710521E08207910591F66FEFB7
:103860007FEFCFCFE82FE295EF70F0E032A1282F65
:103870002F7081E090E001C0880F2A95EAF78095CB
:10388000832382A308958430D8F481111AC09091C3
:103890008000977F90938000282F30E0AFEFBFEF3C
:1038A0000E940C3823E030E040E050E00E94E13715
:1038B000C9010E94F51B90938D0080938C000895A0
:1038C00083E0909180009860E5CF08951092AF0159
:1038D0001092AE011092B001EFE6F0E080818160BD
:1038E00080830895EFE6F0E080818E7F80830E94E0
:1038F0009D1B0C94431C1F920F920FB60F92112424
:103900000BB60F922F933F934F935F936F937F93D9
:103910008F939F93AF93BF93CF93EF93FF93209198
:1039200010018091AE019091AF01019644EF249F68
:1039300090011124B9010E94B9379093AF0180938F
:10394000AE01B901660F672F661F770B71950E9454
:10395000B9376F778091B001823041F4603451F40F
:1039600080916F008E7F80936F0004C0813011F4CE
:103970006F37B1F3E62FF0E0EF56F64FC4910E9497
:103980009D1B282F41E051E0C49FC001C59F900DB1
:10399000112463E070E00E94B937269FC001279F81
:1039A000900D11240E94F51B90938D0080938C0044
:1039B000FF91EF91CF91BF91AF919F918F917F91A7
:1039C0006F915F914F913F912F910F900BBE0F9090
:1039D0000FBE0F901F901895279A87E30E94321C04
:1039E0008AE08093800089E1809381008FEF9FEFD0
:1039F00090938700809386000E94671A0E94F01BB4
:103A000081110C94661C089535B1242F2095232331
:103A100035B1432B3FB7F894680F791F8617970786
:103A200011F43FBF0895FC015191CF01E8E045B981
:103A3000000000C057FF25B9550F000000C000C0AE
:103A400000C025B900C0EA9591F7E8CF24B1242B36
:103A500024B99B01220F331F620F731F0E94041DA4
:103A600087EC90E00197F1F700C00000089541E075
:103A70000C94261D0F931F93CF93DF93C62FD42F43
:103A8000022FFC0182818823C9F06093B3010E9458
:103A9000362C9093B2018093B10180E28C0F883074
:103AA00008F050C0C77081E001C0880FCA95EAF7DE
:103AB000DF91CF911F910F910C9416211091B301BA
:103AC000161335C08091B1019091B2010E944E2C25
:103AD000883C910560F5C0E2CD0F1D17B9F080E27A
:103AE000810F883040F4177081E001C0880F1A956B
:103AF000EAF70E941D21C83048F481E09D2F97709D
:103B000001C0880F9A95EAF70E941621802F0E9423
:103B10000321C830B8F4D77081E001C0880FDA956E
:103B2000EAF7DF91CF911F910F910C941D2180E254
:103B30008C0F883038F4C77081E001C0880FCA95B7
:103B4000EAF7EFCFDF91CF911F910F9108959C017C
:103B5000CB01233F4CE5340731F190F4283DFCE5DF
:103B60003F07E9F0293D4CE5340769F1273D3C4525
:103B700079F426E241EE61EE0E943A1D80E008955C
:103B8000253FFCE53F07B9F090F0263F3C45B9F0F2
:103B9000FC0182818823D1F01092B301089527E2BD
:103BA00045EE65EEE9CF26E241EE60EEE5CF27E295
:103BB00045EE64EEE1CF26E241EE62EEDDCF27E294
:103BC00045EE66EED9CF28E241E0EBCF81E00895E3
:103BD0009093B9018093B8010895E091B801F091F4
:103BE000B901309721F00190F081E02D099480E037
:103BF0000895EF92FF920F931F93CF93DF93EC0101
:103C0000E091B801F091B901309709F446C0809174
:103C10001D01882341F08091050387FF04C088813E
:103C2000898385E088830280F381E02DCE010995A8
:103C300080917F0282FF31C080FF04C089E19BE058
:103C40000E94D60910E000E083E1E82E8BE0F82E18
:103C500080917F0280FF0EC0FE01E00FF11F808186
:103C60001F928F93FF92EF920E946F0A0F900F9016
:103C70000F900F900F5F1F4F0830110549F780918B
:103C80007F0280FF0AC081E19BE0DF91CF911F910D
:103C90000F91FF90EF900C94D609DF91CF911F9177
:103CA0000F91FF90EF9008952091B6013091B701E8
:103CB0002817390771F09093B7018093B601E0910E
:103CC000B801F091B901309721F00680F781E02D1D
:103CD000099408952091B4013091B501281739074E
:103CE00071F09093B5018093B401E091B801F09127
:103CF000B901309721F00084F185E02D09940895F1
:103D000085B7806885BF85B7806885BF08950895A9
:103D100008950C94871E0C94B20A0E94801E0E9483
:103D2000881E0C94891E81E008950E942D2C0E940B
:103D300099110E94C02C0E94671A0E94DD180C94F1
:103D40008B1ECF93C82F80917F0282FF1EC080FF01
:103D50001CC082E39BE00E94D60980917F0280FF15
:103D600014C01F92CF938DE29BE09F938F930E948C
:103D70006F0A80917F020F900F900F900F9080FF3D
:103D800004C08BE29BE00E94D6098C2FCF910C944B
:103D9000940B4F925F926F927F928F929F92AF920D
:103DA000BF92DF92EF92FF920F931F93CF93DF9317
:103DB000CDB7DEB72A970FB6F894DEBF0FBECDBFE2
:103DC0000E94E5110E94931E882309F492C02BEBF8
:103DD000E22E21E0F22E10E000E0D02E802F0E9493
:103DE00043114B015C01F70141905190619071903A
:103DF0007F01481459046A047B0409F474C080915B
:103E00007F0281FD0E944E1190E080E048245924F9
:103E10006A247B24B301A201082E04C0769567951D
:103E2000579547950A94D2F740FF58C08E83DF829A
:103E3000412C512C3201439404C0440C551C661C87
:103E4000771C8A95D2F784209520A620B72081E0A0
:103E500089288A288B2809F480E088870E94362CDC
:103E60008160782F9A8789874E815F8168858A85EE
:103E70000E94A01F000F111F000F111FF801E55431
:103E8000FE4F80819181A281B38184259525A6254D
:103E9000B72580839183A283B3830E94ED1D909107
:103EA000BA018917B9F10E94ED1D8093BA012A96D3
:103EB0000FB6F894DEBF0FBECDBFDF91CF911F913B
:103EC0000F91FF90EF90DF90BF90AF909F908F90F9
:103ED0007F906F905F904F900C94A11E019682315D
:103EE000910509F097CF0F5F1F4F0630110509F0BC
:103EF00074CF8FEF89838A831B820E94362C816066
:103F0000782F9D838C8349815A816B818D810E949A
:103F1000A01FC3CF2A960FB6F894DEBF0FBECDBF49
:103F2000DF91CF911F910F91FF90EF90DF90BF90A5
:103F3000AF909F908F907F906F905F904F9008957B
:103F4000CF93DF93CDB7DEB72B970FB6F894DEBFD4
:103F50000FBECDBF4F83588769877A878B871E82B4
:103F60001D8285E0FE013796DE01119601900D92CB
:103F70008A95E1F749815A816B817C818D819E818F
:103F80002B960FB6F894DEBF0FBECDBFDF91CF9159
:103F90000C942D26FC01808191810C94E328CF9311
:103FA000C82F882309F4DEC08238C1F40E94ED1DB9
:103FB00081FDD8C089E30E9411290E9482292FEF38
:103FC00081EE94E0215080409040E1F700C0000075
:103FD00089E30E941829CF910C9482298338A1F497
:103FE0000E94ED1D80FDBEC083E50E9411290E9444
:103FF00082292FEF81EE94E0215080409040E1F73C
:1040000000C0000083E5E5CF8438A1F40E94ED1DD7
:1040100082FDA8C087E40E9411290E9482292FEF07
:1040200081EE94E0215080409040E1F700C0000014
:1040300087E4CFCF8CEF8C0F813A48F48C2F0E940D
:10404000922F81118FC08C2F0E941129C4CF80E242
:104050008C0F883048F4C77081E001C0880FCA9582
:10406000EAF70E943929B7CF8BE58C0F833068F4CB
:1040700081E890E0C53A31F083E890E0C63A11F467
:1040800082E890E0CF910C94541E88E58C0F873124
:1040900008F068C082EE90E0C83A09F460C089EE8A
:1040A00090E0C93A09F45BC08AEE90E0CA3A09F49C
:1040B00056C085EB90E0CB3A09F451C086EB90E016
:1040C000CC3A09F44CC083EB90E0CB3B09F447C0F9
:1040D00084EB90E0CC3B09F442C087EB90E0CD3A12
:1040E000F1F18CEC90E0C03BD1F18DEC90E0CE3A58
:1040F000B1F183E891E0CF3A91F18AE891E0C13BD8
:1041000071F182E991E0C23B51F184E991E0C33B56
:1041100031F181E292E0C43B11F183E292E0C53BD0
:10412000F1F084E292E0C63BD1F085E292E0C73B39
:10413000B1F086E292E0C83B91F087E292E0C93BA1
:1041400071F08FE690E0CD3B51F080E790E0CE3B00
:1041500031F090E080E0CA3B11F48AE292E0CF9126
:104160000C946A1ECF910895882309F44BC08238BD
:1041700071F40E94ED1D81FF45C089E30E94112961
:104180000E94822989E30E9418290C94822983388D
:1041900059F40E94ED1D80FF35C083E50E9411296E
:1041A0000E94822983E5EFCF843859F40E94ED1DE7
:1041B00082FF28C087E40E9411290E94822987E497
:1041C000E2CF9CEF980F913AF0F290E2980F98307E
:1041D00050F4877091E001C0990F8A95EAF7892F12
:1041E0000E943F29D2CF9BE5980F933020F490E0B6
:1041F00080E00C94541E885A873120F490E080E0CF
:104200000C946A1E0895CF93C82F0E94CF1FC93304
:1042100049F42FEF87EE93E0215080409040E1F782
:1042200000C000008C2FCF910C94B420882321F083
:104230000E9439290C9482290895882321F00E9434
:104240003F290C9482290895BF92CF92DF92EF927A
:10425000FF920F931F93CF93DF936C01D62FC72F3D
:10426000FC01058102950F70128111110E945629DF
:104270000E942F29E82E882371F01123B1F080E2EB
:104280008D0F883090F082E00E94CD290E942F2966
:1042900091E0E82EE926BC2EB2949FE0B922EB2DE6
:1042A000F0E0E358F74C0C940338E12CF4CF0C2FDA
:1042B0000F70C07F11F00295007F1123A9F0002339
:1042C00059F080E28D0F883010F0D11109C0802F95
:1042D0000E9439290E9482298D2F0E94CF1F14C06D
:1042E000802F0E944929F6CF8D2F0E94B4200023F1
:1042F00059F080E28D0F883010F0D1112CC0802F42
:104300000E943F290E9482292B2D2850330B2430F4
:10431000310520F40E94ED1D0E94940BEE2009F45B
:10432000B6C10E942B2980FDB2C1F60112820E9403
:1043300025290E94B127C6010E9451230E942529E8
:10434000DF91CF911F910F91FF90EF90DF90CF9071
:10435000BF900C94D227802F0E944F29D3CFFC2FDF
:10436000FF70FF2EC07FC03219F0F29480EFF82268
:10437000DD2369F0D13049F1112391F1002351F18E
:10438000F601858180FFA8CF8F70858323C011231C
:1043900081F0011106C00E9469298F290E9416210F
:1043A000B3CF0130C1F70E9469298F290E946F297C
:1043B000ABCF011106C00E9478298F2D0E941D21CC
:1043C000A3CF013009F4A0CFF6CF112329F0063096
:1043D00008F09ACF8F2DE2CF053008F095CFEDCFC2
:1043E000002359F3D93349F4FFEF27EE33E0F150BE
:1043F00020403040E1F700C000008D2F0E94B42023
:1044000083CF8C2F86958695837069F0813009F073
:104410007BCF8D2F9C2F9370111102C090E080E014
:104420000E946A1E71CF8D2F9C2F9370111102C0B4
:1044300090E080E00E94541E67CF8C2F837009F0BB
:1044400041C0111161CF4D2F429546954770440FE1
:10445000440F0D2F0F7010E030E020E0042E04C058
:10446000000F111F221F331F0A94D2F760E070E083
:10447000CB01D4FF0FC06FE070E080E090E004C09B
:10448000660F771F881F991F4A95D2F76095709520
:1044900080959095C695C695C370602B712B822B25
:1044A000932BC23049F058F4C13019F00E946327B1
:1044B0002BCF0E94512728CF0E94752725CF0E941D
:1044C0004F2722CF8695112311F08C2F81708823DE
:1044D00009F41ACF4D2F429546954770440F440F6B
:1044E0000D2F0F7010E030E020E0042E04C0000F0C
:1044F000111F221F331F0A94D2F760E070E0CB0136
:10450000D4FF0FC06FE070E080E090E004C0660F61
:10451000771F881F991F4A95D2F7609570958095EF
:104520009095C695C695C370602B712B822B932BEB
:10453000C23049F058F4C13019F00E942828E4CE66
:104540000E941628E1CE0E943A28DECE0E948B27D8
:10455000DBCECF70112329F08C2F0E94B1278D2F35
:104560001DCF8D2F0E941D218C2F0E94D227CCCED3
:10457000D23F89F160F4D03FC9F0D13F29F1112336
:1045800009F442C00111A8CE8C2F8F7121C0D33FF6
:1045900039F1D43FA1F7112369F1CF718C2F0E941B
:1045A000B12763E08C2F0E94B829AECE112341F0D1
:1045B000053008F0A9CE8C2F8F710E94F527A4CE6C
:1045C000063008F0A1CEF7CF8C2F8F71112369F23E
:1045D0000E94B12799CE8C2F8F711123C9F3C5CFBB
:1045E000112329F08C2F8F710E949C278DCE0E9461
:1045F00097278ACE81E00E94CD29023008F484CE2C
:1046000082E00E94CD2980CE002359F0D93309F0F1
:10461000F4CE8FEF97EEE3E081509040E040E1F779
:10462000EACE8C2F8F71A1CF4C2F4F706D2FC6010A
:104630000E94630E0E94C72667CE111165CECF700F
:10464000C230B1F040F4CC2381F0C13009F05CCE2F
:104650000E94B61A59CEC43089F068F080E0C530A7
:1046600009F052CE0E947D1B4FCE0E94831A4CCE81
:104670000E94231B49CE0E943F1B46CE83E0F2CF0F
:104680004C2F4F706D2FC6010E94660E3DCEDF91FC
:10469000CF911F910F91FF90EF90DF90CF90BF903F
:1046A00008950F931F93CF93DF93EC018B819C812F
:1046B000892B29F08881998189238F3F29F4DF9103
:1046C000CF911F910F910895CE010E94A60B8823D0
:1046D000B1F3688179818A810E94ED288C010E9462
:1046E0004C280E944E27B801CE01DF91CF911F9137
:1046F0000F910C9424210E9456290E9466290E9441
:10470000822990E080E00E94541E90E080E00C94AA
:104710006A1E0E941F290C947B230E9446290C9438
:104720008923E92FE295EF70E250EE3070F4F0E06B
:10473000E357F74C0C940338803F19F020F4883E7F
:1047400020F481E00895843FE1F380E00895883EFD
:10475000C0F3813FD1F7F5CF93FB882780F9089507
:104760000E94E3280C949123CF93DF9300D000D0D4
:104770000F92CDB7DEB70F900F900F900F900F9064
:10478000DF91CF910895CF93DF9300D000D000D078
:10479000CDB7DEB726960FB6F894DEBF0FBECDBFFD
:1047A000DF91CF9108951F93CF93DF93C091D401F0
:1047B00016E08091D5018C1304C0DF91CF911F9139
:1047C0000895D0E01C9FF0011D9FF00D1124EA52C6
:1047D000FE4F4081518162817381848195810E9465
:1047E000C3232196C770E5CF40910602509107027E
:1047F000609108027091090280910A0290910B0267
:104800000C94C3231F93CF93DF9380910B02807F7F
:10481000C1F4809108028823A1F08091D401C09155
:10482000D5016091060270910702409109025091F2
:104830000A02D62FD723DA01A095B09516E0C81347
:1048400004C0DF91CF911F91089590E0411551056B
:1048500011F0DF3F31F401968770F1CF2A0F3B1F33
:1048600017C0189FF001199FF00D1124EA52FE4F56
:1048700021812713F0CF20812613EDCF2281211132
:10488000EACF238134812417350740F3241B350BED
:10489000283C310500F720910B022F7020612093F6
:1048A0000B0226E0289FF001299FF00D1124E5520C
:1048B000FE4F80818F708061808386E092E00E944D
:1048C0005123DF91CF911F910C94D323BF92CF92AC
:1048D000DF92EF92FF920F931F93CF93DF93CDB7A9
:1048E000DEB761970FB6F894DEBF0FBECDBF8C0167
:1048F00085E0F801DE011D9601900D928A95E1F7A1
:10490000D8014C9111965C9111971296EC901297E8
:104910008091090290910A02009709F47FC12091C9
:10492000060230910702622F63236F3F09F476C1BC
:104930001396CD90DC90B0900802BB2009F411C111
:10494000C816D906D0F1F601E81BF90BCF01FF24F8
:10495000F394883C910508F0F12C80910B02982F7C
:10496000907FFF2009F4B8C091117FC0FE2C351351
:1049700029C0241327C0E11025C08F708061809367
:104980000B020E94F42386E092E00E945123809162
:104990000B02D80115968C938F2D61960FB6F89463
:1049A000DEBF0FBECDBFDF91CF911F910F91FF9062
:1049B000EF90DF90CF90BF900895809590958C0DEB
:1049C0009D1DC5CFCD2829F0852F84238F3F09F069
:1049D00041C180E0B82FB170DB2E80FF3CC08091D8
:1049E000D4012091D50136E0821315C04D875E8732
:1049F0008D859E850E94E328292F22952F702230D5
:104A0000F0F0243018F59F70F1F0F8019581907F57
:104A1000D1F4D12C1EC090E0389FF001399FF00DE9
:104A20001124EA52FE4F6181651306C06081641350
:104A300003C06281E6120FC001968770D5CF9F70C8
:104A400011F0882331F3805E883018F3C8010E948A
:104A50005123FD2CA1CFEE2009F49ECF80910B02B3
:104A6000816080930B02F12C97CF351306C024137D
:104A700004C0D801EE2009F49AC04D875E878D8569
:104A80009E850E94B023882319F1EE2009F18091C0
:104A90000B02803270F020910602309107023887B5
:104AA0002F831986DB86CA868C87CE0107960E94E3
:104AB000512386E0F801A6E0B2E001900D928A95BC
:104AC000E1F70E9402240E94F423FF24F39464CFB0
:104AD000C8010E945123F9CF911113C07C2DD98AAE
:104AE000C88A6E2D89890E94B42386E092E00E94D4
:104AF000512386E0E6E0F2E0DF011D928A95E9F7B6
:104B000063C0351312C0241310C0E1100EC0F801A9
:104B10008583C8010E945123E6E0F2E086E0DF01D0
:104B20001D928A95E9F7FB2C37CF4D875E878D85DF
:104B30009E850E94B023882359F2EE2049F280918D
:104B40000B02803208F4B5CF2091060230910702A3
:104B50003A8329831B82DD82CC828E83CE0101962B
:104B6000A6CFC816D90698F1F601E81BF90BCF01BC
:104B7000F12C883C910508F049C0FE2CEE2009F488
:104B8000A7CF351332C0241330C080910B0280FDB3
:104B900023C0982F907F01F1D80115968C9315971B
:104BA000903F39F0982F907F905F8F70892B1596EA
:104BB0008C93C8010E94512386E0F801A6E0B2E080
:104BC00001900D928A95E1F70E94F423E5CE80953D
:104BD00090958C0D9D1DCCCF86E0F801A6E0B2E04B
:104BE00001900D928A95E1F7D7CE4D875E878D852E
:104BF0009E850E94B02381115CCF80910B02816061
:104C000080930B02C8010E945123C6CE7C2DD98A05
:104C1000C88A6E2D89890E94B4236BCFEE2009F4D7
:104C200057CF4D875E878D859E850E94B023F82ED5
:104C3000882309F44DCF86E0F801A6E0B2E00190A8
:104C40000D928A95E1F786E092E00E94CA1F0E94C9
:104C50000224BACF81E08E25BDCE1F93CF93DF9380
:104C6000CDB7DEB72C970FB6F894DEBF0FBECDBF21
:104C70004F83588769877A878B879C87CE010796F1
:104C80000E946624882369F08A859B85892B39F0E8
:104C90004F815885842F85238F3F09F071C016E01E
:104CA0005FC086E0FE013796DE01119601900D92FD
:104CB0008A95E1F78A859B85892B89F388859F8171
:104CC00089238F3F61F32091D50130E0C90101961E
:104CD000877099274091D4014817190671F40E94F2
:104CE0008D231092D5011092D40186E0E6E0F2E027
:104CF000DF011D928A95E9F7D2CF96E0929FD0010D
:104D0000939FB00D1124AA52BE4FFE01319601901F
:104D10000D929A95E1F78093D5010E94D323BFCFDE
:104D2000819FC00111248A529E4F0E9466248823CD
:104D3000E9F0E091D4011E9FF0011124EA52FE4FE8
:104D40004081518162817381848195810E94C32356
:104D50008091D40190E00196877099278093D401C7
:104D60008091D4019091D5018913DACF2C960FB69A
:104D7000F894DEBF0FBECDBFDF91CF911F91089594
:104D800069857A858B859C850E94C32388CFEF92A5
:104D9000FF920F931F93CF93DF938C01892B81F0A8
:104DA000F12CEE24E394E8012196F80184918437F4
:104DB00070F4843008F05FC08130B1F08230A1F12E
:104DC000DF91CF911F910F91FF90EF90089585375C
:104DD00009F44CC008F43DC09CE7980F903780F769
:104DE0008F770E94B42049C00E5F1F4FFE0184914F
:104DF00090E2980F983060F48770FE2D01C0FF0F8D
:104E00008A95EAF78F2F0E9459290E94822902C0B1
:104E10000E94CF1F8F2D815030F2EFE9FFE03197D4
:104E2000F1F700C00000F7CF0E5F1F4FFE01849125
:104E300090E2980F983050F48770FE2D01C0FF0F5C
:104E40008A95EAF78F2F0E945F29DFCF0E94B42056
:104E5000E1CF0E5F1F4FFE01C491C150D8F28FE920
:104E60009FE00197F1F700C00000F7CF0E5F1F4FE2
:104E7000FE01F490CFCF0E94CF1F8E01CBCF0895BB
:104E80000C943F270E94402760935602709357026C
:104E900080935802909359020C947B2308950C94AC
:104EA00042270F931F9300915602109157022091B1
:104EB000580230915902602B712B822B932B1F913A
:104EC0000F910C9442270F931F930091560210915B
:104ED0005702209158023091590260237123822396
:104EE00093231F910F910C9442270F931F930091CE
:104EF00056021091570220915802309159026027B2
:104F00007127822793271F910F910C9442270C94AD
:104F10003F270C9487270E94892760935202709341
:104F2000530280935402909355020C947B2360E0CB
:104F300070E0CB010C948B270F931F9341E050E05E
:104F400060E070E08A019B0104C0000F111F221F66
:104F5000331F8A95D2F7C901B8011F910F910C94A4
:104F60008B270F931F9341E050E060E070E004C096
:104F7000440F551F661F771F8A95D2F78091520202
:104F800090915302A0915402B09155028A019B0165
:104F9000082B192B2A2B3B2BC901B8011F910F910C
:104FA0000C948B270F931F9341E050E060E070E07A
:104FB00004C0440F551F661F771F8A95D2F7CB0197
:104FC000BA0160957095809590950091520210916C
:104FD00053022091540230915502602371238223A1
:104FE00093231F910F910C948B270F931F9341E0F4
:104FF00050E060E070E004C0440F551F661F771F4B
:105000008A95D2F78091520290915302A091540256
:10501000B09155028A019B01082719272A273B27AF
:10502000C901B8011F910F910C948B270F931F9307
:105030000091520210915302209154023091550276
:10504000602B712B822B932B1F910F910C948B272C
:105050000F931F930091520210915302209154021A
:105060003091550260237123822393231F910F9166
:105070000C948B270F931F930091520210915302AF
:10508000209154023091550260277127822793277F
:105090001F910F910C948B27089522E1929F800D10
:1050A0001124982F977041E001C0440F9A95EAF7B8
:1050B00086958695869595E0899FF0011124E45F99
:1050C000FD4F90E080E070E05191DF0111979B016E
:1050D000082E02C0369527950A94E2F72170219593
:1050E0002527242325272C9301968530910561F7E8
:1050F000089522E1929F800D1124982F9770869534
:105100008695869525E0829FF0011124E45FFD4F8E
:1051100050E040E080E0219130E0092E02C0369559
:1051200027950A94E2F721703327042E01C0220F3D
:105130000A94EAF7822B4F5F5F4F4530510559F7CC
:105140000895BF92CF92DF92EF92FF920F931F9339
:10515000CF93DF938C01C0905202D0905302E09025
:105160005402F09055028091560290915702A091FE
:105170005802B0915902C82AD92AEA2AFB2ACFE15B
:10518000D0E0BC2ED701C6010C2E04C0B695A79561
:10519000979587950A94D2F780FD0EC0219788F7DE
:1051A000B12C8B2DDF91CF911F910F91FF90EF903C
:1051B000DF90CF90BF900895B8018C2F0E94830E8E
:1051C000019761F3EECFCF93DF93EC010E94A1280A
:1051D000BE01DF91CF910C94830E1F93CF93DF9389
:1051E000EB019091D301992331F0CB01DF91CF9165
:1051F0001F910C94E328882379F0CB010E94A12809
:10520000182F682FCE010E944D28BE01812FDF91FB
:10521000CF911F910C94830ECB010E947928182FF7
:10522000F4CF682F80911101909112010C94682B9A
:10523000682F80911101909112010C94732B809131
:105240001101909112010C947E2B80915A02859548
:1052500085958595089580915A028770089590915B
:105260005A02977081E009F480E0089580917E02EF
:10527000089590917E02892B80937E0208958095F7
:1052800090917E02982390937E02089510927E0260
:10529000089590917D02892B80937D0208958095D9
:1052A00090917D02982390937D02089510927D0243
:1052B000089590917C02892B80937C0208958095BB
:1052C00090917C02982390937C02089510927C0226
:1052D000089580915B02089508950C946C29909133
:1052E0005B02981721F080935B020C946D2908955E
:1052F00080915B02882329F010925B0280E00C947D
:105300006D290895E0911101F091120180917E02C2
:105310008083E0911101F0911201808190917D02D2
:10532000892B8083E0911101F0911201808190918D
:105330007C02892B808390915B02992381F0E0911C
:105340001101F09112018081892B808380911101DC
:10535000909112010E94E22A81110E947829809185
:105360001101909112010C94F91D08950C94B52926
:1053700098E0899F90011124622B60935A020E9449
:10538000B12780915A028595859585950C94B6290B
:1053900010925A0280E00C94B62990915A0280959E
:1053A000892380935A02282F277071F4282F082E02
:1053B000000C330B9217130639F08595859585956A
:1053C0000E94D2270C94C829089590936B01809372
:1053D0006A010895829590E09C01220F331F220FED
:1053E000331F2C7C95958795959587958373282BEE
:1053F00030E0C901880F991F8A7A35952795257560
:10540000822B0895CF93DF93D92F0E94EA29C82FCA
:105410008D2F0E94EA299C2FDF91CF910895CF9282
:10542000DF92EF92FF920F931F93CF93DF937C0154
:10543000CB010E94022AEC01C7010E94022A8C01C2
:10544000BE0190E080E0CB017727662730E020E0C6
:10545000602B712B822B932BDF91CF911F910F919A
:10546000FF90EF90DF90CF90089590E080E00E9451
:10547000413821E08C3E9E4F09F020E0822F0895B4
:1054800082E090E00C94333883E090E00C94333861
:10549000CF9384E090E00E943338C82F81E290E0FF
:1054A0000E943338982F8C2FCF910895CF93C92F16
:1054B000682F84E090E00E9447386C2F81E290E0F2
:1054C000CF910C94473886E090E00C943338682FE5
:1054D00086E090E00C944738AB01BC018FE090E08F
:1054E0000C945938AB01BC0183E190E00C9459381D
:1054F00060E070E0CB010C94722A60E070E0CB01B8
:105500000E946C2A0C94782A6CEE7EEF90E080E08A
:105510000E94653860E082E090E00E94473860E0D9
:1055200083E090E00E944738109256021092570292
:10553000109258021092590260E084E090E00E94BC
:10554000473860E081E290E00E94473860E085E003
:1055500090E00E94473860E086E090E00E94473883
:105560006FEF87E090E00E94473840E050E0BA01DA
:1055700088E090E00E94593860E08DE090E00E9461
:10558000473840E050E0BA0188E190E00E94593885
:1055900060E087E190E00E94473840E050E0BA01C7
:1055A0008CE190E00E94593860E080E290E00E9437
:1055B00047380C947D2A0C94842A682F8EE090E062
:1055C0000C944738FC01329680911D01882321F00C
:1055D000809105039EE187FF96E080E0915008F4FA
:1055E000089521912223D1F38F5FF8CF9C01FC0114
:1055F00032969FEF80E04191461751F09F3F19F49A
:10560000411101C0982F8F5F8630A9F79F3F09F4A1
:105610000895290F311D97FD3A95F9016283089588
:10562000FC01329608962191261303C0DF011197E1
:105630001C92E817F907B9F70895E62FE695E69565
:10564000E695EE3170F4E80FF92FF11D677021E057
:1056500030E001C0220F6A95EAF78281822B8283B3
:10566000089580917F0280FF0CC01F926F9383E6A4
:105670009BE09F938F930E946F0A0F900F900F9063
:105680000F900895E62FE695E695E695EE3178F4CD
:10569000E80FF92FF11D677021E030E001C0220F03
:1056A0006A95EAF7209582812823228308958091C4
:1056B0007F0280FF0CC01F926F9385E49BE09F9355
:1056C0008F930E946F0A0F900F900F900F90089584
:1056D00020911D01222329F02091050327FD0C9420
:1056E0001D2B0C94F62A20911D01222329F02091D4
:1056F000050327FD0C94422B0C94102BFC013296D1
:1057000080911D01882351F08091050387FF06C019
:105710008EE1DF011D928A95E9F7089586E0F9CFC1
:10572000089508950C94912B0E94922B80910B0365
:10573000843009F43CC01092800288E190E020E4BB
:105740000FB6F894A895809360000FBE2093600078
:1057500080E00E94431C80E00E94940B0E94391854
:105760008091810281110AC081E080938102809141
:10577000AA028170809382020E94AA190E94922B31
:1057800083B7817F846083BF83B7816083BF789450
:10579000889583B78E7F83BF0FB6F894A8958091C4
:1057A0006000886180936000109260000FBE0895D1
:1057B0000895CF930E94902B0E94E5110E94D82B50
:1057C000C0E08C2F0E944311672B682B692B31F4AA
:1057D000CF5FC630B1F780E0CF91089581E0FCCF74
:1057E00008950C94F02B0E948D230E94671A0E944A
:1057F000ED1D0E94940B1092810280918202811112
:105800000E9445190E9417180C94F12B1F921FB685
:105810001F9211248F939F93AF93BF938091800227
:10582000811113C08091010390910203A0910303A1
:10583000B09104034196A11DB11D80930103909383
:105840000203A0930303B0930403BF91AF919F9110
:105850008F911F901FBE1F90189582E084BD93E02A
:1058600095BD9AEF97BD80936E0008952FB7F89479
:105870008091010390910203A0910303B09104036E
:105880002FBF08952FB7F894609101037091020320
:1058900080910303909104032FBF0895CF92DF926C
:1058A000EF92FF920F931F932FB7F894409101034B
:1058B0005091020360910303709104032FBF6A01AA
:1058C0007B01EE24FF248C0130E020E0C016D106DD
:1058D000E206F30650F0481B590BCA011F910F91C5
:1058E000FF90EF90DF90CF90089541505109F3CF92
:1058F00078941F921FB61F9211248F939F93AF939A
:10590000BF938091010390910203A0910303B09192
:1059100004030196A11DB11D80930103909302031E
:10592000A0930303B0930403BF91AF919F918F9114
:105930001F901FBE1F90189581E08093E00080E2C9
:105940008093D8001092C9008FE19EE40197F1F78F
:1059500000C0000087E090EBDC018093140390937B
:105960001503A0931603B093170388E19CE00FB6CC
:10597000F894A895809360000FBE90936000FFCFCD
:105980000E94352A811102C00E94DB2A0E94402A0F
:1059900080937F020E94482A909306038093050318
:1059A0000E94442A682F70E090E080E00C944F271A
:1059B000CF93C82F1F928F9387E89BE09F938F937D
:1059C0000E946F0A61E070E080E090E004C0660F22
:1059D000771F881F991FCA95D2F70E944F270F90F3
:1059E0000F900F900F90CF910C948D23CF93DF9356
:1059F000EBEFE80FEF3308F08BC2F0E0E556F74C21
:105A00000C9403388AE491E10E94D60986E890E17B
:105A10000E94D6090E94442A1F928F9383E890E146
:105A20009F938F930E946F0A81E890E10E94D609AC
:105A30000E94402AC82F8EE690E10E94D6091F924C
:105A4000CF9389E690E19F938F930E946F0A87E638
:105A500090E10E94D6098DE590E10E94D6098C2F35
:105A600081701F928F938AE590E19F938F930E949C
:105A70006F0A88E590E10E94D6098EE490E10E94C9
:105A8000D609C1FB882780F91F928F938BE490E1A0
:105A90009F938F930E946F0A89E490E10E94D60938
:105AA0008DE390E10E94D609C2FB882780F91F92FE
:105AB0008F938AE390E19F938F930E946F0A88E30C
:105AC00090E10E94D6098FE290E10E94D609C3FBC3
:105AD000CC27C0F91F92CF938CE290E19F938F93D4
