:100000000C94A5020C94EC020C94EC020C94EC02FF
:100010000C94EC020C94EC020C94EC020C94EC02A8
:100020000C94EC020C94EC020C9471230C94452477
:100030000C94151C0C94EC020C94EC020C94EC0245
:100040000C94EC020C94EC020C94EC020C94EC0278
:100050000C94EC020C947B1C0C94EC020C94EC02BF
:100060000C94EC020C94EC020C94EC020C94EC0258
:100070000C94EC020C94EC020C94EC020C94EC0248
:100080000C94EC020C94EC020C94EC020C94EC0238
:100090000C94EC020C94EC020C94EC020C94EC0228
:1000A0000C94EC020C94EC020C94EC0229001E005F
:1000B0001F0020002100220023002400250026002C
:1000C00027002D002E0000004A004B002B001400DA
:1000D0001A000800150017001C0018000C00120080
:1000E00013002F0030002A004D004E00390004009C
:1000F0001600070009000A000B000D000E000F009B
:10010000330034002800310000000000E1001D0031
:100110001B00060019000500110010003600370012
:100120003800E5000151000052000000E000E3004B
:10013000E20000002C0000000000E600E700E40000
:10014000000000000000500051004F0001000100BD
:100150000100010001000100010001000100010097
:100160000100010001000000C25CC35C010001004D
:1001700001000100005C010001000100010001001C
:10018000010001000100010001000100390001002F
:100190000100010001000100010001000100010057
:1001A0000100010001000100000000000100010049
:1001B0000100010001000100010001000100010037
:1001C0000100010001000000010000000100010029
:1001D000010000000100000000000100010001001A
:1001E0000000000000000100010001000004643272
:1001F00014783C1E1E140A052223252628292A2CA1
:100200002D2F3032333536383A3B3D3E4042434560
:1002100047494A4C4E5051535557595A5C5E60629B
:10022000646668696B6D6F71737577797B7D7F81AB
:10023000838587898A8C8E90929496989A9C9E9FAB
:10024000A1A3A5A7A8AAACAEAFB1B3B4B6B8B9BBC9
:10025000BCBEBFC1C2C3C5C6C7C9CACBCCCDCED038
:10026000D1D2D2D3D4D5D6D7D7D8D9D9DADADBDB25
:10027000DBDCDCDCDCDCDDDDDDDDDCDCDCDCDCDBBC
:10028000DBDBDADAD9D9D8D7D7D6D5D4D3D2D2D105
:10029000D0CECDCCCBCAC9C7C6C5C3C2C1BFBEBCF8
:1002A000BBB9B8B6B4B3B1AFAEACAAA8A7A5A3A169
:1002B0009F9E9C9A98969492908E8C8A898785832B
:1002C000817F7D7B79777573716F6D6B696866640B
:1002D00062605E5C5A5957555351504E4C4A4947DB
:1002E000454342403E3D3B3A3836353332302F2D80
:1002F0002C2A2928262523220001010101010101C0
:1003000001010202020202020202020303030303CA
:100310000303030404040404040405050505050699
:100320000606060607070707070808080809090957
:10033000090A0A0A0B0B0B0C0C0C0D0D0D0E0E0E00
:100340000F0F0F1010111111121213131414151591
:1003500016161717181819191A1A1B1B1C1D1D1E03
:100360001E1F202021222223242425262627282957
:10037000292A2B2C2D2D2E2F303132323334353685
:100380003738393A3B3C3D3E3F4041424344454685
:100390004748494A4C4D4E4F505153545556585961
:1003A0005A5B5D5E5F616264656668696B6C6D6F08
:1003B0007072737577787A7B7D7E8082838587887B
:1003C0008A8C8E8F91939596989A9C9EA0A2A3A5B5
:1003D000A7A9ABADAFB1B3B5B7BABCBEC0C2C4C6B6
:1003E000C9CBCDCFD1D4D6D8DBDDDFE2E4E7E9EB72
:1003F000EEF0F3F5F8FAFDFF0403300000000A0305
:1004000073006D00360038000000280368006900A2
:100410006E006500790062007500730068002000BE
:100420006B006500790062006F006100720064007B
:10043000730000000403090409023B00020100A04C
:10044000FA09040000010301010009211101000162
:100450002240000705810308000A09040100010386
:100460000000000921110100012285000705820317
:1004700020000A1201100100000008D8049FEC01BE
:10048000000102030105010902A10185020901A180
:10049000000509190129051500250195057501813A
:1004A0000295017503810105010930093115812586
:1004B0007F95027508810609381581257F9501759C
:1004C000088106050C0A38021581257F95017508FB
:1004D0008106C0C005010980A10185031A81002A97
:1004E0008300160100260300950175108100C005E8
:1004F0000C0901A10185041A01002A9C02160100C1
:10050000269C02950175108100C005010906A10114
:10051000050719E029E715002501950875018102F5
:100520009501750881010507190029FF150026FFAF
:1005300000950675088100050819012905950575BE
:10054000019102950175039101C011241FBECFEFE7
:10055000DAE0DEBFCDBF04B603FE27C080915902AA
:1005600090915A02A0915B02B0915C028730904B4F
:10057000A740B04BD1F41092590210925A02109237
:100580005B0210925C0214BE84B7877F84BF0FB6F3
:10059000F894A89580916000886180936000109223
:1005A00060000FBEE0E0F8E3099511E0A0E0B1E0E3
:1005B000E8E4FDE402C005900D92AE33B107D9F72F
:1005C00022E0AEE3B1E001C01D92A935B207E1F728
:1005D0000E949B200C947A260C94000081E00895E0
:1005E00081E008950C94EE021F93CF93DF9300D027
:1005F00000D00F92CDB7DEB749835A836B83209129
:10060000760189819A8121111BC06623A9F00E947D
:100610007A19182F682F89819A810E942719698178
:100620007A81812F0F900F900F900F900F90DF9194
:10063000CF911F910C94D5050E945319182FEFCF1D
:100640000E947A1969817A81EDCFFC014081518144
:100650006281738184810C94F4020E94BE1A81111C
:1006600002C00E945B1B0C9484080C9487080895B8
:100670000C9437030C94380308950E9467140E9469
:100680003C032FEF84E39CE0215080409040E1F751
:1006900000C000000C949F1C0F931F93CF93DF9317
:1006A0008C010E942503EC01B8010E94F20288230C
:1006B00009F4FCC0B801CE010E94B60E882309F4EB
:1006C000F5C0CA3C8CE5D80709F432C108F054C023
:1006D000C33CECE5DE0709F403C148F5C6318CE5FF
:1006E000D807A8F4C2309CE5D90708F09FC0C1150F
:1006F000ECE5DE0709F4D5C0C130DC4509F4DCC007
:10070000C801DF91CF911F910F910C94F002C63177
:100710008CE5D80709F425C2C23CDC4589F7F8010D
:100720008281882309F4C2C00E94490DBFC0C63C23
:10073000ECE5DE0709F4EAC080F4C43C8CE5D80798
:1007400009F4D9C0C53CDC45D9F6F801828188237B
:1007500009F4ACC00E94A10BA9C0F8018281C83C79
:10076000FCE5DF0709F4DEC008F4D7C0882309F4EC
:100770009DC00E94DB0B9AC0C53DECE5DE0798F5F5
:10078000C13DFCE5DF0708F091C0CD3C8CE5D80702
:1007900009F4DEC088F4CB3CECE5DE0709F4D0C0F8
:1007A000CC3CDC4509F0ACCFF8018281882309F408
:1007B0007DC00E94BB0A7AC0F8018281CF3CFCE573
:1007C000DF0709F4DBC008F4CCC0882309F46EC04D
:1007D0000E94A20A893028F00E94A20A8E3008F4F2
:1007E00092C089E0BBC0CD3DECE5DE0709F4DBC07B
:1007F00090F4C53D8CE5D80709F4CEC0CC3DDC456E
:1008000009F07ECFF8018281882309F44FC080E08F
:100810000E9439214BC0CE3DECE5DE0709F459C0FA
:10082000CE018A5F9C45099708F06ACFF801828162
:10083000882309F465CF0E94BE1A811102C00E946C
:100840005B1B0E94D11A90934B0280934A02C031E5
:10085000FCE5DF0709F454C108F0E4C0C8309CE5AA
:10086000D90709F443C108F0B3C0C430FCE5DF0781
:1008700009F430C108F09EC0C2309CE5D90709F4E4
:1008800023C180914A028260C330DC4509F41FC154
:1008900080914A0290914B020E94DF1A0E946714D5
:1008A00005C0F801828181110E943D0380E0DF9143
:1008B000CF911F910F910895F80182818823B1F3A0
:1008C0009091F601892F8E7F90FF81608093F601D1
:1008D000EDCFF8018281882349F30E945B1BE6CFAC
:1008E000F8018281882311F30E940F1A827259F055
:1008F0000E943B0DDBCFF80182818823B9F20E9470
:100900000F1A8272A9F30E942E0DD0CFF8018281B6
:10091000882361F20E94AE0BC9CF882339F20E946E
:10092000BD0BC4CF882309F4C1CF0E94CC0BBECF2E
:10093000F8018281882309F4B9CF0E94EA0BB6CF6F
:10094000F8018281882309F4B1CF0E94AA0AAECFB0
:10095000F8018281882309F4A9CF81E00E943E0D2D
:10096000A5CF882309F4A2CF0E94A20A823020F0EA
:100970000E94A20A853038F282E0F0CF882309F481
:1009800095CF0E94A20A863028F00E94A20A8830E1
:1009900008F4B9CF86E0E2CFF8018281882309F418
:1009A00085CF8FE0DBCFF8018281882309F47ECFE9
:1009B00082E02ECF80914A028061C630FCE5DF07DD
:1009C00009F485C008F48AC080914A0280627FC021
:1009D00080914A028D7FCC309CE5D90709F477C01D
:1009E00070F480914A028C60CA30FCE5DF0709F49C
:1009F0006EC008F47FC080914A028E7F68C08091EB
:100A00004A02877FCE309CE5D90709F460C0809107
:100A10004A028B7FCF30DC4508F459C080914A02EE
:100A20008F7E55C0CB3FFCE5DF0709F45BC030F596
:100A3000C3319CE5D90709F46BC078F4C131FCE5FA
:100A4000DF0709F461C0C231DC4509F021CF0E9403
:100A5000671480914A028F773AC0C5319CE5D90767
:100A600009F45EC008F472C080914B028160CA3FF5
:100A7000DC4509F00DCF80934B020ACFCF3F8CE5C8
:100A8000D80709F449C088F480914B028D7FCD3F8F
:100A9000ECE5DE0781F380914B028E7FCE3FDC4593
:100AA00050F380914B028360E6CFC1308DE5D807CB
:100AB00009F455C008F440C080E0C230DD4509F0BB
:100AC000E7CE0E945D1BE4CE80914A028160809354
:100AD0004A02DECE80914A028460F9CF80914A02B8
:100AE0008860F5CF80914B028260C5CF80914A0229
:100AF0008064EDCF0E94671480914A028068E7CF3E
:100B000080914A028F7DE3CF80914A028F7BDFCFB5
:100B100080914A02837FDBCF80914B028C7FABCFE9
:100B200080914A0282FB992790F921E0922790FB5D
:100B300082F990FB83F9CBCF80914B02982F90954F
:100B400091708E7F892B90FB81F995CF0E9467145D
:100B500090914A02892F97FB87F98058B8CF81E09E
:100B6000B0CF0E940F1AF8019281992381F08A7AFE
:100B700091E009F490E090933E01811106C089E272
:100B80000E94EA190E945B1A91CE85E3F9CF809109
:100B90003E01811104C089E20E94F119F3CF85E37F
:100BA000FBCF90E080E008950895E72FF0E095E016
:100BB000899FE00DF11D112484E0EE0FFF1F8A953F
:100BC000E1F7E60FF11DEE0FFF1FE455FF4F859192
:100BD00094910895FC01EE0FFF1FE451FE4F8591A3
:100BE00094910895CF93DF930E94D5050E94A907A1
:100BF000EC01811520E5920708F042C0811530E430
:100C0000930708F014C1883E910528F5803E9105B0
:100C100008F0A0C0883A910588F4853A910508F05B
:100C20008FC08130910509F495C0009709F492C0F6
:100C3000049708F08FC0D0E0C0E08CC08F3B9105D6
:100C400008F48CC0805C9109C03CD105A0F30E94DF
:100C5000EA05EC017FC08115904250F4C11581E096
:100C6000D80708F077C0C03FD10528F3D06572C01F
:100C7000C11590E3D90708F0D0C0CE019F70E7CF2F
:100C8000811525E5920758F5811534E5930708F09D
:100C9000FDC0811542E5940750F4C11581E5D807E0
:100CA00008F4C8C0DC2FCC27C16FD06A53C0982F7E
:100CB000969596959E0123703327C115D34508F06C
:100CC000D6C0C1E0D0E002C0CC0FDD1F2A95E2F70C
:100CD00020E2929FC0011124C82BD92BC6C0C11598
:100CE00089E5D807A8F4C11598E5D90708F0D3C05D
:100CF000C11526E5D20708F09ECF8C2F0E94400830
:100D0000C82FD0E0DC2FCC27CC27DF71D06222C0E7
:100D1000C1153AE5D30708F4C3C0CE01905681153A
:100D2000904208F088CF8D2F8F710E94400890E08C
:100D3000982F882788279F719C012C2BE901E6CFEB
:100D4000853A910509F4BAC0863A910509F0B9C00F
:100D5000C2E8D0E4CE01DF91CF910895883A9105A1
:100D600009F4B2C0893A910509F4B1C08A3A9105F3
:100D700009F4B0C08B3A910509F4AFC08C3A9105E3
:100D800009F4AEC08B3B910509F4ADC08C3B9105D5
:100D900009F4ACC08D3A910509F4ABC0803B9105D4
:100DA00009F4AAC08E3A910509F4A9C08F3A9105B9
:100DB00009F4A8C0813B910509F4A7C0823B9105C5
:100DC00009F4A6C0833B910509F4A5C0843B9105B5
:100DD00009F4A4C0853B910509F4A3C0863B9105A5
:100DE00009F4A2C0873B910509F4A1C0883B910595
:100DF00009F4A0C0893B910509F49FC08D3B910582
:100E000009F49EC08E3B910509F49DC08A3B910573
:100E100009F49CC0C0E0D4E49DCFCE019927D3FF54
:100E200003C0EC01D86C96CFEC01D06C93CFDF708F
:100E3000D06A90CFCE01E4E096958795EA95E1F7E8
:100E400083702C2F26952695237090E2299F900180
:100E50001124382B8C2F8370C1E0D0E002C0CC0F5E
:100E6000DD1F8A95E2F7C22BD32BDC6873CFC1E07C
:100E7000D0E002C0CC0FDD1F2A95E2F730E2939F4D
:100E8000C0011124C82BD92BDA6864CFD82FCC2706
:100E9000C46FD06A5FCFDC2FCC27C06FD06A5ACF27
:100EA0008C2F8F700E94400834E0D695C7953A95F4
:100EB000E1F7CF709C2FEC01D0694CCFC1E8D0E4B2
:100EC00049CFC3E8D0E446CFC2EED4E443CFC9EE65
:100ED000D4E440CFCAEED4E43DCFC5EBD4E43ACF5E
:100EE000C6EBD4E437CFC3EBD4E434CFC4EBD4E4C3
:100EF00031CFC7EBD4E42ECFCCECD4E42BCFCDEC68
:100F0000D4E428CFC3E8D5E425CFCAE8D5E422CF7E
:100F1000C2E9D5E41FCFC4E9D5E41CCFC1E2D6E4D1
:100F200019CFC3E2D6E416CFC4E2D6E413CFC5E2AC
:100F3000D6E410CFC6E2D6E40DCFC7E2D6E40ACF9E
:100F4000CFE6D4E407CFC0E7D4E404CFCAE2D6E4C6
:100F500001CF82389105B1F1B0F48133910509F4E4
:100F600075C048F48932910509F469C08A32910547
:100F700009F473C008958533910509F459C0893384
:100F8000910501F10895833E9105A9F138F4803E61
:100F90009105F9F0823E910549F10895863E91054B
:100FA000A9F1873E9105C9F1843E910519F520917B
:100FB0004B0221FF1FC080914A0284FD14C087EEBE
:100FC00090E0089520914A022370A1F080EE90E015
:100FD000089520914A0220FD47C030914B0230FF16
:100FE00009C024FF44C090E080E004C020914A0280
:100FF00022FDF7CF089520914A0222FD3BC0309197
:101000004B0230FDE3CF24FFF5CFEDCF20914A0214
:1010100023FFF0CF24FDE7CFD2CF20914A0223FD5A
:101020002CC030914B0231FFEECF84EE90E008955A
:1010300020914A0225FFDECF89E290E008952091B9
:101040004A0225FFD7CF85E390E0089520914A0218
:1010500026FFD0CF8AE290E0089520914A0226FF31
:10106000C9CF81E390E0089589E390E0089583EE8D
:1010700090E0089582EE90E0089586EE90E0089565
:1010800090914A0292FF06C0282F28712830F9F467
:10109000877F846093FF06C0282F28712831F1F4E0
:1010A000877E846120914B0220FF06C0382F387163
:1010B0003830D9F4877F816021FF06C0282F28713E
:1010C0002831D1F4877E816194FD877E0895282F91
:1010D00024712430F9F68B7F8860DCCF282F2471AF
:1010E000243101F78B7E8861DDCF382F31713130AB
:1010F00019F78E7F8860E0CF282F2171213121F7E9
:101100008E7E8861E1CF08950C94830808950C9435
:101110008608E82FF0E0EE0FFF1FE15CFE4F8081B4
:10112000918108950895CF93DF93A7E2B1E04CE257
:1011300051E0C1E0D0E08D91E82FE295EF70F0E052
:1011400061A18F709E0101C0220F8A95EAF7922F4C
:101150009095962391A382A1822B82A34A175B07C5
:1011600051F7A7E1B1E061E070E08D91E82FE295E1
:10117000EF70F0E041A18F709B0101C0220F8A95B2
:10118000EAF7922F9095942391A382A1822B82A3B8
:1011900081E0A732B80749F710924A01109249013D
:1011A0001092400110923F0110924C0110924B019D
:1011B000109242011092410110924E0110924D0185
:1011C00010924401109243011092500110924F016D
:1011D0001092460110924501109252011092510155
:1011E000109248011092470185E00E949309DF9117
:1011F000CF910C942D035F926F927F928F929F926A
:10120000AF92BF92CF92DF92EF92FF920F931F9314
:10121000CF93DF93A9E4B1E007E211E0512CEE2473
:10122000E394F12C8D909C9011971D921D92E801F2
:1012300089918E01E82FE295EF70F0E091A18F7017
:10124000B70101C0660F8A95EAF7892F862B81A323
:1012500082A1662E6094862182A3D0EADA95F1F706
:1012600087E1C82E81E0D82E30E020E0AD01425069
:101270005109E60179906E01872D82958F7090E07B
:10128000EC0188A1EA01A880B98090E0D72DDF7039
:1012900002C095958795DA95E2F780FD41C0C701B8
:1012A000022E02C0880F991F0A94E2F78A299B290F
:1012B000EA01998388832F5F3F4F20313105C9F6BA
:1012C00081A1D62DD823D1A382A1682B62A381E06E
:1012D000FA01208131812815390509F480E0582A66
:1012E000F1E0A335BF0709F09DCF252D45E06FE361
:1012F00071E089E491E00E9494090E943503852DF4
:10130000DF91CF911F910F91FF90EF90DF90CF90E1
:10131000BF90AF909F908F907F906F905F90089557
:1013200090E080E0C3CF0895FF920F931F93CF9377
:10133000DF93F82E092F162FD72FC42F222349F021
:1013400081E0809355010E94451C90935401809345
:101350005301809155018823A1F080915301909110
:1013600054010E94511C069760F0EF2DF02FA12F21
:10137000BD2F90E080E0D0E08C179D0744F01092E4
:101380005501DF91CF911F910F91FF900895219109
:1013900031912D933D930196EFCFAF92BF92CF92B3
:1013A000DF92FF920F931F93CF93DF93362F472F38
:1013B000E82FF0E0E850FD4F71110DC06491762FD9
:1013C000862FDF91CF911F910F91FF90DF90CF90EB
:1013D000BF90AF900895C72FD0E02491F22E022F36
:1013E00010E056E0659FC0011124EFEFF0E0BF016F
:1013F0000E94F725832F90E0880F991F35E5369FCF
:10140000D001379FB00D11248A1B9B0B982F990F89
:10141000980F6F01CC1ADD0AC09ED001C19EB00D9D
:10142000D09EB00D11248B2F949FA0011124452F25
:1014300055276F01C41AD50AC09EA001C19E500D48
:10144000D09E500D11245F01A91AB108AC9E600115
:10145000AD9ED00CBC9ED00C1124CD2CDD24EC19FB
:10146000FD09E09FE001E19FD00DF09FD00D112418
:10147000ED2F62307105A1F048F46115710569F036
:101480006130710589F0EB2F852F07C0643071053D
:1014900071F088F066307105B1F76E2F722F91CF21
:1014A000E22F2B2F8D2FF9CFE22F252FF6CFEB2F09
:1014B000822F2D2FF2CF2B2F8F2DE52FEECF0895DA
:1014C000CF93DF93762FE901682F842F0E94CD09F7
:1014D000798368838A83DF91CF91089580910F0289
:1014E000982F9E7F29F48170826080930F02089567
:1014F0008232E8F381708062F8CF88E090E00C944B
:101500003A26CF92DF92EF92FF926B017C010E940C
:101510006E0AB701A60188E090E0FF90EF90DF909F
:10152000CF900C945826EFE0F2E083E080831182A4
:101530008FEF8283838314826081718182819381A2
:101540000C94810A80910F0280FF02C08695089555
:1015500080E0089580911302833018F48F5F8093A8
:10156000130260910F02709110028091110290910C
:1015700012020C94810A80911302882319F0815081
:101580008093130260910F027091100280911102FA
:10159000909112020C94810A6091020170E0809196
:1015A0000F0280FF0AC08091580123E0829FC00192
:1015B00011248C5E9D4F0C94460E809157019091A2
:1015C000010123E0829FF0011124EC5EFD4F891799
:1015D00050F71182108212828F5F3396F8CF90916C
:1015E0000F0290FF14C0909157012091010133E048
:1015F000939FF0011124EC5EFD4F921710F00C94B4
:10160000CC0A8183608342839F5F3396F6CF08952F
:10161000CF93DF9300D00F92CDB7DEB790910F023A
:1016200090FF0AC09E012F5F3F4F0E94600A4B81CE
:1016300069818A810E94EF0A0F900F900F90DF91CD
:10164000CF910895CF93DF93EC01EC81F0E0E85067
:10165000FE4F4491EFE0F2E0628181810E94080B2D
:101660008C818F5F8C83DF91CF910895CF93DF932F
:10167000EC01EFE0F2E0438162818C810E94080B73
:101680008C818F5F8C83DF91CF910895EF92FF92D1
:101690000F931F93CF93DF9300D00F92CDB7DEB798
:1016A000082FF62E142FE22E80910F0280FF28C003
:1016B000E82FE695F0E0E45DFE4F908190936001A5
:1016C0008E7F823039F59E012F5F3F4F802F0E9421
:1016D000600A4B8169818A810E94EF0A009310029F
:1016E000F092110210931202EE2051F060910F025D
:1016F0007091100280911102909112020E94810A51
:101700000F900F900F90DF91CF911F910F91FF904D
:10171000EF900895923019F410911202DFCF9630B5
:1017200019F400911002DACF9930C1F6FACFEFE048
:10173000F2E09181282F4381628188E0890F0C9427
:10174000460B81E00C94970BEFE0F2E09181282F9B
:101750004381628188EF890F0C94460B81E00C94E1
:10176000A40BEFE0F2E0628128E0620F08F46FEF73
:10177000282F438181810C94460B81E00C94B10B9E
:10178000EFE0F2E0628128E0621B08F460E0282FBD
:10179000438181810C94460B81E00C94C00BEFE0F7
:1017A000F2E0438128E0420F08F44FEF282F6281D6
:1017B00081810C94460B81E00C94CF0BEFE0F2E0BA
:1017C000438128E0421B08F440E0282F6281818198
:1017D0000C94460B81E00C94DE0B20E00C94460B3D
:1017E0000F931F93CF93DF9300D00F92CDB7DEB747
:1017F0008C018091560181110AC09E012F5F3F4FDD
:101800004FEF6FEF0E94600A8A8180935601F801C2
:101810006481613069F08091560140E0662361F097
:1018200040E0623011F44091560180E060E004C075
:101830006091560140E080E00E94EF0AF801848147
:1018400090E0019663E070E00E940B2684830F9085
:101850000F900F90DF91CF911F910F910895EF920C
:10186000FF921F93CF93DF93EC0110E0EE24EA94F4
:10187000F12C60910001161770F00E94CC0A9A8139
:101880008C8190FF27C08F5F8C83DF91CF911F9158
:10189000FF90EF90089520915701422F410F552757
:1018A000551FCA019A01220F331F280F391F2C5EC2
:1018B0003D4F70E0C7010E940B26962F8C8140910E
:1018C000120260911102199F800D11240E94600A7A
:1018D0001F5FCFCF8150D8CF0F931F93CF93DF934C
:1018E000EC0110E000E0909100019017110609F062
:1018F0006CF40E94CC0A8C8190E00196817099274B
:101900008C83DF91CF911F910F9108952091570102
:10191000A801420F511D9A01220F331F240F351FBA
:101920002C5E3D4F4C816091110280911002969582
:101930009017110651F04CF0442349F040911202E7
:101940000E94600A0F5F1F4FCECF4423B9F340E0DF
:10195000F7CFEFE0F2E080818E7F8083608171813C
:10196000828193810E94810A109261012FEF80E7AA
:1019700092E0215080409040E1F700C000000C94BC
:10198000CC0AEFE0F2E080818E7F808310926101CB
:101990002FEF80E792E0215080409040E1F700C0B7
:1019A00000000C94CC0A60910F02669570E041E053
:1019B00050E083E091E00E942526892B19F481E014
:1019C000809361010E94451C90935A0180935901B4
:1019D000089590910F0290FF35C09170811128C039
:1019E000926090930F02662351F060910F02709104
:1019F000100280911102909112020E94810A60915E
:101A00000F02669570E041E050E083E091E00E94B3
:101A10002526892BA1F01092610181E080935C0161
:101A20004091120260911102809110020C94ED0B12
:101A3000813110F09062D5CF880F982BD2CF0E94C1
:101A4000D30CEBCF0895682F90910F02969581E00B
:101A5000890F813108F081E00C94E90C81E00C944D
:101A6000230D682F90910F0296958FEF890F09F43F
:101A700080E10C94E90C81E00C94310D61E00C9450
:101A8000E90CEFE0F2E080818160808386950C9420
:101A90003E0D80910F0280FD0C94A90C0C94410D19
:101AA00060E00C94E90C80915F01811133C080915A
:101AB000F60181608093F6010E94BE1A811104C074
:101AC0000E945B1B0E94930A0E947D0A60930F0292
:101AD0007093100280931102909312026E7F61F452
:101AE0000E94930A0E947D0A60930F027093100275
:101AF00080931102909312020E946E0A109261016B
:101B000080910F0280FF03C086950E94500D81E0F6
:101B100080935F010895EFE0F2E08081816080832F
:101B200086950C94500D1092610108950F931F93A8
:101B3000CF93DF9380916101882309F46FC0809176
:101B40006001E0910F02E695E81BE0935B018230B3
:101B5000C9F5F0E0EC50FE4FE491CE2FD0E002E268
:101B60001BE080915C01882389F010925C010E9447
:101B7000451C9E0120953095820F931F90935A012A
:101B80008093590110925E0110925D01809159017C
:101B900090915A010E94511C8C179D0708F43EC079
:101BA000E0915901F0915A01CE0FDF1FD0935A01F5
:101BB000C093590189E591E0F801DF91CF911F9120
:101BC0000F910994863049F4F0E0EF50FE4FE49114
:101BD000CE2FD0E006E31BE0C4CF893051F4E69568
:101BE000F0E0E251FE4FE491CE2FD0E00FE21CE096
:101BF000B8CF8F3039F4ECEEF1E0C591D49100EF1D
:101C00001BE0AFCFC4EFD1E00CE61CE0803109F45B
:101C1000A8CFC0EDD7E00FE51AE0A3CFDF91CF91B9
:101C20001F910F9108953BB1242F209523233BB1A1
:101C3000432B3FB7F894680F791F8617970711F465
:101C40003FBF0895FC015191CF01E8E04BB900007E
:101C500000C057FF2BB9550F000000C000C000C0E6
:101C60002BB900C0EA9591F7E8CF2AB1242B2AB905
:101C70009B01220F331F620F731F0E94130E87EC0C
:101C800090E00197F1F700C00000089541E00C9446
:101C9000350E0F931F93CF93DF93C62FD42F022FB0
:101CA000FC0182818823C9F0609364010E94451C75
:101CB000909363018093620180E28C0F883008F07A
:101CC00050C0C77081E001C0880FCA95EAF7DF9164
:101CD000CF911F910F910C94CD11109164011613A7
:101CE00035C080916201909163010E94511C883C33
:101CF000910560F5C0E2CD0F1D17B9F080E2810FAC
:101D0000883040F4177081E001C0880F1A95EAF717
:101D10000E94D411C83048F481E09D2F977001C013
:101D2000880F9A95EAF70E94CD11802F0E94BA1170
:101D3000C830B8F4D77081E001C0880FDA95EAF7AF
:101D4000DF91CF911F910F910C94D41180E28C0FF1
:101D5000883038F4C77081E001C0880FCA95EAF76F
:101D6000EFCFDF91CF911F910F9108959C01CB018F
:101D7000233F4CE5340731F190F4283DFCE53F0763
:101D8000E9F0293D4CE5340769F1273D3C4579F4FC
:101D900026E241EE61EE0E94490E80E00895253F63
:101DA000FCE53F07B9F090F0263F3C45B9F0FC0157
:101DB00082818823D1F010926401089527E245EED4
:101DC00065EEE9CF26E241EE60EEE5CF27E245EE93
:101DD00064EEE1CF26E241EE62EEDDCF27E245EE92
:101DE00066EED9CF28E241E0EBCF81E008959093F1
:101DF0006A01809369010895E0916901F0916A0197
:101E0000309721F00190F081E02D099480E0089551
:101E1000E0916901F0916A01309721F00280F3812D
:101E2000E02D09940895E0916901F0916A013097DD
:101E300039F022E0DC012C930480F581E02D099437
:101E4000089520916701309168012817390771F0D2
:101E50009093680180936701E0916901F0916A01B4
:101E6000309721F00680F781E02D099408952091A4
:101E70006501309166012817390771F0909366016A
:101E800080936501E0916901F0916A01309721F03A
:101E90000084F185E02D0994089585B7806885BF99
:101EA00085B7806885BF0895089508950C94540FF0
:101EB00008950C94580F0E944D0F0E94550F0C94DA
:101EC000560F81E008950E943C1C0E9493080E94D6
:101ED000C31C0E94530D0C94590F5F926F927F9216
:101EE0008F929F92AF92BF92CF92DF92EF92FF922A
:101EF0000F931F93CF93DF93CDB7DEB72A970FB61B
:101F0000F894DEBF0FBECDBF0E94FB080E94610F98
:101F1000882309F47AC09CE6A92E91E0B92E10E03E
:101F200000E088248394912C502E802F0E948908F1
:101F30007C01F501C190D1905F01C816D90609F462
:101F40005EC08091F60181FD0E94920890E080E0E1
:101F5000CE24DF243401082E02C0660C771C0A94BC
:101F6000E2F7960126213721232B09F443C08E8303
:101F70005F82E620F72081E0EF2809F480E088877F
:101F80000E94451C8160782F9A8789874E815F81E6
:101F900068858A850E942C10000F111FF801E459F2
:101FA000FE4F8081918168267926718260820E942D
:101FB000501E0E94FC0E90916B018917B9F10E948E
:101FC000FC0E80936B012A960FB6F894DEBF0FBE0D
:101FD000CDBFDF91CF911F910F91FF90EF90DF90D8
:101FE000CF90BF90AF909F908F907F906F905F90B9
:101FF0000C943A0301968031910509F0ABCF0F5F45
:102000001F4F0530110509F08FCF8FEF89838A8329
:102010001B820E94451C8160782F9D838C8349819F
:102020005A816B818D810E942C10C1CF2A960FB6E8
:10203000F894DEBF0FBECDBFDF91CF911F910F91FE
:10204000FF90EF90DF90CF90BF90AF909F908F90D8
:102050007F906F905F900895CF93DF93CDB7DEB7F9
:102060002B970FB6F894DEBF0FBECDBF4F835887B6
:1020700069877A878B871E821D8285E0FE013796ED
:10208000DE01119601900D928A95E1F749815A81FE
:102090006B817C818D819E812B960FB6F894DEBF7B
:1020A0000FBECDBFDF91CF910C940717FC0180814B
:1020B00091810C94BC19882309F405C18238B9F4C4
:1020C0000E94FC0E81FDFFC089E30E94EA190E9474
:1020D0005B1A2FEF81EE94E0215080409040E1F7B1
:1020E00000C0000089E30E94F1190C945B1A833848
:1020F000A1F40E94FC0E80FDE6C083E50E94EA196F
:102100000E945B1A2FEF81EE94E0215080409040B6
:10211000E1F700C0000083E5E6CF8438A1F40E9417
:10212000FC0E82FDD0C087E40E94EA190E945B1A6F
:102130002FEF81EE94E0215080409040E1F700C005
:10214000000087E4D0CF9CEF980F913A18F40E94DA
:10215000EA19CBCF90E2980F983050F4877091E055
:1021600001C0990F8A95EAF7892F0E94121ABDCFF4
:102170009BE5980F933070F4853A31F0863A39F048
:1021800083E890E00C94210F81E890E0FBCF82E897
:1021900090E0F8CF98E5980F973108F08EC0883A14
:1021A00009F446C0893A09F446C08A3A09F446C09F
:1021B0008B3A09F446C08C3A09F446C08B3B09F4CB
:1021C00046C08C3B09F446C08D3A09F446C0803BBA
:1021D00009F446C08E3A09F446C08F3A09F446C065
:1021E000813B09F446C0823B09F446C0833B09F4B5
:1021F00046C0843B09F446C0853B09F446C0863B93
:1022000009F446C0873B09F446C0883B09F446C040
:10221000893B09F446C08D3B09F446C08E3B09F466
:1022200046C08A3B09F446C090E080E00C94370F2A
:1022300082EE90E0FBCF89EE90E0F8CF8AEE90E05E
:10224000F5CF85EB90E0F2CF86EB90E0EFCF83EB1C
:1022500090E0ECCF84EB90E0E9CF87EB90E0E6CF25
:102260008CEC90E0E3CF8DEC90E0E0CF83E891E060
:10227000DDCF8AE891E0DACF82E991E0D7CF84E937
:1022800091E0D4CF81E292E0D1CF83E292E0CECF51
:1022900084E292E0CBCF85E292E0C8CF86E292E082
:1022A000C5CF87E292E0C2CF8FE690E0BFCF80E754
:1022B00090E0BCCF8AE292E0B9CF803F20F00E944C
:1022C0005E1D0C94451E0895882309F452C082387F
:1022D00071F40E94FC0E81FF4CC089E30E94EA1950
:1022E0000E945B1A89E30E94F1190C945B1A8338EF
:1022F00059F40E94FC0E80FF3CC083E50E94EA195D
:102300000E945B1A83E5EFCF843859F40E94FC0EDB
:1023100082FF2FC087E40E94EA190E945B1A87E4BB
:10232000E2CF9CEF980F913AF0F290E2980F98303C
:1023300050F4877091E001C0990F8A95EAF7892FD0
:102340000E94181AD2CF9BE5980F933020F490E0AA
:1023500080E00C94210F98E5980F973120F490E0DD
:1023600080E00C94370F803F20F00E94C61D0C9433
:10237000451E0895CF93C82F0E945B10C93349F4BE
:102380002FEF87EE93E0215080409040E1F700C0AE
:1023900000008C2FCF910C946411882321F00E94AF
:1023A000121A0C945B1A0895882321F00E94181ABF
:1023B0000C945B1A0895BF92CF92DF92EF92FF9236
:1023C0000F931F93CF93DF936C01D62FC72FFC0180
:1023D000058102950F70128111110E942F1A0E941F
:1023E000081AE82E882371F01123B1F080E28D0FD6
:1023F000883090F082E00E94A61A0E94081A91E0AC
:10240000E82EE926BC2EB2949FE0B922EB2DF0E035
:10241000E458F94D0C941F26E12CF4CF0C2F0F70CB
:10242000C07F11F00295007F1123A9F0002359F01D
:1024300080E28D0F883010F0D11109C0802F0E94EA
:10244000121A0E945B1A8D2F0E945B1014C0802FFD
:102450000E94221AF6CF8D2F0E946411002359F09A
:1024600080E28D0F883010F0D1112CC0802F0E9497
:10247000181A0E945B1A2B2D2850330B243031057B
:1024800020F40E94FC0E0E943A03EE2009F4D5C10C
:102490000E94041A80FDD1C1F60112820E94FE1929
:1024A0000E948B18C6010E9427140E94FE19DF911A
:1024B000CF911F910F91FF90EF90DF90CF90BF9041
:1024C0000C94AC18802F0E94281AD3CFFC2FFF70D9
:1024D000FF2EC07FC03219F0F29480EFF822DD2386
:1024E00069F0D13049F1112391F1002351F1F60146
:1024F000858180FFA8CF8F70858323C0112381F051
:10250000011106C00E94421A8F290E94CD11B3CF3B
:102510000130C1F70E94421A8F290E94481AABCF9E
:10252000011106C00E94511A8F2D0E94D411A3CF11
:10253000013009F4A0CFF6CF112329F0063008F0BE
:102540009ACF8F2DE2CF053008F095CFEDCF002345
:1025500059F3D93349F4FFEF27EE33E0F15020402F
:102560003040E1F700C000008D2F0E94641183CF3E
:102570008C2F86958695837069F0813009F07BCF2A
:102580008D2F9C2F9370111102C090E080E00E946B
:10259000370F71CF8D2F9C2F9370111102C090E0D7
:1025A00080E00E94210F67CF112309F1D53F99F0F8
:1025B000D63FB9F0D43F49F480914402909145024E
:1025C000816090934502809344028D2F0E945E1D8E
:1025D0000E94451E50CF8091440290914502826036
:1025E000F0CF80914402909145028460EACFD53FBC
:1025F00089F0D63FA9F0D43F49F4809144029091EC
:1026000045028E7F90934502809344028D2F0E9455
:10261000C61DDECF80914402909145028D7FF2CF9E
:1026200080914402909145028B7FECCF8C2F837078
:1026300009F041C011111FCF4D2F429546954770AB
:10264000440F440F0D2F0F7010E030E020E0042EF7
:1026500004C0000F111F221F331F0A94D2F760E03D
:1026600070E0CB01D4FF0FC06FE070E080E090E03D
:1026700004C0660F771F881F991F4A95D2F760958F
:10268000709580959095C695C695C370602B712BFB
:10269000822B932BC23049F058F4C13019F00E94BC
:1026A0003D18E9CE0E942B18E6CE0E944F18E3CECB
:1026B0000E942918E0CE8695112311F08C2F81708D
:1026C000882309F4D8CE4D2F429546954770440F84
:1026D000440F0D2F0F7010E030E020E0042E04C0F6
:1026E000000F111F221F331F0A94D2F760E070E021
:1026F000CB01D4FF0FC06FE070E080E090E004C039
:10270000660F771F881F991F4A95D2F760957095BD
:1027100080959095C695C695C370602B712B822BC2
:10272000932BC23049F058F4C13019F00E940219BD
:10273000A2CE0E94F0189FCE0E9414199CCE0E9437
:10274000651899CECF70112329F08C2F0E948B1819
:102750008D2FDBCE8D2F0E94D4118C2F0E94AC18B0
:102760008ACED23F89F160F4D03FC9F0D13F29F140
:10277000112309F442C0011166CE8C2F8F7121C044
:10278000D33F39F1D43FA1F7112369F1CF718C2FD9
:102790000E948B1863E08C2F0E94911A6CCE11233B
:1027A00041F0053008F067CE8C2F8F710E94CF1852
:1027B00062CE063008F05FCEF7CF8C2F8F711123D9
:1027C00069F20E948B1857CE8C2F8F711123C9F399
:1027D000C5CF112329F08C2F8F710E9476184BCE14
:1027E0000E94711848CE81E00E94A61A023008F4B7
:1027F00042CE82E00E94A61A3ECE002359F0D93381
:1028000009F0B2CE8FEF97EEE3E081509040E040C8
:10281000E1F7A8CE8C2F8F71A1CF4C2F4F706D2F69
:10282000C6010E94D1050E94A11725CE4C2F4F70E2
:102830006D2FC6010E94D4051ECEDF91CF911F914E
:102840000F91FF90EF90DF90CF90BF9008950F937E
:102850001F93CF93DF93EC018B819C81892B29F00F
:102860008881998189238F3F29F4DF91CF911F912E
:102870000F910895CE010E944C038823B1F3688123
:1028800079818A810E94C6198C010E9426190E94B2
:102890002818B801CE01DF91CF911F910F910C94B0
:1028A000DB110E942F1A0E943F1A0E945B1A0E949D
:1028B000E71E0E94451E90E080E00E94210F90E0FC
:1028C00080E00C94370F0E94F8190C9451140E9468
:1028D0001F1A0C946314E92FE295EF70E250EE306A
:1028E00070F4F0E0E457F94D0C941F26803F19F086
:1028F00020F4883E20F481E00895843FE1F380E0F5
:102900000895883EC0F3813FD1F7F5CF93FB882728
:1029100080F908950E94BC190C946B14CF93DF9337
:1029200000D000D00F92CDB7DEB70F900F900F9070
:102930000F900F90DF91CF910895CF93DF9300D048
:1029400000D000D0CDB7DEB726960FB6F894DEBF24
:102950000FBECDBFDF91CF9108951F93CF93DF932B
:10296000C091770116E0809178018C1304C0DF914B
:10297000CF911F910895D0E01C9FF0011D9FF00D95
:102980001124E758FE4F4081518162817381848117
:1029900095810E949D142196C770E5CF4091A901B1
:1029A0005091AA016091AB017091AC018091AD0191
:1029B0009091AE010C949D141F93CF93DF9380915F
:1029C000AE01807FC1F48091AB018823A1F080919A
:1029D0007701C09178016091A9017091AA0140919D
:1029E000AC015091AD01D62FD723DA01A095B09557
:1029F00016E0C81304C0DF91CF911F91089590E0B5
:102A00004115510511F0DF3F31F401968770F1CF88
:102A10002A0F3B1F17C0189FF001199FF00D1124BA
:102A2000E758FE4F21812713F0CF20812613EDCFE9
:102A300022812111EACF238134812417350740F305
:102A4000241B350B283C310500F72091AE012F7077
:102A500020612093AE0126E0289FF001299FF00D10
:102A60001124E258FE4F80818F708061808389EA53
:102A700091E00E942714DF91CF911F910C94AD1427
:102A8000BF92CF92DF92EF92FF920F931F93CF935B
:102A9000DF93CDB7DEB761970FB6F894DEBF0FBEF8
:102AA000CDBF8C0185E0F801DE011D9601900D92ED
:102AB0008A95E1F7D8014C9111965C911197129685
:102AC000EC9012978091AC019091AD01009709F4C0
:102AD0007FC12091A9013091AA01622F63236F3F2A
:102AE00009F476C11396CD90DC90B090AB01BB2079
:102AF00009F411C1C816D906D0F1F601E81BF90B8B
:102B0000CF01FF24F394883C910508F0F12C8091CB
:102B1000AE01982F907FFF2009F4B8C091117FC0BB
:102B2000FE2C351329C0241327C0E11025C08F7057
:102B300080618093AE010E94CE1489EA91E00E94E8
:102B400027148091AE01D80115968C938F2D619634
:102B50000FB6F894DEBF0FBECDBFDF91CF911F91AE
:102B60000F91FF90EF90DF90CF90BF9008958095E8
:102B700090958C0D9D1DC5CFCD2829F0852F8423E0
:102B80008F3F09F041C180E0B82FB170DB2E80FF8C
:102B90003CC0809177012091780136E0821315C006
:102BA0004D875E878D859E850E94BC19292F2295B1
:102BB0002F702230F0F0243018F59F70F1F0F801FA
:102BC0009581907FD1F4D12C1EC090E0389FF00108
:102BD000399FF00D1124E758FE4F6181651306C03F
:102BE0006081641303C06281E6120FC00196877092
:102BF000D5CF9F7011F0882331F3805E883018F3B1
:102C0000C8010E942714FD2CA1CFEE2009F49ECF0D
:102C10008091AE0181608093AE01F12C97CF351386
:102C200006C0241304C0D801EE2009F49AC04D87D1
:102C30005E878D859E850E948A14882319F1EE2077
:102C400009F18091AE01803270F02091A90130919C
:102C5000AA0138872F831986DB86CA868C87CE0126
:102C600007960E94271486E0F801A9EAB1E00190D6
:102C70000D928A95E1F70E94DC140E94CE14FF2485
:102C8000F39464CFC8010E942714F9CF911113C0A7
:102C90007C2DD98AC88A6E2D89890E948E1489EA72
:102CA00091E00E94271486E0E9EAF1E0DF011D923D
:102CB0008A95E9F763C0351312C0241310C0E110E0
:102CC0000EC0F8018583C8010E942714E9EAF1E0EB
:102CD00086E0DF011D928A95E9F7FB2C37CF4D87FF
:102CE0005E878D859E850E948A14882359F2EE2086
:102CF00049F28091AE01803208F4B5CF2091A9014C
:102D00003091AA013A8329831B82DD82CC828E8393
:102D1000CE010196A6CFC816D90698F1F601E81B98
:102D2000F90BCF01F12C883C910508F049C0FE2C2D
:102D3000EE2009F4A7CF351332C0241330C08091A0
:102D4000AE0180FD23C0982F907F01F1D801159628
:102D50008C931597903F39F0982F907F905F8F70EC
:102D6000892B15968C93C8010E94271486E0F801E0
:102D7000A9EAB1E001900D928A95E1F70E94CE1484
:102D8000E5CE809590958C0D9D1DCCCF86E0F80109
:102D9000A9EAB1E001900D928A95E1F7D7CE4D876F
:102DA0005E878D859E850E948A1481115CCF8091FB
:102DB000AE0181608093AE01C8010E942714C6CE87
:102DC0007C2DD98AC88A6E2D89890E948E146BCF7A
:102DD000EE2009F457CF4D875E878D859E850E9432
:102DE0008A14F82E882309F44DCF86E0F801A9EA69
:102DF000B1E001900D928A95E1F789EA91E00E9495
:102E000056100E94DC14BACF81E08E25BDCE1F93F0
:102E1000CF93DF93CDB7DEB72C970FB6F894DEBF14
:102E20000FBECDBF4F83588769877A878B879C8772
:102E3000CE0107960E944015882369F08A859B85FC
:102E4000892B39F04F815885842F85238F3F09F0D6
:102E500071C016E05FC086E0FE013796DE01119674
:102E600001900D928A95E1F78A859B85892B89F3DC
:102E700088859F8189238F3F61F32091780130E01D
:102E8000C901019687709927409177014817190663
:102E900071F40E946714109278011092770186E015
:102EA000E9EAF1E0DF011D928A95E9F7D2CF96E0D9
:102EB000929FD001939FB00D1124A758BE4FFE01E1
:102EC000319601900D929A95E1F7809378010E94D6
:102ED000AD14BFCF819FC001112487589E4F0E941F
:102EE00040158823E9F0E09177011E9FF00111243D
:102EF000E758FE4F408151816281738184819581C1
:102F00000E949D148091770190E001968770992727
:102F10008093770180917701909178018913DACFBE
:102F20002C960FB6F894DEBF0FBECDBFDF91CF91C8
:102F30001F91089569857A858B859C850E949D14D3
:102F400088CFEF92FF920F931F93CF93DF938C0163
:102F5000892B81F0F12CEE24E394E8012196F8010D
:102F60008491843770F4843008F05FC08130B1F010
:102F70008230A1F1DF91CF911F910F91FF90EF90DF
:102F80000895853709F44CC008F43DC09CE7980FBC
:102F9000903780F78F770E94641149C00E5F1F4FF2
:102FA000FE01849190E2980F983060F48770FE2DB6
:102FB00001C0FF0F8A95EAF78F2F0E94321A0E94F4
:102FC0005B1A02C00E945B108F2D815030F2EFE936
:102FD000FFE03197F1F700C00000F7CF0E5F1F4F01
:102FE000FE01849190E2980F983050F48770FE2D86
:102FF00001C0FF0F8A95EAF78F2F0E94381ADFCFA2
:103000000E946411E1CF0E5F1F4FFE01C491C150B9
:10301000D8F28FE99FE00197F1F700C00000F7CFE9
:103020000E5F1F4FFE01F490CFCF0E945B108E0108
:10303000CBCF08950C9419180E941A186093E501DB
:103040007093E6018093E7019093E8010C9451148A
:1030500008950C941C180F931F930091E501109193
:10306000E6012091E7013091E801602B712B822B62
:10307000932B1F910F910C941C180F931F93009189
:10308000E5011091E6012091E7013091E80160230C
:103090007123822393231F910F910C941C180F937B
:1030A0001F930091E5011091E6012091E701309115
:1030B000E80160277127822793271F910F910C94B5
:1030C0001C180C9419180C9461180E9463186093D2
:1030D000E1017093E2018093E3019093E4010C9489
:1030E000511460E070E0CB010C9465180F931F93AE
:1030F00041E050E060E070E08A019B0104C0000FF5
:10310000111F221F331F8A95D2F7C901B8011F91E1
:103110000F910C9465180F931F9341E050E060E00D
:1031200070E004C0440F551F661F771F8A95D2F7C1
:103130008091E1019091E201A091E301B091E4015D
:103140008A019B01082B192B2A2B3B2BC901B801A3
:103150001F910F910C9465180F931F9341E050E05D
:1031600060E070E004C0440F551F661F771F8A950A
:10317000D2F7CB01BA01609570958095909500913A
:10318000E1011091E2012091E3013091E40160231B
:103190007123822393231F910F910C9465180F9331
:1031A0001F9341E050E060E070E004C0440F551F01
:1031B000661F771F8A95D2F78091E1019091E20115
:1031C000A091E301B091E4018A019B01082719272E
:1031D0002A273B27C901B8011F910F910C9465184C
:1031E0000F931F930091E1011091E2012091E301FF
:1031F0003091E401602B712B822B932B1F910F9147
:103200000C9465180F931F930091E1011091E20156
:103210002091E3013091E401602371238223932301
:103220001F910F910C9465180F931F930091E1016A
:103230001091E2012091E3013091E40160277127B0
:10324000822793271F910F910C94651808959295EA
:10325000907F890F982F977041E001C0440F9A9595
:10326000EAF786958695869595E0899FF001112469
:10327000E155FE4F30E020E070E05191DF01119701
:10328000CB01022E02C0969587950A94E2F78170D1
:1032900081958527842385278C932F5F3F4F253089
:1032A000310559F708959295907F890F982F97705F
:1032B00086958695869525E0829FF0011124E1553B
:1032C000FE4F50E040E080E0219130E0092E02C046
:1032D000369527950A94E2F721703327042E01C012
:1032E000220F0A94EAF7822B4F5F5F4F453051055A
:1032F00059F70895BF92CF92DF92EF92FF920F930A
:103300001F93CF93DF938C01C090E101D090E20135
:10331000E090E301F090E4018091E5019091E601F5
:10332000A091E701B091E801C82AD92AEA2AFB2A2C
:10333000CFE1D0E0BC2ED701C6010C2E04C0B6955B
:10334000A795979587950A94D2F780FD0EC021978F
:1033500088F7B12C8B2DDF91CF911F910F91FF90AA
:10336000EF90DF90CF90BF900895B8018C2F0E940E
:10337000F205019761F3EECFCF93DF93EC010E944A
:103380007A19BE01DF91CF910C94F2051F93CF9370
:10339000DF93EB0190917601992331F0CB01DF911E
:1033A000CF911F910C94BC19882379F0CB010E9416
:1033B0007A19182F682FCE010E942719BE01812F7C
:1033C000DF91CF911F910C94F205CB010E9453190C
:1033D000182FF4CF682F80910401909105010C946F
:1033E0009B1B682F80910401909105010C949D1BFB
:1033F00080910401909105010C949F1B8091E9013B
:1034000085958595859508958091E9018770089542
:103410009091E901977081E009F480E0089580912E
:10342000F50108959091F501892B8093F501089598
:1034300080959091F50198239093F501089510924D
:10344000F50108959091F401892B8093F40108957A
:1034500080959091F40198239093F401089510922F
:10346000F40108959091F301892B8093F30108955D
:1034700080959091F30198239093F3010895109211
:10348000F30108958091EA01089508950C94451A76
:103490009091EA01981721F08093EA010C94461A62
:1034A00008958091EA01882329F01092EA0180E0D2
:1034B0000C94461A0895E0910401F0910501809161
:1034C000F5018083E0910401F091050180819091E4
:1034D000F401892B8083E0910401F0910501808142
:1034E0009091F301892B80839091EA01992381F0D7
:1034F000E0910401F09105018081892B8083809106
:103500000401909105010E94621B81110E94511AD1
:1035100080910401909105010C94080F08950C947A
:103520008E1A98E0899F90011124622B6093E90123
:103530000E948B188091E9018595859585950C945D
:103540008F1A1092E90180E00C948F1A9091E90192
:10355000809589238093E901282F277071F4282F03
:10356000082E000C330B9217130639F085958595BC
:1035700085950E94AC180C94A11A089590E080E003
:103580000E94402621E08C3E9E4F09F020E0822FD1
:10359000089582E090E00C94322683E090E00C9451
:1035A0003226CF9384E090E00E943226C82F81E239
:1035B00090E00E943226982F8C2FCF910895CF93C0
:1035C000C92F682F84E090E00E9446266C2F81E28C
:1035D00090E0CF910C944626AB01BC018FE090E0C7
:1035E0000C945826AB01BC0183E190E00C94582662
:1035F00060E070E0CB010C94F21A60E070E0CB0167
:103600000E94EC1A0C94F81A6CEE7EEF90E080E0C9
:103610000E94642660E082E090E00E94462660E01E
:1036200083E090E00E9446261092E5011092E601A8
:103630001092E7011092E80160E084E090E00E94BF
:10364000462660E081E290E00E94462660E085E048
:1036500090E00E94462660E086E090E00E944626C8
:103660006FEF87E090E00E94462640E050E0BA010C
:1036700088E090E00E94582660E08DE090E00E9493
:10368000462640E050E0BA0188E190E00E945826CA
:1036900060E087E190E00E94462640E050E0BA01F9
:1036A0008CE190E00E94582660E080E290E00E9469
:1036B00046260C94FD1A0C94041B682F8EE090E0B3
:1036C0000C9446269C012E5F3F4FAC01485F5F4F34
:1036D00080E02417350709F40895F90191919F01BD
:1036E0009923B9F38F5FF5CF9C01FC0132969FEFD0
:1036F00080E04191461751F09F3F19F4411101C0FC
:10370000982F8F5F8630A9F79F3F09F40895290FFE
:10371000311D97FD3A95F90162830895FC013296B7
:1037200008962191261303C0DF0111971C92E81718
:10373000F907B9F708950C94741B0C948E1B02962C
:1037400026E0FC0111922A95E9F70895089508955D
:103750000C94A71B0E94A81B80915002843009F48E
:1037600039C01092F70188E190E020E40FB6F89498
:10377000A895809360000FBE2093600080E00E94B7
:103780003A030E94930D8091F80181110AC081E0F3
:103790008093F80180910F0281708093F9010E945B
:1037A000C10C0E94A81B83B7817F846083BF83B74D
:1037B000816083BF7894889583B78E7F83BF0FB66F
:1037C000F894A895809160008861809360001092C1
:1037D00060000FBE08950895CF930E94A61B0E941B
:1037E000FB080E94EB1BC0E08C2F0E948908892BEC
:1037F00031F4CF5FC530C1F780E0CF91089581E00B
:10380000FCCF08950C94011C0E9467140E94FC0ECA
:103810000E943A031092F8018091F90181110E94EF
:103820008B0D0E94D30C0C94021C1F921FB61F928A
:1038300011248F939F93AF93BF938091F7018111D0
:1038400013C08091460290914702A0914802B09126
:1038500049024196A11DB11D8093460290934702F3
:10386000A0934802B0934902BF91AF919F918F916D
:103870001F901FBE1F90189582E084BD93E095BDF8
:103880009AEF97BD80936E0008952FB7F8948091BA
:10389000460290914702A0914802B09149022FBF81
:1038A0000895CF92DF92EF92FF920F931F932FB75D
:1038B000F8944091460250914702609148027091FD
:1038C00049022FBF6A017B01EE24FF248C0130E006
:1038D00020E0C016D106E206F30650F0481B590B53
:1038E000CA011F910F91FF90EF90DF90CF90089544
:1038F00041505109F3CF78941F921FB61F921124A3
:103900008F939F93AF93BF9380914602909147020C
:10391000A0914802B09149020196A11DB11D80936A
:10392000460290934702A0934802B0934902BF9188
:10393000AF919F918F911F901FBE1F90189581E0AE
:103940008093E00080E28093D8001092C9008FE15C
:103950009EE40197F1F700C0000087E090EBDC01E6
:103960008093590290935A02A0935B02B0935C0239
:1039700088E19CE00FB6F894A895809360000FBE94
:1039800090936000FFCF0E94BE1A811102C00E9476
:103990005B1B0E94C91A8093F6010E94D11A909372
:1039A0004B0280934A020E94CD1A682F70E090E08B
:1039B00080E00C9429188091FD0180FF12C0609175
:1039C000090185E0689FB00111247595679575958B
:1039D000679560387105A8F561157105A1F1862F0D
:1039E000089581FF09C06091090185E0689FB001D9
:1039F000112475956795EDCF6091090182FD0AC08C
:103A00008091FC018823D1F0909108016091090117
:103A1000891728F085E0689FB0011124DACF869FCE
:103A2000B001112485E0869F9001879F300D1124FD
:103A3000692F70E0C9010E940B26CBCF65E070E0D2
:103A4000CECF8FE7089581E008958091FD0180FF3A
:103A50000CC06091070170E0759567957595679545
:103A60006115710549F1862F089581FF06C06091A7
:103A7000070170E075956795F3CF6091070182FDAE
:103A80000BC09091FC019923A1F0609106018091F7
:103A90000701961738F0682F70E06038710500F361
:103AA0008FE70895899FC001112470E00E940B26C2
:103AB000F4CF61E070E0D7CF81E00895803F31F42A
:103AC0000E94DB1C8195809301020895813F19F4C7
:103AD0000E94DB1CF8CF823F31F40E94DB1C8195F1
:103AE000809300020895833F19F40E94DB1CF8CFF5
:103AF000893F29F40E94251D8093020208958A3F80
:103B000021F40E94251D8195F7CF8B3F31F40E944F
:103B1000251D81958093030208958C3F19F40E941E
:103B2000251DF8CF843F31F48091FF01816080939F
:103B3000FF010895853F21F48091FF018260F7CF56
:103B4000863F21F48091FF018460F1CF873F21F40B
:103B50008091FF018860EBCF883F21F48091FF01C5
:103B60008061E5CF8D3F31F48091FD0181608093CC
:103B7000FD0108958E3F21F48091FD018260F7CF11
:103B80008F3FB9F78091FD018460F1CF90910002E1
:103B9000803F41F48091010287FD10920102992338
:103BA00071F00895813F29F4809101021816ACF359
:103BB000F6CF823F81F497FFF2CF109200028091FE
:103BC000010290910202892B90910302892B49F7FF
:103BD0001092FC010895833F19F4191674F3DFCF96
:103BE000893F39F4809102021816CCF61092020235
:103BF000D6CF8A3F29F48091020287FFD0CFF6CF3B
:103C00008B3F39F48091030287FFC9CF10920302E2
:103C1000C6CF8C3F29F4809103021816BCF3BFCFA6
:103C2000843F31F48091FF018E7F8093FF01B7CFF5
:103C3000853F21F48091FF018D7FF7CF863F21F4EE
:103C40008091FF018B7FF1CF873F21F48091FF01AD
:103C5000877FEBCF883F21F48091FF018F7EE5CFF6
:103C60008D3F31F48091FD018E7F8093FD0197CFD0
:103C70008E3F21F48091FD018D7FF7CF8F3F09F0BA
:103C80008ECF8091FD018B7FF0CF8EEF91E00E946F
:103C9000130F0E94451C9093FB018093FA01089535
:103CA0001F93CF93DF938091FA019091FB010E94C3
:103CB000511CAC019091FC0120910A0130E091115E
:103CC00006C020910B018AE0289F90011124421721
:103CD000530778F020910002C0910102D0910202B6
:103CE00010910302211109C08C2F8D2B812B09F01B
:103CF0006AC0DF91CF911F9108959F3F19F09F5F98
:103D00009093FC01121624F40E94DB1C80930002A5
:103D10008091000287FF05C00E94DB1C8195809383
:103D200000021C1624F40E94DB1C80930102809187
:103D3000010287FF05C00E94DB1C81958093010270
:103D4000309100023323A1F020910102222381F05F
:103D500045EB3403C0011124992369F190930002CB
:103D600045EB240390011124332349F130930102E0
:103D70001D1624F40E94251D8093020280910202E8
:103D800087FF05C00E94251D8195809302021116B0
:103D900024F40E94251D809303028091030287FF73
:103DA00005C00E94251D819580930302DF91CF916C
:103DB0001F910C94451E81E080930002D1CF81E0D9
:103DC00080930102D5CF9F3F09F099CFAACF86E01B
:103DD000EEEFF1E0DF011D928A95E9F71092FC0108
:103DE0001092FD01089580910C0208950F931F9386
:103DF000CF93DF9300D00F92CDB7DEB78C010E9436
:103E00004921823011F0843021F584E089831B83BD
:103E10000A8382E08093E9008FEF9091E80081505F
:103E200095FD06C095ED9A95F1F700008111F5CF4B
:103E30008091E80085FF0DC050E040E063E070E055
:103E4000CE0101960E9466218091E8008E778093D2
:103E5000E8000F900F900F90DF91CF911F910F917D
:103E60000895CF93DF9300D00F92CDB7DEB72091A6
:103E70005002243031F523E02983805891099B8337
:103E80008A8382E08093E9008FEF9091E80081506F
:103E900095FD06C095ED9A95F1F700008111F5CFDB
:103EA0008091E80085FF0DC050E040E063E070E0E5
:103EB000CE0101960E9466218091E8008E77809362
:103EC000E8000F900F900F90DF91CF910895CF935E
:103ED000DF93EC010E944921823011F08430F9F423
:103EE00082E08093E9008FEF9091E800815095FD8A
:103EF00006C095ED9A95F1F700008111F5CF8091FC
:103F0000E80085FF0CC050E040E066E070E0CE01C4
:103F10000E9466218091E8008E778093E800DF910F
:103F2000CF910895CF93DF93EC010E944921823015
:103F300011F0843039F581E08093E9008FEF9091A2
:103F4000E800815095FD06C095ED9A95F1F70000C7
:103F50008111F5CF8091E80085FF14C050E040E06A
:103F600068E070E0CE010E9466218091E8008E77C3
:103F70008093E80088E0FE01A4E0B2E001900D9299
:103F80008A95E1F7DF91CF91089580914F028111D9
:103F900009C00E94F6220E9453238091E2008460AF
:103FA0008093E200089510924F02089508950895B5
:103FB0000C94041C42E061EC81E00E94722242E217
:103FC00061EC82E00C94722280915202833009F4F9
:103FD0005FC030F48130C1F1823009F49BC0089594
:103FE0008A3009F487C08B3009F46DC0893009F03C
:103FF0004EC080915102813209F049C08091550232
:1040000090915602029708F042C08091E800877FA5
:104010008093E8008091E80082FF35C09091F30022
:104020008091F200029729F48091F1008B7F81301A
:1040300021F48091F10080930C028091E8008B774D
:104040008093E8000C94A62280915102813AF9F401
:104050008091E800877F8093E800809155029091DD
:104060005602892B61F468E084E092E070E00E94DF
:10407000B5218091E8008B778093E800089560E097
:1040800090E080E0F3CF809150028111C3CF08957A
:1040900080915102813AD9F7809155029091560250
:1040A000892BA9F78091E800877F8093E8008091B1
:1040B000E80080FFFCCF809116018093F100809191
:1040C000E8008E77BDCF80915102813201F7809157
:1040D000550290915602892BD1F68091E800877F96
:1040E0008093E8000E94A6228091530280931601DB
:1040F0000C94671480915102813249F68091E80056
:10410000877F8093E8000E94A622809154028093CA
:104110000D02089580915102813A09F0B8CF809143
:10412000E800877F8093E8008091E80080FFFCCF63
:1041300080910D02C2CF84B7877F84BF0FB6F894F9
:10414000A895809160008861809360001092600063
:104150000FBE80E880936100109261000E945B0FA7
:104160000E94F6220E9453238091E2008460809393
:10417000E20078940E94DC250E94630F8CE091E0BD
:104180000E94F70E80915002853029F00E946D0F39
:104190000E94960DF7CF0E94AA1B80914E028823A1
:1041A00089F30E94EC1B882369F30E945021EACF17
:1041B0000C94DA20292F33272330310519F168F4C4
:1041C0002130310509F44AC02230310509F44BC0D1
:1041D00090E080E030E020E028C02132310579F124
:1041E00022323105A9F780E490E02AE035E061153C
:1041F0007105D9F085E890E025E834E0613071057B
:10420000A1F0E6CF99278130910599F0009741F010
:104210008230910589F00397D9F6E8EFF3E002C008
:10422000E4E3F4E0849190E09F01FA01318320837C
:104230000895EAE0F4E0F6CFEEEFF3E0F3CF89E0A3
:1042400090E02AE434E06115710579F389E090E0AB
:1042500023E634E06130710541F3BACF82E190E0AA
:1042600023E734E0E2CF8BE390E028E334E0DDCFD6
:104270000895CF93C82F0E943821C0930E02CF918A
:10428000089580915002843011F482E0089581E015
:10429000089580910E02811102C00C94412108956D
:1042A00080E189BD82E189BD09B400FEFDCF809126
:1042B000D8008F7D8093D8008091E0008260809349
:1042C000E0008091E00081FDFCCF0895AF92BF92A5
:1042D000CF92DF92FF920F931F93CF93DF936C01E6
:1042E000EB018A010E94C522F82E811123C001151D
:1042F000110539F0F80180819181C81BD90BC80ED6
:10430000D91EB12CA12C2097A9F08091E80085FD41
:1043100022C08091E8008E778093E8000115110596
:10432000A1F0F80180819181A80EB91EB182A0820E
:1043300085E0F82E8F2DDF91CF911F910F91FF9087
:10434000DF90CF90BF90AF9008950E94C522882340
:10435000D1F2F82EEFCFF60181916F018093F10039
:104360002197FFEFAF1ABF0ACECFFC018091570211
:104370009091580286179707A0F06115710529F4EE
:104380009091E8009E779093E80090E061157105A8
:1043900051F4911108C08091E80082FF34C080E0A0
:1043A0000895BC01F2CF809150028823C1F185307D
:1043B000C1F18091E80083FD30C08091E80082FD6A
:1043C000EACF8091E80080FFE1CF8091F300209157
:1043D000F200382F6115710519F02830310558F0B9
:1043E00091E02830310509F090E02091E8002E7727
:1043F0002093E800CBCF81918093F1006150710947
:104400002F5F3F4FE7CF80915002882341F08530E6
:1044100041F08091E80083FFBECF81E0089582E003
:10442000089583E00895FC0180915702909158020D
:1044300086179707A0F06115710529F48091E800AF
:104440008E778093E80090E06115710551F4911129
:1044500008C08091E80082FF35C080E00895BC016B
:10446000F2CF809150028823C9F18530C9F1809143
:10447000E80083FD31C08091E80082FDEACF8091A1
:10448000E80080FFE1CF8091F3002091F200382F07
:104490006115710519F02830310558F091E0283088
:1044A000310509F090E08091E8008E778093E80074
:1044B000CBCF84918093F1003196615071092F5FC9
:1044C0003F4FE6CF80915002882341F0853041F084
:1044D0008091E80083FFBDCF81E0089582E00895D8
:1044E00083E00895982F973028F08F708093E9002B
:1044F00081E008959093E900242F762F50E09817DB
:1045000031F07091EC002091ED005091F00021FD10
:1045100002C09F5FE8CF3091EB003E7F3093EB000D
:104520003091ED003D7F3093ED003091EB00316034
:104530003093EB007093EC002093ED005093F0006B
:104540002091EE0027FDE5CF80E008958091510293
:1045500087FF13C08091E80082FF06C08091E800C9
:104560008B778093E80004C0809150028111F2CFD4
:104570000895809150028823D9F38091E80080FF4C
:10458000F8CF8091E8008E77ECCF2091E400309155
:10459000E50095E6A9012091EC00822F817020FFB3
:1045A00006C08091E80080FF06C080E00895209159
:1045B000E80022FD1AC080915002882389F08530DE
:1045C00089F08091EB0085FD0FC02091E4003091CF
:1045D000E50042175307F9F29150E1F684E008959F
:1045E00082E0089583E0089581E008950E946423A5
:1045F0000E946C23E0EEF0E0808181608083E8ED32
:10460000F0E080818F77808319BCA7EDB0E08C91BA
:104610008E7F8C9380818F7E808310924F020895CD
:104620000F931F93CF93DF930E9464230E946C2308
:10463000C8EDD0E088818F778883888180688883FF
:1046400088818F7D888319BC1092500210924C0291
:1046500010924E0210924D0200EE10E0F80180819F
:104660008B7F808388818160888342E060E080E086
:104670000E947222E1EEF0E080818E7F8083E2EE84
:10468000F0E0808181608083808188608083F80190
:1046900080818E7F8083888180618883DF91CF9144
:1046A0001F910F910895E8EDF0E080818F7E808367
:1046B000E7EDF0E080818160808384E082BF81E06B
:1046C00080934F020C941023E8EDF0E080818E7F00
:1046D00080831092E20008951092DA001092E100B7
:1046E00008951F920F920FB60F9211242F933F93AC
:1046F0004F935F936F937F938F939F93AF93BF93EA
:10470000EF93FF938091E10082FF0BC08091E20064
:1047100082FF07C08091E1008B7F8093E1000E94BF
:10472000DB258091DA0080FF19C08091D80080FFDE
:1047300015C08091DA008E7F8093DA008091D900D5
:1047400080FF96C080E189BD82E189BD09B400FE89
:10475000FDCF81E0809350020E94C51F8091E1004F
:1047600080FF19C08091E20080FF15C08091E200B7
:104770008E7F8093E2008091E20080618093E2006E
:104780008091D80080628093D80019BC85E0809326
:1047900050020E94D71F8091E10084FF2BC08091BE
:1047A000E20084FF27C080E189BD82E189BD89B52F
:1047B000982F917080FFFBCF8091D8008F7D8093E0
:1047C000D8008091E1008F7E8093E1008091E2002B
:1047D0008F7E8093E2008091E20081608093E2000E
:1047E00080914C02882309F449C084E080935002F0
:1047F0000E94D81F8091E10083FF29C08091E200D0
:1048000083FF25C08091E100877F8093E10082E0F3
:104810008093500210924C028091E1008E7F809331
:10482000E1008091E2008E7F8093E2008091E200BF
:1048300080618093E20042E060E080E00E947222AA
:104840008091F00088608093F0000E94D61FFF9155
:10485000EF91BF91AF919F918F917F916F915F91F8
:104860004F913F912F910F900FBE0F901F90189571
:1048700019BC109250020E94D31F70CF8091E300A8
:1048800087FD93E090935002B3CF1F920F920FB623
:104890000F9211242F933F934F935F936F937F93C6
:1048A0008F939F93AF93BF93CF93DF93EF93FF9338
:1048B000D091E900DF708091EC00C82FC17080FDBD
:1048C000C0E81092E9008091F000877F8093F000AB
:1048D00078940E9489241092E9008091F000886009
:1048E0008093F000CD2BCF70C093E900FF91EF9142
:1048F000DF91CF91BF91AF919F918F917F916F91F8
:104900005F914F913F912F910F900FBE0F901F908D
:1049100018951F93CF93DF93CDB7DEB7AA970FB645
:10492000F894DEBF0FBECDBF81E592E02091F1008B
:10493000FC012193CF01F2E089359F07B9F70E946E
:10494000E41F8091E80083FF1EC180915102909185
:1049500052029A3008F017C1E92FF0E0E656F94DFF
:104960000C941F26803899F0823809F00CC1809190
:1049700055028F70873008F006C18093E90080915E
:10498000EB0085FB882780F91092E90006C0809132
:104990004D0290914E02911182609091E800977FB4
:1049A0009093E8008093F1001092F1008091E8006C
:1049B0008E77E5C0882309F4D3C0823009F0E3C0C4
:1049C000809153028111D6C0809155028F702FEFD4
:1049D000280F263008F0D7C08093E9002091EB0023
:1049E00020FFC8C0933031F48091EB008062809347
:1049F000EB00C0C09091EB0090619093EB0021E040
:104A000030E001C0220F8A95EAF72093EA00109265
:104A1000EA008091EB008860EACF8111B4C0109168
:104A200053021F778091E3008078812B8093E3000D
:104A30008091E800877F8093E8000E94A622809101
:104A4000E80080FFFCCF8091E30080688093E30062
:104A500082E0111183E08093500295C0805882302B
:104A600008F091C080915302909154028C3D23E054
:104A70009207A1F583E08A838AE289834FB7F8948D
:104A8000DE01139620E03EE051E2E32FF0E0509388
:104A90005700E49120FF03C0E295EF703F5FEF7095
:104AA0008E2F90E0EA30C0F0C7968D939D932F5FD4
:104AB000243159F74FBF8091E800877F8093E80049
:104AC0006AE270E0CE0101960E94B5218091E80073
:104AD0008B778093E80057C0C096E7CF609155026E
:104AE00070915602AE014F5F5F4F0E94D820BC010B
:104AF000892B09F448C09091E800977F9093E800D3
:104B000089819A810E941322E1CF8038E1F580915A
:104B1000E800877F8093E80080914C028093F10049
:104B200045CF811130C090915302923060F5809151
:104B3000E800877F8093E80090934C020E94A622B1
:104B400080914C02882311F084E005C08091E3003D
:104B500087FDFACF81E0809350020E94DA1F13C0D4
:104B600080915302813079F481E0933009F080E044
:104B700080934E021092E9008091E800877F809335
:104B8000E8000E94A6228091E80083FF0AC080917D
:104B9000E800877F8093E8008091EB00806280933B
:104BA000EB00AA960FB6F894DEBF0FBECDBFDF9123
:104BB000CF911F9108950895CF938091500288233B
:104BC000A1F0C091E900CF709091EC00892F817025
:104BD00090FD80E8C82B1092E9008091E80083FDE9
:104BE0000E948924CF70C093E900CF910895AA1B39
:104BF000BB1B51E107C0AA1FBB1FA617B70710F0C8
:104C0000A61BB70B881F991F5A95A9F780959095F9
:104C1000BC01CD01089597FB072E16F4009407D030
:104C200077FD09D00E94F72507FC05D03EF490954A
:104C300081959F4F0895709561957F4F0895EE0F70
:104C4000FF1F0590F491E02D0994FC014150504064
:104C500030F001900616D1F73197CF0108958827DB
:104C600099270895F999FECF92BD81BDF89A9927A9
:104C700080B50895A6E1B0E044E050E00C946C26C5
:104C8000A8E1B0E042E050E00C946C26262FF999A0
:104C9000FECF92BD81BDF89A019700B4021639F09B
:104CA0001FBA20BD0FB6F894FA9AF99A0FBE08956C
:104CB0000396272F0E9447260E944626252F0E94F2
:104CC0004726242F0C9447260196272F0E9447261B
:104CD0000C944626DC01CB01FC01F999FECF06C0FD
:104CE000F2BDE1BDF89A319600B40D9241505040AA
:104CF000B8F70895F894FFCF0E120E1266126612DE
:104D0000B812D4123B123B121613A213B113B113F3
:104D10000D143B123B121614761476147F147F1474
:104D200081147F147F147F147614761486147F14F4
:104D30007F148614B224DA24C325DA24C3250D2572
:084D40002E25C32585259125D0
:104D480010101001EB012808140A321EF31E921FDE
:104D5800671F311FF61E01C6F0F1F4F5F6F7676616
:104D6800363534979693923231309491000102028D
:0E4D780002020606060909090909090F1000C2
:00000001FF
